:020000022000DC
:1030000000000120A5E20200CDE20200CFE20200B2
:10301000D1E20200D3E20200D5E20200000000008B
:10302000000000000000000000000000D7E20200E5
:10303000D9E2020000000000DBE20200DDE2020053
:10304000F1750200DFE20200ED820200DFE2020021
:10305000DFE20200DFE20200B9790200DFE20200F3
:10306000DFE20200DFE20200DFE20200DFE2020054
:10307000DFE20200DFE20200DFE20200DFE2020044
:10308000DFE2020011430200DFE20200DFE20200A1
:10309000B1430200DFE20200A5F20200DFE202001B
:1030A000DFE20200DFE20200DFE20200DFE2020014
:1030B000DFE20200DFE2020000000000000000008A
:1030C000DFE20200DFE20200DFE20200DFE20200F4
:1030D000DFE20200DFE20200DFE2020000000000A7
:1030E00000000000000000000000000000000000E0
:1030F00000000000000000000000000000000000D0
:1031000000000000000000000000000000000000BF
:1031100000000000000000000000000000000000AF
:10312000000000000000000000000000000000009F
:10313000000000000000000000000000000000008F
:10314000000000000000000000000000000000007F
:10315000000000000000000000000000000000006F
:10316000000000000000000000000000000000005F
:10317000000000000000000000000000000000004F
:10318000000000000000000000000000000000003F
:10319000000000000000000000000000000000002F
:1031A000000000000000000000000000000000001F
:1031B000000000000000000000000000000000000F
:1031C00000000000000000000000000000000000FF
:1031D00000000000000000000000000000000000EF
:1031E00000000000000000000000000000000000DF
:1031F00000000000000000000000000000000000CF
:1032000010B5054C237833B9044B13B10448AFF320
:1032100000800123237010BD882B002000000000D7
:1032200000060300084B10B51BB108490848AFF36E
:1032300000800848036803B910BD074B002BFBD082
:10324000BDE81040184700BF000000008C2B002094
:1032500000060300F82A002000000000154B002B98
:1032600008BF134B9D46A3F5803A00218B460F46BD
:103270001348144A121A0CF0FEF90F4B002B00D021
:1032800098470E4B002B00D09847002000210400E7
:103290000D000D48002802D00C48AFF300800CF060
:1032A0008FF92000290006F067F80CF075F900BFCF
:1032B00000000800000001200000000000000000E5
:1032C000882B00204C3B0020000000000000000084
:1032D000F0B595B0002415460F4608461E4603F08B
:1032E000C7FE384623460822089505A91A9D099667
:1032F0000D950A948DF82C400C9403F01DFF9DF859
:103300001430079806998DF8104003F00302012A43
:103310000290ADF80C102CD0022A04D0384603F0ED
:10332000B7FE15B0F0BDBDF81650C3F3C202C3F32B
:103330008003C5F389158DF80E208DF80F3008260F
:10334000082D2C4628BF0824334622460EA93846AD
:1033500003F0F2FE2D1B214608AB02AA0EA826445C
:1033600000F010FE002DEBD1384603F091FE15B0B1
:10337000F0BDBDF814500598C5F38315C3F3C20E14
:10338000AA000EA9C3F38004C0F39526082338468B
:103390008DF80EE08DF80F4003F0CEFE08AB0093E1
:1033A0002A4630460EA902AB00F054FDB6E700BF36
:1033B000014B01221A707047A42B0020704700BFF8
:1033C00030B5114D114889B004F05EFE0FCD6C464A
:1033D0000FC495E80F00062584E80F004FF0FF3377
:1033E0004FF0EB7400226946084800950193029360
:1033F0000393069404F05AFD08B100F045FF044B16
:1034000000221A7009B030BDCCF90200582A002001
:10341000A52B002000B583B0044B0093044A402341
:10342000FFF756FF03B05DF804FB00BF3534020020
:10343000A82B002010B5094C09480023D2B22370F4
:1034400004F0A8FE30B9074B1B7813B12378002B8A
:10345000FCD010BD00F018FFF5E700BFA42B002042
:10346000582A0020A52B002030B5104D0FCD89B073
:103470006C460FC495E80F00062584E80F004FF056
:10348000FF334FF0EB740A4A0A48009569460193EE
:1034900002930393069404F009FD08B100F0F4FED2
:1034A000054B01221A7009B030BD00BFCCF90200F3
:1034B000B1330200582A0020A52B002010B5054C7E
:1034C000FFF7D2FF2046042100F084FC0123637241
:1034D00010BD00BF602A002008B5104B1048002224
:1034E000FF21C3F8182499601A605A60C3F81424A5
:1034F00083F81C2403F074FD70B90A4B0A4A9A1A27
:10350000D20807D0094903460B5201339A4200F111
:103510000C00F9D1002008BD08BD00BFE82B002039
:10352000FCF90200B406030064060300FC2A002034
:1035300021B9124A02EBC0000068704730B410494C
:103540000E4D491BC9080ED00E4B5A88824218BF37
:10355000002205D10FE0DC89844203F10C0305D081
:1035600001329142F7D1002030BC704705EBC20018
:10357000006830BC70472846FAE700BF64060300C5
:10358000B4060300FC2A0020064B032903EBC0000D
:1035900005D0042901D14079704700207047007997
:1035A000704700BF640603002DE9F04F844C626849
:1035B00023689A4285B03CD00023C4F81834BFF386
:1035C0004F8F6068A56800EA0503023304EB8302AD
:1035D000111D127912F0030F024610D10B88498891
:1035E000C3F3891303EB911301331A4405EA020371
:1035F000023304EB8306311D3679B607EED004EBB7
:103600008303511C5E680196294004EB810306F098
:103610000306DB680293022E02F10208684F0CD009
:10362000012E75D02368181A18BF012005B0BDE817
:10363000F08F002005B0BDE8F08FBDF8063061487E
:10364000C3F38919B9F1500FCA46A8BF4FF0500A09
:103650006AF38F130AF10801ADF8063003F0C2FCDB
:103660000646002800F0948025EA080B0BF1010BB8
:1036700003F0FEFC4FEA8B0B0023082201A9304621
:1036800003F02CFDDA4540F28D80BBF1000F00F015
:10369000818005EA080107EB8101CBEB0A050C31BB
:1036A00008235A463046EDB203F018FD2A460BF1C6
:1036B000080307F10C01304603F010FD09F1030780
:1036C00008EB9707D4F818343D4D002B5BD1D5F8A3
:1036D00010544DB16B7A3146284613B12B681B68E4
:1036E00098476D68002DF5D1304603F0D1FC04A851
:1036F000002300F80D3D01F0E7FAD4F81834304A01
:1037000003B957609DF8030001F006FB606889E784
:10371000BDF804302B48C3F38312062A28BF0622C3
:10372000911C62F389138900ADF8043003F05AFC50
:10373000064668B303F09CFC0023082201A930462A
:1037400003F0CCFCBDF8043013F4707F35D04FF09B
:10375000000A4FF0080908EA050104EB81014B4615
:103760000C310422304603F0B9FCBDF804300AF1F4
:10377000010AC3F3831308F10107534509F1040952
:10378000B846E8D89EE7304603F082FC686849E70F
:10379000786847E7524607F10C010823304603F0EA
:1037A0009DFC8BE705EA080107EB81010C315246CD
:1037B0000823304603F092FC80E7474682E700BFCB
:1037C000E82B0020FCF902002DE9F04F89B008AB8E
:1037D0000026564C03F80D6D02901846A36803911D
:1037E000019301F071FAA5686168D4F800806B1844
:1037F0000133C8EB0303032B5ED805F10109B6467C
:10380000C8EB090904F5836C04F214470126A246AB
:103810005CE8003F43EA06024CE8002090F0000F0D
:10382000F6D157E8003F43EA060247E8002090F04F
:10383000000FF6D101EA0503023304EB8302101DE9
:10384000127912F0030F0A4613D103884088C3F39C
:10385000891303EB901301331A4405EA0203023380
:1038600004EB830B0BF104009BF804B01BF0030F77
:10387000EBD004EB830302325B68059303F0030390
:10388000012B4CD0022B06D1BDF81630C3F389139F
:10389000033302EB930257E8003F03EA0E0047E8C8
:1038A000000B9BF0000FF6D113B1CAF804201146AB
:1038B00009EB0103032BABD908F102039DF81300B8
:1038C000236001F029FA019E029D06EA08030233F3
:1038D00004EB830301211A7961F30102C5F300119E
:1038E00061F3820265F3C5021A719A886FF3891237
:1038F0009A805968039808F1010260F39F2159608A
:10390000324004EB820394F81C24290CD9601AB1CC
:10391000FFF74AFE0028FBD109B0BDE8F08FBDF8E3
:103920001430C3F383131A44B5E700BFE82B00201B
:103930002DE9F04F89B008AB002603F80D6D5A4C05
:103940000291074618460392D4F8089001F0BCF99A
:10395000A5686168D4F800806B180133C8EB0303D5
:10396000042B60D805F1010AB446C8EB0A0A04F238
:10397000144E012601974D4F57E8003F43EA0602D7
:1039800047E8002090F0000FF6D15EE8003F43EAE0
:1039900006024EE8002090F0000FF6D101EA050380
:1039A000023304EB8302101D127912F0030F0A4652
:1039B00015D1019F03884088C3F3891303EB90134B
:1039C00001331A4405EA0203023304EB830B0BF1C3
:1039D00004009BF804B01BF0030FEBD0019704EB3D
:1039E000830302325B68059303F00303012B55D078
:1039F000022B06D1BDF81630C3F38913033302EB53
:103A000093025EE8003F03EA0C004EE8000B9BF0D7
:103A1000000FF6D113B1244B11465A600AEB010393
:103A2000042BA8D9019F9DF8130008F1030323601C
:103A300001F072F909EA0803023304EB8303012160
:103A40001A79C7F3001061F3010260F3820267F391
:103A5000C5021A719A8861F389129A80596802988E
:103A600008F1010260F39F21596008F1020802EA9F
:103A7000090304EB830308EA090904EB89093F0CF5
:103A800094F81C24DF60039BC9F80C301AB1FFF7CF
:103A90008BFD0028FBD109B0BDE8F08FBDF81430D4
:103AA000C3F383131A44ACE7E82B00200030002056
:103AB0002DE9F04F8BB00AAD00265F4C05F80D6D77
:103AC000029005932846A36803910193049201F0A4
:103AD000FBF8A5686168D4F800806B180133C8EB67
:103AE0000303052B5ED805F10109B646C8EB0909A9
:103AF00004F5836C04F214470126A2465CE8003FFB
:103B000043EA06024CE8002090F0000FF6D157E897
:103B1000003F43EA060247E8002090F0000FF6D18C
:103B200005EA0103023304EB8302101D127912F03F
:103B3000030F0A4613D103884088C3F3891303EBAC
:103B4000901301331A4405EA0203023304EB830B9A
:103B50000BF104009BF804B01BF0030FEBD004EB57
:103B6000830302325B68079303F00303012B5CD0ED
:103B7000022B06D1BDF81E30C3F38913033302EBC9
:103B8000930257E8003F03EA0E0047E8000B9BF062
:103B9000000FF6D113B1CAF80420114609EB010356
:103BA000052BABD908F104039DF81B00236001F03D
:103BB000B3F8019D029E05EA0803023304EB830378
:103BC00001211A7961F30102C6F3001161F3820247
:103BD00066F3C5021A719A88022161F389129A80EC
:103BE0005868039A08F1010162F39F20294008F107
:103BF000020208F10308586004EB810108EA05039A
:103C00002A4004EB820294F81C0404EB8304330C76
:103C1000CB60049BD360059BE36018B1FFF7C4FC45
:103C20000028FBD10BB0BDE8F08FBDF81C30C3F30A
:103C300083131A44A5E700BFE82B00202DE9F04FBD
:103C40008BB00AAD0026624C05F80D6DA768029096
:103C50002846039105930197049201F035F8A56871
:103C60006168D4F800806B180133C8EB0303062B9E
:103C70005ED805F10109B646C8EB090904F5836C65
:103C800004F214470126A2465CE8003F43EA06021C
:103C90004CE8002090F0000FF6D157E8003F43EACF
:103CA000060247E8002090F0000FF6D105EA010374
:103CB000023304EB8302101D127912F0030F0A463F
:103CC00013D103884088C3F3891303EB90130133A6
:103CD0001A4405EA0203023304EB830B0BF10400E0
:103CE0009BF804B01BF0030FEBD004EB830302320C
:103CF0005B68079303F00303012B63D0022B06D10B
:103D0000BDF81E30C3F38913033302EB930257E867
:103D1000003F03EA0E0047E8000B9BF0000FF6D1CE
:103D200013B1CAF80420114609EB0103062BABD9E5
:103D300008F105039DF81B00236000F0EDFF019ED4
:103D4000029F06EA0803023304EB830301211A7978
:103D500061F30102C7F3001161F3820267F3C50248
:103D60001A719A88032161F389129A805D68039A17
:103D700008F1010062F39F2508F1020108F1030236
:103D8000304008F104085D6004EB800008EA060397
:103D90003140324004EB810104EB820294F81C5460
:103DA00004EB83043B0CC360049BCB60059BD36096
:103DB000149BE3601DB1FFF7F7FB0028FBD10BB0AC
:103DC000BDE8F08FBDF81C30C3F383131A449EE79F
:103DD000E82B002030B4144DD5F81044002154B124
:103DE000237A8B4214D0234602E01A7A8A420FD0FB
:103DF0005B68002BF9D10172D5F810340A4A7BB107
:103E00005B684360D2F810345860084630BC704795
:103E100001310A29E3D14FF0FF31084630BC704729
:103E2000C2F810044360F0E7E82B002038B5084BD7
:103E3000D3F81044012583F81C543CB12368657203
:103E400020465B6898476468002CF7D138BD00BFF6
:103E5000E82B00202DE9F04784B01D460C9C002380
:103E600094F80C802373EB7981460E4617460BB30A
:103E7000062F0FD8DFE807F0363B414804515E00BB
:103E8000F168B06896E80C00019100904946204620
:103E900002F0BAFAEB792BB92B7AEBB93349204609
:103EA00002F0B2FA204602F0A3FA84F80C8004B0C3
:103EB000BDE8F0872B7A002B4BD1AA792C4BA88830
:103EC00053F822A00021FFF733FB5246034629494D
:103ED000204602F099FACBE7274A2849204602F00B
:103EE00093FADBE74946204602F08EFAD2E73268C1
:103EF0004946204602F088FACCE7494696E80C008D
:103F0000204602F081FAC5E7B16896E80C00204629
:103F10000091494602F078FABCE7B068F768316969
:103F200096E80C0002918DE881004946204602F097
:103F30006BFAAFE77069316996E80C000390B068DE
:103F4000F76802918DE881004946204602F05CFA4C
:103F5000A0E7A979A888FFF717FB094B074953F891
:103F60002020204602F050FAA7E700BF60FA0200C6
:103F700010FA02004CFA020058FA020048FA020055
:103F800024FA0200082951D82DE9F0471D460023E4
:103F900095F80C902B73D379904607460E46002B6C
:103FA00045D0002405E03A5D013402F02DFA082CDA
:103FB0000AD0A64230492846F5D83049284601346F
:103FC00002F022FA082CF4D12D49DFF8D8A02846B7
:103FD00002F01AFA00240DE03A5DDAF800301344DA
:103FE00001345B7813F0970F08BF2E2202F00CFA11
:103FF000082C0AD0A64223492846EDD82249284653
:10400000013402F001FA082CF4D198F8073013B902
:1040100098F80830F3B91D49284602F0F5F928460A
:1040200002F0E6F985F80C90BDE8F0877047137A46
:10403000B3B998F80620164BB8F8040053F822409C
:104040000021FFF775FA224603461249284602F07E
:10405000DBF9A6E7104A1149284602F0D5F9DAE75C
:1040600091799088FFF790FA0D4B0C4953F8202076
:10407000284602F0C9F9DCE764FA02006CFA020093
:1040800070FA020074FA020054FA020060FA0200A8
:1040900010FA02004CFA020058FA020048FA020034
:1040A00024FA02008C2A00202DE9F84F244B1A78BC
:1040B0008AB3DFF890B0DFF89090DFF890A000248A
:1040C000012703E00134E4B2944224D226B2D9F8A5
:1040D0000050DBF8003015F8360007FA00FE1EEA43
:1040E000030F05EBC608EDD0164A23EA0E03136052
:1040F00003F058FC15F83650DAF8003007FA05F6E8
:10410000334000FA05F6B34207D00D4B01341A785C
:10411000E4B29442DAD3BDE8F88FD8F80430002B2B
:10412000F3D098F80110A1F10101B1FA81F1490928
:10413000091AB1FA81F1490928469847E5E700BF15
:10414000E030002008310020DC3000200431002065
:1041500070B50646114800F07BFD40B9104D0124B2
:104160002B68B4401C4203D023EA04042C6070BDC9
:10417000304603F017FC0B4A136860B123432E68E6
:104180000949136034432C60044809680022BDE8E3
:10419000704000F007BD23EA0403F0E7E43000209C
:1041A0000831002004310020D8300020042A01D832
:1041B000072070472DE9F04182B088460546174632
:1041C00003F0BCFA002834D01C4C1D481D491E4A7F
:1041D0001E4B2560002608F1FF340F6080F8008038
:1041E00016601E60E4B20327B8F1000F03D11AE095
:1041F000DBB2C4B11C4623B205EBC30215F8330091
:104200009378134A8DF8053001A98DF804708DF864
:1042100006608DF8076003F09BFA631E0028E7D064
:1042200002B0BDE8F0810B4A0B48002100F0A8FC69
:10423000F6E703F041FA0028C6D0F1E7DC300020B1
:10424000E0300020D8300020043100200831002068
:1042500051410200A9400200D8FA020070B5084D91
:104260002B785BB1074E00243368012113F834002A
:1042700003F036FB2B780134A342F5D8002070BD43
:10428000E0300020DC30002000B585B00023039032
:10429000194601AA44F20100ADF80430029300F07F
:1042A00003F805B05DF804FB10B5FFF7BFFDFFF79D
:1042B0007BF90028FBD1104C10492088000440F005
:1042C0000100FFF781FA0E4B1B68DB0700D5FFDE0C
:1042D00020880C49000440F00200FFF775FABFF394
:1042E0004F8F0949094BCA6802F4E0621343CB605F
:1042F000BFF34F8F00BFFDE7FC2A0020DCFA02006D
:10430000F0ED00E0E8FA020000ED00E00400FA053C
:10431000F8B5204A204B0025C2F84051C2F844515C
:10432000C2F84851C2F84C51C2F80051C2F80451C9
:104330001B6813B31949D2F804250C68141B1A68BA
:1043400024F07F44A2422F4609D8197CDE69A41AC2
:10435000154499B91EB133461A68A242F5D9104BDB
:1043600010491A780B789A420DD00F490F4A41F83C
:1043700023504FF48013C2F80031F8BD1F745A69FE
:1043800098699047E6E7531CDBB2022B08BF002375
:104390000B70EAE700100140103100200C310020C2
:1043A00014310020153100202432002000E100E00B
:1043B0002DE9F04F884A89491378097899428BB0E2
:1043C00037D00133DBB2022B08BF002384491370BE
:1043D000844A0E68029152F82300834905910B68C4
:1043E00002993218002522F07F420A602C462946A5
:1043F000AE46ABB11A68824200F2E681DD68C3F8CE
:1044000000E0801A1444DA6935B1371927F07F4784
:10441000D9619D605F60194613460125002BE9D1E3
:10442000002D40F0DC820023069301230893069AB6
:1044300008E06D4B05931B68694A029200210693C0
:1044400008911A46694BDFF8AC811B780393029BF5
:104450001F68059B1B68BA461C460F46002309933C
:10446000C3460793994618464FF0010E0193A446A0
:104470003FB37D68BE683946FF695D4BCAEB0504F2
:1044800024F07F449C423CD8A3190B6048608860AC
:1044900081F810E0C861002A68D015689D4249D2B1
:1044A000164603E025689D4234D22646F4695B1B1C
:1044B000002CF7D1CC610B601446F1612246002F2D
:1044C000D7D198F8003098F80110994200F0948004
:1044D000591C03EB43039BF8024008EBC303C9B22A
:1044E0008C421C798BF8001008BF8BF80070022CEE
:1044F00099684ED0032C3FD0012C24D0144622467C
:10450000DDE7C5EB0A0525F07F45B54209D2731BEF
:104510000B60BBE7ED1A2560CC610B601446F161BE
:10452000CCE708604860886081F810E0C861EAB1B3
:1045300015680023EB1A0C4613608C46CA614FF0D5
:1045400001092246BBE70C7C0494002CD6D1DD681F
:104550004D601E698E605C69CC609B698B61039BBA
:10456000002B8AD0049B4B601D4686E70C468C4688
:104570004FF001092246A2E70AB9BFE71A46D369FC
:104580001074002BFAD11C469C464FF001092246BC
:1045900095E752B1914200F00B81134602E0B1421F
:1045A00007D03346DE69002EF9D11446087422463E
:1045B00085E7994200F0FE801446F5693668DD61B2
:1045C00015B12B6833442B60019B0874A24218BFBD
:1045D00001230193EBE700BF1431002015310020C7
:1045E0000C31002024320020103100201631002030
:1045F000FEFF7F00183100205746DDF804A0B9F116
:10460000000F40F04981079B002B40F0E581099B9A
:10461000002B40F0DC81BAF1000F03D1069B9A42D7
:1046200000F03F81002A00F041816C49029BD1F8E3
:1046300004051B686A4C17682578C21A22F07F426D
:104640000332002D51D1674DDFF89CC1DFF89CE1AA
:104650004FF48036C1F84463C1F804634FF4003668
:10466000C5F880612E6001250D60DCF800602F2107
:1046700000BF00BF00BF00BF00BF00BF00BF00BF42
:1046800076452FD000BF00BF00BF00BF00BF00BFF6
:1046900000BF00BF00BF00BF00BF00BF00BF00BF22
:1046A00000BF00BF00BF00BF00BF00BF00BF00BF12
:1046B00000BF00BF00BF00BF00BF00BF00BF00BF02
:1046C00000BF00BF00BF00BF00BF00BF00BF00BFF2
:1046D00000BF00BF00BF00BF00BF00BF00BF00BFE2
:1046E00000BF00BF0139C3D1257097422CBFDA1932
:1046F0009A183A4922F07F43C1F84035D1F8042591
:10470000121A1B1A22F07F4223F07F4303329A428F
:1047100048D9D1F80435344AC1F8403512683349D4
:104720002F2300BF00BF00BF00BF00BF00BF00BFFE
:1047300000BF8A422FD000BF00BF00BF00BF00BF34
:1047400000BF00BF00BF00BF00BF00BF00BF00BF71
:1047500000BF00BF00BF00BF00BF00BF00BF00BF61
:1047600000BF00BF00BF00BF00BF00BF00BF00BF51
:1047700000BF00BF00BF00BF00BF00BF00BF00BF41
:1047800000BF00BF00BF00BF00BF00BF00BF00BF31
:1047900000BF00BF00BF013BC3D1124B4FF400323A
:1047A000C3F80021124A002313700BB0BDE8F08F4C
:1047B00016461346D2F81C90B9F1000F1AD0CC4619
:1047C0004C464FF00109F8E6002D62D1121A1A602A
:1047D000069301230893069A34E600BF00100140B7
:1047E0002C32002000E100E0882A00200024F400A0
:1047F000163100207B4C7C4DC4F808E07B4C4FF018
:104800002F0C246800BF00BF00BF00BF00BF00BF67
:1048100000BF00BFAC422FD000BF00BF00BF00BF31
:1048200000BF00BF00BF00BF00BF00BF00BF00BF90
:1048300000BF00BF00BF00BF00BF00BF00BF00BF80
:1048400000BF00BF00BF00BF00BF00BF00BF00BF70
:1048500000BF00BF00BF00BF00BF00BF00BF00BF60
:1048600000BF00BF00BF00BF00BF00BF00BF00BF50
:1048700000BF00BF00BF00BFBCF1010CC2D10124CA
:1048800025460994CC464C46CA4603950795A94649
:1048900093E6059C236099E7059B1946C1F800C083
:1048A000B1E6089B002B3FF47DAFBBE64D49504B72
:1048B0004E4E4D4C4FF480304FF400370125C3F875
:1048C0008070C1F848032F23C1F808034D60306899
:1048D0001E4600BF00BF00BF00BF00BF00BF00BF3B
:1048E00000BFA0422FD000BF00BF00BF00BF00BF6D
:1048F00000BF00BF00BF00BF00BF00BF00BF00BFC0
:1049000000BF00BF00BF00BF00BF00BF00BF00BFAF
:1049100000BF00BF00BF00BF00BF00BF00BF00BF9F
:1049200000BF00BF00BF00BF00BF00BF00BF00BF8F
:1049300000BF00BF00BF00BF00BF00BF00BF00BF7F
:1049400000BF00BF00BF013EC3D18D6002990A6065
:1049500000BF00BF00BF00BF00BF00BF00BF00BF5F
:10496000A0422FD000BF00BF00BF00BF00BF00BFEC
:1049700000BF00BF00BF00BF00BF00BF00BF00BF3F
:1049800000BF00BF00BF00BF00BF00BF00BF00BF2F
:1049900000BF00BF00BF00BF00BF00BF00BF00BF1F
:1049A00000BF00BF00BF00BF00BF00BF00BF00BF0F
:1049B00000BF00BF00BF00BF00BF00BF00BF00BFFF
:1049C00000BF00BF013BC3D10A4B1A70EAE60A4B95
:1049D0009DF80C1019701EE6029B1F6017E6059AE1
:1049E000136020E5001001400024F400882A002014
:1049F00000E100E02C32002016310020F0B4564BCC
:104A0000564A574E574C4FF480304FF40031012531
:104A1000C2F88010C3F848032F21C3F808035D6073
:104A200030680E4600BF00BF00BF00BF00BF00BF20
:104A300000BF00BFA0422FD000BF00BF00BF00BF1B
:104A400000BF00BF00BF00BF00BF00BF00BF00BF6E
:104A500000BF00BF00BF00BF00BF00BF00BF00BF5E
:104A600000BF00BF00BF00BF00BF00BF00BF00BF4E
:104A700000BF00BF00BF00BF00BF00BF00BF00BF3E
:104A800000BF00BF00BF00BF00BF00BF00BF00BF2E
:104A900000BF00BF00BF00BF013EC3D19D6000BF8B
:104AA00000BF00BF00BF00BF00BF00BF00BFA042EB
:104AB0002FD000BF00BF00BF00BF00BF00BF00BFBE
:104AC00000BF00BF00BF00BF00BF00BF00BF00BFEE
:104AD00000BF00BF00BF00BF00BF00BF00BF00BFDE
:104AE00000BF00BF00BF00BF00BF00BF00BF00BFCE
:104AF00000BF00BF00BF00BF00BF00BF00BF00BFBE
:104B000000BF00BF00BF00BF00BF00BF00BF00BFAD
:104B100000BF0139C3D1144E144D154C1549164F21
:104B200000203070286020704FF48015E0240B26A0
:104B3000087048708E7038701049C2F8805182F841
:104B400014431560C3F8080582F81143D3F80435FF
:104B50000B60F0BC704700BF0010014000E100E0B6
:104B6000882A00200024F4002C320020103100207C
:104B70001431002018310020153100200C310020A4
:104B8000074B9B780BB9082070473AB130B10368E6
:104B9000187C0028F7D159745A6170470720704774
:104BA000183100202DE9F043264CA37883B01BB9BF
:104BB000082003B0BDE8F0830028F9D0042903D809
:104BC000072003B0BDE8F0834369002BF0D0064610
:104BD00002A8737C0025012B00F8015D0CBF8946FB
:104BE000A94690460F4600F06FF86378A0782178C8
:104BF0005A1CD2B2904208BF2A4691421BD003EB06
:104C0000430304EBC30301200F4918719E60D1F8E0
:104C100004159DF80700D9601F61C3F81490C3F80C
:104C20001880627000F078F8084B4FF48012284624
:104C3000C3F80021BDE79DF8070000F06DF80420DF
:104C4000B7E700BF183100200010014000E100E08C
:104C500070B51B4CA37882B013B9082002B070BDA8
:104C60000028FAD04369002BF7D0064602A8002599
:104C700000F8015D357400F027F86278A07821789B
:104C8000531CDBB2984208BF2B46994212D002EB6C
:104C9000420204EBC20202219DF8070096601171E6
:104CA000637000F039F8074B4FF480122846C3F8C0
:104CB0000021D3E79DF8070000F02EF80420CDE78F
:104CC0001831002000E100E0F0B4EFF3108472B678
:104CD0000E4B9A68B2B90E4901259D60D1F88070DB
:104CE0000C4D2E463D401D60C1F88060D1F88450C7
:104CF0005D604FF0FF33C1F88430027004B962B6D2
:104D0000F0BC704701230370F8E700BF403B002070
:104D100000E100E0FC06FFBD094B9A6872B168B97A
:104D200010B4EFF3108272B606491C680C605C6820
:104D30004C60986002B962B65DF8044B704700BFE2
:104D4000403B002000E100E0F0B5364C364F66886D
:104D500065684FEA860E0EEB060107EB810183B012
:104D6000496801F58050002D59D06A88033205EB5F
:104D70008202904208D91368013305D05388033367
:104D800002EB8303984214D20EEB060307EB830376
:104D9000DB68002B3AD0254D2548296802270526D7
:104DA00000230122AF80267003B0BDE8F04001F07F
:104DB0008FBE4FF6FF7C9588654514D0158895B158
:104DC00062605388194D1A48AE882968033300255C
:104DD0009BB200959B0001EB86010325257001F035
:104DE0003FFE03B0F0BD8342CED21A6801321A46AC
:104DF000CAD05D88033503EB85039842DBD20EEB06
:104E0000060307EB8303DB68002BC4D108480425A5
:104E10000122257003B0BDE8F04001F059BE01F158
:104E20000802A6E770320020483200201433002028
:104E3000742B0020F0B543688C464BB1364AD468D9
:104E4000A34205D31269934202D813F0030546D05A
:104E50000023DFF8CCE0ACF8003001274FF6FF75F7
:104E6000DEF80460002106F58052002934D04B881A
:104E7000033301EB8301914209D37B1CACF8007032
:104E80009FB2032F0EF1140EEAD10020F0BD0B6883
:104E90000133F2D04B88033301EB83039A42ECD306
:104EA0008C88AC420BD00C884CB18C6803689C4257
:104EB000DBD11A4B41601B8903810120F0BD9A426E
:104EC000DBD91C6801341946D7D05C88033403EB66
:104ED00084039342D1D8E3E706F10801CBE70F4AF8
:104EE000048912899442B3D104689A689442AFD17C
:104EF0000B484268934203D902F58052934207D38C
:104F000082699342C1D902F580529342BDD20125F4
:104F1000ACF800500120F0BD742B0020703200204E
:104F2000483200202DE9F04FDFF8C0A2A54EDFF88F
:104F300098928DB00446D3463568002D00F0FE806F
:104F40002A78531E052B00F29182DFE803F0404DD2
:104F50004D1C1C03002C40F0C5809AF80C30002B2F
:104F600000F0CB819BF800308BF80C40013B062B06
:104F700000F27C82DFE813F08902BA0165014A0180
:104F80007A0261029C01002C40F0AC802B79012B4D
:104F900000F0E381C0F0CA81022B41F61D5418BF16
:104FA0000F2407AF3846142200210AF064FB41F6B3
:104FB0001D539C4208BF0024326808941378013BBB
:104FC000052B30D8DFE803F064685082772C002C82
:104FD00040F099802B79032B00F2AB80DFE813F0CF
:104FE0000801E000D300B600AF8A002C7CD14FEA64
:104FF000870808EB070309EB8303A87D19895C6820
:10500000714B039304EB8104062800F24183DFE82F
:1050100010F030010202B101C501D701E501FF0125
:1050200005238DF81C30694D05F1100855F8043B37
:10503000384603B198474545F8D10023644965488F
:10504000336001F065F9644B012253E8000FA0EBD7
:10505000020143E8001595F0000FF6D100297FF416
:105060006BAF0DB0BDE8F08F02238DF81C301389B3
:10507000ADF828309388ADF82A30D3680993937D32
:10508000A3F10603B3FA83F35B098DF82C30CAE76A
:1050900000238DF81C30C6E701238DF81C301389DE
:1050A000ADF828309388ADF82A30D36809930023EF
:1050B0008DF82C30B7E704238DF81C30D388ADF879
:1050C00028300023ADF82A300993ACE703238DF88C
:1050D0001C30D388ADF828301389ADF82A30D36856
:1050E0000993A0E701245CE707EB870709EB870733
:1050F000E9883A897B890A44033B03325B1A3A8187
:105100007B8101244DE7354B00225A60012448E79A
:1051100001239800184409EB80030024596809F81A
:105120002040009408232E4A2E4801F099FC0028C4
:1051300097D02A4B00225A600E2432E72449254892
:1051400001F0B6F81F4B05461860F9E6264C244AD4
:105150002168244800272F710823009701F080FC64
:10516000BAF802302568A18803EB830309EB8302B8
:1051700009F8237053682360022355601181A380CE
:105180000028D6D16DE7184A16481168002302247A
:105190002B719480012201F09BFC0028C9D160E7AB
:1051A00099F80030022B00F07182074B1B7D022B17
:1051B000AED00A4B01210022197041F61D545A60ED
:1051C000EFE600BF44320020483200203432002095
:1051D000443300202C330020843200203C33002054
:1051E00000FB0200742B00201433002070320020DA
:1051F000B94BBA4A1968BA4801232B7100230093AE
:10520000082301F02DFC002893D12AE7BAF80230D8
:1052100003EB830309EB8302D368002B00F02881A2
:10522000AD4BAF48196802229A8005240023012261
:105230008AF8004001F04CFC0446002C7FF4B1AE2B
:105240000FE7DAF80420A448538884880168A4484A
:10525000033301EB84019BB2002400949B000324E0
:105260008AF8004001F0FCFB0446002C7FF499AE64
:10527000F7E602230022AB75042300922146EA18C8
:10528000974801F0EDFB00283FF4EBAE08EB070375
:1052900009EB83030E241989E888474409EB870743
:1052A000C21C7B89033B11441B1A39817B8178E640
:1052B000894B8A4A19688A48002300930724CAF850
:1052C000043008238AF8004001F0CAFB0446002C91
:1052D0007FF467AEC5E6804ADAF8041093884988FF
:1052E0000B440333022193808AF80010FFF72CFD52
:1052F0000446002C7FF455AEB3E69BF80030072B34
:105300003FF634AE01A252F823F000BF0D55020063
:105310006D4F02006D4F0200D7520200455502004A
:10532000B1520200B15202000155020007AF022340
:105330002B7107947C60BC60EB68079338460DF1D5
:105340001A01FFF777FD002840F07A810A24142221
:10535000002138460AF08FF92EE6624B1B78002BAD
:1053600040F00281214608225F480AF084F90224B5
:1053700007AFECE72B695A48002B0CBF012303232E
:105380000022AB7504F108010092042305F10C0220
:1053900001F066FB00287FF479AF62E6EB882A69AA
:1053A0004F484FF0010E04F10C01002485F816E07F
:1053B0009B00009401F054FB00287FF467AF50E697
:1053C0004A4BAA691A601846002249495A60FFF7F9
:1053D00031FD00287FF44DAF0A24E2E5444B434AF7
:1053E0001C8851683E48434A00234FF0060E85F85A
:1053F00016E00093042301F033FB00287FF446AF4E
:105400003D4B04EB840403EB840301221A7428E669
:1054100041F61D5440E7032A14BF0623052300224A
:10542000AB75211D0092042305F108022C4801F000
:1054300017FB00287FF42AAF13E6BAF802302E4A91
:1054400003929A001344039A254802EB8303002237
:105450005968009206240823284A8AF8004001F07F
:10546000FFFA0446002C7FF49CADFAE50F2498E582
:1054700051681B48042401228AF8004001F028FBEF
:105480000446002C7FF48DADEBE59AF80A3053B159
:10549000D9F80C3000228AF80A2023B999F8102094
:1054A000002A40F0EA809AF80B3053B1D9F8203046
:1054B00000228AF80B2023B999F82430002B40F001
:1054C000DB8000238AF80030AAF80230CAF80430E2
:1054D00041F61D5465E500BF14330020F8FA0200C0
:1054E000742B00203C330020483300202033002060
:1054F0008032002008FB02004832002000FB02003E
:1055000001238AF800309AF80A30C0E799F814208D
:10551000BAF8081099F80030B2FA82F25209013153
:10552000B3FA83F35B098AF80B20AAF8081000226B
:1055300001218AF80A30AAF802208AF80C208AF899
:105540000010A4E7BAF80230524A03929A00D11828
:1055500009EB810150484C68076885880460022483
:105560004F600D8184806DE7DFF83081B8F80470FA
:10557000012F11D8474B039305944FF6FF7EBC00D3
:10558000E31909EB830219F823306BB10137BFB27D
:10559000022FA8F80470F2D1082200213F480AF037
:1055A0006AF841F61D54FCE4536804931A46D8F88F
:1055B000003002F58052002B5AD05988033103EB9A
:1055C0008101914203D3059BC8F80030DEE70B68E8
:1055D0000133F8D04B88033301EB83039342F2D8B5
:1055E000888870451CD0B1F800C0BCF1000F17D0FE
:1055F000B5F806C0C8F8001084450B46DBD100237F
:105600000093274A2748042301F02AFAA8B9039AED
:10561000E31902EB830301221A740DB0BDE8F08F89
:105620009342D0D2196801311946CCD05888033042
:1056300003EB80039342C6D8D2E70E2407AF86E679
:105640000899174A8B88EB800B882B8115480094AA
:105650000423BDF81A4001F003FA08B10E2476E6DF
:105660000C4B04EB840403EB840401232374F8E45F
:10567000049B03F10801A4E70123AAF80230FFF715
:1056800063FB0446002C7FF48CACEAE4002340E585
:105690000F2401E648320020143300204833002054
:1056A00008FB0200742B00204068FFF73BBC00BFE2
:1056B0002DE9F04383B0002A6AD0B2F800905788F1
:1056C0000E46054601A94C48984600F0B3FD1C2241
:1056D0000446002109F0CFFF002C40D0002084F8C0
:1056E0000080A4F81490A07573682361434A0121D7
:1056F00052E800EF0EEB010342E8003C9CF0000F83
:10570000F6D1E360338823817388A380B8F1030F57
:10571000E78033D0608101A9374800F0B9FD3DB181
:1057200000236B60E168364A29601289AB722A81D6
:10573000344B012253E8004F04EB020143E8001010
:1057400090F0000FF6D11CB1002003B0BDE8F0834B
:105750002046FFF7E7FB204603B0BDE8F0832A4B65
:1057600009EB890903EB89090820B9F80A30033BE2
:10577000DF1BA9F80A7003B0BDE8F0830423A3750A
:105780002B68A361608101A91B4800F081FDC7E778
:105790000F89FA1C92B240F2FD34A24201D90920CD
:1057A000D3E7194C94F80090B9F1000F07D166893E
:1057B000258935441544ADB2B5F5806F0FD3257DED
:1057C000DFF844E04DB9BEF81E60BEF81C50354409
:1057D0001544ADB2B5F5806F09D30720B5E74D4646
:1057E00005EB850504EB85043244628168E74FF0E0
:1057F00001094D46F4E700BF2C3300201C33002084
:105800007032002084320020483200200C4B1A688D
:10581000042A12D010B40B491C68012241F824005C
:1058200053E8001F01EB020043E8000494F0000F6E
:10583000F6D100205DF8044B70470C20704700BF84
:1058400030320020343200202DE9F04FAB4D8DB0C6
:105850002A7800230893079309930A930B9372B154
:10586000A74C04F1100554F8043B07A803B198476E
:10587000A542F8D1002630460DB0BDE8F08F2B1DB3
:10588000012253E8001F41EA020043E8000494F0BB
:10589000000FF6D10029EDD14FF010234FF08052C8
:1058A0005B6911695269974C581C08BF02FB01F3F0
:1058B00023619549A3F5405320460022E36001F09F
:1058C000C7F806460028D6D11C238C228F49904861
:1058D000DFF850B200F074FCE068DFF84CC20596C7
:1058E00000F54053A0F104090293032303930196AA
:1058F000B6464FF6FF7A0496C84620B1D8F8043071
:10590000844A93424AD000F6FC71434602E0994231
:1059100000F0388153F8042F0132F8D0039B0EEBCE
:105920008E020BEB8201013B03240EF1010E9BB2B0
:105930000BF82240486003931FFA8EFE00F580505A
:10594000029B984208F58058D7D1039B049E012BF7
:1059500040F203819DF80440022C00F0FE80062CEA
:1059600000F0FD80002C00F0F88006A9684800F0E7
:1059700061FC1C220546002109F07DFE002D00F08F
:105980001B810123013C2B700A2C5BD8DFE804F05B
:10599000755A755A725A725A6F586F0043685E4A48
:1059A000934220D001329342ADD1059B002B40F0B1
:1059B000C3805A4C20600223A3808268013200F029
:1059C000DD8000F1080100F580504A88D61C01EB0B
:1059D0008606B04254D24FF48063A3800823019A14
:1059E0001A430192ACE74FEA8E0404EB0E030BEB73
:1059F000830600220BF82320022370603381826823
:105A000001321AD000F1080200F580505188CF1CF5
:105A100002EB8707B8424FD274440BEB8404012297
:105A20004FF4806322742381019B0EF1010E43F039
:105A300002031FFA8EFE019382E700F58050F3E720
:105A400002232B7106A9324800F022FC344B0122BC
:105A500053E8000F00EB020143E8001494F0000F3C
:105A6000F6D100287FF406AFFFF75CFA03E70323C3
:105A70002B71E7E701232B71E4E700232B71E1E7AA
:105A80008E88564509D00E883EB18E68DCF80070CD
:105A9000BE4202D9CCF800604A88033213449BB25C
:105AA000A3804A88033201EB8201884221D8022B6D
:105AB00014BF0823042392E79788574536D01788E8
:105AC000002F33D09768DCF800904F4503D9CCF80D
:105AD000007051883389194403318BB23381518866
:105AE000033102EB810290429ED9176801378DD1B4
:105AF0009AE70A6801327FF468AFD8E73C330020A8
:105B000034320020742B002024FB02008832002055
:105B10002C330020DEC0ADDEFE011EF11433002068
:105B200084320020483200201C3300204FF0010353
:105B3000337451883389CEE70EEB8E04234A0BEB86
:105B4000840302210EF1010E12680BF824105A6032
:105B50001E4C19811FFA8EFE2CE70B268BE61C4C7F
:105B6000012200232A7004F110066B6054F8043BF4
:105B700007A803B19847A642F8D17BE600F580500C
:105B800004232CE7114B1B68C3B10EEB8E030BEB08
:105B9000830102220F4E0BF823200EF10104A6F818
:105BA00002E048601FFA84FE0A81019B43F0010372
:105BB000019300F58050C3E608265CE6034A022301
:105BC0009380012310600593EFE700BF143300209A
:105BD000343200207032002060B159B1F0B583B08A
:105BE0000C460DF106010546FFF724F920B90A20FD
:105BF00003B0F0BD05207047BDF806300C4A696857
:105C000003EB830302EB83030C33012253E8000F01
:105C100000EB020643E8006797F0000FF6D1216021
:105C20006B6800200C336360AA7203B0F0BD00BF44
:105C30004832002050B110B582B00DF10601044683
:105C4000FFF7F8F820B90A2002B010BD0520704710
:105C5000BDF80630094A03EB830302EB8303DA68DD
:105C600012B9062002B010BDA27A002AF9D0DA6873
:105C70000021013ADA600846A172E5E748320020C7
:105C80001E4B1B7813B902231846704740B1CB1C3A
:105C90009BB240F2FD32934205D909231846704762
:105CA00005231846704770B4154A1678A6B954896A
:105CB000158925441D44ADB2B5F5806F0CD235462B
:105CC00005EB850502EB8502234453810680418064
:105CD0000023184670BC7047147D094D54B9EC8BF5
:105CE000AD8B25441D44ADB2B5F5806F02D20126BF
:105CF0003546E5E70723184670BC70473C33002063
:105D000048320020134B1B7813B902231846704702
:105D1000A8B10388022B02D904231846704710B497
:105D20000D4A418803EB830302EB83038C1C5A89E1
:105D3000944206DB042318465DF8044B70470523A4
:105D4000E4E7033A521A00215A810B460180418050
:105D5000F1E700BF3C330020483200200F4B1B7896
:105D60000BB90220704759B110B40C884FF6FF737D
:105D70009C4201D04B882BB904205DF8044B70473E
:105D8000052070474A6812F0030201D00320F4E7AF
:105D900002235DF8044BFFF78BBC00BF3C330020AF
:105DA00032B130B40E4C247824B9022030BC704794
:105DB0000520704771B10D884FF6FF74A54201D0E0
:105DC0004C8814B9042030BC70474B689B0703D043
:105DD0000320EBE70520E9E7022330BCFFF768BCAE
:105DE0003C33002020B1104A12781AB902207047C3
:105DF000052070470029FBD010B40C884FF6FF72C5
:105E0000944201D04A881AB904205DF8044B7047C7
:105E10004A6812F0030201D00320F6E703235DF87D
:105E2000044BFFF745BC00BF3C3300201A4B1B78E6
:105E30000BB9022070474FF6FF73984201D104203E
:105E4000704770B582B001A90446144800F0F2F919
:105E50001C220546002109F00EFCADB105230126E8
:105E60002B70EC8001A92E710C4800F011FA0C4B3C
:105E700053E8004F04EB060243E8002191F0000FC5
:105E8000F6D124B1002000E0082002B070BD204609
:105E9000FFF748F82046F8E73C3300202C33002079
:105EA00084320020194B1B780BB90220704710B5C3
:105EB00082B001A9164800F0BDF91C220446002159
:105EC00009F0D9FBBCB10623237001A9104800F0EA
:105ED000DFF9104B1A7882B90F4B012253E8004FBB
:105EE00004EB020143E8001090F0000FF6D13CB142
:105EF000002002B010BD0820FBE701221A73EBE777
:105F00002046FFF70FF82046F3E700BF3C330020A0
:105F10002C33002070320020843200202DE9F0471D
:105F2000354C247814B90220BDE8F08762B35BB326
:105F3000B3F804E0BEF1010F23D8DFF8C4804FF6B8
:105F4000FF7C4FF000090EEB8E0408EB840718F875
:105F500024406CB91C687D6805F58056002C48D03B
:105F60006588033504EB8504A64210D8C3F8009079
:105F70000EF1010E1FFA8EFEBEF1020FA3F804E02F
:105F8000E1D10A20BDE8F0870520BDE8F08725684B
:105F90000135EBD06588033504EB8505AE42E5D3CA
:105FA000B4F804A0E24515D0B4F800A0BAF1000F8F
:105FB00010D01C60A5888542CDD125888D42CAD1DC
:105FC000A168116019680D4B51601B891381002075
:105FD000BDE8F087B542C9D22C6801342C46C5D043
:105FE000B5F802A00AF1030A05EB8A05AE42BDD35B
:105FF000D6E705F10804B7E73C33002070320020F3
:1060000048320020314B1B780BB90220704741B356
:106010003AB32DE9F0439688012E1FD8DFF8B4C0BB
:106020004FF6FF7E4FF0000806EB86030CEB83076C
:106030001CF823306BB914687B6803F58055002C7D
:1060400041D06388033304EB83039D420BD8C2F82D
:1060500000800136B6B2022E9680E5D10A20BDE856
:10606000F083052070471C680134F0D05C8803344D
:1060700003EB8404A542EAD3B3F80490F14513D0AE
:10608000B3F80090B9F1000F0ED013601D8885425F
:106090001C46D1D19B680B6012680D4B4A601B896E
:1060A0000B810020BDE8F083AC42D0D223680133DD
:1060B0002346CCD0B4F8029009F1030904EB89041B
:1060C000A542C4D3D8E70833BFE700BF3C33002064
:1060D0007032002048320020324B1B780BB902206E
:1060E0007047D1B1CAB12DE9F0439688012E11D87D
:1060F000DFF8B8E04FF6FF7C4FF0000806EB8603B0
:106100000EEB83071EF823304BB10136B6B2022ED8
:106110009680F3D10A20BDE8F0830520704714680B
:106120007B6803F58055002C39D06388033304EB7A
:1061300083039D4202D8C2F80080E6E71C68013460
:10614000F9D05C88033403EB8404A542F3D3B3F89D
:106150000490E14513D0B3F80090B9F1000F0ED0D0
:1061600013609D8885421C46DAD19B680B601268DB
:106170000D4B4A601B890B810020BDE8F083AC42C7
:10618000D9D223680133D6D0B4F8029009F10309BB
:1061900004EB89094D45CED323464C46D7E7083357
:1061A000C7E700BF3C330020703200204832002097
:1061B00020B119B103680B600020704705207047BB
:1061C00099B110B4B2FBF3F403FB1424A4B21CB1D4
:1061D00009205DF8044B704780E8120084608281DA
:1061E000C38120465DF8044B70470E20704700BF06
:1061F00082B050E8022FC188B2EB324F4FF000035B
:1062000017BF92B241EA014142EA014104E042680B
:10621000B2EB324F08BF012340E80212002AE8D156
:106220008DF807309DF80730002B0CBF112000209F
:1062300002B0704730B482B050E8013F9DB2C489CB
:1062400025448489A54228BF2D1B0489A54202BF8D
:10625000BFF32F8F002207E0C5EA030540E8015491
:10626000002CE9D14FF001028DF803200193019B2E
:106270009DF803200B602AB10B880068184402B017
:1062800030BC704702F0FF03184602B030BC7047C4
:106290000A884B889A4201D00020704750E8012FAD
:1062A000C2EA024240E80123002BF7D101207047E7
:1062B00030B482B050E8023F1FFAA3F5C488A5426B
:1062C00002BFBFF32F8F00220DE0C48925448489CB
:1062D000A54228BF2D1BC3EA054540E80254002C07
:1062E000E8D14FF001028DF803200193019B9DF846
:1062F00003200B602AB14B880068184402B030BC00
:10630000704702F0FF03184602B030BC704700BF70
:106310000A884B889A4201D00020704750E8022F2B
:10632000C2EA224240E80223002BF7D10120704745
:10633000B8B130B4416882680468521AD2B2531EB0
:106340002160DBB242B101680A685C1E551C0D6019
:106350001370E3B2FF2BF6D103680020187130BC34
:1063600070470E20704700BF70B582B002AB0025A9
:1063700003F8015D04461846FEF7A6FC2368616831
:106380001A688A4210D9511E19602168A3680E68E4
:106390000879258A12F8012CE4689B1BDBB298422D
:1063A00005FB024538BF0B719DF80700FEF7B4FCF2
:1063B000284602B070BD00BF30B583B002AB0022EA
:1063C00003F8012D054618460C46FEF77DFC2A68A9
:1063D0001368591C1160E9682A8A641AB4FBF2F444
:1063E0001C709DF80700FEF797FC03B030BD00BF9E
:1063F000826802B9704710B50446436901680069B4
:1064000098470023A36010BD0EB400B582B0039975
:1064100029B102AA04AB42F8043D00F095F802B09D
:106420005DF804EB03B070472DE9F84F1746B94209
:10643000884606461D46DDF828B00B9A7DD30B46EC
:106440004FF00109B3FBF7F39F4209F10109F9D9B4
:10645000A94538BFA94612F0010A02D1BBF1000FCD
:1064600049D1B268012402E0013D07FB04F4012D8B
:10647000FAD8B8FBF4F18F42F7D9324D05E0B4FBFE
:10648000F7F4A4B1B8FBF4F1B268685C531CB360D4
:1064900033689854B26873689A4201FB1488EED34B
:1064A0003046FFF7A5FFB4FBF7F4002CEAD1BAF1B0
:1064B000000F16D0BBF1000F33D0CB4588BF20248E
:1064C0003ED9B3683268591CB160D454B26873685D
:1064D0009A420BF1FF3B06D2BBF1000F09D0D94520
:1064E000EFD3BDE8F88F3046FFF782FFBBF1000F16
:1064F000F5D1BDE8F88F93071AD42024D945B0D23E
:10650000B2683368511CB1609C54B26873689A4297
:106510000BF1FF3B07D2BBF1000FA3D0D945F0D35D
:10652000A0E7BDE8F88F3046FFF762FFB268F2E7F8
:10653000002D0CBF30242024E0E74FF0010987E74D
:10654000BDE8F88F14FB0200002900F061822DE9FC
:10655000F04F064685B091460C460B78DFF8ECA468
:106560000DE0B2683168501CB0608B54B26873683B
:106570009A4280F0D3802378002B00F0BA80013457
:10658000002B00F0B680252BEBD14FF00008214600
:1065900014F8013B2D2B00F0BB80302B00F0BB80AA
:1065A0002B2B00F0AD802A2B00F0BC80A3F130052E
:1065B000EAB2092A98BF013102D9A6E1A2F1300559
:1065C0000C4611F8013BA3F1300005EB85020928C8
:1065D00003EB4202F2D91A462E2A00F0AF800027C0
:1065E00001E014F8012F02F0FB03682BF9D0253AE3
:1065F000532A79D8DFE812F0760178007800780025
:1066000078007800780078007800780078007800CA
:1066100078007800780078007800780078007800BA
:1066200078007800780078007800780078007800AA
:10663000780078007800780078007800780078009A
:10664000780078007800780078007800780078008A
:10665000780078007800780078007800780066018B
:10666000780078007800780078007800780078006A
:10667000780078005101F9007800780078007800FF
:10668000F9007800780078007800780078005400ED
:1066900078007800C9007800B900780078006601B9
:1066A000D9F80020131DC9F80030B36831681568A7
:1066B000581C3022B060CA54B3687268934280F0AC
:1066C000AE813268581C7821B060D154B2687368CA
:1066D0009A4280F0A081002208230192294600936B
:1066E00010223046FFF7A0FE01342378002B7FF400
:1066F00046AF337B002B40F0028105B0BDE8F08F40
:10670000214614F8013B2D2B48F004087FF445AFD7
:1067100048F001083BE748F0020838E73046FFF749
:1067200067FE28E7D9F800301A1DC9F800204A781A
:106730001D682E2A01F101047FF451AF6278A2F1A5
:106740003003092B04F101044FF000073FF64BAF73
:1067500007EB870702EB470714F8012FA2F130037C
:10676000092BA7F13007F3D93DE7D9F800301A1DFE
:10677000C9F800201968CDF804803B4600950A222C
:106780003046FFF751FE0134AFE7D9F800301A1D4B
:10679000C9F8002018F0010F1F6840F0BD80002FDD
:1067A00000F05281384608F06EFF8046454540F2C1
:1067B000FB80002D00F0F8804FF0200B05E04545F0
:1067C00040F2F280002D00F0EF80B2683368511C77
:1067D000B16003F802B0B26873689A4205F1FF3500
:1067E000EDD33046FFF704FEE9E7D9F800301A1D73
:1067F000C9F80020D3F800B08BEAEB73A3EBEB737E
:10680000092B4FF0010108DD8AFB0302DB17C3EB04
:10681000A203092B01F10101F6DCB94238BF394668
:1068200035B1BBF1000F02DB18F0040F00D0013DC1
:1068300018F0020F6DD118F0010F17D1002D00F0E4
:10684000E8808D4288BF202310D9B268501CB06008
:1068500030688354B2687068824205F1FF3580F079
:106860008A80002D00F0D5808D42EED8BBF1000F5C
:10687000C0F2DA8018F0040F40F0858008F00303BE
:10688000022B00F0A4808DE820013B4659460A22E5
:106890003046FFF7C9FD013427E7D9F80020131D62
:1068A000C9F80030B36831681278581CB060CA5417
:1068B000B26873689A42FFF417AF3046FFF798FD4D
:1068C000013412E7D9F800301A1DC9F80020196800
:1068D000CDF804803B46009510223046FFF7A4FD1A
:1068E000013402E7B3683268591CB1604FF02501EA
:1068F000D154B26873689A42DFD20134F5E630466B
:1069000005B0BDE8F04FFFF773BD1A460C460025F1
:1069100062E6002FAAD08EE7B846C7EB080B18F83E
:10692000012B8AB1B1683368481CB0605A54B26810
:1069300073689A42F1D33046FFF75AFDC7EB080B54
:1069400018F8012B002AEDD15D457FF6CDAE20274A
:1069500002E05D457FF6C8AEB2683368511CB16095
:106960009F54B26873689A4205F1FF35F1D33046FF
:10697000FFF73EFDEDE7304603930291FFF738FD48
:10698000039B02996DE7B268531CB36033682B20F8
:106990009854B26873689A42FFF470AF304602911F
:1069A000FFF726FD029969E7013F17F8013F002B29
:1069B0003FF49AAEB2683168501CB0608B54B26834
:1069C00073689A42F1D33046FFF712FDEDE7002FCE
:1069D0007FF459AF002D35D08D4288BF30237FF62C
:1069E00052AFB268501CB06030688354B2687068AF
:1069F000824205F1FF3503D225B38D42F1D842E73B
:106A0000304603930291FFF7F3FC039B0299F3E7EF
:106A1000704700252AE73046FFF7EAFC5BE6304680
:106A2000FFF7E6FCB3684CE6B268531CB36033680A
:106A30002D209854B26873689A42CBF1000BFFF492
:106A40001DAFABE700251EE7B846AFE66766666692
:106A500020B119B101600B68114618470E2070472C
:106A60002DE9F043DDF81C8050B14AB1D0F800E0C8
:106A7000BEF1000F07D01E4643B90920BDE8F083E0
:106A80000E20BDE8F0830820BDE8F0834768D7F802
:106A90000490B3FBF9F709FB1737002FEDD142EA59
:106AA0000104A40702D01020BDE8F083C468A1420D
:106AB000F9D301F1FF3C04696644A642F3D8CDF84E
:106AC0001C80DEF80C40A446BDE8F043604700BFE0
:106AD00028B1F0B5066876B11AB90920F0BD0E20CC
:106AE00070474768D7F800C00CF1FF370F428E4659
:106AF00003D01020F0BD0820F0BDC768B942F8D31C
:106B000001F1FF3E04690CFB02E5A542F1D83469AE
:106B1000A446BDE8F040604770B528B103681BB1DA
:106B2000DB69BDE8704018470B4C0C4B0C4D1B1B30
:106B3000A5FB03352D090CD005EB850504EB850578
:106B400023682046143413B1DB69984718B9AC4266
:106B5000F6D1002070BD70BD742B0020882B002062
:106B6000CDCCCCCC29DF704728DF70470846704772
:106B700000207047024B187A003018BF0120704780
:106B8000F4330020034B187A0122B0FA80F05A74D3
:106B900040097047F433002008B510461A4608F043
:106BA00044FD002008BD00BF08B5142200210448A0
:106BB00008F061FD0348FFF71BFB002008BD00BF84
:106BC000F43300205033002038B50C4C012354E836
:106BD000002F42EA030144E8001595F0000FF6D1BA
:106BE00052B9074B436008F057FB1C2320748C22DA
:106BF00004490548FFF7E4FA002038BDF4330020CB
:106C000044FB0200683300205033002030B5354C7F
:106C1000237A87B0002B51D0334B1B68022222729B
:106C20001A79002A2ED0012A20D019688A68C2B1A8
:106C3000002205920392019204929A68059203221F
:106C400002921A79002A44D0012A07D1DA685B69D6
:106C500004931303022203938DF804208B6801A888
:106C6000984700232372636007B030BDD8681A6963
:106C70001044FFF779FFC8B11128D6D10123237240
:106C800007B030BD9D695A69D9681869521BB2F5C1
:106C9000805F28BF4FF480529208012A38BF01223A
:106CA00029442844FFF75EFF0028E5D1237C002B10
:106CB000E6D10146022000F01DF8E1E70B490C483F
:106CC000FFF7F6FA084B186003460028A6D160606B
:106CD000D6E71A695B69039201208DF804000493DA
:106CE000BCE700BFF4330020643300206033002091
:106CF0005033002010B5354C237A012B86B00AD0D2
:106D0000022B0CD1022810D0032804D1E3680133F0
:106D1000082B1CD8E360637C1BB108F05BFA06B05B
:106D200010BDFFF773FF06B010BD294B00221B6892
:106D3000E2601A79002A3BD0012AECD11A6959691C
:106D400001328A421A61E6D10020207205E0204B10
:106D500000221B68E26022720D2019688A6872B1F5
:106D6000002205920392019204929A680290059281
:106D70001A79AAB1012A0AD08B6801A89847154947
:106D80001548FFF7C5FA637C002BC6D1C9E7DA685E
:106D90005B6904931303022203938DF80420EBE74D
:106DA0001A695B69039201208DF804000493E3E7FC
:106DB0009A695969881AB0F5805F94BF121802F574
:106DC000805291429A61A6D1BEE700BFF433002001
:106DD0006433002060330020503300202DE9F0435D
:106DE00085B081460E461B4802A917469846FFF714
:106DF00021FA58B304461C2200210125360B08F065
:106E00003AFCE660C4F80090C4F80880676102A903
:106E100025711048FFF73CFA0F4A131D53E8001F75
:106E2000284643E8000494F0000FF7D1039103983B
:106E300040B9537C3BB90190FFF7E8FE019805B0DB
:106E4000BDE8F083002005B0BDE8F083042005B064
:106E5000BDE8F08350330020F43300202DE9F043E7
:106E600085B081460F461C4802A916461D46FFF70D
:106E7000E1F968B304461C220021884608F0FBFBB8
:106E80000C9BA36002A9C4F800902761E6606561CD
:106E900084F804801048FFF7FBF9104901220B1D0C
:106EA00053E8000F144643E8004595F0000FF7D172
:106EB0000390039840B94B7C3BB90190FFF7A6FEC5
:106EC000019805B0BDE8F083404605B0BDE8F08309
:106ED000042005B0BDE8F08350330020F4330020D7
:106EE00000F0FD03012B00D0704730B5384CA0F105
:106EF0000100B0FA80F0237A4009002287B02074A4
:106F00006274002B48D0334B1B68022222721A791C
:106F1000002A2ED0012A18D019688A6882B100226E
:106F200005920392019204929A68059203220292BA
:106F30001A79002A44D0012A39D08B6801A89847D1
:106F400000232372636007B030BDD8681A6910440B
:106F5000FFF70AFE28B11128DED10123237207B002
:106F600030BD237C002BFAD101460220FFF7C2FE80
:106F7000F5E79D695A69D9681869521BB2F5805FB7
:106F800028BF4FF480529208012A38BF01222944B9
:106F90002844FFF7E7FDDDE70F491048FFF788F9C0
:106FA0000C4B186003460028AFD16060D7E7DA6861
:106FB0005B6904931303022203938DF80420BCE75A
:106FC0001A695B69039201208DF804000493B4E709
:106FD000F43300206433002060330020503300205D
:106FE000FFF7A6B92DE9F041B0F81080A8F1040828
:106FF0004144CF1C0646B7FBF8F7FFF7B5F980B35D
:10700000FFB200250123013F0446A0F80680066078
:107010000571437128D0804609E06379AF4203F1DE
:1070200001036371C8F80000066080461CD030463A
:10703000FFF79AF901350028EFD16679721E2346D1
:1070400003D0013082421B68FBD81F684EB1002577
:1070500023682146013538461C46FFF7ADF9AE429C
:10706000F6D10020BDE8F0812046BDE8F08100BFE8
:1070700010B40430012350E8002F02EB030140E874
:10708000001494F0000FF6D15DF8044B704700BF78
:107090000146021DF8B5012052E8004FA4EB0003A1
:1070A00042E8003595F0000FF6D113F0FF0300D051
:1070B000F8BD4E79701E0A4603D00133984212681B
:1070C000FBD81768002EF3D000240D680134384631
:1070D000FFF772F9A6422946F7D1F8BD2DE9F8432A
:1070E0000446181DE688B0FBF6F30F46904606FBF3
:1070F000130013B1013B2468FCD1351A454528BF64
:107100004546B8F1000F15D04FF000092044C5EBFB
:1071100008082A4607EB0901043008F086FA4645BC
:10712000A944246835464FF0000028BF4546B8F111
:10713000000FEBD1BDE8F8832DE9F843C68804338E
:1071400004460F46B3FBF6F0904606FB103110B133
:1071500001382468FCD1751A454528BF4546B8F169
:10716000000F15D04FF000092144C5EB0808043189
:107170002A4607EB090008F058FA4645A944246856
:1071800035464FF0000128BF4546B8F1000FEBD15E
:10719000BDE8F88301600B6843604A68934204BF0E
:1071A00000234360704700BF426842B101688B68AA
:1071B000134443604A68934204BF0023436070470E
:1071C00030B4184DA5F1F002AB1ADB1003EBD3730A
:1071D0005B1002EBC30152F83330984228BF0C46D3
:1071E00005D311E052F8333098420CD221468B1A65
:1071F000DB1003EBD3735B10914202EBC304F1D8B5
:10720000094830BC70470D46984204D904F1080281
:10721000AA42D9D3F4E76068034B002808BF184698
:10722000EFE700BF54FF020054FF020010B4002338
:10723000012401E0202B0AD004FA03F2024299B2A1
:1072400003F10103F6D008465DF8044B70474FF692
:10725000FF705DF8044B704798B191B130B40238BB
:10726000002402E00134202C0AD030F8025F95425D
:10727000F8D13BB10A68012303FA04F414430C600B
:1072800030BC70470B68012202FA04F423EA0403BD
:107290000B60F5E770B49DF80C60C0B1B9B1B2B144
:1072A0000238002402E00134202C10D030F8025FB4
:1072B0009D42F8D1012303FA04F401EB820246B99E
:1072C000E4430B68234041F8043B9142F9D170BC80
:1072D00070470B68234341F8043B8A42F7D00B68A0
:1072E000234341F8043B8A42F3D1F0E798B110B44C
:1072F0000238002302E00133202B0DD030F8024F7A
:107300009442F8D1012202FA03F30B4214BF104653
:1073100000205DF8044B70470020FAE7F0B491B10B
:1073200000252B46012606FA03F4144205D000EB93
:10733000450431F81370A78001350133202BF2D1B9
:107340000560F0BC70470D460560F0BC704700BF9B
:107350000A7B4B6810B40C68002A0ABF234600223F
:107360000122027103605DF8044B704710B402798A
:10737000034652B148681C688A68011B914210D9C3
:10738000A01818605DF8044B7047046808688A68A4
:10739000211A91420BD8012218601A715DF8044B32
:1073A0007047002218601A715DF8044B7047A01AEC
:1073B00018605DF8044B7047064A4FF0A043105C1C
:1073C000D3F8043523FA00F000F0010080F001004A
:1073D000704700BF6CFF0200044B195C4FF0A042E5
:1073E00001238B40C2F80C35704700BF6CFF0200D0
:1073F000044B195C4FF0A04201238B40C2F80835C2
:10740000704700BF6CFF02004FF0A04310B44FF470
:1074100080204FF400344FF400214FF48012C3F861
:107420000845C3F80805C3F80815C3F808255DF832
:10743000044B70474FF0A04310B44FF480204FF43A
:1074400000344FF400214FF48012C3F80C45C3F808
:107450000C05C3F80C15C3F80C255DF8044B7047F8
:10746000084B4FF0A0411B5CD1F80405012202FA41
:1074700003F323EA00020340C1F80825C1F80C35E4
:10748000704700BF6CFF020030B44FF0A0430322EE
:107490004FF400354FF480244FF400204FF4801156
:1074A000C3F84427C3F84827C3F84C27C3F850272C
:1074B000C3F80855C3F80845C3F80805C3F808150C
:1074C00030BC7047064A4FF0A043105CD3F810352B
:1074D00023FA00F000F0010080F00100704700BFC7
:1074E00068FF02000D2809D00E2809D00F2809D006
:1074F00010280CBF03204FF0FF307047002070476A
:107500000120704702207047014B185C704700BF94
:1075100068FF020058B910B5054CA36833B10CCB15
:107520000020A2609847A368002BF8D110BD7047D7
:107530000834002010B5012882B029D022D30328B6
:107540001ED10721002000F08FF802A80023254C4F
:1075500000F8013DFDF7B8FBE368013BE360E36839
:1075600053B9214B01221A604FF08042D2F81834EF
:1075700013F48033FAD1A3709DF80700FDF7CCFB1C
:1075800002B010BD194B0122C3F8802002B010BD1B
:1075900002A80023134C00F8013DFDF795FB23786A
:1075A0008BB9124A6360A3602361E360106810F036
:1075B000010013D007F070FE18B94FF08043C3F8F4
:1075C000180501232370E3689DF8070001330122A9
:1075D000E360A270FDF7A0FB02B010BD072100F030
:1075E00043F8E7E7083400200C00004000E100E029
:1075F00010B51A4B1A6882B0A2B100221A601B683B
:1076000000934FF080430122154C0099C3F80823E2
:10761000A368627033B10CCB0020A2609847A368C6
:10762000002BF8D10F4B1A68AAB100221A601B6810
:1076300001934FF080430222094C0199C3F80823BB
:1076400023690122A27033B10CCB0120226198473B
:107650002369002BF8D102B010BD00BF000100402B
:107660000834002004010040002810B418DB00F1A9
:10767000604303F561434901C9B283F80013C3B203
:107680004009800000F1604000F5614003F01F02F6
:1076900001239340C0F8803103605DF8044B7047CC
:1076A000C3B2044A03F00F0449012244C9B211765F
:1076B000E6E700BFFCEC00E030B51D4C94F85450F8
:1076C00083B015B1082003B030BD4FF0FF33FF2267
:1076D0000721062023636363A363E3632364636476
:1076E000A364E36423606360A360E3602361636178
:1076F000A361E361236284F850306362A36284F87B
:107700005230E36284F8533084F85120FFF7ACFF25
:10771000084B094A1D601B68019301984FF0004314
:107720000121284684F85410C2F8043303B030BD58
:107730001C3400207C61004000600040034B93F843
:107740005400003018BF0120704700BF1C340020D7
:10775000F0B5624C251895F93030002B01DB08207C
:10776000F0BD91F803E09446BEF1000F56D02368B7
:10777000013300F0A380002508266B1C574F54F8F6
:107780002320013251D0AB1C9E4245D957F823200B
:1077900001324AD0EB1C9E423ED957F823200132D9
:1077A00043D02B1D9E4237D957F8232001323CD0BD
:1077B0006B1D9E4230D957F82370013735D0AB1D71
:1077C0009E4229D954F82320444F01322DD0EB1D7D
:1077D0009E4221D957F82320013226D005F1080313
:1077E0009E4219D957F8232001321ED005F1090312
:1077F0009E4211D957F82320013216D005F10A0311
:107800009E4209D957F8237001370ED00B35AE428E
:1078100002D9E36A013307D00420F0BD236A0133A3
:1078200053D008250C26A8E70B2326185DB244F890
:1078300023C086F83050BEF1000F02D1234483F8F4
:1078400048008B78A3B94A784FF0A04600F5E07362
:10785000920046F82320CB78A3B9083D2C44097840
:1078600094F8502042EA811284F850201846F0BD66
:10787000830003F1A043D3F8002722F00202C3F8EB
:107880000027E8E7AB0003F1804303F5C0430A7823
:10789000D3F8101521F4473121F44071C3F81015C5
:1078A0001204000202F44031D3F8104500F4F852FB
:1078B0000A432243C3F810250020F0BD002385F8B9
:1078C0003030C4F800C01D46BBE7082685F830609C
:1078D0003346C4F820C03546B0E700BF1C34002052
:1078E000F0B42E4D2E1882B096F93030072B1CDDE7
:1078F0002B4493F848309B09032B41D0012B14BF34
:107900004FF440334FF40033800000F1A040D0F832
:10791000002722F44032C0F80027D0F80027134394
:10792000C0F8003702B0F0BC7047DAB2072AF9D8C5
:10793000980000F1804000F5C04003F14002920041
:10794000D0F8104592B202F18042002744F00104C1
:1079500002F5C042C0F81045019701981760002950
:10796000E0D096F9302055F82220002ADAD0012202
:107970000B4902FA03F3C1F8043302B0F0BC7047BC
:107980004FF0A043D3F81035C34013F0010F0CBFE4
:107990004FF400334FF44033B6E700BF1C340020EF
:1079A000006000404FF0A043D3F8103523FA00F0F8
:1079B00000F00100704700BF2DE9F04387B00026BA
:1079C000C94B01961A68012A00F00482C74B1A6855
:1079D000012A00F0F181C64B1A68012A00F0DE810D
:1079E000C44B1A68012A00F0CB81C34B1A68012AE4
:1079F00000F0B881C14B1A68012A00F0A581C04B84
:107A00001A68012A00F09281BE4B1A68012A00F020
:107A10007F81BD4B1A68012A00F0598116F0FF0FD3
:107A20001AD0BA4F01250024A30003F180432E424F
:107A300003F5C0434FEA45050BD0D3F8100557F8BE
:107A40002420D3F81015C0F30420C1F3014102B182
:107A500090470134082CE7D1002E02DB07B0BDE8C7
:107A6000F083AA4C00224FF0FF3327460292039383
:107A700001260DF1080894F950104D1C2DD0C9B203
:107A800021F0C00006AB4FEAD00E03EB0E0201F06E
:107A9000070312F80CCC06FA03F31CEA030F1CD000
:107AA0003D18890995F9305057F82590B9F1000F24
:107AB00000F0E880032900F0E8804FEA800E0EF124
:107AC000A04E12F8145CDEF800271D40C2F30142FC
:107AD00040F0B580032A00F0A281002594F95110EE
:107AE000481C2FD0C9B221F0C00006AB4FEAD00E1F
:107AF00003EB0E0201F0070312F80CCC06FA03F3B5
:107B00001CEA030F1ED007EB000C89099CF930C05A
:107B100057F82C90B9F1000F00F0C680032900F04F
:107B2000C6804FEA800E0EF1A04E12F814CCDEF89B
:107B300000271CEA030FC2F3014240F08D80032AA4
:107B400000F0928194F952104A1C2ED0C9B221F053
:107B5000C00006AB4FEAD00E03EB0E0201F00703A4
:107B600012F80CCC06FA03F31CEA030F1DD007EB46
:107B7000000C89099CF930C057F82C90B9F1000F1E
:107B800000F08980032900F088804FEA800E0EF112
:107B9000A04E12F814CCDEF800271CEA030FC2F343
:107BA000014265D1032A00F04C8194F953104B1C1B
:107BB0002CD0C9B221F0C00006AB4FEAD00E03EBC7
:107BC0000E0201F0070312F80CCC06FA03F31CEACC
:107BD000030F1BD007EB000C89099CF930C057F844
:107BE0002C90B9F1000F69D0032969D04FEA800EBB
:107BF0000EF1A04E12F814CCDEF800271CEA030F99
:107C0000C2F3014211D1032A00F0F080002D3FF4AD
:107C100025AF4FF0A043019AD3F8103593423FF4BB
:107C20001DAF029A0193039225E7022AEED10329A0
:107C300000F02D81B9F1000FE8D0C847E6E7022A2D
:107C40007FF44BAF032900F02B810025B9F1000F21
:107C50003FF444AFC84741E7022A7FF473AF0329DA
:107C600000F01881B9F1000F3FF46CAFC84769E725
:107C7000022A9AD1032900F01081B9F1000F94D0A3
:107C8000C84792E703297FF428AF18F80E501D4328
:107C900008F80E5011E7032987D118F80EC04CEAF6
:107CA000030C08F80EC070E703297FF44BAF18F8F7
:107CB0000EC04CEA030C08F80EC032E70329A5D128
:107CC00018F80EC04CEA030C08F80EC08EE700222C
:107CD0001A601B6805934FF0A043059AD3F810353E
:107CE000019346F0004699E60061004004610040BF
:107CF000086100400C6100401061004014610040C8
:107D0000186100401C6100407C6100401C34002070
:107D1000654AD2F8042317067FF57BAE00221A606D
:107D20001B680493049B46F0800672E65E4AD2F814
:107D3000042352067FF568AE00221A601B68049384
:107D4000049B46F040065FE6574AD2F804239106AA
:107D50007FF555AE00221A601B680493049B46F021
:107D600020064CE6504AD2F80423D0067FF542AEF6
:107D700000221A601B680493049B46F0100639E643
:107D8000494AD2F8042314077FF52FAE00221A6067
:107D90001B680493049B46F0080626E6424AD2F884
:107DA000042355077FF51CAE00221A601B6804935C
:107DB000049B46F0040613E63B4AD2F804239707D7
:107DC0007FF509AE00221A601B680493049B46F0FD
:107DD000020600E63449D1F8041311F001011CD069
:107DE0001E601B680493049B1646EFE503297FF48D
:107DF00021AF4FF40033DEF8002722F44032CEF8F2
:107E00000027DEF8002701351343EDB2CEF8003726
:107E1000B9F1000F7FF411AFFBE60E46D6E503295A
:107E20007FF414AF4FF40033DEF8002722F4403221
:107E3000CEF80027DEF800271343CEF800370125DF
:107E400004E703297FF419AF4FF40033DEF800276D
:107E500022F44032CEF80027DEF800270135134324
:107E6000EDB2CEF8003708E703297FF4FBAE4FF4FC
:107E70000033DEF8002722F44032CEF80027DEF887
:107E8000002701351343EDB2CEF80037EAE64FF490
:107E90004033B0E74FF44033EBE74FF44033D5E7DE
:107EA0004FF44033C0E700BF00600040F0B50479F4
:107EB000724E6401331987B0DD7E15B1082007B01A
:107EC000F0BD4D7F1D770D686B1C0BD04FF0A047A8
:107ED0000123AB40C7F808350B6803F5E0730325B1
:107EE00047F823504B685F1C06D003F5E0734FF052
:107EF000A045002745F82370037906EB43131B7F49
:107F0000002B4DD003688D69C3F824554F7D0B7D40
:107F100005683B43C5F86C3503680F684D68C3F8C6
:107F20000C75C3F814550B7D012B00F09B803319A1
:107F300005465A600B6951483351EAB12B79097FE4
:107F40002A6800EB4310037F002B65D1C2F81C3177
:107F5000D2F81C712A680097009FC2F84431D2F809
:107F600044212B6846480192019AC3F8040328680B
:107F700040F30730FFF778FB2B792A6806EB4313B1
:107F80001B7F002B44D00823C2F800353444002066
:107F90000123E376E0752076A075A07607B0F0BDEA
:107FA00005688F69C5F8247591F815E00D7D07689F
:107FB0004EEA0505C7F86C550568D1F800E04F6832
:107FC000C5F81475C5F80CE50D7D012DAFD18D6890
:107FD0006F1C05D005F5E0754FF0A04747F8253038
:107FE000CB685D1C0DD001254FF0A04705FA03F3C7
:107FF000C7F80835CB6803F5E073032547F823502D
:10800000CB6805688F68C5F80835C5F810758EE728
:108010000423C2F80035B9E70023C2F81031D2F8C2
:1080200010712A680297029FC2F82031D2F820719D
:108030002A680397039FC2F82431D2F824712A6872
:108040000497049FC2F84431D2F844212B6805926A
:108050000C48059AC3F80403286840F30730FFF77B
:1080600003FB89E78B685D1CBAD003F5E0734FF022
:10807000A045002745F82370B2E700BF7434002004
:108080008000020010030200F0B503793D4A046845
:108090005B01D118097F00296DD00021C4F80015BB
:1080A000D118384C4968B1B1017904EB4114217FF2
:1080B000002963D10168344CC1F808430168334E8C
:1080C000090B4CB26409203401F01F01012505FAA7
:1080D00001F146F824100179076802EB4111D7F845
:1080E0000C65097FD7F814554FF0FF3EA9B3D7F8B8
:1080F0000815D7F81045C7F80CE5C7F814E500686F
:10810000C0F808E5C0F810E5771C06D006F5E07663
:108110004FF0A040022740F826706E1C06D005F5EF
:10812000E0754FF0A040022640F82560651C06D09F
:1081300004F5E0744FF0A040022540F82450481C9C
:1081400006D001F5E0714FF0A040022440F8214034
:1081500013440022DA765A60F0BDD7F80815D7F834
:108160001045C7F814E5C7F80CE50068C0F808E545
:10817000C0F810E5C8E7C4F8001591E70168044CA1
:108180009AE700BF743400208402020000E100E09E
:1081900010030200F0B50379534C5B01E51887B07A
:1081A0002D7F3DB101F06045B5F1005F02D0102098
:1081B00007B0F0BD23444C4F9E7D16B1112007B08F
:1081C000F0BD9A7599609E8205796D017A19137FC9
:1081D00013BB0168C1F81C31D1F81C610168049619
:1081E0000126049F8E600168D2F808E0C1F81C31B6
:1081F000D1F81C310593059B968A938A5768B6B2CD
:1082000001331EF806609BB29382C1F81C65002FF3
:108210002FD0002007B0F0BD03689168C3F820613B
:10822000D3F8207103680197019FC3F85861D3F810
:10823000586103680296967D029FC3F84415C3F8FF
:1082400048650368012199605368002BE1D10368F8
:1082500001E0002945D1D3F82021D3F85811002A94
:10826000F7D0002914BF0F2000202C440023A37551
:108270009EE7967D938A9BB29E4202F1140122D919
:10828000016804E0938A9BB2B3F5807F03D0D1F8F4
:108290001C31002BF6D0938A9BB2B3F5807FE9D0D6
:1082A000C1F81C71D1F81C310393039BB2F814C0C0
:1082B000938A1FFA8CFC01331EF80CC09BB2938288
:1082C000C1F81CC5D6E70B889BB2B3F5807F08D0F8
:1082D0000268D2F81C31002BFBD00123D3600020B0
:1082E000C3E70F20C1E700BF7434002070B59B4C7A
:1082F000237F8EB0002B75D1994AD2F804138905DB
:1083000048D4974BD3F80423520704D5D3F8082157
:10831000002A40F0CA80924BD3F81C21C2B1A28A35
:10832000A07D8E4992B282424FF00002C3F81C2118
:1083300080F0A980D3F81C210692069A888A8A8A3E
:108340008D6880B20132285C92B28A82C3F81C0523
:10835000834BD3F84421DAB10022C3F84421D3F887
:108360004411A27E04910499002A40F08980E27DA4
:108370007A4B6AB10022587ED968DA7501228DF8ED
:1083800030000B918DF828200AA893E8060090474A
:108390000EB070BDD2F824110029B2D0C2F8243139
:1083A000D2F82411A37E07914FF401710798C2F807
:1083B00008130BB901235360694A02238DF8283052
:1083C000D2F88034C2F88034E07DE2680D93002357
:1083D0008DF83000E375237621680B9263680AA854
:1083E000984798E75E4BD3F82421002A40F0938009
:1083F000D3F8101161B1C3F81021D3F81011039113
:108400000399D3F83C15E07DC9B2884200F0AA80F8
:10841000534BD3F84421B2B10022C3F84421D3F81E
:108420004411E07D019101994C4960B1D3F83C358C
:10843000C8688DF830300123CA750B908DF828304C
:108440000AA80AC99847464BD3F82021002A9FD092
:108450000022C3F82021D3F82011A07D00910099BB
:108460003E49002894D0D3F84C058B688DF8300035
:108470008A750B938DF828200AC90AA8984787E7C0
:1084800001221A6073E7D3F81C310593059B00287D
:108490003FF45EAF8B688DF830008A750B938DF8D2
:1084A00028200AC90AA8984752E7E17D2B4A0029EB
:1084B00070D00021C3F80811D3F808110891089969
:1084C000D068517ED3F818354354537ED17D0133A3
:1084D000DBB25376627E214B8A427FF41CAF1A7E58
:1084E000002A6DD19B7E13B91D4B01225A601C4A94
:1084F000E06863684FF40171C2F80813627E8DF87A
:108500003020002501220B902168E5758DF8282088
:108510000AA89847FFE60022C3F82421D3F82411C3
:10852000029102218DF828100299D3F88014C3F823
:1085300080140D91D3F83C15E368E27522768DF82E
:1085400030100B93216863680AA89847044BD3F84E
:108550004421002A3FF477AF5EE700BF7434002067
:1085600000200040217EF1B1D3F80062E17526F0D1
:108570002001E568C3F8001226698DF83000012358
:108580008DF82830227621680B95E66063680AA88A
:1085900098473DE7C3F80811D3F808210992099AD2
:1085A000D3F8183596E7E268E17501238DF83000BD
:1085B0008DF828300B9294E80A000AA8984727E71C
:1085C000DE685D7E1869DA7501210022D8601A76AE
:1085D0005A768DF828100B968DF8305093E80600E7
:1085E0000AA8904797E600BF0220FEF739BF00BFF8
:1085F0002DE9F0470D460646FEF774FF03281ED806
:10860000012D04461FD00ED3022D1AD11C4B00EBB6
:1086100040041C44657895B11A4B1B687BB1284611
:10862000BDE8F04718471848FCF712FB1449174AF1
:1086300004EB44030B44155D9B789D42EBD0BDE8F1
:10864000F087BDE8F087DFF8388047003B1808EB7B
:10865000030218F8035053782BB9274447440B4BB7
:10866000BA781A55D7E7DFF8289007484A464FF4FA
:108670000041FCF797FA0028EFD189F80060ECE799
:108680000C350020C4340020C8340020BC34002045
:10869000B434002010B50078FEF724FF03280BD86F
:1086A000064B00EB40001844407828B1044B1B688F
:1086B00013B1BDE81040184710BD00BF0C350020B5
:1086C000C4340020B34B1B68DB0700D4704770B57F
:1086D000B14EB24D33782C78FBB9172C1CD8DFE89B
:1086E00014F0F10014011401630076008300960079
:1086F0005D0039002C0039002C00A300A800A80060
:10870000A800A800A800CE00DE0001014600180065
:108710001800FEF78FFE2C7070BDA14B1B78002057
:108720003070002B00F00581FEF762FE0120FEF79D
:108730005FFE0320FEF75CFECFE70123184633708F
:10874000FEF78EFE00224FF480419648BDE870404F
:10875000FCF728BA012318463370FEF781FE002289
:1087600040F6CD418F48BDE87040FCF71BBA8C4BFA
:108770001B78002B00F0FE800020FEF739FE012060
:10878000FEF736FE0320FEF733FE0020FEF724FE40
:108790000120FEF721FE15232B7070BD0020FEF78F
:1087A0001BFE07232B7070BD0020FEF705FE00287E
:1087B00000F0D3800020FEF71BFE46F26661032323
:1087C0002B7000227748BDE87040FCF7EBB9002021
:1087D000FEF7F2FD002800F0C5800020FEF708FE3D
:1087E0004FF400310423EBE70020FEF7E5FD0028FD
:1087F00000F0BD800020FEF7FBFD05232B7000225A
:1088000041F69A116748BDE87040FCF7CBB90020EB
:10881000FEF726FE06232B70002240F6CD4161486C
:10882000BDE87040FCF7BEB9FEF704FE0C232B70C8
:1088300070BD5D48FCF70CFAD4F1110405467BD0FD
:10884000002879D1012C13D0C82303FB04F44FF482
:10885000FA704FF400430021C3FB04014FF47A7215
:10886000002306F01BFF2A4601464F48FCF79AF901
:108870000220FEF7B1FD4A4B01221A7070BD484B31
:108880001B78002B79D00020FEF7B2FD0120FEF707
:10889000AFFD0320FEF7ACFD12232B7070BD404BE3
:1088A0001B78002B6FD00020FEF7A2FD0120FEF701
:1088B0009FFD0320FEF79CFD0020FEF78DFD132396
:1088C0002B7070BD364B1B78002B59D00020FEF763
:1088D0008FFD0120FEF78CFD0320FEF789FD0023AC
:1088E0002B7070BD2E4B1B78002B4FD00020FEF755
:1088F0007FFD0120FEF77CFD0320FEF779FD0120BE
:10890000FEF76AFD14232B7070BD0020FEF754FDA6
:10891000C8B10020FEF76CFD022C4EF2666118BF54
:108920004FF400312C7000221E48BDE87040FCF767
:1089300039B9FEF769FDD0E60220FEF759FD184B64
:1089400000221A7070BDFEF747FD43F2333341F643
:108950009A11022C18BF1946E4E7FEF73DFD41F6D7
:108960009A112CE7FEF738FD43F233313AE7FEF770
:1089700033FD42E7FEF748FD07E7FEF745FD8BE7CD
:10898000FEF742FDABE7FEF73FFD95E7FEF73CFD46
:10899000B5E700BFB8340020C0340020E834002020
:1089A000B534002094340020EC340020FEF78ABD5A
:1089B00038B5C44B1B6813F0010401D1204638BD03
:1089C000C14C23780546E3B9172D00F27881DFE822
:1089D00015F00B013101310169007D009100A50006
:1089E0005B003500280035002800B300BA00BA004B
:1089F000BA00BA00BA00E300F6001C0142006300AE
:108A00006300B24B1B7800202070002B00F0278100
:108A1000FEF7EEFC0120FEF7EBFC0320FEF7E8FC7E
:108A2000D2E7012318462370FEF71AFD00224FF407
:108A30008041A748BDE83840FCF7B4B80123184688
:108A40002370FEF70DFD002240F6CD41A048BDE8A1
:108A50003840FCF7A7B89D4B1B78002B00F0208115
:108A60000020FEF7C5FC0120FEF7C2FC0320FEF744
:108A7000BFFC0020FEF7B0FC0120FEF7ADFC954BDB
:108A800015221A70002499E70020FEF7A5FC914BEF
:108A900007221A70002491E7FEF7CCFC8D4B0024CE
:108AA0001D708BE70020FEF787FC002800F0E180B6
:108AB0000020FEF79DFC46F26661864B8448032445
:108AC0001C700022BDE83840FCF76CB80020FEF7AF
:108AD00073FC002800F0DC800020FEF789FC4FF4D6
