:020000021000EC
:10F0000000000120259D0200619D0200E5850200AF
:10F01000659D0200679D0200699D020000000000DE
:10F020000000000000000000000000006B9D0200D6
:10F030006D9D0200000000006F9D0200719D0200A6
:10F0400059610200739D02001D6902009967020068
:10F05000739D0200739D0200A5620200739D020071
:10F06000739D0200739D0200739D0200739D020058
:10F07000739D0200739D0200739D0200739D020048
:10F08000739D0200458F0200739D0200739D020074
:10F09000E58F0200739D0200799C0200739D0200BF
:10F0A000739D0200739D0200739D0200739D020018
:10F0B000739D0200739D020000000000000000002C
:10F0C000739D0200739D0200739D0200739D0200F8
:10F0D000739D0200739D0200739D020000000000FA
:10F0E0000000000000000000000000000000000020
:10F0F0000000000000000000000000000000000010
:10F1000000000000000000000000000000000000FF
:10F1100000000000000000000000000000000000EF
:10F1200000000000000000000000000000000000DF
:10F1300000000000000000000000000000000000CF
:10F1400000000000000000000000000000000000BF
:10F1500000000000000000000000000000000000AF
:10F16000000000000000000000000000000000009F
:10F17000000000000000000000000000000000008F
:10F18000000000000000000000000000000000007F
:10F19000000000000000000000000000000000006F
:10F1A000000000000000000000000000000000005F
:10F1B000000000000000000000000000000000004F
:10F1C000000000000000000000000000000000003F
:10F1D000000000000000000000000000000000002F
:10F1E000000000000000000000000000000000001F
:10F1F000000000000000000000000000000000000F
:10F2000000B583B000F0C0FC00F03AF900F048FC13
:10F210000DF1070000F0B6FC00F004FC03200849E3
:10F2200009F030FC00F07AFC9DF8070000F044FB88
:10F2300009F0B2FD0028FBD100F028FCF8E700BF80
:10F2400008AC020076DF704778DF70477ADF7047DE
:10F250007CDF7047A8DF704769DF704766DF704763
:10F2600032DF7047704700BF0AF02ABB10B5044672
:10F2700009F02EF82046BDE8104000F0FBBE00BFAC
:10F2800010B5044684B002F04DFA204605F060FD4A
:10F2900021462E4801F03CFA21462D4800F024FF7B
:10F2A000204602F0E3F92388112B3CD017D9512BCB
:10F2B00021D0562B0AD03B2B08D0204600F07AFEF6
:10F2C0002146244802F070FB04B010BD1321A08831
:10F2D000FFF7B8FF0028F0D00AF0F2FAEDE7012BB3
:10F2E0002BD0102BE9D11C49032009F0CBFB1B4B81
:10F2F000A2881A80E1E7A379002BDED0A27B043A32
:10F30000022ADAD8022B0CBF022201224FF4C17369
:10F310006946A0888DF80020ADF80430FFF79AFF09
:10F320000028CAD0D8E7227A0D49032009F002FC50
:10F330000A4B4FF6FF721A80BFE7084B002118886E
:10F34000FFF78CFF0028B8D0C6E700BF9C44002020
:10F35000EC440020F02500203CAC02006425002095
:10F3600054AC020010B50A8840F677239A420C4646
:10F3700005D021460848BDE8104001F0D1BB8B887C
:10F380004A880649032009F033FC21460248BDE8BB
:10F39000104001F0C5BB00BF9C44002078AC0200C7
:10F3A00008B5037803B108BD054B3B211888FFF76A
:10F3B00049FF0028F7D0BDE808400AF081BA00BF35
:10F3C0006425002008B530B1032807D10649BDE8FF
:10F3D000084009F057BBFFF743FF00B908BDBDE87F
:10F3E00008400AF06DBA00BFB4AC020010B5037853
:10F3F00084B004460E2B0FD8DFE803F0220E270E50
:10F400003315100E1E0E1008100E3B00032000F0E6
:10F41000B1FD08B10AF054FA04B010BD80680028AC
:10F42000F8D104B010BD08F025FD0E280346F3D036
:10F4300033F00803F0D0EDE700690028ECD0E9E7ED
:10F440000D49032009F01EFBE6E7408802F0F8F9B9
:10F45000227A6388094900920246032009F02EFCB3
:10F46000DAE704A9002301F8043D408805F0F0FC28
:10F47000D2E705F0EFFCCFE7D4AC020008AD020004
:10F48000F0B5CC4BCC491868A1B000230390D8222A
:10F4900003A80AF093FB002840F0068220AC00236A
:10F4A00044F8603D20460AF0FFFB002840F0F98157
:10F4B0000C22002110A80AF026FF002310A9089AA8
:10F4C0008DF840300120FFF7C7FE002840F0E681AC
:10F4D0000C22002110A80AF016FF012100238DF84C
:10F4E0004010089A8DF8413010A940208DF8423024
:10F4F000FFF7B2FE002840F0CE810C22002110A8B8
:10F500000AF001FF01219E238DF84010089AADF802
:10F51000423010A92320FFF79FFE002840F0B88159
:10F520000C22002110A80AF0EEFE4FF4A075012372
:10F53000089A8DF8403010A920208DF84230ADF89F
:10F540004450FFF789FE002840F09F8120460AF0D2
:10F55000B5FB002840F0968198480AF079FB002816
:10F5600040F08D8196480AF07DFB08B10AF0A8F9B9
:10F570009DF820309348012262F3030362F30713DE
:10F580008DF820300AF002FF8E4982B22046FFF744
:10F590005FFE002840F0708140F24130FFF754FEDA
:10F5A000002840F066810822002110A80AF0ABFE76
:10F5B0004FF4A0754FF4027100224FF4C87310A8E5
:10F5C000ADF84050ADF84210ADF84420ADF84630EB
:10F5D000FFF73CFE08B10AF073F97B497B4802F063
:10F5E000CDF908B10AF06CF903231422002103A815
:10F5F0008DF80B300AF087FE9DF818009DF81B303F
:10F600009DF819709DF81A609DF81C50012262F354
:10F61000030062F3030362F3071062F3071307F0BA
:10F62000F00706F0F00605F0F0058DF81020002236
:10F630008DF8180062F3071762F3071662F30715D7
:10F640008DF81B3003A90DF10B0361488DF819707B
:10F6500003928DF81A608DF81C50059301F082F822
:10F66000002840F003811422002120460AF04BFEBE
:10F670009DF82D509DF82E109DF830209DF82F609C
:10F680005448012363F3030563F3030163F3071590
:10F6900063F3071163F3030206F0F00663F3071246
:10F6A0006FF307168DF82D508DF824300025642354
:10F6B0008DF82E1021468DF830208DF82F6008959A
:10F6C0000A958DF82C3000F03DFD002840F0CB80ED
:10F6D00040220DEB020000210AF015FE3E4910A861
:10F6E00002F03CF99DF87C309DF87D20012161F30A
:10F6F000030302F0F00261F307136FF3071210A87F
:10F700008DF87C308DF87D2000F096FE08B10AF06F
:10F71000D7F83C22002110A80AF0F5FD02220620AD
:10F720002E4B8DF8402001250326202200218DF844
:10F7300043002046ADF8506015938DF842500AF012
:10F74000E2FD002122464FF49676B4240091244B2A
:10F750008DF8235010A80C960D9400F049FB08B1C9
:10F760000AF0AEF8012000F03DFB1C22002110A899
:10F770000AF0C9FD164B1B499B891B4AADF84E3058
:10F780004FF4203600234FF47025032410A8109363
:10F790008DF85030119612958DF84C4015911692B7
:10F7A00001F02AFF08B10AF08BF805F0E3FA00280F
:10F7B00056D11BE038AC02000426002081F2010083
:10F7C0006DF2010054AD020065F30100F025002048
:10F7D0009C440020EC44002060AD0200582500202D
:10F7E000C5F30100A1F3010069F201000522002127
:10F7F00010A80AF088FD9DF840309DF843109DF850
:10F80000442043F00103032003F0FD0360F30613DB
:10F810006FF3C71341F0030142F0030207251024E0
:10F8200010A88DF840308DF843108DF844208DF8E5
:10F8300041508DF8424005F001FB70B91C4805F0BD
:10F84000E1FA38B91B4808F041F808B10AF038F875
:10F8500021B0F0BD0AF034F8F4E70AF031F8EDE732
:10F860000AF02EF8C2E70AF02BF831E70AF028F880
:10F87000F9E60AF025F896E60AF022F88CE60AF096
:10F880001FF86FE60AF01CF866E60AF019F85DE664
:10F890000AF016F844E60AF013F82EE60AF010F81B
:10F8A00016E60AF00DF803E60AF00AF8F6E500BFDE
:10F8B000EDF3010065F2010008B520B9032000F066
:10F8C00059FB40B908BD0649032009F0DBF805F0F3
:10F8D000C9FA0028F6D0BDE8084009F0F1BF00BF22
:10F8E00074AD02003EDF7047044A0548137883F088
:10F8F00001031946137001F00FB900BFDC26002088
:10F900009C44002010B51249124C134809F0F4FA37
:10F91000236881B201331148236001F051F830F0BF
:10F92000080207D0132805D043F20142904201D0CB
:10F9300009F0C6FF22680A4B0A49A3FB02035B08D1
:10F9400003EB4303D31A18BF01230B7010BD00BF94
:10F950003C27002008270020E02600209C440020AF
:10F96000ABAAAAAA6625002008B50B490B4809F0E6
:10F97000C3FAC1B20A4800F0B7FC30F0080209D05F
:10F98000132807D043F20142904203D0BDE808405B
:10F9900009F096BF08BD00BFF8260020F026002021
:10F9A000EC44002008B51B4B1B7803B908BD1A496D
:10F9B0001A4809F0A1FA81B2194801F095F81649E0
:10F9C000164809F099FA81B2154801F08DF81249EC
:10F9D000124809F091FA81B2114801F085F80E49F8
:10F9E0000E4809F089FA81B20D4801F07DF80A4904
:10F9F0000A4809F081FA81B2094801F075F8064910
:10FA0000064809F079FABDE8084081B2044801F0DF
:10FA10006BB800BF662500202C270020E8260020B8
:10FA20009C440020F8B5134B134801245122194679
:10FA3000642683E844009C601C7309F04FFA0F4B66
:10FA40000F488C250A2219461D604FF49677002531
:10FA50005F609A601D7309F041FA0A4B0A481E6004
:10FA60004FF4FA729C601D735A601946BDE8F84065
:10FA700009F034BAF8260020F02600203C270020A8
:10FA8000E02600202C270020E826002008B5FFF7FC
:10FA900029FF00B908BDBDE8084009F011BF00BF4B
:10FAA00008B509F0A7FD28BB144A1548012109F043
:10FAB00063FEE0B9134A1448012109F05DFE98B9CC
:10FAC000124A1348012109F057FE50B9114A124851
:10FAD000012109F051FE00B908BDBDE8084009F058
:10FAE000EFBE09F0EDFEF1E709F0EAFEE8E709F004
:10FAF000E7FEDFE709F0E4FED6E700BF69F90100A1
:10FB000094AD020005F9010098AD0200A5F90100CD
:10FB100090AD0200E9F801008CAD020008B50022AA
:10FB20004FF48031134809F039FEF8B900224FF440
:10FB30000041114809F032FEA8B9002242F2666184
:10FB40000E4809F02BFE58B900224FF420310C4822
:10FB500009F024FE00B908BDBDE8084009F0B0BEB8
:10FB600009F0AEFEF0E709F0ABFEE6E709F0A8FE0B
:10FB7000DCE700BF6C2700208C2700200C2700202A
:10FB80004C270020704700BF08B5002008F05AFF3E
:10FB900000B908BDBDE8084009F092BE73DF7047A8
:10FBA000F0B5854D85B006460722002183480AF04E
:10FBB000AAFB6B78FBB9AB78814F002B70D17F4CDF
:10FBC0006378002B70D1A378002B6DD1E378002BE4
:10FBD0006AD12379002B67D16379002B64D1A37993
:10FBE000003318BF0123701E032800F2E180DFE814
:10FBF00000F0164F1C38724F3B78012B04D0AA78C6
:10FC0000002ADCD0022BDAD16E4B6F4A1B68002B26
:10FC100000F0C5800121082011709847CFE76A786D
:10FC2000002A35D0002B40F0BC80EB78CBB1654B7F
:10FC30001B6803223A70E3B9644B00221A70102249
:10FC4000684600210AF05FFB3B7800228DF8002017
:10FC50008DF80820042B49D8DFE803F095896D4B17
:10FC600028002B79D3B1574B1B6804223A70002B24
:10FC7000E2D02A78002ADFD0554A1278002ADBD158
:10FC8000544852490270012207200A709847D6E76B
:10FC9000AA78002AC9D0002BC7D002233B70CBE73B
:10FCA0003B78012BAED1AFE701239CE72B78A96904
:10FCB000EA69ADF80A10ADF80C20002B67D0444B70
:10FCC0001978002963D1434B1B78002B5FD0424B3E
:10FCD000042402221846DC708DF8082001F092F905
:10FCE000002861D13D4A3B7806211170002B35D0A8
:10FCF0002EE02B7829696A69ADF80A10ADF80C205E
:10FD0000002B48D0324B1978002944D1314B1B7855
:10FD1000002B40D0304B042402221846DC708DF8B2
:10FD2000082001F06FF900283ED12C4A3B780521CC
:10FD300011709BB10CE02948EA68AB68019401217D
:10FD4000022404708DF80010ADF80C20ADF80A30D4
:10FD5000234B68461978FFF721FF30B9194B1B6810
:10FD600013B11E4A10789847002005B0F0BD1B491A
:10FD70000194012200230A708DF80020ADF80C30A8
:10FD8000ADF80A30E4E7154B00221A70E6E7134B92
:10FD900004221A70DCE7114B03221A70D8E71370A3
:10FDA0000DE701233B7047E73B78002BD6D0CFE728
:10FDB00000233B7040E700BF2C28002024280020AF
:10FDC00075280020F82700207628002073280020BE
:10FDD0001F280020E8270020AC27002084280020CE
:10FDE00074280020014B1870704700BF7428002051
:10FDF0002DE9F84FDDF828E0002800F09B80002A6C
:10FE000000F09880144605469C460E460FCC4B4F9A
:10FE1000DFF85091DFF850A1DFF85081DFF850B1E2
:10FE20000FC794E80F0087E80F00454A454F464B3F
:10FE3000C2F800C0002401214FF6FF7C89F80010B1
:10FE4000072221464148A3F800C0CBF800E08AF819
:10FE5000004088F800400AF056FA21463C22384615
:10FE60000AF051FA05F1100393E80300AA78EB7841
:10FE700095F800E0BA70FB7007F1100395F801C027
:10FE800087F800E083E8030005F1080393E8030026
:10FE900007F1080E05F118038EE8030093E803004C
:10FEA0006A6A87F801C007F1180383E80300B2B15A
:10FEB000274B7B62686A274A9A60B0F804E00188A1
:10FEC0001980A3F804E0BEF1000F08D0013A2346E0
:10FED0008168C95C02F8011F01337345F8D1AB6A30
:10FEE000B3B11D4BBB62A86A1C4A9A6084889C808F
:10FEF0000188198044B1013A00238168C95C02F885
:10FF0000011F0133A342F8D195F82C3087F82C302B
:10FF10002B6A33B1124B3B622A6A5188598012888E
:10FF20001A806B6803B17B6031460648BDE8F84F24
:10FF300001F068B80E20BDE8F88F00BF2C28002023
:10FF4000F8270020AC2700204C280020242800207F
:10FF5000EC270020002800207828002054280020CA
:10FF600050280020772800207528002074280020C1
:10FF7000202800200C4B1B780BB90820704710B5C7
:10FF80000A4B82B0044601A81C7008F097F9019B47
:10FF90002BB1074B01221A70002002B010BD204681
:10FFA000FFF7FEFDF9E700BF772800207528002045
:10FFB000FC27002010B50388112B82B019D01B2B11
:10FFC0000AD0102B01D002B010BDC37B012BFAD197
:10FFD000214B82881A80F6E7037A002BF3D11F4B5E
:10FFE0001B78F3B908201E4B1B68002BEBD09847F9
:10FFF000E9E7194A838812881A4900209A42087052
:020000022000DC
:10000000E1D1164B1B78002BECD0174B012401A833
:100010001C7008F053F9019BBBB1144B01221A70FC
:10002000D1E71149124C0B78013384FB0324DA1712
:10003000C2EB640404EB84041B1BDCB201A80C704B
:1000400008F03CF9019B002BE7D12046FFF7A8FD03
:100050000028B8D0C7E700BF4C2800207728002030
:10006000202800201F28002075280020FC270020C1
:10007000676666660238012813D830B5114C2378BC
:1000800083B00BB903B030BD0F4B1B780022227038
:1000900043B908200D4B1B68002BF3D0984703B0E1
:1000A00030BD70470A4B01A81D7808F007F9019B85
:1000B00013B101232370E5E72846FFF771FD0028FF
:1000C000E0D0E7E7FC270020772800202028002048
:1000D00075280020A0DF7047A2DF7047A3DF7047BC
:1000E000A4DF7047A6DF704748B141B10B88112BE0
:1000F00024D0502B04D0102B04BF8B884382704730
:10010000037D002BFBD0CA8843899A42F7D10B8A22
:10011000022BF4D10368002BF1D010B50446084639
:1001200082B0123001F010FC02A980F0010001F849
:10013000040D23682046984702B010BD4FF6FF73A8
:1001400043827047D8B1D1B1F0B50E4693B0336851
:10015000036012A94FF6FF7341F60F024382044673
:10016000012521F8382D327902750374221D2846A5
:100170008DF81250FFF7AEFF18B113B0F0BD0E208E
:100180007047237D002B40F095801C2200210BA896
:100190000AF0B9F89DF82C20237D42F002020021DC
:1001A00063F304128DF82C200C910E910F9103B182
:1001B00002AB0025012742F6192E2946032203A887
:1001C000ADF814E0109311958DF816700AF09BF8B5
:1001D0009DF80E30B27B8DF80C2067F3420303F0DC
:1001E000E70365F30003F27B8DF80E302946337B7D
:1001F0008DF80D2006A814228DF803300AF083F83C
:1002000003A80DF1030E0790ADF822500BA905AD20
:1002100006AAA31DA0880695ADF82070ADF824703D
:10022000CDF828E0FFF758FF05460028A5D1B068B3
:10023000002856D042F608132946032203A88DF859
:100240001670ADF814300AF05EF89DF80E309DF887
:100250000D20307CB1688DF80C0067F3420365F324
:10026000C30301AF65F3041365F3030265F30003F1
:1002700065F3071238468DF80E308DF80D2001F029
:1002800067FB29460646142206A80AF03CF8B3B2DA
:10029000ADF82030ADF8243005AB069306A903ABCA
:1002A00004F10E02E0880A970793ADF82250FFF799
:1002B00015FF62E70146032202A80AF024F89DF820
:1002C00008309DF80A20717B8DF8091065F303034F
:1002D00065F3071365F342028DF808308DF80A20A4
:1002E00053E7E08149E700BF70B588B08DF807108B
:1002F00040B3027CCBB29A4221D0044608220021AE
:1003000002A80AF000F8012500260DF1070302AA51
:10031000E188608AADF80850ADF80A600393FFF7F2
:10032000DFFE68B99DF80730628A23744FF6FF73C9
:100330009A4201D0237D43B9082008B070BD002047
:1003400008B070BD0E2008B070BD0146102204A890
:1003500009F0D9FFE688BDF80A20039B608A8DF872
:10036000125002AC04A90694ADF81060ADF8142048
:100370000793FFF7B7FEE3E7A0DF7047A2DF704700
:100380002DE9F04304468FB0154699460F460029E3
:100390004BD015B9284609F093FA07A81C22002172
:1003A00009F0B1FF9DF81C60ADF80440002421461F
:1003B0004FF0010846F00206684603228DF81C60E3
:1003C00008940A940B940C940D948DF8068009F00F
:1003D0009AFF9DF8022099F800308DF8003068F3FC
:1003E000420202F0E70364F3000399F801608DF81C
:1003F0000230214602A814228DF8016009F083FF23
:100400000C4BADF8124002AA07A91888169BCDF82C
:100410000CD001ACADF81050ADF814500697029412
:10042000FFF7ACFF0FB0BDE8F083084609F048FACB
:10043000AFE700BFD0280020F0B595B014A941F671
:100440000A0321F8403D01230446A44A8DF81230E6
:100450001846FFF791FF002840F0EE802288002A1E
:1004600040F0EC802289002A40F0F780228A002A9E
:1004700040F00081228B002A40F00981228C002A62
:1004800040F01281228D002A40F01B81236B002B4B
:1004900064D01A688DF818201A68120A8DF819208D
:1004A0005A888DF81A20DA788DF81B205A688DF852
:1004B0001C209B688DF81D301D0A1C221B0C00217E
:1004C0000DA88DF81E508DF81F3009F01CFF9DF807
:1004D0003430002503AE42F6232E43F002030127F9
:1004E000294630460322ADF814E08DF834308DF8FB
:1004F00016700E95109511951295139509F003FF3E
:100500009DF80E3094F83C208DF80C2067F34203E0
:1005100003F0E70365F3000394F83D708DF80E30A7
:100520002946142208A88DF80D7009F0ECFE6B4ADC
:10053000099610886A4BADF82A5008260DF1140E62
:1005400006AF08AA0DA9CDF820E0ADF82860ADF8F7
:100550002C600C97FFF712FF00286DD1636B5BB125
:100560001A7919685F4B009342F62A2004F13C0384
:10057000FFF706FF00285FD1A06B00285CD003784E
:100580008DF8183043888DF819301B0A8DF81A3011
:1005900083888DF81B301B0A8DF81C30C3888DF8BA
:1005A0001D301C221B0A00210DA88DF81E3009F0F9
:1005B000AAFE9DF83430002503AE43F00203012764
:1005C00042F6502E2946304603228DF834308DF8FD
:1005D0001670ADF814E00E951095119512951395BF
:1005E00009F091FE9DF80E3094F83C208DF80C2017
:1005F00067F3420303F0E70394F83D408DF80D40A4
:1006000065F300032946142208A88DF80E3009F07E
:100610007AFE324A099607241088334BADF82A50E7
:1006200005AF06AE08AA0DA90897ADF82840ADF8A9
:100630002C400C96FFF7A2FE15B0F0BD2B4B616865
:10064000009342F6292004F13C03FFF799FE0028AD
:10065000F2D12289002A3FF409AF254BE1680093CB
:1006600042F6242004F13C03FFF78AFE00283FF401
:10067000FDAEE1E71F4B6169009342F6252004F1CE
:100680003C03FFF77DFE00283FF4F4AED4E71A4B9D
:10069000E169009342F6272004F13C03FFF770FE66
:1006A00000283FF4EBAEC7E7144B616A009342F6B3
:1006B000262004F13C03FFF763FE00283FF4E2AE7E
:1006C000BAE70F4BE16A009342F6282004F13C039D
:1006D000FFF756FE00283FF4D9AEADE7D028002042
:1006E00098280020A8280020B0280020A02800205A
:1006F00090280020C0280020B8280020C82800200A
:1007000088280020A0DF7047A2DF7047A6DF70476F
:100710000B88112B06D0502B08D0102B04BF8B88D0
:10072000038470474FF6FF7303847047CA88838938
:100730009A42F6D10B8A022BF3D10368002BF0D03A
:1007400010B50446084682B0123001F0FDF802A947
:1007500080F0010001F8040D23682046984702B09C
:1007600010BD00BF2DE9F0430F46B9B03B680360F0
:1007700038A941F60D03064621F8D43D3B79437173
:100780009B2200234FF6FF704FF00108308486F85B
:100790004E2086F82230A6F84C30B21D40468DF827
:1007A0000E80FFF7AFFF044618B1204639B0BDE810
:1007B000F0830DF1040903222146484609F0A3FD08
:1007C0009DF804309DF806503A7B8DF8052068F3BB
:1007D000030368F3071368F342051C2221460AA8A5
:1007E0008DF804308DF8065009F08DFD9DF8283005
:1007F0008DF8128002AD43F0100342F6372E03222B
:10080000214628468DF82830ADF810E0CDF83C9010
:100810000B940D940E94109409F075FD9DF80A3018
:100820007A7B97F80EE08DF8082068F3420364F3B2
:10083000C30364F30413DBB243EA08031422214622
:1008400005A88DF80A308DF809E009F05CFD737990
:1008500096F82210B6F84C200695002B15BF0423FD
:1008600000234FF006084FF00208002908BF984601
:1008700004AB8DF8454005930AB396F84EE0BEF1FF
:10088000030F48F0100840F296800DF1440920460D
:1008900006F122014C46042501E0AE457DD331F836
:1008A000023FA37001301B0A8242E370EBB204F1F5
:1008B000020405F10205F0D19DB2144603E014468E
:1008C00002250DF14409141B0020A6F84C40ADF898
:1008D0001E009B2406F1080305AA0AA9F088ADF8BA
:1008E00020408DF84480ADF81C50CDF82490FFF7DF
:1008F0000BFF044600287FF458AFBB68002B3FF481
:1009000054AF01461C22484609F0FDFC9DF84430D6
:1009100012944FF0010843F00203214642F63825B5
:10092000032204A814941594169417948DF8443057
:10093000ADF814508DF8168009F0E5FC9DF81230E2
:10094000FA7B3D7C8DF8102068F3420364F3C30307
:1009500064F3041364F30003214614220AA88DF8FB
:1009600012308DF8115009F0CEFCBD680E9505AD22
:100970000A95F088ADF832400AAA494606F11003FC
:1009800004ADADF83080ADF834800B95FFF7BCFEB8
:100990000446204639B0BDE8F0839DB284B2121AF5
:1009A00006EB40015200243106F1240009F090FCCE
:1009B000B6F84C2087E7204602250DF14409EEE702
:1009C000028C4FF6FF739A4201D1082070472DE93F
:1009D000F043437990F82220002B15BF4FF0060911
:1009E0004FF0020904230023002A08BF9946FF297B
:1009F000ADB035D8B0F84C200225C9B22C462F46F0
:100A0000042380468DF81510002A3AD1144605AE0D
:100A1000121BA8F84C200021102201A88DF8149078
:100A2000ADF80250012409F06EFCB8F80870B8F86F
:100A30002000049600220DF1020301A9ADF8047014
:100A40008DF80640ADF808200393FFF75FFE20B94C
:100A5000BDF80230AB4218BF0C202DB0BDE8F083CA
:100A6000B0F84C200B0A0325C9B28DF8163049F0B6
:100A700001092C462F46052380468DF81510002AC3
:100A8000C4D098F84EC0634549F0100927D8BD1C62
:100A900008F12200002105AE01E0654511D830F8CB
:100AA000023F335506EB040E0131EFB21B0A8A42B6
:100AB0003C4607F102058EF80130EED1BDB2144676
:100AC000A6E7A5B28CB2521A08EB410152002431BC
:100AD00008F1240009F0FCFBB8F84C2098E700244A
:100AE000214605AEEFE700BF38B5B0F84C30142B07
:100AF00004460D4606D004EB43020133A4F84C3003
:100B0000958438BD26228118243009F0E1FBB4F821
:100B10004C30013B9BB2EEE780F82210704700BFDB
:100B2000028C4B889A4200D070470A8840F677239F
:100B30009A42F9D10B79033B80F84E30704700BFE1
:100B40006DDF704772DF704779DF70477DDF704778
:100B500064DF70472DE9F04F83B004880C9FBDF827
:100B60003490B7F800A0002C4CD0984600231646CD
:100B70008B4605461C4603E02A880134A24224DD48
:100B80006A6852F82400019000220DF1030101A8C7
:100B9000FFF7DEFF10BB9DF80320B242ECD103B398
:100BA0003A8893194B4518DC42440DF1030101A822
:100BB0000123FFF7CDFF88B93A889DF803100A4456
:100BC0003A802A880134A242DADCDBB13B88013B5F
:100BD000CAEB03039BB2FF2B12D90C2003B0BDE874
:100BE000F08F3B885A1C334402334B4592B2F4DCFD
:100BF0003A8008F802B03A88013292B23A80D3E7DC
:100C000008F80A30002003B0BDE8F08F2DE9F04766
:100C100000231788138090F82D3084B014460546C1
:100C20000E46002B49D1AA78002A70D1EA78002A12
:100C30002ED16A68A2B1D91CB94225D8022192F9F5
:100C40000020F154238801339BB20A212380F15400
:100C5000238801339BB22380F254238801332380FD
:100C60002B89002B40F02A812B8A002B40F03F81FA
:100C70002B8B002B40F054812A6A002A00F0A780B9
:100C800021888B1DBB4262D90C2004B0BDE8F087DF
:100C9000D91CB942F8D80221F154238801339BB200
:100CA00001212380F15423880B449BB22380F2540A
:100CB00023880B449BB22380BBE7082FE4D902A80A
:100CC000FFF73EFF0028E0D113880822CA5423888A
:100CD00001339BB21B222380CA542088013080B28A
:100CE0002080062208440DF1090109F0E6FA238864
:100CF0009DF8082006339BB212F0FE0218BF0122B5
:100D00002380F254238801339BB223808BE7043382
:100D1000BB42B9D802A8FFF717FF0028B5D1238836
:100D2000BDF808200321F154238801339BB2192117
:100D30002380F154238801339BB2F1182380F254AD
:100D4000120A4A70238802339BB223806EE713880D
:100D5000052B40F2AF806FF4486803EB080080B2C7
:100D60004FF27D3E704540F2A5805088052840F244
:100D7000A1806FF4486C84441FFA8CFCF44540F267
:100D800099804FF6FF7E734504D0704502D08342B0
:100D900000F2908005237354238801339BB2122103
:100DA0002380F154238801339BB223801188F154AE
:100DB0003344090A5970238802339BB22380528836
:100DC000F2543344120A5A70238802332380D5F830
:100DD0002480B8F1000F30D0B8F804202188131D0A
:100DE0000B44BB423FF650AF931CFE2B3FF64CAF7B
:100DF00003327254238801339BB2FF222380F254C2
:100E0000238801339BB22380B8F80020F254334486
:100E1000120A5A702088023080B22080B8F804206C
:100E20005AB1D8F80810002944D0304409F045FAE6
:100E3000B8F8043022881344238095F82C30002B16
:100E400040F08B80287800283FF41FAF2B88012BBF
:100E500030D023889A1CBA423FF616AF012805D13C
:100E60006978023119448F42FFF40EAF023FFB1A3A
:100E700004A99BB221F8083DB018FFF767FE0028CF
:100E80007FF403AF2A78022A00F0B480012A60D0F0
:100E90001A460821FE2A3FF6F7AE2388551CF55462
:100EA000238801339BB22380F154238801331A44F1
:100EB0002280EAE6072004B0BDE8F08705F10808C3
:100EC00002228DE89000404611463346FFF742FE6D
:100ED00000287FF4DAAE8DE89000404633461022B9
:100EE0000621FFF737FE00287FF4CFAEBCE605F100
:100EF00010088DE890004046334602220321FFF798
:100F000029FE00287FF4C1AE8DE8900040463346AC
:100F100010220721FFF71EFE00287FF4B6AEA7E6D9
:100F200005F118088DE8900040463346022214214E
:100F3000FFF710FE00287FF4A8AE8DE89000404631
:100F4000334610221521FFF705FE00287FF49DAEE1
:100F500092E66A7893429CD29AE7D5F82880B8F155
:100F6000000FA7D0B8F804200232FE2A3FF68CAE5C
:100F700023884FF000094FF0160A0132F2542388FB
:100F800001339BB2238006F803A0238801339BB270
:100F90002380B8F80020F2543344120A5A70238890
:100FA00002339BB22380B8F80410F0180A4669B1E6
:100FB000D8F808301946002B3FF47CAF09F07DF9D2
:100FC000B8F80430228813449BB2238009F1010948
:100FD00095F82C205FFA89F94A4509EB49087FF614
:100FE00031AFAA6A02EB8808B8F804200232FE2A60
:100FF000C3D949E6BDF808209342FFF449AF09215F
:1010000048E700BF2DE9F04395B01F230D46ADF82A
:101010000E300446002800F08480C27853077CD547
:1010200090F82D300021ADF80C10002B40F0DD8140
:1010300083780CAF002B40F019821946032014AEC0
:1010400031445F1C023316FA87F74FF0020E16FA8E
:1010500083F601F840EC83B2012107F8401CADF89B
:101060000C3006F8402C6668002E00F08C80D81CEE
:101070001F2874D90C2015B0BDE8F083A76A002F93
:101080004BD0BA880232FE2AF4D8BDF80C304FF0AB
:10109000000804AE4FF016091AE009F00EF9BDF889
:1010A0000C20BB8894F82C1013449BB2ADF80C3084
:1010B00008F101085FFA88F8884508EB480780F0D6
:1010C000F080A26A02EB8707BA880232FE2AD1D8E2
:1010D0000DF1500E9E44581C01320DF1500C0EF8CB
:1010E000402C1CFA80F09A1C92B200F8409CADF89B
:1010F0000C203888B0543244000A50700433B7F8DA
:1011000004E09BB27246F018ADF80C30BEF1000F4F
:10111000CED0BB681946002BBFD1072015B0BDE863
:10112000F083ADF80C00ADB1EB78002BF5D128467B
:101130000CA90DF10E02FFF769FD0028EED19DF814
:101140000E300CAA20469DF80C10FFF7FBFC15B0E2
:10115000BDE8F0832B46ADF80E502A46F2E714AFF7
:10116000591C9A1C17FA81F13B4417FA82F296F93E
:101170000060ADF80C0002270A2003F8407C01F85B
:10118000400C02F8406C2389002B40F08F80238AAA
:10119000002B40F0AB80238B002B40F0C780226AED
:1011A000002A42D0BDF80C30991D1F293FF662AFCE
:1011B00010880528B1D96FF4486C00EB0C06B6B264
:1011C0004FF27D37BE42A8D95688052EA5D96FF4B7
:1011D000486EB6441FFA8EFEBE459ED94FF6FF7785
:1011E000B84203D0BE4201D0B04296D814A8C71866
:1011F0005E1C10FA86F64FF0050E981C07F840ECBE
:1012000080B2122706F8407CADF80C001788ADF8C4
:101210000C1004AE3118375404333F0A4F709BB2A0
:101220005288F2543344120A5A70676AA7B3B888D6
:10123000BDF80C30811C9A1C56181F2E3FF61AAFB1
:10124000FE293FF617AF14AE1E44591C0DF1500E87
:101250001EFA81F1033006F8400C92B2FF2001F82B
:10126000400CADF80C20398804AEB018B154090A0E
:1012700041700433BA8898B2ADF80C0062B1B96815
:1012800000293FF44AAF304409F017F8BDF80C20AC
:10129000BB881344ADF80C3094F82C1000297FF46F
:1012A000EDAE2378002B61D104AC3CE703A904F137
:1012B000080704AE4FF01F0802220091384633465B
:1012C000CDF804801146FFF745FC00287FF426AFD7
:1012D00003AB0093CDF80480334638461022062134
:1012E000FFF738FC00287FF419AF50E703AA04F198
:1012F000100704AE4FF01F08009238463346CDF871
:10130000048002220321FFF725FC00287FF406AFAA
:1013100003AB0093CDF804803346384610220721F2
:10132000FFF718FC00287FF4F9AE34E703AA04F1B4
:10133000180704AE4FF01F08009238463346CDF828
:10134000048002221421FFF705FC00287FF4E6AE9A
:1013500003AB0093CDF804803346384610221521A4
:10136000FFF7F8FB00287FF4D9AE18E72288012A9E
:101370003FF4D3AEBDF80C20901C1F283FF67AAE88
:10138000012B05D16378134402331F2B3FF672AE55
:10139000C2F11D0314A99BB204AE21F8203D3044D4
:1013A000FFF7D4FB00287FF4B9AE2278022A00F0C0
:1013B0008780012A00F08B80ADF830301A46082073
:1013C000FE2A3FF657AEBDF80C3014AC591CE71896
:1013D00014FA81F102331344013207F8402C3446E9
:1013E000ADF80C3001F8400C9DE60CAF3846FFF725
:1013F000A7FB00287FF492AEBDF80C3014A903F1CE
:10140000010E9A1C11FA8EFE0B4492B204AEB01873
:1014100008211B2603F8401CADF80C200DF131010A
:1014200006220EF8406C08F048FFBDF80C209DF82D
:101430003010931D11F0FE019BB23BD114A8034460
:1014400003F8401CD31DA2789BB2ADF80C304AB90A
:10145000E278002A3FF407AED81C1F2819463FF651
:1014600009AEECE504331F2B3FF604AE3846FFF718
:101470006BFB00287FF452AEBDF80C30BDF8301085
:10148000E2785F1C14AE16FA87F71E44981C4FF0E2
:10149000030E06F840EC80B204AE4FF0190E07F8C8
:1014A00040EC0433371831549BB2090AADF80C30C4
:1014B0007970CEE714A90B44012103F8401CC1E761
:1014C000BDF830209342FFF477AF092078E76278C7
:1014D0009342FFF471AFADF83020082070E700BFF1
:1014E00075DF704776DF70477ADF70477BDF7047C4
:1014F000184B18884FF6FF7398422AD010B5164A39
:10150000164C1378217B0133DBB2994282B0137001
:101510000CD2237C002111708BB9636923B102A81E
:10152000002200F8042D984702B010BD0C49FFF7C7
:10153000D7FF0028F8D0A369002BF4D1F4E73B21B2
:10154000FFF7D0FF0028E8D0A369002BE5D098472B
:10155000E3E770471C290020DC280020E028002059
:101560002029002070B51E4B1E4A5B8811889942C5
:1015700082B00FD852889A420CD31B4B5B6923B1BF
:1015800002A8012200F8042D9847184C002323706C
:1015900002B070BD154C227862B1134B5B69002B11
:1015A000F4D002A8002200F8042D984700232370ED
:1015B00002B070BD0C4D0E4869680678AB680D48E6
:1015C000002E18BF194608F0E9F80028DED0AB69F4
:1015D000002BDBD098470023237002B070BD00BF02
:1015E000D428002020290020E0280020D228002034
:1015F000DC280020FC280020F8B505460FCD144C4F
:10160000144F0FC4064695E80700002384E807003E
:101610003B70B6B13068104B716803C3A3F108008A
:10162000FFF762FF90B90D4D0D4C0E4A0E48002396
:101630004FF6FF762E8023701946BDE8F84008F07B
:101640009BB80548FFF752FF0028ECD0F8BD00BF5B
:10165000E0280020D2280020202900201C2900207A
:10166000DC280020F11402009CAD020070B5038854
:10167000112B27D012D9122B07D0502B47D1244C35
:10168000C288E3899A4230D070BD083003C8214B2C
:1016900083E80300BDE87040FFF764BF102B35D12D
:1016A0001D491B4C1B4B1D4DE48900F11002808825
:1016B000088092E80300002283E803002A70002CCF
:1016C000E8D070BD1449154B15484FF6FF74002241
:1016D0000C801A7008F0B8F80028D5D00C4B9B6924
:1016E000002BD1D0BDE870401847038A022BCBD124
:1016F000123000F029F90028CCD1094808F0A4F8EC
:101700000028C1D0A369002BECD1BDE770BD70BD2E
:10171000E0280020D42800201C290020DC280020FC
:10172000FC2800200388112B72D02DE9F0431A2BDE
:1017300095B0804651D0102B02D015B0BDE8F08393
:10174000DFF8EC90D9F84820D9F8443009F10401C9
:1017500023EA020203A808F0A7F9039E7EB1002441
:1017600027460DF10E05314935F8023F0097013447
:10177000A1F140001D2208F053F9A642F3D1D9F897
:101780004400B8F804602A4CC04308F015F94FF63D
:10179000FF73984243D004EB4005324604F1480100
:1017A000201D0123AE8008F01DF9324604F14401EA
:1017B000201D012308F016F998F80F30B8F804201E
:1017C000A3F10203B3FA83F35B0904F14C01201D7A
:1017D00015B0BDE8F04308F005B9037A15498288D1
:1017E0001F2B94BF00230123A1F14C0008F0FAF84D
:1017F00098F808301049B8F804202F2B94BF002324
:101800000123A1F1500015B0BDE8F04308F0EAB89B
:101810000A4982880023A1F1440008F0E3B80420BB
:1018200015B0BDE8F04308F04BB800BF6C290020AC
:1018300028290020782900207C29002070290020F8
:1018400038B5094C05460246616C201D08F014F9B4
:1018500040B12A46E16C201D08F00EF9002814BFA3
:101860000220012038BD00BF28290020024B02467B
:10187000196D181D08F000B928290020024B0246F6
:10188000596D181D08F0F8B82829002010B5044932
:1018900004464A6C043108F007F9204610BD00BF29
:1018A0002829002030B40A4D00232968012401E0D2
:1018B000182B0AD004FA03F20A42D8B203F101034A
:1018C000F6D10A432A6030BC7047184630BC7047D6
:1018D0002829002030B4084D01232C688B40234078
:1018E00002D1184630BC704705EB81010246896D74
:1018F000281D30BC08F0C0B82829002070B4084D5D
:1019000001242E688C40344201D170BC704705EB35
:101910008101134658310246281D70BC08F062B898
:101920002829002010B4074901220C6802FA00F3AC
:10193000234018BF01EB80015DF8044B18BF8B6D8D
:101940001846704728290020007800F001007047F1
:101950000B7803704B7843700220704738B504460B
:1019600008460D4608F012FD6560208038BD00BFB6
:101970008FDF70479EDF7047ADDF704790B170B466
:1019800003469E22A224002017261B2519611A80D7
:101990005A80DA801C711C731E819872D8725D7334
:1019A00070BC70470E2070478B8873BB70B50A8877
:1019B000212A82B0044600F09C8016D93A2A00F011
:1019C0008780552A4BD0222A70D0A37ADBB1E188D8
:1019D0000020FFF7CFFF002864D0112813D0024663
:1019E0006649012007F0A6F80DE0102A0ED0112A52
:1019F000EBD19E251720A2211B22A372E372E58062
:101A000020812173627302B070BD70470379037344
:101A1000CA7B012A00F08880022A00F08280C188F7
:101A200022898A42C0F08380627B9A42CDD200250F
:101A30009BB22A4628466946ADF80030ADF8023020
:101A4000ADF80450ADF80650FFF792FF0028BCD067
:101A500003462A464A49012007F0CAF8B5E7CA8872
:101A6000C1888372172A38BF17228A4228BF0A46C4
:101A700018462281FFF780FF002860D1E37A002B0F
:101A8000A3D12269002AA0D02189ADF8023040F606
:101A90007720ADF80000ADF8041020466946904765
:101AA000A37A93E70123A072E372ACE702690D7A8F
:101AB0004573002A89D04DF67A260093ADF804309C
:101AC00069468DF80450ADF800609047A37A7DE731
:101AD000C288498905698A4228BF0A46172A38BF41
:101AE000172202810DB1C17A79BB0023E372A37280
:101AF00089E70D7A027B0193954228BF1546694616
:101B00001A461846ADF80050ADF80250FFF730FF06
:101B100000283FF45AAF02461A49012007F00AF89C
:101B200053E74188C1807BE70188C18078E70020C6
:101B3000FFF720FFA0B90123E372237B74E702467D
:101B40001149012006F0F6FF98E740F67721ADF83D
:101B50000010ADF80230ADF804206946A847C4E78C
:101B6000112803D10123A372237B5DE702460349B9
:101B7000012006F0DFFF237B56E700BFA0AD020087
:101B8000FCAD0200C8AE020070AE020030B585B0F8
:101B9000054600F04FFB112842D0044617D880B309
:101BA0000C281CD1072328468DF80430ADF80850C6
:101BB00000F010FEADF8060001A803F033F8002293
:101BC000184B28461978FFF799FE05B030BD8628D6
:101BD00015D043F20203984201D10022F0E7092315
:101BE00028468DF8043000F0F5FDADF8060001A898
:101BF000ADF80850039403F015F80022E0E708233D
:101C0000D1E7012328468DF80430ADF8085000F0E4
:101C1000E1FDADF8060001A803F004F82246CFE785
:101C20000122CDE7E229002030B585B0054600F05D
:101C300049FB0B2831D004460FD911280BD043F2B1
:101C40000203984219D100221B4B28461978FFF74E
:101C500055FE05B030BD0122F6E770B902232846D3
:101C60008DF8043000F0B6FDADF8060001A8ADF81F
:101C7000085002F0D7FF2246E6E7092328468DF8F0
:101C8000043000F0A7FDADF8060001A8ADF808503B
:101C9000039402F0C7FF0022D6E7032328468DF8FD
:101CA000043000F097FDADF8060001A8ADF808502B
:101CB00002F0B8FF0022C7E7E32900202DE9F04732
:101CC00094B003A8FFF7E2FDDDF80C80B8F1000F37
:101CD00048D03C4FDFF8F0A00DF10E06002402E0E2
:101CE000013444453ED036F8025F39782846FFF784
:101CF000F1FD0028F4D09AF800102846FFF7EAFD1D
:101D000081460028ECD1284600F05EFB08280346F7
:101D100032D02ED943F20202904226D043F2014241
:101D2000904243D0112820D0092228468DF8002067
:101D30000293ADF8045000F04DFDADF80200684686
:101D400002F070FF4FF00009012239782846FFF7B2
:101D5000D5FD01344A4628469AF80010FFF7CEFD1B
:101D60004445C0D114B0BDE8F0874FF0000901220E
:101D7000EBE750B10628D7D1284600F02BFD4FF0F5
:101D8000000900F037FB4A46DFE7052328468DF8B7
:101D9000003000F01FFD4FF00109ADF80200684669
:101DA000ADF8045002F03EFF4A46CEE74FF6FF730F
:101DB0009D4204D02846FFF737FF0122C5E70122E4
:101DC000C3E700BFE0290020E129002010B5037817
:101DD00084B00446012B4088ADF8060017D005D327
:101DE000022B01D12379E3B904B010BD04A800236C
:101DF00000F80C3D02F016FF608800F0C9FD4FF6B8
:101E0000FF739842F0D0FFF70FFF04B010BDA28817
:101E1000ADF8082001A88DF8043002F003FF04B0EB
:101E200010BD00F0B5FD4FF6FF739842DCD0064CB4
:101E300001222178FFF762FD2078FFF773FD00286B
:101E4000D2D0FFF73BFFCFE7E0290020F0B50578BF
:101E5000012D85B01CD144884FF6FF739C42064685
:101E6000204612D000F02EFA0B28074629D019D9A7
:101E7000112838D043F20203984224D100221B4B90
:101E800020461978FFF73AFD708800F08BFA08B900
:101E900005B0F0BD164B708819780122FFF72EFDB2
:101EA00005B0F0BD78B9022320468DF8043000F06B
:101EB00091FCADF8060001A8ADF8084002F0B2FEB2
:101EC000DCE70323F0E7092320468DF8043000F017
:101ED00081FCADF8060001A8ADF80840039702F0B8
:101EE000A1FE0022CBE72A46C9E700BFE329002074
:101EF000E029002070B50578072D84B001D004B02A
:101F000070BD4688304600F095F9112804461FD070
:101F100016D8B0B30C2824D130468DF80450ADF853
:101F2000086000F057FCADF8060001A802F07AFE48
:101F300000221B4B30461978FFF7E0FC04B070BD5F
:101F4000862807D043F2020398420AD10022F0E724
:101F50000122EEE708233046ADF808608DF8043022
:101F6000DFE7092330468DF8043000F033FCADF88C
:101F7000060001A8ADF80860039402F053FE0022A9
:101F8000D7E7012330468DF80430ADF8086000F043
:101F900021FCADF8060001A802F044FE2246C8E785
:101FA000E229002070B5FFF77DFC0F4C0F4D20702B
:101FB000FFF778FC2870FFF775FC0D4E3070FFF7C7
:101FC00071FC23780B4A182B10700AD02B78182B31
:101FD00007D03378182B04D018280CBF032000201A
:101FE00070BD032070BD00BFE2290020E32900205E
:101FF000E0290020E12900202DE9F0470388522B39
:1020000094B004467CD0542B61D0502B16D0DFF80E
:102010000C81404F3878FFF785FC00283AD13E4FBD
:102020003878FFF77FFCD0B998F80000FFF77AFC0A
:1020300008B1FFF743FE14B0BDE8F087037B012B26
:10204000E5D1837A012BE2D1028942F602139A424A
:10205000DDD18088DFF8C480FFF798FDD9E703A8B9
:10206000FFF714FCDDF80C90B9F1000FDCD00DF196
:102070000E06002401E0A145D6D036F8025F39787B
:102080002846FFF727FC01340028F4D02846FFF744
:102090007DFDF0E703A8FFF7F9FBDDF80C90B9F13F
:1020A000000FBCD00DF10E0600244FF6FF7A36F873
:1020B000025F39782846FFF70DFC013420B1554501
:1020C000284601D0FFF7B0FD4C45F0D1A7E7062325
:1020D00080888DF8003000F07DFBDFF84080A38819
:1020E000ADF80200ADF8043000F084F9A08898F84B
:1020F00000100022FFF702FC684602F093FD88E71B
:1021000080884FF6FF73984281D0FFF78DFDDFF88E
:102110000C807EE7E3290020E2290020E02900204E
:102120002DE9F04192B000F00FF901A8FFF7AEFBE6
:10213000019EDFF85880DEB100244FF6FF7703E000
:102140000134A4B2A64213D912AB03EB440333F813
:10215000405C284600F03EFBB842F1D101342846ED
:10216000012298F80010A4B2FFF7C8FBA642EBD8F2
:1021700098F80000FFF7D6FB10B912B0BDE8F08167
:1021800012B0BDE8F041FFF799BD00BFE029002083
:10219000A7DF7047A9DF7047AADF704770B50378E3
:1021A000012B84B023D01D4C23884FF6FF75AB4222
:1021B0001BD01B4A92E8030002AE86E8030000220F
:1021C0001846314602F07EFA2388AB420BD10CE070
:1021D000184602F073FA00223146208002F072FAAB
:1021E0002388AB4201D01128F2D104B070BD05792B
:1021F000012D0446D7D102AA2946408801F02CFDC2
:102200000028D0D16388ADF80230684602238DF8EB
:1022100004508DF80030FFF7D9FDC4E7E62900200F
:1022200028AF0200024B4FF6FF721A800020704761
:10223000E62900202DE9F04182B0074600F0CAFAF5
:102240004FF6FF73984237D0054601264FF003083A
:102250006B4632460821284601F002FD032300BBED
:10226000019A3846911D42F8048BFFF795FF04460A
:10227000E0B10C280ED005284FF00801284608BF11
:10228000002401F08DFF002818BF0324204602B06F
:10229000BDE8F081013608212846B6B201F080FF82
:1022A000D6E7072814BF04460C24EFE72846082188
:1022B00002F0FCF90446E9E743F2020002B0BDE88F
:1022C000F08100BF2DE9F04182B0074600F082FAAC
:1022D0004FF6FF73984204D06A46082101F0BCFC17
:1022E00038B30026354603244FF001082346324612
:1022F00029463846FFF74EFF04280AD008280AD09E
:102300000B280AD0B8F1000F08BF0B2002B0BDE8BF
:10231000F0811120F6E70020F4E714F0020406D162
:1023200065B12646254603244FF00008DEE7012468
:10233000FAE7019DAE882C680635D5E7002EE5D07A
:102340002E460324F0E700BF70B54FF6FF7082B051
:1023500002F0B4F9114A124C034692E8030000223D
:102360008DE8030018466946238002F0ABF9238804
:102370004FF6FF76B3420ED06D460AE0184602F0E3
:102380009DF900222946208002F09CF92388B3425F
:1023900001D01128F2D102B070BD00BF28AF0200F9
:1023A000E629002000B583B000F014FA6A46012146
:1023B00001F052FC20B9019B187803B05DF804FBD2
:1023C000002003B05DF804FB70B5094E3388054664
:1023D00043F2030419464FF6FF722846FFF7D8FE72
:1023E0000133A0429BB200D070BD3380F2E700BF42
:1023F000E429002010B5074B044693E8030082B09F
:102400008DE8030000226946204602F05BF902B025
:1024100010BD00BF30AF020043DF70470388102BB0
:1024200000D070472DE9F043041D0FCCA1B013ADCF
:102430000FC50FCC0FC50FCC0FC59DF850302268CB
:102440002A6003F0FE03062B00F0A48000F082FC5B
:102450009DF850305B08012B40F2D480022B40F0F5
:10246000998005AE0DF1060532462946072000F099
:1024700079FC002800F08E809DF8503003F0FE03B8
:10248000042BF1D1069C03220DF1510102A807F0A3
:1024900014FF032215A904A807F00FFF237C8DF871
:1024A0001C30E37B8DF81D30A37B8DF81E30637BE1
:1024B0008DF81F30237B8DF82030E37A8DF82130A2
:1024C000A37A8DF82230637A8DF82330237A8DF841
:1024D0002430E3798DF82530A3798DF8263063799F
:1024E0008DF8273023798DF82830E3788DF829305E
:1024F000A3788DF82A3063788DF82B300D220021D7
:102500000BA807F000FF9DF810109DF811209DF812
:1025100012308DF83B1007A88DF83A208DF839302D
:10252000FFF77AFF9DF84B209DF84A409DF849300F
:102530008DF80C2003A9032202A88DF80D408DF818
:102540000E3007F0ABFE00288ED1BDF84C70BDF800
:1025500006504FF6FF739F4222D14FF6FF739D4204
:1025600015D0BDF84C40474B20461978FFF7B2F91B
:10257000B8BB20AC012304F8643DBDF84C30ADF885
:102580001E30204602F0AAFB2046FFF75FFC21B078
:10259000BDE8F083BDF84C704FF6FF75AF42F6D042
:1025A000DFF8E080384E98F8001001223846FFF737
:1025B000A5F998F800103846FFF78CF900283FD1AC
:1025C000DFF8C4900024B9F8020098F80010FFF773
:1025D00081F909F10C09002851D00134142CF2D1F1
:1025E000BBE7294E0023324602E00133142BC0D052
:1025F0005188A14202F10C02F7D103EB430326F804
:102600002350B6E705AE0DF10605324629460720F0
:1026100000F0A8FB0028BDD0069911F1110FF4D0ED
:102620009DF850204B7C534013F0FE0FEDD112313A
:1026300006220DF1510007F031FE0028E5D184E7B4
:102640000023324602E00133142BB9D05188B9423D
:1026500002F10C02F7D1DBB203EB430314AA9B0097
:1026600092E80300F41804F10802606022F8021BEB
:102670004FF6FF70090CF052678011706DE7E3B2FE
:10268000EAE700BFD82A0020E8290020037813B920
:102690000179072900D07047F0B589B0044602AA35
:1026A000408801F0D9FA08B109B0F0BD00F052FB42
:1026B00004AA0DF10601072000F054FB0028F3D016
:1026C0006288BDF806309A42F2D0039D6B78F3B968
:1026D000AB78E3B9EB78D3B92B79C3B96B79B3B9DC
:1026E000AB79A3B9EB7993B92B7A83B96B7A73B9C8
:1026F000AB7A63B9EB7A53B92B7B43B96B7B33B9B4
:10270000AB7B23B9EB7B13B92B7C002BD0D0059E80
:102710001022711C681C07F0C1FD074616F111005C
:1027200006D06A7C737C534013F0FE0F25D0002046
:1027300007BB00236488194D1A46E95A1748A1427D
:1027400003F10C0324D00132142AF6D14FF6FF71A5
:1027500006A80022BDF80630ADF81A10ADF81C40EE
:102760008DF81820ADF81E3002F0B8FA06A8FFF771
:102770006DFB99E700289BD0DBE706F1120105F11C
:102780001200062207F08AFDB0FA80F04009CFE778
:1027900002EB420200EB82025188D9E7E8290020CF
:1027A00010B50A4B0A4C1822227003F1F0014FF6C3
:1027B000FF725A800C338B42FBD1FFF773F8182855
:1027C00020700CBF0320002010BD00BFE8290020AE
:1027D000D82A002010B50D4B19780446FFF77AF877
:1027E00010B94FF6FF7010BD09480023024602E001
:1027F0000133142BF5D05188A14202F10C02F7D11C
:1028000003EB430330F8230010BD00BFD82A00209B
:10281000E829002038B5124B0D4619780446FFF719
:1028200059F810B90522104638BD0E48002302465B
:1028300002E00133142BF5D05188A14202F10C02C1
:10284000F7D103EB430300EB8303002253F8040F9B
:10285000286099889B79AB71A980104638BD00BF6C
:10286000D82A0020E829002008B502888AB9837890
:102870007BB9C3786BB903795BB943794BB9837979
:102880003BB9C3792BB9037A1BB9437A0BB9184604
:1028900008BD0B88934201D0002008BD02310822F8
:1028A000023007F0FBFCB0FA80F0400908BD00BF21
:1028B00030B585B00446851C00F04CFA02AA0DF133
:1028C0000601072000F04EFA002857D0238803990C
:1028D000002B35D1A278002A54D1E378002B42D1C5
:1028E0002279002A3FD16279002A3CD1A279002ABC
:1028F00039D1E279002A36D1227A002A33D1627A9C
:10290000002A30D1E378002B33D1227952B9627991
:1029100042B9A27932B9E27922B9227A12B9627A3D
:10292000002ACBD04A8D9A42C8D12C3108222846A1
:1029300007F0B4FC0028C1D1BDF8060005B030BDD9
:10294000B1F846209A42EDD148310822284607F0D6
:10295000A5FC0028F0D023880399002BE2D1A278AF
:10296000002ACFD0DEE7B1F84620002AECD0002BB9
:10297000CBD04A8D00239A42A0D1D6E74FF6FF7004
:1029800005B030BDB1F84620002ADDD0CAE700BF4F
:1029900030B400230A4D1A46E95A094C814203F12A
:1029A0000C0306D00132142AF6D14FF6FF7030BC6A
:1029B000704702EB420204EB820230BC5088704741
:1029C000E8290020038893B9837883B9C37873B961
:1029D000037963B9437953B9837943B9C37933B977
:1029E000037A23B9407A003018BF012070470120D4
:1029F000704700BF38B50C4B0D4619780446FEF7FA
:102A000069FF00B938BD09480023024602E00133DE
:102A1000142BF7D05188A14202F10C02F7D103EB3D
:102A2000430320F8235038BDD82A0020E82900208D
:102A3000F8B500221B4D1346A95A1A4C814202F1E7
:102A40000C0206D00133142BF6D1BDE8F84000F09B
:102A500009BF03EB430304EB83035E8800F002FF2E
:102A60004FF6FF739E42074600D008B13846F8BDC6
:102A70000D4B30461978FEF72DFF0028F6D03B4667
:102A800002E00133142BF1D06288B24204F10C044D
:102A9000F7D103EB43034FF6FF7225F823203846A6
:102AA000F8BD00BFE8290020D82A0020F0B58BB07F
:102AB0000822002101A807F026FC4FF6FF7001F064
:102AC000A1FE4FF6FF76B04218BF044608D12CE0B5
:102AD00001F046FE204601F095FEB042044624D0A7
:102AE000A4F58045ADB2284601AA03A905F034FA41
:102AF0000A282046ECD00F4E3778B7B92846012572
:102B0000357005F07BF90828034610D068B109211B
:102B1000FF2206A83770ADF81A40089709938DF880
:102B200018108DF81C2000F073FB0BB0F0BD024BA9
:102B30001D70FAE7E52A0020E42A002070B54168FC
:102B4000047884B0B1FA81F35B09621E0393042A0E
:102B50000AD8DFE802F033335013030004A8082337
:102B600000F8103D00F054FB3D4C23783C4A1BB16B
:102B700000231370FFF79AFF04B070BD838903F53B
:102B800080439BB243F6FE729342EDD8C289002A7D
:102B9000EAD1FF22ADF802308DF80420002950D090
:102BA00007238DF800302F4A2D4C0023237013701B
:102BB000FFF77CFF684600F02BFBD6E78389C289CC
:102BC00003F580439BB243F6FE75AB422DD8012C32
:102BD000ADF802308DF804203AD000290CBF012353
:102BE00004238DF8003083680293684603911C4CDF
:102BF00000F00EFBB9E78389C28903F580439BB2DD
:102C000043F6FE74A34216D80029816802916846F3
:102C100014BF05210221ADF802308DF804208DF893
:102C200000100F4C00F0F4FA9FE702F58046B6B2B0
:102C3000AE4299D8CBE702F58045ADB2A54293D814
:102C4000E2E7184606238DF8003001F089FDAAE777
:102C500000290CBF002303238DF80030C3E700BF19
:102C6000E42A0020E52A002010B518488AB004F0B4
:102C70002DFE10B103200AB010BD04F03BFE10B1D0
:102C800086200AB010BD019001F020FD01980822B5
:102C9000014605A807F037FB0DE007A804F09EFFEA
:102CA000039B9C8804F58044A4B207A804F0BAFFF3
:102CB000204601F021FD07A905AA4CF2070005F006
:102CC0002DF903A90028E8D00020D4E73D2B02000D
:102CD000FF2801D907207047F0B5012987B004D03B
:102CE0000C1F042C01D9072014E00D4604460021D6
:102CF000164601A808221F4607F005FBA4F58040F0
:102D0000A5F5804180B201AB03AA89B205F0EAF8CB
:102D100010B1052007B0F0BD01A903A804F05EFFC3
:102D20000028F6D1019BB5705B8833802FB13968DC
:102D30009A008A4208D20420ECE7029B736003A841
:102D400004F070FF0020E5E77068029907F0B5FA1B
:102D5000F5E700BF08220021014807F0D4BA00BF00
:102D6000DC2A002070B5044686B0A0F580400E46EF
:102D7000154680B203A90E4A05F0D0F810B1002024
:102D800006B070BD01A903A804F028FF0028F6D101
:102D9000019BAC705988029A29806A609B8803F570
:102DA000804303A8338004F03DFF012006B070BDCE
:102DB000DC2A002008B58278012A034604D0043AB0
:102DC000042A01D9072008BD0846198804F04EFFDF
:102DD000072806D0092803D000280CBF00200320B4
:102DE00008BD862008BD00BF00B583B002AB43F824
:102DF000040D184604F07CFF002814BF03200020B7
:102E000003B05DF804FB00BF70B58CB0FF280192E1
:102E100002D907200CB070BD8A78012A02D0141F95
:102E2000042CF6D8A2F5804296B2A0F580440A8818
:102E3000ADF80C201D464B68029302A90123A4B2F1
:102E40000822079104A80021ADF82030ADF8184001
:102E5000ADF81A6007F057FA04AB3146204609AACC
:102E600005F040F8019B80B133BB06A909A804F026
:102E700069FF0E281AD8DFE800F01219191919197C
:102E800019100E19191919190E008BB906A909A8DC
:102E900004F094FFEDE71120BCE78620BAE78DB17E
:102EA000294609A805F076F80020B3E70320B1E72A
:102EB00001A804F01DFFE9E701AA06A909A804F08A
:102EC0005FFFD6E72846A5E74FF6FF7001F014BC78
:102ED000FF2801D90720704708B501F02DFCFFF746
:102EE000E5FD002008BD00BF01F04EBC01F056BC5E
:102EF00001F088BC2DE9F04FDFF80883B8F8002016
:102F000083B000238242009301938DF8021026D0F3
:102F1000B8F81430834200F0D780B8F828308342E4
:102F200000F0D480B8F83C30834200F0EB80B8F871
:102F30005030834200F0E480B8F86430834200F0FF
:102F4000DD80B8F87830834200F0D680B8F88C3055
:102F5000834200F0C780052003B0BDE8F08F1A4619
:102F60009400A51808EB8505A64BAD788D4200F0BE
:102F7000BF80B3F88C20824200F0D2804FF003096A
:102F80004FF0040C4FF0050E0627072602229D8AFB
:102F9000854202F1FF3425D0082ADCD01C8D844202
:102FA00047D0B9F1080FD6D09C8F84423FD0BCF1F6
:102FB000080FD0D0B3F8504084423CD0BEF1080F87
:102FC000C9D0B3F8644084422FD0082FC3D0B3F8DF
:102FD0007840844231D0082EBDD0B3F88C40844272
:102FE000B9D134464FEA840A0AEB040508EB85059B
:102FF000AD788D420FD00132092A03F1140306F196
:10300000010607F101070EF1010E0CF1010C09F1A7
:103010000109BCD19FE7544408EB8404637CDB07BF
:103020000DD5002003B0BDE8F08F7446DAE74C46BA
:10303000D8E71446D6E76446D4E73C46D2E70546CF
:103040000E467148217C01F0D7FF58B3E3688DF834
:10305000026003EB83031B019BB29B08711E01906E
:10306000ADF80030072908D8DFE801F004070707AA
:10307000070432360123ADF8003004F10803694635
:1030800028466268FFF7C0FE637C03F00603062B48
:103090000CD080B1112837D0862800F0A7800728EF
:1030A0003FF45AAF032003B0BDE8F08F574A1368CE
:1030B000013B1360EDE7637C43F0010360F382039F
:1030C00060F34103637447E7012249E7022247E7BF
:1030D0001423ADF80030D0E7838809339B08ADF89E
:1030E0000030CAE798F88E308B4219D107221C2491
:1030F000144408EB840491E7062231E705222FE708
:1031000004222DE703222BE74049637C0A6843F041
:10311000040301326FF341030A60637400201BE76C
:10312000384B4FF0070C4FF0060E052704260325F9
:1031300002224FF001099C8A84424BD0082A3FF4B6
:103140000AAF1C8D84424FD0082D3FF404AF9C8FF2
:10315000844247D0082E3FF4FEAEB3F8504084427C
:103160003ED0082F3FF4F7AEB3F86440844235D028
:10317000BEF1080F3FF4EFAEB3F8784084422BD095
:10318000BCF1080F3FF4E7AEB3F88C4084427FF403
:10319000E2AE64464FEA840A0AEB040B08EB8B0BA1
:1031A0009BF802B08B453FF436AF09F10109B9F144
:1031B000080F03F1140302F1010205F1010506F104
:1031C000010607F101070EF1010E0CF1010C3FF4AD
:1031D000C2AEB0E74C46DDE77446DBE73C46D9E7D4
:1031E0003446D7E72C46D5E71446D3E70749637C36
:1031F0000A6803F0FB03013243F002030A606374C0
:10320000AAE600BFE82A00208C2B0020882B002093
:103210002DE9F04FBA4C4388218887B0002205463B
:103220009942007902920392ADF80A308DF80C00B1
:103230000492059275D0A28A9A4200F09A81228D5A
:103240009A4200F09881A28F9A4200F0D881B4F897
:1032500050209A4200F0D181B4F864209A4200F0E4
:10326000CA81B4F878209A425AD0B4F88C209A4295
:1032700000F0BA802B78092B1DD8DFE813F00E0080
:103280000E00EA0069016901F9000A0119012A0129
:10329000E500737CDF0700F17D81AB68994E0493F4
:1032A000012306F114058DF8083056F8043B02A8F6
:1032B0009847AE42F9D1944B1B6813B907B0BDE8EB
:1032C000F08F8F4E0025AF007B1904EB83035B7CEE
:1032D00059071DD5B1783088CB1F012B13D98B4EE0
:1032E000ADF80A008DF80C10072004900923854CD6
:1032F0008DF8083054F8043B02A89847B442F9D13D
:1033000007B0BDE8F08FFFF7F5FD002840F0E6813B
:103310000135082D06F11406D5D107B0BDE8F08FB0
:10332000062291008F1804EB8707754EBF788742FD
:1033300061D0B6F88C209A4200F063814FF0070B01
:103340004FF0060A4FF005094FF004084FF0030C48
:103350000227B18A994207F1FF322CD0082F89D079
:10336000328D9A426ED0BCF1080F83D0B28F9A4250
:1033700066D0B8F1080F3FF47DAFB6F850209A42FE
:103380005CD0B9F1080F3FF475AFB6F864209A42EB
:1033900052D0BAF1080F3FF46DAFB6F878209A42D8
:1033A00048D0BBF1080F3FF465AFB6F88C209A42C5
:1033B0007FF460AF5A46910001EB020E04EB8E0ED3
:1033C0009EF802E0864516D00137092F06F1140653
:1033D0000CF1010C08F1010809F101090AF1010AD7
:1033E0000BF1010BB5D145E794F88E20824240F0F5
:1033F000088107221C212B780A4404EB8206092B42
:103400003FF659AF01A252F823F000BF93320200F9
:10341000933202005334020049350200493502005C
:103420007134020093340200B1340200D33402003C
:10343000493402005246BEE74A46BCE74246BAE774
:103440006246B8E73A46B6E72F4BEA6804921B6833
:1034500033E72C4D032305F114068DF8083055F899
:10346000043B02A89847AE42F9D1274B1B6824E7DA
:10347000EB68244E0493042306F114058DF80830FC
:1034800056F8043B02A89847AE42F9D11E4B1B6880
:1034900013E71C4D052305F114068DF8083055F887
:1034A000043B02A89847B542F9D1174B1B6804E7C3
:1034B000EB68144E0493062306F114058DF80830CA
:1034C00056F8043B02A89847AE42F9D10E4B1B6850
:1034D000F3E60C4D072305F1140637468DF8083046
:1034E00055F8043B02A89847BD42F9D1064B1B682A
:1034F000002B3FF4E3AEDFF8088000250EE000BFAC
:10350000E82A002040AF0200882B002054AF0200C0
:103510000135082D08F114083FF4D0AEAF007B1937
:1035200004EB83035B7C5A0701D49B07F0D598F822
:103530000210B8F80000CB1F012B3FF6D1AEFFF709
:10354000D9FC0028E4D0CAE0B268AB689A4214D033
:10355000EB686A4E0593022306F114058DF80830D6
:1035600056F8043B02A89847AE42F9D1644B1B6859
:10357000A3E60122D5E60222D3E6727CD007E7D586
:103580005F490B6802F0FE0242F0040201337274DC
:103590000B6092E6F36800274BB1317C59483944FF
:1035A000C9B201F041FDF36801379F42F5D3737C46
:1035B000524F03F0F9036FF300034FF6FF72737479
:1035C000FF210023F3607360B3603280B270317406
:1035D0002A788DF80830A2F10103B3FA83F35B096E
:1035E0008DF8103007F1140557F8043B02A89847EE
:1035F000AF42F9D15FE6052293E6042291E6032269
:103600008FE602220090404E4FF0070B4FF0060A63
:103610004FF005094FF004084FF0030C4FF0010E76
:10362000104645E0BCF1080F3FF424AEB28F9A4239
:1036300050D0B8F1080F3FF41DAEB6F850209A42B2
:103640004AD0B9F1080F3FF415AEB6F864209A429B
:103650003ED0BAF1080F3FF40DAEB6F878209A428A
:1036600034D0BBF1080F3FF405AEB6F88C209A4277
:103670007FF400AE5A4691008F1804EB8707019142
:10368000B978009FB9421FD00EF1010EBEF1080FAC
:1036900006F1140600F101000CF1010C08F101081B
:1036A00009F101090AF1010A0BF1010B3FF4E2AD46
:1036B000B18A99427246DED008283FF4DBAD328DE4
:1036C0009A42AFD10246D6E7019994E65246D2E734
:1036D0004A46D0E76246CEE74246CCE70B4E7B191E
:1036E0009B00E2188628E35A9278ADF80A308DF8EC
:1036F0000C2008BF08233FF4FAADF6E540AF020006
:10370000882B00208C2B0020E82A002054AF0200D8
:10371000F0B54F4A4F4B547C92F8257092F83960BF
:1037200092F84D504C49FF2004F0F90410746FF3E7
:103730000004002007F0F90706F0F90605F0F90586
:1037400060F3000760F3000660F3000554744FF661
:10375000FF7482F82570D0605060906010629061B4
:10376000D0615063D062106390641064506482F83A
:10377000396082F84D50148094709482947582F868
:103780002440148582F82A4082F83840948782F8D1
:103790003E4082F84C4092F861E092F8757092F8E1
:1037A000896092F89D50A2F8504085B00EF0F90E55
:1037B00007F0F90706F0F90605F0F90560F3000EC9
:1037C00082F8524060F3000760F3000660F30005E2
:1037D00082F86040D06550659065A2F8644082F838
:1037E000664082F8744010679066D066A2F8784010
:1037F00082F87A4082F88840C2F88400D067C2F824
:103800008000A2F88C4082F88E4082F89C40C2F87A
:103810009800C2F89000C2F894004FF0500C0820B5
:10382000012482F861E082F8757082F8896082F87C
:103830009D50CDF808C04FF42072019000940748C5
:1038400001F064FB002814BF0320002005B0F0BD88
:10385000E82A00209C2B0020A02B00208C2B00208D
:10386000FFF732BB2DE9F04FBD4D2B88834287B067
:10387000044600F0E381AB8A834200F0E1812B8DA6
:10388000834200F0DF81AB8F834200F0DD81B5F829
:103890005030834200F0DA81B5F86430834200F0A2
:1038A000D781B5F87830834217D0B5F88C30834291
:1038B00008BF072312D02046FFF70AFB40B10728B4
:1038C0000CBF072303230293029807B0BDE8F08FD3
:1038D0000290029807B0BDE8F08F062303EB830344
:1038E00005EB83039E4D0395022203218DE806001C
:1038F0002A884FF0000BA242CDF808B075D0984A44
:10390000928AA24200F01381954A128DA2426ED093
:10391000934A928FA24200F02181914AB2F850203E
:10392000A24200F019818E4AB2F86420A24200F04F
:1039300011818B4AB2F87820A24200F00981884AAE
:10394000B2F88C20A24200F0F6800BF1010BBBF123
:10395000080F5B4630D003998A8AA24235D0019B7A
:10396000082B29D00B8DA34200F0E380009B082B8D
:1039700022D08B8FA34227D00BF10303082B1BD03F
:10398000B1F85020A24220D00BF10403082B13D031
:10399000B1F86420A24218D00BF10503082B0BD01C
:1039A000B1F87820A24210D00BF10603082B03D007
:1039B000B1F88C20A24208D0029B002B3FF47BAFD1
:1039C000029807B0BDE8F08F009B039A143203926F
:1039D000019A01320192009A013200922A8803EB87
:1039E0008303A24205EB830389D1002200E0022277
:1039F0009700B91805EB810193F802A08B78534525
:103A000000F0A280564BB3F88C30A34200F0AC809B
:103A1000534B4FF007084FF0060C4FF0050E0427EC
:103A200003260221988AA04201F1FF3229D00829F9
:103A30008BD01A8DA2426AD0082E86D09A8FA242CD
:103A40006DD0082F81D0B3F85020A24265D0BEF1CE
:103A5000080F3FF47AAFB3F86420A2425BD0BCF108
:103A6000080F3FF472AFB3F87820A24251D0B8F1FA
:103A7000080F3FF46AAFB3F88C20A2427FF465AF21
:103A800042464FEA820909EB020005EB800080788C
:103A900050450FD00131092903F1140306F1010645
:103AA00007F101070EF1010E0CF1010C08F10108FC
:103AB000B8D14AE74A4405EB8207786888BB0026FC
:103AC000FB684FF0000853B1397C26484144C9B225
:103AD00001F0AAFAFB6808F101089845F4D37B7C51
:103AE0000298002E4FF0FF3218BF032003F0F903B5
:103AF0003A806FF300030022FF2102904FF0FF3065
:103B0000B8707B743974FA607A60BA601DE70A464F
:103B1000B7E76246B5E77246B3E73A46B1E73246E1
:103B2000AFE7FFF761F90028C9D00326C8E70122F3
:103B30005EE7019B49E793F802A0094B93F88E30AA
:103B4000534511D107221C273A4405EB8207B4E7FD
:103B500006224DE705224BE7042249E7032247E707
:103B6000E82A00208C2B002006260222394BCDF8B3
:103B700014A007274FF0050E4FF0040C4FF0030878
:103B8000012092460496998AA14202462ED0BAF1AB
:103B9000080F3FF4DAAE1A8DA2424BD0B8F1080FED
:103BA0003FF4D3AE9A8FA24242D0BCF1080F3FF44B
:103BB000CCAEB3F85020A24238D0BEF1080F3FF48B
:103BC000C4AEB3F86420A2422ED0049A082A3FF46F
:103BD000BCAEB3F87820A2422ED0082F3FF4B5AE89
:103BE000B3F88C20A2427FF4B0AE3A464FEA820985
:103BF00009EB020105EB81018E7805998E423FF4B5
:103C000059AF049A01300132082803F114030AF174
:103C1000010A08F101080CF1010C0EF1010E0492E9
:103C200007F10107AFD190E67246DFE76246DDE7B4
:103C30004246DBE75246D9E7049AD7E700234DE630
:103C400001234BE6022349E6032347E6042345E626
:103C5000052343E6E82A00200023FFF739B800BF18
:103C60004BB12DE9F04FCC1F012C83B005D90720B3
:103C700003B0BDE8F08F0E207047541E072CF6D815
:103C80000546009316460C46FFF72EF90028EED0A5
:103C9000DFF86883B8F80030AB424CD0B8F8143085
:103CA000AB4200F02281B8F82830AB4200F01B8113
:103CB000B8F83C30AB4200F01C81B8F85030AB4251
:103CC00000F01581B8F86430AB4200F02081B8F8FC
:103CD0007820AA4200F01981B8F88C20AA4200F09E
:103CE0000A81B8F80010C54A4FF6FF73994200F0F8
:103CF0001C81918A994200F0F281118D994200F065
:103D0000EC81918F994200F08C81B2F85010994269
:103D100000F08581B2F86410994200F0E481B2F8B5
:103D20007810994200F0DD81B2F88C10994200F0D1
:103D3000F08011209CE7002202EB820108EB810158
:103D4000AE4B8978A14200F0DC80B3F88C20AA4207
:103D500000F069814FF0070A4FF006094FF0050C9B
:103D60004FF0040E032702210EE00131092903F16F
:103D7000140307F101070EF1010E0CF1010C09F11A
:103D800001090AF1010AACD0988AA84201F1FF3278
:103D900026D00829A5D01A8DAA427FD0082FA0D0FE
:103DA0009A8FAA4278D0BEF1080F9AD0B3F850206B
:103DB000AA426FD0BCF1080F93D0B3F86420AA4296
:103DC00066D0B9F1080F8CD0B3F87820AA425DD044
:103DD000BAF1080F85D0B3F88C20AA4281D152469F
:103DE0004FEA820B0BEB020008EB80008078A042C8
:103DF000BBD15A4408EB8207FB689E4220D94FF0A2
:103E0000000963B1397C7E484944C9B201F00CF91C
:103E100009F10109FB685FFA89F99945F2D37B7CC6
:103E200003F0F9036FF300034FF6FF727B74FF2179
:103E300000233A80BA703974FB607B60BB6050E746
:103E40000DD2F5B2AB420AD9397C6D482944C9B2CA
:103E500001F0EAF80135FB68EDB29D42F4D3397CFC
:103E6000FF291DD000256648FE6001F0C5F818B393
:103E700006EB86031B0100999BB29B080B808C709C
:103E80004860BDB1082C19D00020F1E64A46A7E7EA
:103E90006246A5E77246A3E73A46A1E70A469FE7CE
:103EA0003146574801F05CF8FF28014638740AD0C3
:103EB0000125D8E72846DBE60320D9E69B00063B30
:103EC00083800020D4E67B7CB87003F0F9030022E5
:103ED0004FF6FF706FF3000338807B74FA607A60EE
:103EE000BA601120C4E6022226E7012224E7042258
:103EF00022E7032220E798F88E30A34240F0938017
:103F00000722142000FB028776E7062214E7052229
:103F100012E792F88E30FF2B40F0EF80072214203A
:103F200000FB02873D80BC7099E70022142101FB51
:103F30000281324B8978FF29F1D0B3F88C104FF60B
:103F4000FF72914200F0D9804FF0070B4FF0060A44
:103F50004FF005094FF0040C4FF0030E02213FE033
:103F6000BEF1080F3FF4E5AE988F904253D0BCF1FC
:103F7000080F3FF4DEAEB3F8500090424DD0B9F1D7
:103F8000080F3FF4D6AEB3F86400904241D0BAF1C6
:103F9000080F3FF4CEAEB3F87800904237D0BBF1B3
:103FA000080F3FF4C6AEB3F88C0090427FF4C1AE68
:103FB000584600EB800708EB8707BF78FF2F22D019
:103FC0000131092903F114030EF1010E0CF1010C6A
:103FD00009F101090AF1010A0BF1010B3FF4A9AE45
:103FE0009F8A974201F1FF30E3D008293FF4A1AE48
:103FF000188D9042B4D10846DBE700BFE82A0020C4
:104000008C2B00201846142707FB00878AE75046B0
:10401000CFE74846CDE77046CBE76046C9E70422C4
:1040200084E7032282E702225C4B01964FF00709E6
:104030004FF0060C4FF0050E04274FF0030A012045
:104040001646998AA942024628D0082E23D01A8DF6
:10405000AA4250D0BAF1080F1DD09A8FAA4248D078
:10406000082F18D0B3F85020AA4240D0BEF1080F54
:1040700011D0B3F86420AA4237D0BCF1080F0AD09F
:10408000B3F87820AA4208D0B9F1080F03D0B3F8EA
:104090008C20AA421DD0019E23E662464FEA820B85
:1040A0000BEB020108EB81018978A14213D00130AA
:1040B000082803F1140306F101060AF1010A07F1C9
:1040C00001070EF1010E0CF1010C09F10109B8D143
:1040D000E1E74A46E2E7019E8BE6022226E701225B
:1040E00024E7062222E7052220E77246D6E73A4671
:1040F000D4E75246D2E73246D0E7284A01234FF6AA
:10410000FF714FF0140E908A88423AD05F1C082F3E
:1041100038463FF40EAEB2F828C08C4528D0981C23
:1041200008283FF406AEB2F83CC08C4520D0D81C1D
:1041300008283FF4FEADB2F850C08C4518D0181DC9
:1041400008283FF4F6ADB2F864C08C4510D0581D75
:1041500008283FF4EEADB2F878C08C4508D0022BA9
:104160003FF4E7ADB2F88C308B427FF4E2AD07202C
:104170000EFB00839B78FF2B3FF445AF3B46143288
:10418000C1E70EFB03808078FF283FF43BAF01338B
:10419000082B02F114023FF4CCADB4E7E82A00206A
:1041A0002DE9F84F9D4C2388834222D0A38A834275
:1041B00000F0B580238D834200F0B380A38F83424B
:1041C00000F0B180B4F85030834200F0BC80B4F805
:1041D0006430834200F0B580B4F87830834200F058
:1041E000AE80B4F88C30834200F09F800520BDE89B
:1041F000F88F00229500AE1804EB8606874BB67840
:104200008E4200F09880B3F88C20824200F09D80AE
:104210004FF007094FF006084FF0050C4FF0040E61
:10422000032702269D8A854206F1FF3226D0082EFA
:10423000DCD01A8D824268D0082FD7D09A8F824264
:1042400061D0BEF1080FD1D0B3F85020824258D0CF
:10425000BCF1080FCAD0B3F8642082424FD0B8F145
:10426000080FC3D0B3F87820824250D0B9F1080FBC
:10427000BCD0B3F88C208242B8D14A464FEA820AB9
:104280000AEB020504EB8505AD788D4211D00136AD
:10429000092E03F1140307F101070EF1010E0CF1D1
:1042A000010C08F1010809F10109BBD10520BDE8A5
:1042B000F88F524404EB8204606850BB0026E36828
:1042C00000254BB1217C56482944C9B200F0ACFE10
:1042D000E36801359D42F5D3637C03F0F9030022C6
:1042E0004FF6FF716FF30003FF2563742180A17007
:1042F0002574E2606260A2603046BDE8F88F6246D5
:10430000BCE77246BAE73A46B8E73246B6E74246F5
:10431000B4E7FEF769FD0028D0D00326CFE70122DD
:1043200068E7022266E7032264E794F88E308B4246
:104330000BD107221C252A4404EB8204BCE7062289
:1043400058E7052256E7042254E7344B4FF007089C
:104350004FF0060C4FF0050E0427032602254FF000
:1043600001099A8A82424CD0082D3FF43FAF1A8D42
:10437000824250D0082E3FF439AF9A8F824248D003
:10438000082F3FF433AFB3F8502082423FD0BEF144
:10439000080F3FF42BAFB3F86420824235D0BCF154
:1043A000080F3FF423AFB3F8782082422BD0B8F146
:1043B000080F3FF41BAFB3F88C2082427FF416AF96
:1043C00042464FEA820A0AEB020B04EB8B0B9BF886
:1043D00002B08B453FF46DAF09F10109B9F1080F47
:1043E00003F1140305F1010506F1010607F10107C8
:1043F0000EF1010E0CF1010C08F101083FF4F6AECC
:10440000AFE74A46DDE76246DBE77246D9E73A4660
:10441000D7E73246D5E72A46D3E700BFE82A00208F
:104420008C2B0020CB1F012B01D9072070472DE9D1
:10443000F04FDFF87092B9F80030834283B026D095
:10444000B9F81430834200F0B480B9F828308342C0
:1044500000F0AD80B9F83C30834200F0B880B9F884
:104460005030834200F0B180B9F86430834200F0EC
:10447000B280B9F87830834200F0AB80B9F88C3064
:10448000834200F09880052003B0BDE8F08F002241
:104490009400A51809EB8505824BAD788D4200F09C
:1044A0009080B3F88C20824200F097804FF007088C
:1044B0004FF0060C4FF0050E0427032602220EE0F3
:1044C0000132092A03F1140306F1010607F101077D
:1044D0000EF1010E0CF1010C08F10108D3D09C8AF9
:1044E000844202F1FF3525D0082ACCD01C8D8442AD
:1044F00038D0082EC7D09C8F844231D0082FC2D02C
:10450000B3F85040844229D0BEF1080FBBD0B3F8B5
:104510006440844220D0BCF1080FB4D0B3F8784096
:10452000844217D0B8F1080FADD0B3F88C40844264
:10453000A9D145464FEA850A0AEB050409EB840434
:10454000A4788C42BCD1554409EB850465685DB103
:10455000002099E76546EDE77546EBE73D46E9E75C
:104560003546E7E71546E5E70E464F48217C00F063
:1045700043FD00958DF80260B8B1E368019003EB4C
:1045800083031B019BB29B08082EADF8003005BFCA
:104590008388093314239B08211D6846ADF8003039
:1045A000FEF708FC09287FF46FAF03206CE70222B6
:1045B0006EE701226CE799F88E308B420DD107220D
:1045C0001C24224409EB8204C0E7042260E7032292
:1045D0005EE706225CE705225AE7324B4FF0070BF5
:1045E0004FF006084FF0050C4FF0040E032702268B
:1045F000012443E0082F3FF446AF9A8F82424DD00A
:10460000BEF1080F3FF43FAFB3F85020824247D0CD
:10461000BCF1080F3FF437AFB3F8642082423BD0BF
:10462000B8F1080F3FF42FAFB3F87820824231D0B1
:10463000BBF1080F3FF427AFB3F88C2082427FF420
:1046400022AF5D464FEA850A0AEB050209EB8202BA
:1046500092788A423FF477AF0134082C03F11403B7
:1046600006F1010607F101070EF1010E0CF1010C34
:1046700008F101080BF1010B3FF405AF9A8A824261
:104680002546DFD0082E3FF4FEAE1A8D8242B1D10E
:104690003546D7E74546D5E76546D3E73D46D1E7FA
:1046A0007546CFE7E82A00208C2B0020CB1F012B7A
:1046B00001D907207047FEF71DBC00BFFEF716BCEE
:1046C000FEF716BC13460022FEF79EBB10B5094C40
:1046D00040222046002105F016FE20464FF480714E
:1046E00000F0BAFC04F120004FF48071BDE81040E6
:1046F00000F0B2BC202E00204FF6FF73984210B598
:104700000DD0FF28044603D94FF6FF74204610BD94
:104710000146084800F0A8FC0028F5D0F6E74FF461
:104720008071044800F0EAFCB0F5807F0446EDD1CA
:10473000EAE700BF202E002008B54FF6FF7398422D
:1047400001D0FF2801D9002008BD0146034800F030
:104750008BFC0028F7D0012008BD00BF402E0020B0
:10476000FF2800D9704710B501460446044800F000
:10477000A5FC21460348BDE8104000F09FBC00BFE7
:10478000202E0020402E0020FF2801D90020704755
:104790000146014800F0ECBC202E00204FF6FF73CC
:1047A000984210B528D0013084B2FF2C04D91FE004
:1047B0009CB2B4F5807F1BD02146104800F0D8FC95
:1047C000631C0028F4D021460D4800F0D1FC88B1CC
:1047D0000134A4B2B4F5807F0AD02146074800F026
:1047E000C7FC631C0028EED19CB2B4F5807FF4D1E5
:1047F0004FF6FF74204610BD0024DDE7202E002078
:10480000402E00204FF6FF73984210B514D00130AF
:1048100084B2FF2C04D90CE09CB2B4F5807F08D0A0
:104820002146064800F0A4FC631C0028F4D0204672
:1048300010BD4FF6FF7010BD0024F1E7402E0020A0
:104840002DE9F04104468AB014220021684605F0A3
:104850005AFD6088ADF80400FEF79AF82378ADF8A9
:104860000200092B1BD8DFE803F0233656728005BF
:104870008E1A1DBC764C237809228DF80020002B5F
:1048800040F0B580734D2B784BB1734E002456F831
:104890002430684698472B7801349C42F7DB0AB0F5
:1048A000BDE8F0816B4D05222B788DF80020EBE7F9
:1048B0009DF80A302279674D8DF8082043F00103F6
:1048C000002207218DF80A308DF800102B788DF822
:1048D00009200392D8E7614E9DF80A3020793268AA
:1048E000A1688DF8080043F00103072400208DF82B
:1048F0000A308DF8004003918DF80900002AC1D0DC
:104900009142BFD1564B534DBDF804201A80306000
:1049100003902B78B8E7514821790368A2688DF895
:104920000810E4680392082500218DF800508DF8E6
:1049300009100494002BA5D09A42A3D1494A454DB1
:1049400013680160013B136003912B789CE7414D94
:1049500023798DF808300720012100222B788DF86B
:1049600000008DF8091003928EE72279394DA16875
:104970008DF80820082001222B788DF80000049182
:104980008DF8092080E7324BA1681A7802910A213C
:104990008DF80010002A3FF475AF00270DF11408C0
:1049A0002C4D1F7039461422404605F0ACFCA3681C
:1049B0002A7807930C214FF6FF738DF81410ADF889
:1049C0001830ADF81630002A3FF469AF224E3C464D
:1049D00056F82430404698472B7801349C42F7DB48
:1049E00052E71C4D06222B788DF800204CE74FF63D
:1049F000FF70FFF763FE4FF6FF73984205467FF4A2
:104A000041AFFFF75DFEA84206467FF43BAF0027AB
:104A10000DF114080F4D277014223946404605F059
:104A200072FC2B78ADF818600B22ADF816608DF88B
:104A30001420002B3FF427AF074E3C4656F8243095
:104A4000404698472B7801349C42F7DB1BE700BFB8
:104A5000792E00207A2E00206C2E00207C2E002043
:104A6000822E0020642E002070B5044686B001A876
:104A70001422002105F047FC23786088ADF8060079
:104A8000013B0B2B00F2C380DFE803F00D293F57F9
:104A9000066D7B87969DA20F5E4B1978FCF71AFF77
:104AA000002800F0AC8006B070BD04238DF80430FF
:104AB0000125FDF78FFEADF80800002DF3D0564D0F
:104AC0002B78002BEFD0554E002456F8243001A847
