:020000021000EC
:10F0000000000120993C0200D53C0200BD25020011
:10F01000D93C0200DB3C0200DD3C020000000000A5
:10F02000000000000000000000000000DF3C0200C3
:10F03000E13C020000000000E33C0200E53C02006D
:10F040001D130200E73C0200E73C0200CD23020052
:10F05000E73C0200E73C02003D170200E73C0200EB
:10F06000E73C0200E73C0200E73C0200E73C02000C
:10F07000E73C0200E73C0200E73C0200E73C0200FC
:10F08000E73C0200F12F0200E73C0200E73C0200EF
:10F0900091300200E73C0200ED3B0200E73C020039
:10F0A000E73C0200E73C0200E73C0200E73C0200CC
:10F0B000E73C0200E73C0200000000000000000006
:10F0C000E73C0200E73C0200E73C0200E73C0200AC
:10F0D000E73C0200E73C0200E73C020000000000C1
:10F0E0000000000000000000000000000000000020
:10F0F0000000000000000000000000000000000010
:10F1000000000000000000000000000000000000FF
:10F1100000000000000000000000000000000000EF
:10F1200000000000000000000000000000000000DF
:10F1300000000000000000000000000000000000CF
:10F1400000000000000000000000000000000000BF
:10F1500000000000000000000000000000000000AF
:10F16000000000000000000000000000000000009F
:10F17000000000000000000000000000000000008F
:10F18000000000000000000000000000000000007F
:10F19000000000000000000000000000000000006F
:10F1A000000000000000000000000000000000005F
:10F1B000000000000000000000000000000000004F
:10F1C000000000000000000000000000000000003F
:10F1D000000000000000000000000000000000002F
:10F1E000000000000000000000000000000000001F
:10F1F000000000000000000000000000000000000F
:10F2000000B583B002AB012203F8011D00201946AE
:10F2100004F0CCFF03B05DF804FB00BF08B532205A
:10F2200000F00EFDBDE8084000F068BB00B500200E
:10F2300083B0204905F07CFA002003F00DFCA8BB48
:10F2400004F02EFA78BB1C4A1C48012104F0EAFAAB
:10F2500018BB00F0C7FC0DF1070000F013FD00F033
:10F2600033F9174800F00CFC164800F009FC00F0D8
:10F2700055FA1549032003F00FFC03F017FE024670
:10F280000028FAD14FF40041104804F0DDFA38B9F3
:10F2900000F048FD00F018FBFCE704F067FBD8E73E
:10F2A00004F064FBF4E704F061FBCCE704F05EFBE0
:10F2B000C6E700BF01F201001DF20100F853020091
:10F2C000403E0020443E0020FC5302006C260020FB
:10F2D00076DF70477ADF70477CDF70477FDF7047EB
:10F2E0008FDF7047A8DF7047A9DF704769DF70477D
:10F2F00066DF704704F03ABB10B5044684B001F0F5
:10F300007BFE2146504801F005FF21464F4800F0A2
:10F3100089FF2388013B552B39D8DFE803F06A3891
:10F3200038383838383838383838383838717D38DF
:10F330008A383838383838383838383838382B3808
:10F34000383838383838383838383838383838383D
:10F3500038383838383838383D3838383838383828
:10F3600038383838383838383838383838384860E5
:10F370003838383D08220021684605F0EEF9694624
:10F380000022A088FFF7ACFF08B104F0EFFA204696
:10F3900000F0E0FE04B010BD1321A088FFF798FF35
:10F3A0000028F2D1204600F0D5FE04B010BDA379AC
:10F3B000002BECD0A27B043A022AE8D8022B0CBF27
:10F3C000022201224FF4C1736946A0888DF8002003
:10F3D000ADF80430FFF786FF0028D8D0D5E71C4AE7
:10F3E0000023108819461A46FFF77EFF0028CED06A
:10F3F000CBE70021A088FFF77BFF0028C7D0C4E738
:10F40000134BA28813491A80032003F045FB2046C2
:10F4100000F0A0FE04B010BD0D4B0F494FF6FF7277
:10F4200003201A8003F038FB204600F093FE04B05E
:10F4300010BD074A0023108885211A46FFF74EFFAA
:10F440000028A4D0A1E700BF8C2600208027002040
:10F45000FC25002030540200505402000A460320CC
:10F46000014903F071BB00BF7054020000B1704746
:10F4700000F034BA08B5037803B108BD054B3B2151
:10F480001888FFF725FF0028F7D0BDE8084004F0F2
:10F490006DBA00BFFC250020094B4A881B889A42A0
:10F4A00000D070470A8840F677239A42F9D18B88BA
:10F4B0000449033B9BB21A46032003F0A3BB00BFE1
:10F4C000FC2500208C54020070B5884B88491868D0
:10F4D000A8B000230290D82202A804F033FB002831
:10F4E00040F0018128AC002344F8783D204604F028
:10F4F00095FB002840F0F4800C22002119A805F0AB
:10F500002CF9012000238DF8640019A90A9A8DF8BE
:10F51000653040208DF86630FFF7E8FE002840F0A7
:10F52000DC800C22002119A805F017F901219E2387
:10F530008DF864100A9AADF8663019A92320FFF7F8
:10F54000D5FE002840F0C6800C22002119A805F045
:10F5500004F94FF4A07501230A9A8DF8643019A9B3
:10F5600020208DF86630ADF86850FFF7BFFE002808
:10F5700040F0AD80204604F05BFB002840F0A48002
:10F580005C4804F029FB08B104F0F0F99DF828303C
:10F590005948012262F3030362F307138DF8283000
:10F5A00005F042F9544982B22046FFF795FE002843
:10F5B00040F087800822002119A805F0CEF8102518
:10F5C0003C2100224FF4C87319A8ADF86450ADF87F
:10F5D0006610ADF86820ADF86A30FFF77BFE08B121
:10F5E00004F0C4F94549464801F06CFD002865D196
:10F5F0004021434801F082FD08B104F0B7F9002131
:10F60000042219A805F0A9F83E4B3F48199319A9FF
:10F6100000F034FE08B104F0A9F900210D463C22A7
:10F62000204605F09AF80226294605233C2219A80F
:10F630008DF82A508DF828608DF82B30012605F0C2
:10F640008CF82946314B1E93202202A8ADF8746035
:10F6500005F083F8009520464FF44875142402AA5B
:10F660002B4B8DF80B6019A90695079400F090FCC0
:10F6700008B104F07BF9012000F084FC1C22002179
:10F6800019A805F06AF84FF4203600234FF47025CE
:10F6900003242049204A199319A8ADF872308DF837
:10F6A00074301A961B958DF870401E911F9201F0D0
:10F6B00069FC08B104F05AF928B070BD04F056F99D
:10F6C00096E704F053F975E704F050F958E704F0B1
:10F6D0004DF94FE704F04AF936E704F047F920E71F
:10F6E00004F044F908E704F041F9FBE62C54020069
:10F6F000A8260020F9F20100BC54020099F4010090
:10F700008C2600205DF4010080270020F8250020D1
:10F710006DF4010075F40100F5F2010010B502204E
:10F7200000F0F8FC044608B104F020F9204610BDB2
:10F7300070B506460D462A463146074800F096FE4B
:10F740000828044602D01128F5D008B9204670BD1B
:10F7500004F00CF9204670BD8027002032DF70478E
:10F760003EDF70474FF0A0434FF40062C3F80C2512
:10F77000704700BF04F000BF08B50449032003F040
:10F780008BF9BDE8084004F00BBF00BFCC54020069
:10F7900010B58CB00CAC002304F8293D4FF0A04309
:10F7A0004FF48071C3F8081522460C21404804F03C
:10F7B000BDFE00283DD19DF80730002298068DF847
:10F7C000082011D4D90637D41A0745D45B0756D47C
:10F7D0004FF0A0434FF48072C3F80C2503F066FB92
:10F7E0000028FBD10CB010BD22461E21304804F089
:10F7F0009DFE002853D102AC2E499DF807202046DB
:10F8000004F0E6FF9DF808104FF0A0434FF480721B
:10F81000C3F80C250029E1D022462749032003F034
:10F8200093F9204605F000F881B22046FFF780FFEB
:10F83000D4E704F09BF8BEE7224610211C4804F0F0
:10F8400075FEC8B902AC1D499DF80720204604F09A
:10F85000BFFF9DF80810D7E722462221144804F084
:10F8600065FEF8B902AC16499DF80720204604F061
:10F87000AFFF9DF80810C7E704F078F8E2E72246EA
:10F8800016210B4804F052FE78B902AC0D499DF8E0
:10F890000720204604F09CFF9DF80810B4E704F010
:10F8A00065F8A8E704F062F8DCE704F05FF8ECE73D
:10F8B000403E0020EC540200505502000455020066
:10F8C000205502003455020008B5FFF749FF00B982
:10F8D00008BDBDE8084004F049B800BF08B54FF0C6
:10F8E000A0434FF40062C3F80C25FFF737FF00B9BF
:10F8F00008BDBDE8084004F039B800BFF0B54FF0CE
:10F90000A04489B000234FF48075ADF81430ADF8F1
:10F910001630ADF81830ADF81A30ADF81C30ADF82F
:10F920001E300DF11602C4F8085506AB05A949486A
:10F9300004F004FE0DF11E0307AA0DF11A0146485A
:10F9400004F0FCFDC4F80C55BDF91E50BDF91C4077
:10F95000BDF91A00BDF91810BDF91630BDF9142013
:10F96000039502940190009103203C4903F022FA90
:10F97000BDF91A00BDF91810BDF91E50BDF91C40A3
:10F98000BDF91630BDF9142001900091039534495A
:10F990000294344804F01CFF324804F045FF81B261
:10F9A0003048FFF7C5FE03F081FA0028FBD1BDF90E
:10F9B00016302D4D282B38DDBDF91C302870282B32
:10F9C0002A4C3BDD00232370294F2749294E012370
:10F9D0003B702A7823789A4238D03378042B32D877
:10F9E00033780133DBB233702A7823783878317872
:10F9F0008DE803002049032003F06AF92A78237870
:10FA0000387831788DE803001C49164804F0E0FE90
:10FA1000144804F009FF81B21248FFF789FE03F091
:10FA200045FA0028FBD109B0F0BD1D2BDCBF012336
:10FA30002B70BDF91C300D4C282BC3DC1D2BDCBFFB
:10FA400001232370C0E700233B70CDE70023337010
:10FA50000B78C9E7403E0020443E00206855020074
:10FA600090550200E4270020E0270020E227002034
:10FA70009C270020E1270020AC550200D855020049
:10FA8000F0B5404A404B85B0044692E8030000AF11
:10FA90000A0C3860B98093E803000B0CB860384654
:10FAA000BA71B981BB7304F0BFFE384B073020F048
:10FAB00007004FF0A0426D464FF48071ADEB000D92
:10FAC0009C426E46C2F8081545D0314B9C4211D07D
:10FAD0003049032002F0E0FF03F0E8F90028FBD1F1
:10FAE0004FF0A0434FF48072C3F80C251437AD4695
:10FAF000BD46F0BD07F1080004F096FE07F10801CD
:10FB00000246684604F01EFE1D21204604F0F6FC65
:10FB1000204604F0F5FC3246C0B11F49032003F033
:10FB200013F832461D49032003F00EF82046002149
:10FB300004F076FC0446D8B932461949032003F094
:10FB400003F803F0B3F90028FBD1C9E715490320F6
:10FB500002F0FAFFF5E7384604F066FE3946024641
:10FB6000684604F0EFFD1C21204604F0C7FCCFE7F7
:10FB7000034632460C49032003F044F8204603F0C4
:10FB8000F5FED9E7E4560200EC560200403E0020A4
:10FB9000443E0020F055020020560200505602005C
:10FBA00098560200B85602007456020008B50022AA
:10FBB00040F26661044803F047FE00B908BDBDE8A5
:10FBC000084003F0D3BE00BFC027002008B504489A
:10FBD00003F090FE00B908BDBDE8084003F0C6BEC2
:10FBE000C0270020F0B5124A124885B0002103F06A
:10FBF00019FEC8B90022039213461B271A264FF09C
:10FC0000CC75022469460C4A0C480097019602956F
:10FC10008DF80C4002F00CF808B103F0A7FE07487D
:10FC200002F0AAF905B0F0BD03F0A0FEE2E700BFC4
:10FC300079F70100C854020075F70100F45602007C
:10FC400038B54FF400414FF0A0444FF4FA7200234E
:10FC5000E1FB00234FF40065104619464FF47A7219
:10FC6000C4F80855002305F03BFA00220146044879
:10FC700003F0EAFD00B938BDBDE8384003F076BEB8
:10FC8000A027002070B582B001F0ECFB002840D125
:10FC90004FF0A04303244FF480714FF400664FF4FB
:10FCA0008055C3F820471C4AC3F80C151B48C3F8FD
:10FCB0002C470021C3F83047C3F80C65C3F80C5536
:10FCC00003F0B0FD10BB4FF0A0420023C2F8143780
:10FCD0000324C2F8183701A9114A8DF80530052010
:10FCE0008DF806308DF807308DF8044001F0FCFBEC
:10FCF00048B901A90A4A062001F0F6FB08B103F051
:10FD000035FE02B070BD03F031FEF2E703F02EFEC7
:10FD1000D9E703F02BFEBBE765F70100FC560200B4
:10FD200091F7010008B50121052001F0A5FC012192
:10FD30000620BDE8084001F09FBC00BF73DF70479C
:10FD4000F0B5854D85B0064607220021834804F0B2
:10FD500004FD6B78FBB9AB78814F002B70D17F4CE1
:10FD60006378002B70D1A378002B6DD1E378002B42
:10FD70006AD12379002B67D16379002B64D1A379F1
:10FD8000003318BF0123701E032800F2E180DFE872
:10FD900000F0164F1C38724F3B78012B04D0AA7824
:10FDA000002ADCD0022BDAD16E4B6F4A1B68002B85
:10FDB00000F0C5800121082011709847CFE76A78CC
:10FDC000002A35D0002B40F0BC80EB78CBB1654BDE
:10FDD0001B6803223A70E3B9644B00221A701022A8
:10FDE0006846002104F0B9FC3B7800228DF8002021
:10FDF0008DF80820042B49D8DFE803F095896D4B76
:10FE000028002B79D3B1574B1B6804223A70002B82
:10FE1000E2D02A78002ADFD0554A1278002ADBD1B6
:10FE2000544852490270012207200A709847D6E7C9
:10FE3000AA78002AC9D0002BC7D002233B70CBE799
:10FE40003B78012BAED1AFE701239CE72B78A96962
:10FE5000EA69ADF80A10ADF80C20002B67D0444BCE
:10FE60001978002963D1434B1B78002B5FD0424B9C
:10FE7000042402221846DC708DF8082000F088FD6A
:10FE8000002861D13D4A3B7806211170002B35D006
:10FE90002EE02B7829696A69ADF80A10ADF80C20BC
:10FEA000002B48D0324B1978002944D1314B1B78B4
:10FEB000002B40D0304B042402221846DC708DF811
:10FEC000082000F065FD00283ED12C4A3B78052132
:10FED00011709BB10CE02948EA68AB6801940121DC
:10FEE000022404708DF80010ADF80C20ADF80A3033
:10FEF000234B68461978FFF721FF30B9194B1B686F
:10FF000013B11E4A10789847002005B0F0BD1B4978
:10FF10000194012200230A708DF80020ADF80C3006
:10FF2000ADF80A30E4E7154B00221A70E6E7134BF0
:10FF300004221A70DCE7114B03221A70D8E7137001
:10FF40000DE701233B7047E73B78002BD6D0CFE786
:10FF500000233B7040E700BF00290020F828002064
:10FF600049290020CC2800204A29002047290020C8
:10FF7000F3280020BC2800208028002058290020D9
:10FF800048290020014B1870704700BF4829002005
:10FF90002DE9F84FDDF828E0002800F09B80002ACA
:10FFA00000F09880144605469C460E460FCC4B4FF9
:10FFB000DFF85091DFF850A1DFF85081DFF850B141
:10FFC0000FC794E80F0087E80F00454A454F464B9E
:10FFD000C2F800C0002401214FF6FF7C89F8001010
:10FFE000072221464148A3F800C0CBF800E08AF878
:10FFF000004088F8004004F0B0FB21463C2238461F
:020000022000DC
:1000000004F0ABFB05F1100393E80300AA78EB784A
:1000100095F800E0BA70FB7007F1100395F801C085
:1000200087F800E083E8030005F1080393E8030084
:1000300007F1080E05F118038EE8030093E80300AA
:100040006A6A87F801C007F1180383E80300B2B1B8
:10005000274B7B62686A274A9A60B0F804E00188FF
:100060001980A3F804E0BEF1000F08D0013A23463E
:100070008168C95C02F8011F01337345F8D1AB6A8E
:10008000B3B11D4BBB62A86A1C4A9A6084889C80ED
:100090000188198044B1013A00238168C95C02F8E3
:1000A000011F0133A342F8D195F82C3087F82C308A
:1000B0002B6A33B1124B3B622A6A518859801288ED
:1000C0001A806B6803B17B6031460648BDE8F84F83
:1000D00000F05EBC0E20BDE8F88F00BF00290020B4
:1000E000CC2800208028002020290020F82800208B
:1000F000C0280020D42800204C29002028290020D6
:10010000242900204B2900204929002048290020CB
:10011000F42800200C4B1B780BB90820704710B551
:100120000A4B82B0044601A81C7002F011FA019B30
:100130002BB1074B01221A70002002B010BD2046DF
:10014000FFF7FEFDF9E700BF4B29002049290020F9
:10015000D028002010B50388112B82B019D01B2B9A
:100160000AD0102B01D002B010BDC37B012BFAD1F5
:10017000214B82881A80F6E7037A002BF3D11F4BBC
:100180001B78F3B908201E4B1B68002BEBD0984757
:10019000E9E7194A838812881A4900209A420870B0
:1001A000E1D1164B1B78002BECD0174B012401A892
:1001B0001C7002F0CDF9019BBBB1144B01221A70E7
:1001C000D1E71149124C0B78013384FB0324DA1771
:1001D000C2EB640404EB84041B1BDCB201A80C70AA
:1001E00002F0B6F9019B002BE7D12046FFF7A8FDEE
:1001F0000028B8D0C7E700BF202900204B290020E5
:10020000F4280020F328002049290020D0280020CD
:1002100067666666A0DF7047A2DF7047A6DF70479B
:1002200062DF704748B141B10B88112B13D0502BBE
:1002300004D0102B04BF8B8883827047CB8802893F
:100240009A420CD082899A42F7D18369002BF4D06C
:100250000A8A123118474FF6FF73838270470A8A61
:10026000022AEFD110B504460846123000F020FFF4
:1002700010B10123A37510BDA07510BD2DE9F0418B
:10028000794B94B09A6806460D4618685968DB6841
:1002900004AC0FC48EB185B14FF6FF73B3822B68E7
:1002A000B361002304A8B3753146FFF7B9FF48B125
:1002B0000446204614B0BDE8F0810E24204614B058
:1002C000BDE8F081324614A9012512F8023B21F85D
:1002D000485D28468DF80A30FFF79CFF0446002849
:1002E000ECD121461C220DA804F037FA37469DF8C0
:1002F000343017F80CCB8DF80EC043F00C034FF0E0
:10030000020E2146032201A80E9410941194129417
:1003100013948DF83430ADF80CE004F01EFA9DF81B
:1003200006209DF804E09DF8053065F3420264F371
:10033000C30264F30412D2B242EA050165F3030E6C
:1003400065F3030365F3071E65F3071314228DF8A5
:10035000061008A821468DF804E08DF805304FF00E
:100360009B0804F0FAF93B46ADF82A4008AA03AC12
:100370000DA97088089401AF0997ADF82850ADF821
:100380002C80FFF749FF0446002897D1214603221D
:10039000684604F0E2F99DF800109DF801309DF8E0
:1003A000027065F3030165F3071165F3420765F316
:1003B000030365F307131C228DF800108DF80270FB
:1003C000214637460DA88DF8013004F0C6F99DF896
:1003D000343017F8040B8DF80E004FF0030E724600
:1003E00043F01003214601A8ADF80CE00E941094E0
:1003F000119413948DF83430CDF848D004F0ADF951
:100400009DF806209DF804009DF8053065F3420232
:1004100064F3C30264F30412D2B265F3030042EA48
:10042000050165F3071065F3030365F30713142251
:100430008DF806108DF80400214608A88DF80530C7
:1004400004F08BF97088ADF82A4003AE08963B465D
:1004500008AA0DA901AE0996ADF82850ADF82C8078
:10046000FFF7DAFE044629E70057020070B586B0B0
:10047000ADF8062048B1828A4FF6FF739A4201D048
:10048000837D2BB9082006B070BD0E2006B070BD6C
:10049000BDF806309B2B02D9072006B070BD04467C
:1004A0000D4602A81022002104F057F9A688A08A60
:1004B00005950DF10602012302A9ADF8086004922A
:1004C0008DF80A30FFF7AAFEDDE700BF6DDF704749
:1004D00072DF704779DF70477DDF704764DF7047F8
:1004E0002DE9F04F83B004880C9FBDF83490B7F825
:1004F00000A0002C4CD09846002316468B4605469B
:100500001C4603E02A880134A24224DD6A6852F8BE
:100510002400019000220DF1030101A8FFF7DEFF86
:1005200010BB9DF80320B242ECD103B33A88931973
:100530004B4518DC42440DF1030101A80123FFF7EC
:10054000CDFF88B93A889DF803100A443A802A887A
:100550000134A242DADCDBB13B88013BCAEB030386
:100560009BB2FF2B12D90C2003B0BDE8F08F3B8863
:100570005A1C334402334B4592B2F4DC3A8008F8FB
:1005800002B03A88013292B23A80D3E708F80A30D2
:10059000002003B0BDE8F08F2DE9F0470023178855
:1005A000138090F82D3084B0144605460E46002B7B
:1005B00049D1AA78002A70D1EA78002A2ED16A6837
:1005C000A2B1D91CB94225D8022192F90020F154D8
:1005D000238801339BB20A212380F15423880133FD
:1005E0009BB22380F2542388013323802B89002B74
:1005F00040F02A812B8A002B40F03F812B8B002B6F
:1006000040F054812A6A002A00F0A78021888B1DBF
:10061000BB4262D90C2004B0BDE8F087D91CB942B6
:10062000F8D80221F154238801339BB201212380A1
:10063000F15423880B449BB22380F25423880B444B
:100640009BB22380BBE7082FE4D902A8FFF73EFF47
:100650000028E0D113880822CA54238801339BB2B2
:100660001B222380CA542088013080B220800622B9
:1006700008440DF1090104F065F823889DF808206D
:1006800006339BB212F0FE0218BF01222380F254FF
:10069000238801339BB223808BE70433BB42B9D854
:1006A00002A8FFF717FF0028B5D12388BDF808205E
:1006B0000321F154238801339BB219212380F15483
:1006C000238801339BB2F1182380F254120A4A7036
:1006D000238802339BB223806EE71388052B40F2F8
:1006E000AF806FF4486803EB080080B24FF27D3EA4
:1006F000704540F2A5805088052840F2A1806FF433
:10070000486C84441FFA8CFCF44540F299804FF603
:10071000FF7E734504D0704502D0834200F2908082
:1007200005237354238801339BB212212380F15493
:10073000238801339BB223801188F1543344090A82
:100740005970238802339BB223805288F254334479
:10075000120A5A70238802332380D5F82480B8F116
:10076000000F30D0B8F804202188131D0B44BB4281
:100770003FF650AF931CFE2B3FF64CAF0332725442
:10078000238801339BB2FF222380F2542388013354
:100790009BB22380B8F80020F2543344120A5A70F6
:1007A0002088023080B22080B8F804205AB1D8F8EE
:1007B0000810002944D0304403F0C4FFB8F80430D6
:1007C00022881344238095F82C30002B40F08B8036
:1007D000287800283FF41FAF2B88012B30D02388C6
:1007E0009A1CBA423FF616AF012805D1697802314A
:1007F00019448F42FFF40EAF023FFB1A04A99BB2CB
:1008000021F8083DB018FFF767FE00287FF403AF1A
:100810002A78022A00F0B480012A60D01A46082102
:10082000FE2A3FF6F7AE2388551CF5542388013382
:100830009BB22380F154238801331A442280EAE6D4
:10084000072004B0BDE8F08705F1080802228DE812
:100850009000404611463346FFF742FE00287FF4E1
:10086000DAAE8DE890004046334610220621FFF7AD
:1008700037FE00287FF4CFAEBCE605F110088DE806
:1008800090004046334602220321FFF729FE00284C
:100890007FF4C1AE8DE89000404633461022072118
:1008A000FFF71EFE00287FF4B6AEA7E605F1180894
:1008B0008DE890004046334602221421FFF710FED7
:1008C00000287FF4A8AE8DE8900040463346102201
:1008D0001521FFF705FE00287FF49DAE92E66A78A9
:1008E00093429CD29AE7D5F82880B8F1000FA7D0A0
:1008F000B8F804200232FE2A3FF68CAE23884FF06F
:1009000000094FF0160A0132F254238801339BB2DA
:10091000238006F803A0238801339BB22380B8F814
:100920000020F2543344120A5A70238802339BB2D7
:100930002380B8F80410F0180A4669B1D8F80830D6
:100940001946002B3FF47CAF03F0FCFEB8F80430EE
:10095000228813449BB2238009F1010995F82C20C9
:100960005FFA89F94A4509EB49087FF631AFAA6A6F
:1009700002EB8808B8F804200232FE2AC3D949E6FF
:10098000BDF808209342FFF449AF092148E700BFB2
:100990002DE9F04395B01F230D46ADF80E30044607
:1009A000002800F08480C27853077CD590F82D3061
:1009B0000021ADF80C10002B40F0DD8183780CAFE6
:1009C000002B40F019821946032014AE31445F1CFD
:1009D000023316FA87F74FF0020E16FA83F601F883
:1009E00040EC83B2012107F8401CADF80C3006F84A
:1009F000402C6668002E00F08C80D81C1F2874D90B
:100A00000C2015B0BDE8F083A76A002F4BD0BA8840
:100A10000232FE2AF4D8BDF80C304FF0000804AEC4
:100A20004FF016091AE003F08DFEBDF80C20BB88CC
:100A300094F82C1013449BB2ADF80C3008F1010867
:100A40005FFA88F8884508EB480780F0F080A26AD2
:100A500002EB8707BA880232FE2AD1D80DF1500E78
:100A60009E44581C01320DF1500C0EF8402C1CFA1B
:100A700080F09A1C92B200F8409CADF80C203888A7
:100A8000B0543244000A50700433B7F804E09BB20B
:100A90007246F018ADF80C30BEF1000FCED0BB6836
:100AA0001946002BBFD1072015B0BDE8F083ADF883
:100AB0000C00ADB1EB78002BF5D128460CA90DF157
:100AC0000E02FFF769FD0028EED19DF80E300CAA4A
:100AD00020469DF80C10FFF7FBFC15B0BDE8F08335
:100AE0002B46ADF80E502A46F2E714AF591C9A1C5B
:100AF00017FA81F13B4417FA82F296F90060ADF8DB
:100B00000C0002270A2003F8407C01F8400C02F890
:100B1000406C2389002B40F08F80238A002B40F00B
:100B2000AB80238B002B40F0C780226A002A42D082
:100B3000BDF80C30991D1F293FF662AF10880528BB
:100B4000B1D96FF4486C00EB0C06B6B24FF27D37AA
:100B5000BE42A8D95688052EA5D96FF4486EB64472
:100B60001FFA8EFEBE459ED94FF6FF77B84203D0DE
:100B7000BE4201D0B04296D814A8C7185E1C10FA25
:100B800086F64FF0050E981C07F840EC80B212274D
:100B900006F8407CADF80C001788ADF80C1004AED8
:100BA0003118375404333F0A4F709BB25288F254C5
:100BB0003344120A5A70676AA7B3B888BDF80C307C
:100BC000811C9A1C56181F2E3FF61AAFFE293FF6BD
:100BD00017AF14AE1E44591C0DF1500E1EFA81F1D0
:100BE000033006F8400C92B2FF2001F8400CADF83B
:100BF0000C20398804AEB018B154090A417004338E
:100C0000BA8898B2ADF80C0062B1B96800293FF417
:100C10004AAF304403F096FDBDF80C20BB88134466
:100C2000ADF80C3094F82C1000297FF4EDAE237849
:100C3000002B61D104AC3CE703A904F1080704AE22
:100C40004FF01F080222009138463346CDF8048049
:100C50001146FFF745FC00287FF426AF03AB009355
:100C6000CDF804803346384610220621FFF738FCC1
:100C700000287FF419AF50E703AA04F1100704AE6F
:100C80004FF01F08009238463346CDF80480022208
:100C90000321FFF725FC00287FF406AF03AB009388
:100CA000CDF804803346384610220721FFF718FCA0
:100CB00000287FF4F9AE34E703AA04F1180704AE64
:100CC0004FF01F08009238463346CDF804800222C8
:100CD0001421FFF705FC00287FF4E6AE03AB009378
:100CE000CDF804803346384610221521FFF7F8FB73
:100CF00000287FF4D9AE18E72288012A3FF4D3AE4A
:100D0000BDF80C20901C1F283FF67AAE012B05D1B0
:100D10006378134402331F2B3FF672AEC2F11D03FA
:100D200014A99BB204AE21F8203D3044FFF7D4FB58
:100D300000287FF4B9AE2278022A00F08780012AC9
:100D400000F08B80ADF830301A460820FE2A3FF6BE
:100D500057AEBDF80C3014AC591CE71814FA81F1E9
:100D600002331344013207F8402C3446ADF80C30FE
:100D700001F8400C9DE60CAF3846FFF7A7FB0028B2
:100D80007FF492AEBDF80C3014A903F1010E9A1C49
:100D900011FA8EFE0B4492B204AEB01808211B2645
:100DA00003F8401CADF80C200DF1310106220EF8BD
:100DB000406C03F0C7FCBDF80C209DF83010931D6B
:100DC00011F0FE019BB23BD114A8034403F8401C70
:100DD000D31DA2789BB2ADF80C304AB9E278002A54
:100DE0003FF407AED81C1F2819463FF609AEECE5C4
:100DF00004331F2B3FF604AE3846FFF76BFB002889
:100E00007FF452AEBDF80C30BDF83010E2785F1CB4
:100E100014AE16FA87F71E44981C4FF0030E06F81E
:100E200040EC80B204AE4FF0190E07F840EC0433EA
:100E3000371831549BB2090AADF80C307970CEE7FF
:100E400014A90B44012103F8401CC1E7BDF8302070
:100E50009342FFF477AF092078E762789342FFF47A
:100E600071AFADF83020082070E700BF75DF704724
:100E700076DF70477ADF70477BDF7047184B188842
:100E80004FF6FF7398422AD010B5164A164C1378C5
:100E9000217B0133DBB2994282B013700CD2237CE8
:100EA000002111708BB9636923B102A8002200F8F8
:100EB000042D984702B010BD0C49FFF7D7FF00285A
:100EC000F8D0A369002BF4D1F4E73B21FFF7D0FF62
:100ED0000028E8D0A369002BE5D09847E3E77047E6
:100EE000A42900206429002068290020A8290020C6
:100EF00070B51E4B1E4A5B881188994282B00FD88C
:100F000052889A420CD31B4B5B6923B102A8012281
:100F100000F8042D9847184C0023237002B070BDD0
:100F2000154C227862B1134B5B69002BF4D002A8F8
:100F3000002200F8042D98470023237002B070BDF2
:100F40000C4D0E4869680678AB680D48002E18BF36
:100F5000194602F079FC0028DED0AB69002BDBD00B
:100F600098470023237002B070BD00BF5C290020A9
:100F7000A829002068290020592900206429002080
:100F800084290020F8B505460FCD144C144F0FC42A
:100F9000064695E80700002384E807003B70B6B1D9
:100FA0003068104B716803C3A3F10800FFF762FFBC
:100FB00090B90D4D0D4C0E4A0E4800234FF6FF76AA
:100FC0002E8023701946BDE8F84002F02BBC05487E
:100FD000FFF752FF0028ECD0F8BD00BF68290020C1
:100FE00059290020A8290020A429002064290020D4
:100FF0007D0E02001057020070B50388112B27D018
:1010000012D9122B07D0502B47D1244CC288E38928
:101010009A4230D070BD083003C8214B83E80300EA
:10102000BDE87040FFF764BF102B35D11D491B4C44
:101030001B4B1D4DE48900F110028088088092E866
:101040000300002283E803002A70002CE8D070BD62
:101050001449154B15484FF6FF7400220C801A7086
:1010600002F048FC0028D5D00C4B9B69002BD1D056
:10107000BDE870401847038A022BCBD1123000F034
:1010800017F80028CCD1094802F034FC0028C1D060
:10109000A369002BECD1BDE770BD70BD68290020AD
:1010A0005C290020A4290020642900208429002034
:1010B000007800F0010070478FDF70479EDF7047B7
:1010C000ADDF7047C0B170B403469E220020A22459
:1010D00017261B2599611A805A80DA80DA811C71E3
:1010E0001C731C751E811E829872D8729874D874F5
:1010F0005D735D7570BC70470E20704740B1A1F103
:101100001703872B01D90720704701800020704703
:101110000E207047F0B58D88012D83B001D903B042
:10112000F0BD0B88212B044675D01BD93A2B00F05B
:10113000B280552B00F08980222B25D0EE00A31918
:101140009B7A002BEBD0A3192846D988FFF7B6FF6E
:1011500000285CD01128E2D002466C49012001F041
:10116000F3FCDCE7102B25D0112BE7D100EBC503F6
:1011700000229E251724A2201B21DD801C811873CC
:1011800059739A72DA72CAE7EE0087190A7A7A738B
:101190008369002B39D000214DF67A2EADF804106A
:1011A000ADF8025069468DF80420ADF800E098478C
:1011B000BB7AC6E7EE00871903793B73CB7B012B23
:1011C00000F08680022B00F08C80F9883B898B42EE
:1011D000C0F08A803B7B7A7B9A4216D24FF0000E99
:1011E0009BB2724669462846ADF80030ADF8023031
:1011F000ADF804E0ADF806E0FFF75EFF28B1034666
:101200002A464349012001F0FDFCBB7A99E70122FF
:101210009872DA7283E7EE0087190A7A3B7B002026
:10122000934228BF13460190024669462846ADF80E
:101230000030ADF80230FFF73FFF0028E5D002464E
:101240003449012001F080FCDFE7EE00CB888719EC
:10125000172BF98838BF17238B4228BF0B46002273
:101260003B81BA722846FFF72BFF002833D1FB7A67
:10127000002BCAD1A369002BC7D040F677213A8949
:10128000ADF80010ADF80250ADF8042069462046D4
:101290009847BB7A55E700EBC5064A89F388934225
:1012A00028BF1346172B38BF1723338182695AB1E1
:1012B000F17A49B140F67721ADF80010ADF802504F
:1012C000ADF80430694690470023F372B37226E705
:1012D0000188F9807AE702460F49012001F034FCC9
:1012E000C5E74188F98071E72846FFF7E7FE10B9A6
:1012F0000123FB726EE7112802D10123BB7269E75B
:1013000002460249012001F01FFC63E71457020066
:101310007457020048580200EC57020010B51A4BEF
:101320001A6882B0A2B100221A601B6800934FF0C5
:1013300080430122154C0099C3F80823A36862700A
:1013400033B10CCB0020A2609847A368002BF8D1E2
:101350000F4B1A68AAB100221A601B6801934FF064
:1013600080430222094C0199C3F808232369012212
:10137000A27033B10CCB0120226198472369002B66
:10138000F8D102B010BD00BF00010040B02900201C
:101390000401004058B910B5054CA36833B10CCB1B
:1013A0000020A2609847A368002BF8D110BD7047B9
:1013B000B029002010B582B002A80023134C00F819
:1013C000013D02F00FFB23788BB9114A6360E360A3
:1013D0001068A36010F00100236113D002F0ACFB91
:1013E00018B94FF08043C3F8180501232370E36850
:1013F0009DF8070001330122E360A27002F01AFB9E
:1014000002B010BD072100F005F8E7E7B029002081
:1014100000E100E0002810B418DB00F1604303F5A0
:1014200061434901C9B283F80013C3B24009800087
:1014300000F1604000F5614003F01F02012393407A
:10144000C0F8803103605DF8044B7047C3B2044AB2
:1014500003F00F0449012244C9B21176E6E700BF48
:10146000FCEC00E030B51D4C94F8545083B015B13D
:10147000082003B030BD4FF0FF33FF2207210620C4
:1014800023636363A363E36323646364A364E36428
:1014900023606360A360E36023616361A361E36130
:1014A000236284F850306362A36284F85230E362AE
:1014B00084F8533084F85120FFF7ACFF084B094AF9
:1014C0001D601B68019301984FF0004301212846DD
:1014D00084F85410C2F8043303B030BDC42900208E
:1014E0007C61004000600040F0B5624C251895F921
:1014F0003030002B01DB0820F0BD91F803E094466A
:10150000BEF1000F56D02368013300F0A380002500
:1015100008266B1C574F54F82320013251D0AB1CC6
:101520009E4245D957F8232001324AD0EB1C9E42F7
:101530003ED957F82320013243D02B1D9E4237D984
:1015400057F8232001323CD06B1D9E4230D957F80A
:101550002370013735D0AB1D9E4229D954F8232082
:10156000444F01322DD0EB1D9E4221D957F8232044
:10157000013226D005F108039E4219D957F82320DD
:1015800001321ED005F109039E4211D957F82320DC
:10159000013216D005F10A039E4209D957F823708B
:1015A00001370ED00B35AE4202D9E36A013307D0C2
:1015B0000420F0BD236A013353D008250C26A8E788
:1015C0000B2326185DB244F823C086F83050BEF1D4
:1015D000000F02D1234483F848008B78A3B94A78DE
:1015E0004FF0A04600F5E073920046F82320CB7838
:1015F000A3B9083D2C44097894F8502042EA81129E
:1016000084F850201846F0BD830003F1A043D3F8BE
:10161000002722F00202C3F80027E8E7AB0003F13D
:10162000804303F5C0430A78D3F8101521F44731FD
:1016300021F44071C3F810151204000202F4403185
:10164000D3F8104500F4F8520A432243C3F810259A
:101650000020F0BD002385F83030C4F800C01D46DE
:10166000BBE7082685F830603346C4F820C035460D
:10167000B0E700BFC4290020F0B42E4D2E1882B070
:1016800096F93030072B1CDD2B4493F848309B092A
:10169000032B41D0012B14BF4FF440334FF40033E0
:1016A000800000F1A040D0F8002722F44032C0F8BA
:1016B0000027D0F800271343C0F8003702B0F0BC71
:1016C0007047DAB2072AF9D8980000F1804000F597
:1016D000C04003F140029200D0F8104592B202F1EE
:1016E0008042002744F0010402F5C042C0F81045D2
:1016F0000197019817600029E0D096F9302055F83D
:101700002220002ADAD001220B4902FA03F3C1F8A1
:10171000043302B0F0BC70474FF0A043D3F810354B
:10172000C34013F0010F0CBF4FF400334FF44033AC
:10173000B6E700BFC4290020006000402DE9F04357
:1017400087B00026C94B01961A68012A00F004826E
:10175000C74B1A68012A00F0F181C64B1A68012AAA
:1017600000F0DE81C44B1A68012A00F0CB81C34B24
:101770001A68012A00F0B881C14B1A68012A00F0EA
:10178000A581C04B1A68012A00F09281BE4B1A68ED
:10179000012A00F07F81BD4B1A68012A00F05981AF
:1017A00016F0FF0F1AD0BA4F01250024A30003F151
:1017B00080432E4203F5C0434FEA45050BD0D3F8D2
:1017C000100557F82420D3F81015C0F30420C1F3F6
:1017D000014102B190470134082CE7D1002E02DB11
:1017E00007B0BDE8F083AA4C00224FF0FF33274634
:1017F0000292039301260DF1080894F950104D1C34
:101800002DD0C9B221F0C00006AB4FEAD00E03EBD9
:101810000E0201F0070312F80CCC06FA03F31CEADF
:10182000030F1CD03D18890995F9305057F82590C1
:10183000B9F1000F00F0E880032900F0E8804FEADA
:10184000800E0EF1A04E12F8145CDEF800271D4049
:10185000C2F3014240F0B580032A00F0A2810025C6
:1018600094F95110481C2FD0C9B221F0C00006AB2A
:101870004FEAD00E03EB0E0201F0070312F80CCC76
:1018800006FA03F31CEA030F1ED007EB000C8909CC
:101890009CF930C057F82C90B9F1000F00F0C680C9
:1018A000032900F0C6804FEA800E0EF1A04E12F818
:1018B00014CCDEF800271CEA030FC2F3014240F00B
:1018C0008D80032A00F0928194F952104A1C2ED088
:1018D000C9B221F0C00006AB4FEAD00E03EB0E02F6
:1018E00001F0070312F80CCC06FA03F31CEA030F0D
:1018F0001DD007EB000C89099CF930C057F82C90DB
:10190000B9F1000F00F08980032900F088804FEAC8
:10191000800E0EF1A04E12F814CCDEF800271CEA5F
:10192000030FC2F3014265D1032A00F04C8194F900
:1019300053104B1C2CD0C9B221F0C00006AB4FEAAB
:10194000D00E03EB0E0201F0070312F80CCC06FADE
:1019500003F31CEA030F1BD007EB000C89099CF969
:1019600030C057F82C90B9F1000F69D0032969D025
:101970004FEA800E0EF1A04E12F814CCDEF80027CC
:101980001CEA030FC2F3014211D1032A00F0F080D8
:10199000002D3FF425AF4FF0A043019AD3F8103546
:1019A00093423FF41DAF029A0193039225E7022A66
:1019B000EED1032900F02D81B9F1000FE8D0C8471E
:1019C000E6E7022A7FF44BAF032900F02B810025C4
:1019D000B9F1000F3FF444AFC84741E7022A7FF452
:1019E00073AF032900F01881B9F1000F3FF46CAF19
:1019F000C84769E7022A9AD1032900F01081B9F19A
:101A0000000F94D0C84792E703297FF428AF18F855
:101A10000E501D4308F80E5011E7032987D118F81E
:101A20000EC04CEA030C08F80EC070E703297FF4DF
:101A30004BAF18F80EC04CEA030C08F80EC032E7A2
:101A40000329A5D118F80EC04CEA030C08F80EC003
:101A50008EE700221A601B6805934FF0A043059A99
:101A6000D3F81035019346F0004699E60061004036
:101A700004610040086100400C61004010610040BA
:101A800014610040186100401C6100407C6100400E
:101A9000C4290020654AD2F8042317067FF57BAEDF
:101AA00000221A601B680493049B46F0800672E6CD
:101AB0005E4AD2F8042352067FF568AE00221A600F
:101AC0001B680493049B46F040065FE6574AD2F831
:101AD000042391067FF555AE00221A601B6804931B
:101AE000049B46F020064CE6504AD2F80423D00668
:101AF0007FF542AE00221A601B680493049B46F0F7
:101B0000100639E6494AD2F8042314077FF52FAEB0
:101B100000221A601B680493049B46F0080626E620
:101B2000424AD2F8042355077FF51CAE00221A6002
:101B30001B680493049B46F0040613E63B4AD2F864
:101B4000042397077FF509AE00221A601B680493EF
:101B5000049B46F0020600E63449D1F8041311F064
:101B600001011CD01E601B680493049B1646EFE520
:101B700003297FF421AF4FF40033DEF8002722F46D
:101B80004032CEF80027DEF8002701351343EDB2CE
:101B9000CEF80037B9F1000F7FF411AFFBE60E4627
:101BA000D6E503297FF414AF4FF40033DEF80027A5
:101BB00022F44032CEF80027DEF800271343CEF897
:101BC0000037012504E703297FF419AF4FF40033F0
:101BD000DEF8002722F44032CEF80027DEF8002796
:101BE00001351343EDB2CEF8003708E703297FF43F
:101BF000FBAE4FF40033DEF8002722F44032CEF87B
:101C00000027DEF8002701351343EDB2CEF8003788
:101C1000EAE64FF44033B0E74FF44033EBE74FF4DC
:101C20004033D5E74FF44033C0E700BF00600040C9
:101C30002DE9F04F0579244EAF0007EB050E4FEA72
:101C4000CE0E06EB0E0C83B09CF822401CB108208F
:101C500003B0BDE8F08F46F80E20CCF80840CCF871
:101C600004308CF825408CF824408B7B8CF827308E
:101C70004B7B5BBB0B684FF0A04403F5E07340F275
:101C80000C6E44F823E04B6803F5E07344F823E05E
:101C900091E810400368C3F80845C3F80CE58C6868
:101CA000C3F824452AB10068097B40F30730FFF7E9
:101CB000B1FB3D4406EBC5050123002085F8223029
:101CC00003B0BDE8F08F00BF1C2A00200B68DFF8CE
:101CD000A092DFF8A0E24FF0A04C03F5E07340F2D1
:101CE0000C6A4CF823A04B6803F5E0734FF0010831
:101CF0004CF823A00B6808FA03F3CCF808354B68BE
:101D000008FA03F3CCF808350B6803F5E07340F2EA
:101D10000D6B4CF823B04B6803F5E0734FF0040AE9
:101D20004CF823B05346D9F8009000BF00BF00BF65
:101D300000BF00BF00BF00BF00BFF1452FD000BFF4
:101D400000BF00BF00BF00BF00BF00BF00BF00BF9B
:101D500000BF00BF00BF00BF00BF00BF00BF00BF8B
:101D600000BF00BF00BF00BF00BF00BF00BF00BF7B
:101D700000BF00BF00BF00BF00BF00BF00BF00BF6B
:101D800000BF00BF00BF00BF00BF00BF00BF00BF5B
:101D900000BF00BF00BF00BF00BF00BF00BF013BCE
:101DA000C3D10195D1F804B0DCF8103523FA0BF358
:101DB000DB07554600F1D6800B6808FA03F3CCF830
:101DC0000C3500BF00BF00BF00BF00BF00BF00BF99
:101DD00000BFF1452FD000BF00BF00BF00BF00BF54
:101DE00000BF00BF00BF00BF00BF00BF00BF00BFFB
:101DF00000BF00BF00BF00BF00BF00BF00BF00BFEB
:101E000000BF00BF00BF00BF00BF00BF00BF00BFDA
:101E100000BF00BF00BF00BF00BF00BF00BF00BFCA
:101E200000BF00BF00BF00BF00BF00BF00BF00BFBA
:101E300000BF00BF00BF013DC3D10B6808FA03F328
:101E4000CCF80835534600BF00BF00BF00BF00BF3D
:101E500000BF00BF00BFF1452FD000BF00BF00BFD3
:101E600000BF00BF00BF00BF00BF00BF00BF00BF7A
:101E700000BF00BF00BF00BF00BF00BF00BF00BF6A
:101E800000BF00BF00BF00BF00BF00BF00BF00BF5A
:101E900000BF00BF00BF00BF00BF00BF00BF00BF4A
:101EA00000BF00BF00BF00BF00BF00BF00BF00BF3A
:101EB00000BF00BF00BF00BF00BF013BC3D1013462
:101EC000092C7FF46FAF019D4B68DFF8A8800124D7
:101ED0004FF0A04E04FA03F34FF0040CCEF80C358B
:101EE000634600BF00BF00BF00BF00BF00BF00BF10
:101EF00000BFC1452FD000BF00BF00BF00BF00BF63
:101F000000BF00BF00BF00BF00BF00BF00BF00BFD9
:101F100000BF00BF00BF00BF00BF00BF00BF00BFC9
:101F200000BF00BF00BF00BF00BF00BF00BF00BFB9
:101F300000BF00BF00BF00BF00BF00BF00BF00BFA9
:101F400000BF00BF00BF00BF00BF00BF00BF00BF99
:101F500000BF00BF00BF013BC3D14B689C40CEF81F
:101F6000084587E6019D002C3FF484AE5B46ACE754
:101F7000002600200024F4000379064A016803EBE0
:101F8000830302EBC3030220062283F82200C1F878
:101F9000002570471C2A00204B6803F06043B3F112
:101FA000005F01D0102070472DE9F04390F804E065
:101FB000A44F03684FEA8E0C0CEB0E06154607EB98
:101FC000C6064FF0FF32C3F8082396F8242089B0E4
:101FD00002F0FF0832B1B268C3F80423112009B03F
:101FE000BDE8F08315F0140F0CBF0122002286F823
:101FF00024200C4607C906F10C0989E80700C5F33F
:10200000001286F825206278C3F88825C3F8048179
:10201000D3F804210592059AC3F82481D3F824212A
:102020000692069A15F0010218BF0122C3F8502546
:1020300015F0020218BF0122C3F840252278032AB6
:1020400000F2FA80DFE802F046660B02A26802F0B6
:102050006042B2F1005F00F0B4801020BFE7A278C8
:102060006168C3F84415C3F84825A26802F06041CE
:10207000B1F1005FF1D10CEB0E0107EBC101E67885
:10208000C3F8342540F202204FF48452C3F8386577
:10209000C3F80022886008224FF4827100202E07C6
:1020A00004D42478032C1CBF01249C500CEB0E029A
:1020B000D200BC18BA58002A44D06A0744BF4FF473
:1020C0000072A2600CEB0E0207EBC2029268C3F82A
:1020D000042384E7A2786168C3F84415C3F848254F
:1020E000A9060CEB0E0207EBC20255D54FF4807126
:1020F000C3F80012544890600021C3F84811D3F887
:1021000048210092009A4FF4A47101221A62002023
:102110000822C4E76268A678C3F834250CEB0E01E8
:1021200007EBC1014FF48052C3F8386540F202203A
:10213000C3F8002201260022886010461E624FF478
:102140008271ACE701255C1802E0D3F8241169BB69
:102150002268002AF9D00CEB0E02D3F8C414C3F89D
:10216000C41407EBC202002382F8243000293FF494
:1021700036AF11F0010F14BF4FF40243032348F2AE
:10218000012211F0020F18BF134611F0040F48F29C
:10219000022008BF184622E740F202214FF40070E7
:1021A000C3F8000291604FF48271AEE7C3F82421B6
:1021B000D3F824210792079A1D624FF482715D6162
:1021C000C1E74FF48072C3F800226268A178C3F8B7
:1021D00044250022C3F84815C3F85021D3F8501104
:1021E00002910299C3F86021D3F860110391039919
:1021F000C3F84821D3F848210492012204991A62B5
:102200009A60D3F85021002AFBD00020C3F8500177
:10221000D3F8501101910CEB0E020199A168E678F8
:10222000C3F8441507EBC2020749C3F8486591603B
:1022300008224FF4827132E708224FF4827107209E
:102240002DE700BF1C2A0020000204002DE9F04FFA
:1022500089B005AC9DF848601546002E02F0604636
:102260004FF000020CBF17462027B6F1005F6260F6
:102270000592A26003D0102009B0BDE8F08F90F85D
:1022800004C0DFF8409106684FEA8C0A0AEB0C0E96
:102290004FF0FF3209EBCE0EC6F808239EF824203B
:1022A00002F0FF083AB1DEF80830C6F80433112016
:1022B00009B0BDE8F08F01228EF82420C6F88815F9
:1022C000C6F80481D6F804218DF815108DF8163063
:1022D0000695029294E80700029CC6F82481D6F87D
:1022E000244103940EF10C04DDF80CB08EF8258027
:1022F000C6F8508584E80700C6F84085C6F84455FE
:10230000C6F84835CFB94FF4007240F20223C6F840
:1023100000224FF48271CEF808300AEB0C03012240
:10232000DB003262B26059F80300264CA8B12344A6
:1023300000209B68C6F804339EE7234B4FF480725D
:10234000C6F80022CEF80830C6F84881D6F84831E1
:102350000193019B4FF4A471DFE71046314402E082
:10236000D6F824211ABB0B68002BF9D0D444D6F838
:10237000C404C6F8C40409EBCC09002389F824304E
:1023800000283FF479AF10F0010F14BF4FF402435F
:10239000032348F2012210F0020F18BF134610F079
:1023A000040F48F202220CBF1846104664E7C6F834
:1023B0002431D6F824310493049B30624FF48271A7
:1023C0007061CBE71C2A00200002040070B55E4B50
:1023D000D3F824218AB0BAB10022C3F82421D3F85B
:1023E00024210592059AD3F804216AB9574A02219B
:1023F0009068C3F8080391609268C3F8042301222F
:102400001A625A610AB070BD4F4B504CD3F8042188
:10241000002A30D0002504F10C0207CAC3F8045189
:10242000D3F80461049694F82350049E0AAE06E99A
:102430000700002D39D0227B012A7FD0D3F84C151C
:102440008DF81E10022A75D03F4BD3F84C25D2B21E
:102450003D4B8DF81F200022C3F86021D3F8601196
:1024600002910299C3F85C21D3F85C310393039B7A
:1024700094F8255028E0C3F84821D3F84811227B6E
:1024800001910199002A3BD104F10C0207CA94F88A
:1024900025500AAE06E90700FDB94FF0FF32C3F838
:1024A0000052A560C3F8082317E0C3F86051D3F8C1
:1024B00060210292029AC3F85C51D3F85C3194F81F
:1024C00025500393039B45B91F4B00224FF0FF316A
:1024D000C3F80022A260C3F808131B4AD2F8C43420
:1024E000C2F8C4349A071ED501238DF818300DB9EF
:1024F00084F824502368616806A898470AB070BD24
:102500004FF4007040F202214FF0FF32C3F8000296
:10251000A160C3F80823A268C3F8042301229A60CB
:102520001A620AB070BD13F0040318BF02238DF8BD
:102530001830DCE7D3F83C25D2B289E7D3F83C3534
:102540008DF81E3080E700BF003000401C2A0020BC
:1025500020B1034B5B6E036000207047032070477F
:10256000442A0020BFF34F8F0549064BCA6802F486
:10257000E0621343CB60BFF34F8F00BFFDE700BFA6
:1025800000ED00E00400FA0510B50A49826904462E
:10259000012000F0D9FA00F07BFA00F087FC002857
:1025A000FBD1054B1B68DB0703D42046FFF7DAFF9E
:1025B00010BDFFDEAC580200F0ED00E0094B1EF04C
:1025C000040F1CBFEFF309801847EFF3088006499A
:1025D000064A884201D8904202D88D464FF000004A
:1025E000184700BF8925020000000120B8DF002045
:1025F000F0B51746C7B01D46E9B10C4606AE042239
:102600006649304602F09EF82368654A4FF48071AF
:1026100007A802F0ABF800280ADB4C9B041D062B30
:1026200000F2B980DFE803F01238414C59697B00B1
:10263000002047B0F0BD4C9B062B00F2A980DFE8DC
:1026400003F00491969B82878C000024384602F0A8
:10265000EBF80319FF2B054640F29380002DE7DBD2
:102660006019041DB4F5807FE2D806AE3044042220
:102670004A4902F067F80A2700252246711900200E
:1026800001F0D6FC0544241A08B9013F01D0002C02
:10269000F3D1012047B0F0BDC4F580712B683A46F4
:1026A000301902F063F80546D8E7C4F580716A680E
:1026B0002B68009230193A4602F058F80546CDE7EB
:1026C000C4F58071AA682B686D6800950192301975
:1026D0003A4602F04BF80546C0E7C4F58071EA6857
:1026E0002B68D5F808E06D6802928DE820403A46E4
:1026F000301902F03BF80546B0E7C4F5807128694F
:10270000EA682B680390D5F808E06D6802928DE8BE
:1027100020403A46301902F029F805469EE7C4F5F4
:1027200080716A6928692B680492EA680390D5F879
:1027300008E06D6802928DE820403A46301902F0B8
:1027400015F805468AE74FF48071002406AEC6E707
:102750004FF48071002406AED1E74FF4807100245D
:1027600006AEDEE74FF48071002406AE96E74FF424
:102770008071002406AE9AE74FF48071002406AE03
:10278000A0E706AB394618192A4601F0DBFF65E7DA
:102790000020042469E7002562E700BFD458020046
:1027A000DC5802002DE9F04F1646C5B01D460C4618
:1027B000002900F02681002B00F000810A230193FC
:1027C0000023194604AF4F9B519A202603EB020BBE
:1027D0008A46019800EB0A0808F13103FB180293BE
:1027E00007EB0A0300285FD05A4202F0030282423C
:1027F00028BF0246062800F2D8800246012A07F8C0
:102800000A6003F1010100F0CE80022A5E7003F13C
:10281000020100F0C880032A9E7003F1030100F05A
:10282000C280042ADE7003F1040100F0BC80062A95
:102830001E7103F1050140F0BE805E71991D964640
:10284000019890422ED0019CA01A039004F1FF3C05
:1028500004388008C2EB0C0C0130BCF1020F4FEAC7
:10286000800913D952444FF0203C012807EB020A9B
:1028700047F802C005D00228CAF804C001D0CAF83F
:1028800008C0039A91454944CE440BD0019C0E7078
:102890000EF10102A24205D20EF1020E74454E70F5
:1028A00000D98E70019A13445A4A0299D2F80090C6
:1028B0000393DA1C481C03F1330C4F9C0CE002F824
:1028C000036C02F8026C02F8016C0332624500F8F6
:1028D000016C00F1010030D0AB45F0D9AC425ED9BB
:1028E0004E99495D02F8016C4FEA211E5FFA8EFA9B
:1028F000BEF1090F01F00F0ED4BF0AF1300A0AF140
:10290000370ABEF1090F02F803AC94BF0EF1300E86
:102910000EF1370E09EB010A02F802EC9AF801E019
:1029200003321EF0970F08BF2E21624500F8011CEC
:1029300005F1010500F10100CED1039B4F94029CEB
:10294000354908F143000D224FF00A09227484F83A
:102950001190384483F83060042201F0F3FE4F9B5D
:1029600008F1470A54464FF000089A46224607EB02
:102970000801002001F05CFB8044241A10B9B9F171
:10298000010901D0002CF1D15D45CDF83CA14FF0FB
:10299000000AFFF41EAF284645B0BDE8F08F291BA2
:1029A000509B595C9EE796464AE7002A7FF426AF83
:1029B0001946964647E74FF0050E41E704AF04225B
:1029C0001549384601F0BEFE2368144A4FF4807161
:1029D00005A801F0CBFE0028DDDB0A23041D0193CE
:1029E000304601F021FFC22828BFC2208046314670
:1029F0000246381901F0A6FE04EB0803002519462B
:102A0000E1E61BB92C46019504AFE9E7019104AF5B
:102A1000D9E600BF04260020D4580200DC5802008A
:102A200070B5074D074E2B7813B13378834205D02C
:102A3000044601F0C3FC012334702B70002070BDEC
:102A4000AD2A0020AC2A002000487047F125020082
:102A500000487047A527020038B50020FFF7E0FFC7
:102A6000044680B9FFF7F0FF0546FFF7F1FF074B7B
:102A700041F2140241F2100198505D5040F2FF32D1
:102A80001C605C609A60204638BD00BFB02A002000
:102A90000120FFF7C5BF00BF2DE9F04383B002ABB3
:102AA0004FF0000803F8018D254C064618460D46E8
:102AB000A76800F097FFA2686368D4F800901344F9
:102AC0000133C9EB0303012B07D80BBB9DF80700AB
:102AD00000F0B0FF03B0BDE8F08309F101039DF8F9
:102AE0000700236000F0A6FF0122002362F3010328
:102AF00068F3820307EA090766F3C50304EB87045A
:102B000068F3891365F39F23E36003B0BDE8F083A6
:102B10000121434661F3010368F38203052161F358
:102B2000C50309EA0202074904EB820268F389132C
:102B300009F1010761F39F232760D360C6E700BF57
:102B4000B02A0020E45802002DE9F04782B002AB21
:102B5000002603F8016D294C814618461746884621
:102B6000A56800F03FFFA2686368D4F800A0134492
:102B70000133CAEB0303022B07D843BB9DF80700C0
:102B800000F058FF02B0BDE8F0870AF102039DF89B
:102B90000700236000F04EFF0122002362F30103CF
:102BA0000AEB020166F3820369F3C50305EA0A0A28
:102BB0000D4004EB8A0A62F3891304EB850468F381
:102BC0009F23CAF80C30E76002B0BDE8F08701210E
:102BD000334661F3010366F38203052161F3C50304
:102BE0000AEA0202064804EB820266F389130AF13C
:102BF000010160F39F232160D360BFE7B02A00206A
:102C0000E45802002DE9F04F83B002AD002605F82C
:102C1000016D2D4C8246284690461F468946A56880
:102C200000F0E0FEA2686368D4F800B013440133FA
:102C3000CBEB0303032B07D87BBB9DF8070000F009
:102C4000F9FE03B0BDE8F08F0BF103039DF8070018
:102C5000236000F0EFFE0122002362F301030BF179
:102C6000020066F382035A446AF3C503022105EAAF
:102C70000B0B2A40054004EB8B0B04EB820261F343
:102C8000891304EB850469F39F23CBF80C30C2F859
:102C90000C80E76003B0BDE8F08F0121334661F39B
:102CA000010366F38203052161F3C5030BEA020207
:102CB000064804EB820266F389130BF1010160F30D
:102CC0009F232160D360B8E7B02A0020E4580200B7
:102CD0002DE9F04F83B002AD4FF0000A05F801ADC9
:102CE000324C8346284617461E46D4F8089088463C
:102CF00000F078FEA26863682568134401335B1B0B
:102D0000052B08D8002B3CD19DF8070000F092FE5F
:102D100003B0BDE8F08F6B1D9DF80700236000F045
:102D200089FE0122002362F301036AF382036BF33D
:102D3000C5034FF0040EA818A91CEA1C6EF38913F2
:102D4000AE4409EA050504EB850500EA090001EA3D
:102D5000090102EA090204EB800004EB810104EBA3
:102D6000820268F39F23EB600EEA09090C9BC7609F
:102D700004EB8904CE60D3600D9BE36003B0BDE833
:102D8000F08F0121534661F301036AF382030521A9
:102D90002A4061F3C503064904EB82026AF38913F2
:102DA000013561F39F232560D360ADE7B02A002091
:102DB000E45802002DE9F04F83B002AD002705F87A
:102DC000017D384C8346284691469846A6688A4637
:102DD00000F008FEA26863682568134401335B1B9A
:102DE000072B08D8002B47D19DF8070000F022FEE2
:102DF00003B0BDE8F08FEB1D9DF80700236000F0E5
:102E000019FE0122002362F3010367F3820305EB3D
:102E1000020E6BF3C503062206EA050CAF1CE81C84
:102E200062F38913291D6A1D063535400EEA060E28
:102E3000374030403140324004EB8C0604EB8E0EBC
:102E400004EB870704EB80006AF39F23F36004EB35
:102E500081010C9BCEF80C9004EB8202C7F80C8029
:102E6000C3600D9BCB600E9BD36004EB85040F9B6E
:102E7000E36003B0BDE8F08F01213B4661F301033D
:102E800067F3820305212A4061F3C503064904EB79
:102E9000820267F38913013561F39F232560D360B4
:102EA000A2E700BFB02A0020E45802002DE9F04359
:102EB0004E4E96E80C009A428BB073D0B06804E096
:102EC000C4F3891202EB9452134400EA030502355D
:102ED00006EB85020133546814F00302F0D0022A95
:102EE00029D0C4F38312C4F3952C002A79D00DF1B4
:102EF000100E7546D71800EA030106EB8101013375
:102F0000C96845F8041BBB42F5D141F2100100929B
:102F1000C4F3C20073467458344D62460021A04782
:102F200038B177603068C01B18BF01200BB0BDE816
:102F3000F0836F68F6E75F1C20EA07010340013168
:102F400006EB830389004FEA94588845DA68DFF876
:102F50009CE0C4F3891329D9002938D000EA070C72
:102F60005FFA81F90EEB8C0CC9EB08010CF10C0C2B
:102F70000EF10C00C9B241F2140E03910290CDF88B
:102F80000490CDF800C056F80E900021C4F3C200A2
:102F9000C847404521D006EB850560F38F146C606F
:102FA0007768BFE700200BB0BDE8F08338400EEB38
:102FB00080000C308DE8010141F2140C00215EF814
:102FC0000C9003910291C4F3C200C847E1E70EF1EF
:102FD0000C0C08465FFA88F9CDE7033007EB900741
:102FE0009FE71F460DF1100E8FE700BFB02A0020AB
:102FF000F8B5204A204B0025C2F84051C2F8445190
:10300000C2F84851C2F84C51C2F80051C2F80451FC
:103010001B6813B31949D2F804250C68141B1A68ED
:1030200024F07F44A2422F4609D8197CDE69A41AF5
:10303000154499B91EB133461A68A242F5D9104B0E
:1030400010491A780B789A420DD00F490F4A41F86F
:1030500023504FF48013C2F80031F8BD1F745A6931
:1030600098699047E6E7531CDBB2022B08BF0023A8
:103070000B70EAE700100140CC3A0020C83A00206B
:10308000D03A0020D13A0020E03B002000E100E0EF
:103090002DE9F04F7D4A7E4913780978994289B02D
:1030A00000F0E9810133DBB2022B08BF002379492C
:1030B0001370794A0F6852F8230005910C4677493E
:1030C00004910B683A18002122F07F4222608E465C
:1030D0000C46A3B11A68824200F2DB81DD68C3F8B6
:1030E00000E0801A1444DA6935B13E1926F07F46B3
:1030F000D9619D605E6019461346002BEAD1049A9F
:10310000069313600123069A0793654BDFF89491A9
:103110001B780293059BDFF890C11F68049B1B6816
:10312000BA461C460F4600230193CB4618464FF083
:10313000010EA04637B37C68BD683946FF69CAEB0B
:10314000040323F07F4363453CD82B440B60486065
:10315000886081F810E0C861002A65D015689D423A
:1031600049D2164603E025689D4234D22646F469CA
:103170005B1B002CF7D10B60CC611346F1611A4642
:10318000002FD8D199F8003099F80110994200F039
:103190008D80591C03EB43039BF8024009EBC303EA
:1031A000C9B28C421C798BF8001008BF8BF80070F4
:1031B000022C996846D0032C3AD0012C22D0134619
:1031C0001A46DDE7C4EB0A0424F07F44AC4209D27E
:1031D0002B1B0B60BBE7ED1A25600B60CC6113461F
:1031E000F161CCE708604860886081F810E0C86150
:1031F000D2B115680023EB1A13600B46CA618846EA
:103200001A46BDE70C7C0394002CD8D1DC684C60D6
:103210001D698D605E69CE609B698B61029B002B8E
:103220008DD0039C4C608AE70B4688461A46A7E778
:103230000AB9C4E71A46D3691074002BFAD198462C
:103240001A469DE752B1914200F00581134602E013
:10325000A14207D02346DC69002CF9D1134608743B
:103260001A468DE79942039400F0F780CD690E6805
:10327000DD611346002DF1D02C6834442C60019C94
:1032800008749A4218BF01240194E9E7D03A00205B
:10329000D13A0020C83A0020E03B0020CC3A002080
:1032A000D23A0020D43A0020FEFF7F00059B04990B
:1032B000C3F800A0784BC1F800809DF80810197081
:1032C000019B57461BB9069B9A4200F0DE80002AFC
:1032D00000F045817149724CD1F8040513682578D6
:1032E000C21B22F07F420332002D51D16D4DDFF819
:1032F000B8C1DFF8B8E14FF48036C1F84463C1F8D3
:1033000004634FF40036C5F880612E6001250D601E
:10331000DCF800602F2100BF00BF00BF00BF00BF6E
:1033200000BF00BF00BF76452FD000BF00BF00BF69
:1033300000BF00BF00BF00BF00BF00BF00BF00BF95
:1033400000BF00BF00BF00BF00BF00BF00BF00BF85
:1033500000BF00BF00BF00BF00BF00BF00BF00BF75
:1033600000BF00BF00BF00BF00BF00BF00BF00BF65
:1033700000BF00BF00BF00BF00BF00BF00BF00BF55
:1033800000BF00BF00BF00BF00BF0139C3D125701F
:1033900093422CBFFF18BF18404927F07F43C1F864
:1033A0004035D1F80425121A1B1A22F07F4223F06F
:1033B0007F4303329A4248D9D1F804353A4AC1F8DA
:1033C0004035126839492F2300BF00BF00BF00BF3E
:1033D00000BF00BF00BF00BF8A422FD000BF00BFA8
:1033E00000BF00BF00BF00BF00BF00BF00BF00BFE5
:1033F00000BF00BF00BF00BF00BF00BF00BF00BFD5
:1034000000BF00BF00BF00BF00BF00BF00BF00BFC4
:1034100000BF00BF00BF00BF00BF00BF00BF00BFB4
:1034200000BF00BF00BF00BF00BF00BF00BF00BFA4
:1034300000BF00BF00BF00BF00BF00BF013BC3D142
:10344000184B4FF40032C3F80021134A00231370C5
:1034500009B0BDE8F08F03921346D2F81C80B8F192
:10346000000F29D0039EF5693668DD614346002DC3
:103470003FF405AF00E70E4B04931B680D4A05921D
:103480000021069307911A463FE6079B002BDCD0EC
:103490001DE7121A1A6032E6D23A002000100140ED
:1034A000E83B002000E100E0002600200024F400BA
:1034B000CC3A0020C83A0020744D754CC5F808E09D
:1034C000744D2F262D6800BF00BF00BF00BF00BF96
:1034D00000BF00BF00BFA5422FD000BF00BF00BF8C
:1034E00000BF00BF00BF00BF00BF00BF00BF00BFE4
:1034F00000BF00BF00BF00BF00BF00BF00BF00BFD4
:1035000000BF00BF00BF00BF00BF00BF00BF00BFC3
:1035100000BF00BF00BF00BF00BF00BF00BF00BFB3
:1035200000BF00BF00BF00BF00BF00BF00BF00BFA3
:1035300000BF00BF00BF00BF00BF013EC3D1039E5C
:10354000F5693668DD61002D40F09A8001231A4646
:103550000293AA46A8462B460192087480E64B497E
:103560004D4B4C4E4A4C4FF480304FF40037012500
:10357000C3F88070C1F848032F23C1F808034D60D9
:1035800030681E4600BF00BF00BF00BF00BF00BFC5
:1035900000BF00BFA0422FD000BF00BF00BF00BFD0
:1035A00000BF00BF00BF00BF00BF00BF00BF00BF23
:1035B00000BF00BF00BF00BF00BF00BF00BF00BF13
:1035C00000BF00BF00BF00BF00BF00BF00BF00BF03
:1035D00000BF00BF00BF00BF00BF00BF00BF00BFF3
:1035E00000BF00BF00BF00BF00BF00BF00BF00BFE3
:1035F00000BF00BF00BF00BF013EC3D18D60059971
:103600000A6000BF00BF00BF00BF00BF00BF00BF17
:1036100000BFA0422FD000BF00BF00BF00BF00BF4F
:1036200000BF00BF00BF00BF00BF00BF00BF00BFA2
:1036300000BF00BF00BF00BF00BF00BF00BF00BF92
:1036400000BF00BF00BF00BF00BF00BF00BF00BF82
:1036500000BF00BF00BF00BF00BF00BF00BF00BF72
:1036600000BF00BF00BF00BF00BF00BF00BF00BF62
:1036700000BF00BF00BF013BC3D1084B1A70E4E696
:103680000124C24643460294F6E500BF0010014003
:103690000024F4000026002000E100E0E83B0020C8
:1036A000F0B4564B564A574E574C4FF480304FF4B7
:1036B00000310125C2F88010C3F848032F21C3F858
:1036C00008035D6030680E4600BF00BF00BF00BF4A
:1036D00000BF00BF00BF00BFA0422FD000BF00BF8F
:1036E00000BF00BF00BF00BF00BF00BF00BF00BFE2
:1036F00000BF00BF00BF00BF00BF00BF00BF00BFD2
:1037000000BF00BF00BF00BF00BF00BF00BF00BFC1
:1037100000BF00BF00BF00BF00BF00BF00BF00BFB1
:1037200000BF00BF00BF00BF00BF00BF00BF00BFA1
:1037300000BF00BF00BF00BF00BF00BF013EC3D13C
:103740009D6000BF00BF00BF00BF00BF00BF00BF43
:1037500000BFA0422FD000BF00BF00BF00BF00BF0E
:1037600000BF00BF00BF00BF00BF00BF00BF00BF61
:1037700000BF00BF00BF00BF00BF00BF00BF00BF51
:1037800000BF00BF00BF00BF00BF00BF00BF00BF41
:1037900000BF00BF00BF00BF00BF00BF00BF00BF31
:1037A00000BF00BF00BF00BF00BF00BF00BF00BF21
:1037B00000BF00BF00BF0139C3D1144E144D154CDA
:1037C0001549164F00203070286020704FF4801586
:1037D000E0240B26087048708E7038701049C2F8CB
:1037E000805182F814431560C3F8080582F811432C
:1037F000D3F804350B60F0BC704700BF00100140E7
:1038000000E100E0002600200024F400E83B002056
:10381000CC3A0020D03A0020D43A0020D13A0020FF
:10382000C83A0020074B9B780BB9082070473AB183
:1038300030B10368187C0028F7D159745A61704779
:1038400007207047D43A00202DE9F043264CA37896
:1038500083B01BB9082003B0BDE8F0830028F9D07D
:10386000042903D8072003B0BDE8F0834369002B87
:10387000F0D0064602A8737C0025012B00F8015DFC
:103880000CBF8946A94690460F4600F0ABF8637816
:10389000A07821785A1CD2B2904208BF2A469142A1
:1038A0001BD003EB430304EBC30301200F49187142
:1038B0009E60D1F804159DF80700D9601F61C3F818
:1038C0001490C3F81880627000F0B4F8084B4FF4FD
:1038D00080122846C3F80021BDE79DF8070000F0DC
:1038E000A9F80420B7E700BFD43A00200010014037
:1038F00000E100E070B51B4CA37882B013B908203A
:1039000002B070BD0028FAD04369002BF7D00646FC
:1039100002A8002500F8015D357400F063F86278B4
:10392000A0782178531CDBB2984208BF2B469942FD
:1039300012D002EB420204EBC20202219DF8070002
:1039400096601171637000F075F8074B4FF48012A8
:103950002846C3F80021D3E79DF8070000F06AF875
:103960000420CDE7D43A002000E100E000B585B0A6
:1039700000230390194601AA44F20100ADF8043077
:10398000029300F003F805B05DF804FB08B5104998
:103990000120FFF781F8FFF77BF8FFF787FA00288F
:1039A000FBD10C4B1B68DB0700D5FFDE0A49032067
:1039B000FFF772F8BFF34F8F0849094BCA6802F44A
:1039C000E0621343CB60BFF34F8F00BFFDE700BF42
:1039D000F4580200F0ED00E00859020000ED00E0AC
:1039E0000400FA05F0B4EFF3108472B60E4B9A6837
:1039F000B2B90E4901259D60D1F880700C4D2E465C
:103A00003D401D60C1F88060D1F884505D604FF08A
:103A1000FF33C1F88430027004B962B6F0BC70475D
:103A200001230370F8E700BF543E002000E100E0EE
:103A3000FC06FFBD094B9A6872B168B910B4EFF388
:103A4000108272B606491C680C605C684C60986015
:103A500002B962B65DF8044B704700BF543E0020C7
:103A600000E100E048DF704710DF704760DF70471B
:103A700061DF7047FFF78ABF2DE9F047DFF8B090AC
:103A8000284ED9F80040DFF8AC80274FB4FA84F410
:103A900082B064090025B5B93378DFF888A07BB916
:103AA00001A8FFF7DFFF052834D020B3FFF75EFF42
:103AB0006CB13378DFF86CA001240025002BEFD027
:103AC00002B0BDE8F087002CFAD1DFF858A09AF8D0
:103AD0000030002BF4D102A93A68B8F8003021F880
:103AE000043D1046FFF7C4FF052817D068B1FFF763
:103AF0003DFF0024CFE70198FDF74CFC0B4B1B6802
:103B0000002BD5D001989847D2E71046D9F800305D
:103B10009847EEE7002CD3D10125D8E7002DC8D077
:103B2000CEE700BFE93B0020F03B0020F43B002043
:103B3000F83B0020EC3B0020014B1878704700BF99
:103B4000EA3B002011B111F0030F01D007207047AC
:103B5000F8B51A4F1A4E1B4D1B4C396032802B6042
:103B60002368DB0708D50123C4F880301749FFF725
:103B70007BFF30B12360F8BD1449FFF775FF00B13A
:103B8000F8BD134B01221A70FDF714FC0E4A92F88F
:103B90001633C3F34113012B0CD90E4B986818B997
:103BA0004FF480031360F8BD1A6842F480021A6073
:103BB0000020F8BD42F20200F8BD00BFF03B00203B
:103BC000EC3B0020FC3B002000E100E0753A0200E5
:103BD000EA3B0020543E0020034618B1024A002070
:103BE000136070470E207047F83B002008B5094B62
:103BF0001B6833B1984700B908BDBDE80840FFF71E
:103C0000B5BE054B1B78002BF6D0BDE80840FFF78A
:103C100033BF00BFFC3B0020EA3B002082B0034BD7
:103C20000193019B0360002002B07047F82500203B
:103C300010B5034682B002A81A6840F8042DFFF7B9
:103C400015FF019A1B68934204460BD110B9204618
:103C500002B010BD02460D490120FEF775FF204657
:103C600002B010BD0A490220FEF76EFF4FF08052ED
:103C7000019BD2F80C210749C3EB822202F10052CA
:103C80000220FEF761FF204602B010BD98590200E5
:103C900028590200605902000A490B4A0B4B9B1A33
:103CA00003DD043BC858D050FBDC0849084A00201B
:103CB000521A02DD043A8850FCDC00F015F8FBF7DC
:103CC000B5FA00003C5B0200F82500206C260020BD
:103CD000DC3E0020FEE7FEE7FEE7FEE7FEE7FEE74C
:103CE000FEE7FEE7FEE7FEE7F0B4BA4B1A78062AD5
:103CF0001BD0B94AD2F8883043F47003C2F8883038
:103D0000BFF34F8FBFF36F8F4FF01023D3F8002214
:103D1000002AC0F22D81D3F80432002BC0F2288192
:103D2000AE4BAF4A1A60F0BC704704331B681B07E8
:103D3000DFD1AC4B1B6803F0F002302A00F00881A1
:103D400003F0E003402B00F00381A64B1B6803F057
:103D5000F003302B00F0EE80A24B1B6803F0F00262
:103D6000302A00F0D78003F0E003402B00F0D2802F
:103D70009C4B1B6803F0F003302B00F0BB80994B89
:103D80001B6803F0F002302A00F0A08003F0E0038B
:103D9000402B00F09B80934B1B6803F0F003302B0B
:103DA00000F086808F4B1B6803F0F003302B68D047
:103DB0008C4B1B6803F0F003502B10D0894B1B6811
:103DC00003F0F002302A03D003F0E003402B90D13F
:103DD000854B864A1B6803F04F03136089E74FF059
:103DE0008052834BD2F80414C3F82015D2F808147B
:103DF000C3F82415D2F80C14C3F82815D2F81014FF
:103E0000C3F82C15D2F81414C3F83015D2F81814CE
:103E1000C3F83415D2F81C14C3F84015D2F8201496
:103E2000C3F84415D2F82414C3F84815D2F828145E
:103E3000C3F84C15D2F82C14C3F85015D2F830142E
:103E4000C3F85415D2F83414C3F86015D2F83814F6
:103E5000C3F86415D2F83C14C3F86815D2F84014BE
:103E60005C48C3F86C15D2F844140278C3F8701596
:103E7000062A7FF43EAF5F4B1B681A077FF439AF09
:103E80009CE75D4E5D4C5E495E4B05270125002099
:103E90003F223760256008601A604E4B1B78062B66
:103EA0007FF427AF534B1B6819077FF422AF7FE7DE
:103EB000484B554A1B780321062B11607FF419AF3C
:103EC0004C4B1B6818077FF414AF6BE74FF080432F
:103ED0000022C3F80C21C3F81021C3F838253D4B4C
:103EE0001B78062B7FF405AF424B1B681C077FF441
:103EF00000AF50E74549374ACB68127823F080730A
:103F0000062ACB607FF4F5AE3A4B1B681D077FF4A1
:103F1000F0AE34E73E4B2F4A1B6812783D49C3F39D
:103F20004233062A0B60B8D1324B1B681E077FF460
:103F3000E0AE1DE7274B384A1B7838491160062B45
:103F40007FF4D7AE2B4B1B681F077FF4D2AE03E77D
:103F5000334B204A1B6812783249C3F30423062AE4
:103F60000B60BCD1234B1B681B073FF4EEAEC0E6D1
:103F70002D4B0122C3F80425D3F80024002AFBD0DE
:103F80004FF0102315222849C3F80022D1F800343D
:103F9000002BFBD04FF0102315222349C3F8042235
:103FA000D1F80024204B002AFAD00022C3F80425BF
:103FB000D3F80024002AFBD0BFF34F8F06491B4BD8
:103FC000CA6802F4E0621343CB60BFF34F8F00BFB7
:103FD000FDE700BFE00F00F000ED00E0002600204C
:103FE0000090D003E80F00F058020010E40E0040EB
:103FF00000C00040E40F00F010560040885600401A
:104000001856004014560040A0050040F0ED00E0B6
:10401000440200103C05004074C007400DF0ADBAEA
:10402000240300104035014000E001400400FA057F
:104030002DE9F84F4300DFF870A11E180AEBC60601
:104040008846F16A0129174641D031D3022939D176
:10405000013000EB4000756A4FEAC0094FF0000BD9
:104060001CE0326A641BBC420AEB09012346A2EB46
:10407000050428BF3B469C42486828BF1C4628448C
:104080004146224600F05EFB336A25449D4208BF4C
:1040900000253F1BA344A044756215D0B36AAB4210
:1040A00003F1FF34DDD8326A1344013B5C1BDAE7CD
:1040B000B16A726A91429CBF346A091901398A1A3D
:1040C000974236D94FF0000B5846BDE8F88FB16AD9
:1040D000756AA94227D90139326AC5EB010B03443D
:1040E0000AEBC30ABB45DAF824502F4B28BFBB4666
:1040F000561B0130B34500EB40003BD303EBC0043B
:104100003246606841462844C6EB0B0500F01AFBB6
:10411000606808EB06012A4600F014FBCAF8245038
:104120005846BDE8F88F326A8C18013CC5EB040B89
:10413000D5E703440AEBC30A0130DAF82460DAF861
:104140002040194BA41BA74200EB40001ED303EBF9
:10415000C00522466868414630443E1B00F0F2FA32
:10416000686808EB0401324600F0ECFABB46CAF876
:104170002460A9E703EBC003414658685A46284427
:104180005D4400F0DFFACAF824509DE703EBC0035A
:10419000414658683A4630443E4400F0D3FABB46A4
:1041A000CAF8246090E700BF603E00202DE9F04F80
:1041B000DFF8049299F8003083B082468B4690462F
:1041C0007BBB0221774AC9F828307748C9F82430E8
:1041D000C9F81010C9F85830C9F81410C9F81820D7
:1041E0004FF40071C9F85430C9F848200123102257
:1041F0006E4CC9F82C30C9F85C30C9F81C00C9F8FD
:104200002010C9F850206A49C9F84C4009F107004C
:1042100000F002FB6749484600F0FEFA202389F8C7
:10422000063002A8002700F8057D0197FFF7DAFBAA
:104230004FEA4A0303EB0A0609EBC606F26A012AB3
:1042400032D062D3022A57D10AF1010A0AEB4A0A94
:10425000756A4FEACA0A1DE0326A641B444509EBDD
:104260000A012346A2EB050428BF43469C42486846
:1042700028BF1C4628445946224600F063FA336A98
:1042800025449D4208BF0025B8EB04082744A344F9
:10429000756231D0B36AAB4203F1FF34DCD8326AC5
:1042A0001344013B5C1BD9E7B16A776AB94238D93C
:1042B0000139326ACF1B534409EBC3094745D9F88A
:1042C00024503D4B28BF4746561B0AF1010AB7420E
:1042D0000AEB4A0A4DD303EBCA04324660685946DA
:1042E0002844BD1B00F02EFA60680BEB06012A463D
:1042F00000F028FAC9F824509DF80300019BFFF74D
:1043000099FB384603B0BDE8F08FB16A726A9142FA
:104310009CBF306A091801398A1A904506D90027CE
:10432000EAE7326A88180138C71BC4E7534409EB2F
:10433000C3090AF1010AD9F82460D9F820401E4BBC
:10434000A41BA0450AEB4A0A1FD303EBCA05224669
:10435000686859463044C4EB080600F0F3F9686811
:104360000BEB0401324600F0EDF94746C9F8246032
:10437000C2E703EBCA03594658683A4628443D440D
:1043800000F0E0F9C9F82450B6E703EBCA03594638
:10439000586842463044464400F0D4F94746C9F8CC
:1043A0002460A9E7DC590200103C0020003C0020FA
:1043B000E8590200EC590200603E0020F8B5124CAA
:1043C0002378FBB90222A362104863622261A365CD
:1043D00062616365012210230D4F0E4D23654FF47A
:1043E00000760D49A061A064E262E265E01DE7612C
:1043F0002662E56400F010FA0849204600F00CFA45
:104400002023A371F8BD00BF603E0020DC590200EC
:10441000103C0020003C0020E8590200EC5902004A
:1044200030B5354D83B000230446298000788DF8DF
:1044300007301A462A2100F059F908B103B030BDFF
:104440003C222A21207800F051F90028F6D11822C8
:104450002B21207800F04AF90028EFD1782215218D
:10446000207800F043F90028E8D18F221721207826
:1044700000F03CF90028E1D164221821207800F0F6
:1044800035F90028DAD102460E21207800F02EF905
:104490000028D3D140221121207800F027F90028EC
:1044A000CCD12A222C21207800F020F90028C5D177
:1044B00014222D21207800F019F90028BED11022F5
:1044C0002E21207800F012F90028B7D102AA2B88FB
:1044D00002F8010D2A21207800F06EF80028ADD1F5
:1044E0009DF80730207843F001031A462A218DF801
:1044F000073000F0FBF8A1E7103E00200170704784
:1045000000B5094B00781B8883B00DF107020D211F
:1045100000F052F89DF80700A0F13A00B0FA80F0E0
:10452000400903B05DF804FB103E0020024B007808
:104530001B8800F041B800BF103E0020F0B50C4DC4
:104540000C4C2D88007883B00F46009516461D460A
:1045500006222346012100F077F894F900303B80D1
:1045600094F90230338094F904302B8003B0F0BD0D
:10457000103E0020143E002030B40649064C074B84
:10458000007800250122257008701A7030BCFBF7F6
:104590001DBB00BF1A3E00201C3E00201B3E002019
:1045A0000349044B0220002208701A70704700BFB4
:1045B0001A3E00201C3E0020F0B587B01D4C8DF83F
:1045C0000710164623781B4903F0FF02002BF9D190
:1045D0000123194D0B70194F8DF80D000DF10701D6
:1045E00002208DF80E308DF80F302A708DF80C00F7
:1045F00004910597002203A91148FDF7CDFC11286D
:10460000F8D00090FBF7D2FA00982B78002BFCD062
:1046100018B10023237007B0F0BD2378002BFCD124
:10462000084B1B7813B10D2007B0F0BD3B783370F9
:10463000EFE700BF1C3E00201B3E0020483E00204C
:10464000F45902001A3E00202DE9F04387B08DF89E
:1046500007101AB9092007B0BDE8F0831E4D29786C
:104660001D4F01F0FF040029F9D199461B4E8DF82A
:104670000D00012390463B70194A8DF80E3002213F
:104680000DF107038DF80F8034708DF80C10049332
:104690000592002203A91348FDF77EFC1128044669
:1046A000F7D0FBF783FA31780029FCD074B92B7866
:1046B000002BFCD10C4B1B781BB10D2007B0BDE8C3
:1046C000F08342464846064900F03CF80023204665
:1046D0002B7007B0BDE8F0831C3E00201B3E00207D
:1046E000483E0020F45902001A3E002070B50D4BE0
:1046F0000D4D1970002484B006465A702C70009439
:104700000223084A09483146FDF7A0FD1128F6D0DA
:104710000390FBF74BFA03982B78002BFCD004B0E6
:1047200070BD00BF343E00201B3E0020F459020043
:10473000024A034B11601860704700BF203E002002
:10474000243E002010B5431E0A44914204D011F8C3
:10475000014B03F8014FF8E710BD024403469342B2
:1047600002D003F8011BFAE7704700000CB430B523
:10477000164B0C1E9DB01D6804DA8B232B604FF086
:10478000FF301EE04FF40273ADF8143014BF04F193
:10479000FF332346049307934FF6FF73029006906E
:1047A000ADF81630209A21AB02A92846019300F0FB
:1047B0009DF8431CBCBF8B232B6014B1029B0022CD
:1047C0001A701DB0BDE8304002B070476826002066
:1047D0000EB400B59CB04FF402711DABADF81410CF
:1047E000029006906FF000410A48049107914FF63D
:1047F000FF7153F8042BADF816100068019302A95D
:1048000000F074F8029B00221A701CB05DF804EBF3
:1048100003B0704768260020034611F8012B03F807
:10482000012B002AF9D17047034613F8012B002A07
:10483000FBD1181A013870472DE9F0478E689E4267
:1048400082460C46914698463ED88A8912F4906F6B
:104850003AD0256809696F1A6569022305EB450599
:1048600095FBF3F57B1C43449D4238BF1D46530521
:104870000FD5294600F086FB064698B13A462169D5
:10488000FFF760FFA38923F4906343F08003A381C3
:1048900013E02A4600F0D4FB064670B92169504661
:1048A00000F022FB0C23CAF80030A38943F0400338
:1048B000A3814FF0FF30BDE8F087266165613E447B
:1048C000ED1B2660A5604646464528BF4646324653
:1048D0004946206800F0ECFAA3689B1BA36023689C
:1048E0001E4426600020BDE8F08700002DE9F04F4F
:1048F0009DB0804603938B891C060D4616460DD548
:104900000B695BB9402100F03DFB2860286118B9B4
:104910000C23C8F80030CDE040236B6100230993DD
:1049200020238DF82930DFF89CB130238DF82A3010
:1049300037463C4614F8013B1BB9B7EB060910D0CB
:1049400003E0252BF9D02746F3E74B4632462946AC
:104950004046FFF771FF013000F0A780099B4B44F0
:1049600009933B78002B00F0A08000234FF0FF322A
:1049700004930793059206938DF853301A930126FA
:10498000052221784E4800F043FA671C049B38B199
:104990004B4A801A06FA00F0184304903C46EFE7B1
:1049A000D90644BF20228DF853201A0744BF2B227A
:1049B0008DF8532022782A2A03D0079A00210A2052
:1049C0000BE0039A111D12680391002A10DA52427B
:1049D00043F00200079204900BE0274601343B7835
:1049E000303B092B03D800FB02320121F5E701B16E
:1049F00007923B782E2B1ED17B782A2B0AD1039B62
:104A00001A1D1B680392002BB8BF4FF0FF3302370B
:104A1000059310E000230593781C19460A240746E5
:104A200001303A78303A092A03D804FB01210123E6
:104A3000F5E703B1059103223978224800F0E8F93F
:104A400040B14023CBEB000003FA00F0049B184375
:104A50000490013739781C488DF8281006227E1CF6
:104A600000F0D6F988B1194B33B9039B073323F013
:104A700007030833039314E003AB00932A46144B57
:104A800004A94046AFF3008007E003AB00932A4639
:104A90000F4B04A9404600F093F8B0F1FF3F824667
:104AA00003D0099B5344099342E7AB895B0601D4C9
:104AB000099801E04FF0FF301DB0BDE8F08F00BF56
:104AC000FF5A0200055B0200095B020000000000C3
