:020000021000EC
:10F0000000000120D9690200156A0200B54402001F
:10F01000196A02001B6A02001D6A0200000000005B
:10F020000000000000000000000000001F6A020055
:10F03000216A020000000000236A0200256A020023
:10F040009D280200276A0200276A0200D1430200BD
:10F05000276A0200276A020031330200276A020091
:10F06000276A0200276A0200276A0200276A020054
:10F07000276A0200276A0200276A0200276A020044
:10F08000276A0200D15F0200276A0200276A020095
:10F0900011600200276A0200C5680200276A0200A8
:10F0A000276A0200276A0200276A0200276A020014
:10F0B000276A0200276A020000000000000000002A
:10F0C000276A0200276A0200276A0200276A0200F4
:10F0D000276A0200276A0200276A02000000000077
:10F0E0000000000000000000000000000000000020
:10F0F0000000000000000000000000000000000010
:10F1000000000000000000000000000000000000FF
:10F1100000000000000000000000000000000000EF
:10F1200000000000000000000000000000000000DF
:10F1300000000000000000000000000000000000CF
:10F1400000000000000000000000000000000000BF
:10F1500000000000000000000000000000000000AF
:10F16000000000000000000000000000000000009F
:10F17000000000000000000000000000000000008F
:10F18000000000000000000000000000000000007F
:10F19000000000000000000000000000000000006F
:10F1A000000000000000000000000000000000005F
:10F1B000000000000000000000000000000000004F
:10F1C000000000000000000000000000000000003F
:10F1D000000000000000000000000000000000002F
:10F1E000000000000000000000000000000000001F
:10F1F000000000000000000000000000000000000F
:10F2000080B582B000AF7860322001F07FF800F066
:10F2100011FE00BF0837BD4680BD00BF80B582B07B
:10F2200000AF78600B46FB70FB1C012219460020E2
:10F2300008F034F800BF0837BD4680BD80B586B001
:10F2400000AF2C49002008F0C3FA002005F05AFD59
:10F2500078617B69002B04D0274A8321786906F006
:10F260009FFF06F0DBFE38613B69002B04D0224A89
:10F270008721386906F094FF204A0121204806F0D2
:10F2800003FFF860FB68002B04D01B4A8A21F86852
:10F2900006F086FF00F0F6FFFB1D184601F042F96C
:10F2A00000F05CF8174800F0C1FE174800F0BEFE01
:10F2B00000F064F81549032005F0E6FD00BF05F0F5
:10F2C000E1FF0346002BFAD1114B00224FF400411D
:10F2D000184606F00DFFB860BB68002B04D0064A44
:10F2E000AD21B86806F05CFF01F088F900F072FD0E
:10F2F000FCE700BF1DF20100BC84020001F2010026
:10F30000B8840200603E0020643E0020C8840200F1
:10F310007426002076DF704700BF18467ADF7047FA
:10F3200000BF18467CDF704700BF18467FDF70477C
:10F3300000BF18468FDF704700BF1846A8DF704730
:10F3400000BF1846A9DF704700BF184669DF704745
:10F3500000BF184666DF704700BF184680B500AF93
:10F3600000F01CFB00F060F800F0F6FB00F0B8F8CD
:10F3700000F020FC00F00CF900BF80BD80B582B029
:10F3800000AF022001F01CFC78607B683B603B68AA
:10F39000002B04D0044A9021386806F001FF7B68F6
:10F3A00018460837BD4680BDF884020080B584B099
:10F3B00000AF78600B467B800023FB607B881A4699
:10F3C00079680E4801F004FFF860FB68082B0CD048
:10F3D000FB68112B09D0FB68BB60BB68002B04D015
:10F3E000074AA321B86806F0DBFEFB68112BE5D0C5
:10F3F000FB6818461037BD4680BD00BF942600202C
:10F40000F884020080B582B000AF03463960FB800B
:10F41000FB883A681946034806F0C2FE00BF083769
:10F42000BD4680BDEFBEADDE80B586B000AF3B7897
:10F43000012262F303033B703B78012262F307135E
:10F440003B701B4808F04CFA03469AB23B461849F9
:10F450001846FFF767FF78617B693B613B69002BCA
:10F4600004D0144ACD21386906F09AFE3B1D0822CB
:10F470000021184608F0CDF91023BB803C23FB8007
:10F4800000233B814FF4C8737B813B1D1846FFF777
:10F4900045FF78617B69FB60FB68002B04D0054A5F
:10F4A000D721F86806F07CFE00BF1837BD4680BD46
:10F4B0000C850200F884020080B584B000AFF860CB
:10F4C000B9601346FB80BB681A460449032005F067
:10F4D00021FD00BF1037BD4680BD00BF188502006A
:10F4E00080B584B000AF3B1D04220021184608F00F
:10F4F00090F90B4B7B603B1D19460A4801F00AFE50
:10F50000F860FB68BB60BB68002B05D0064A4FF46F
:10F510008971B86806F044FE00BF1037BD4680BD53
:10F52000B9F4010094260020F884020080B584B06C
:10F5300000AF78607B681B78002B11D10A4B1B88C9
:10F540003B211846FFF7E6FEF860FB68BB60BB682E
:10F55000002B05D0054A4FF49471B86806F020FEE0
:10F5600000BF1037BD4680BDF8250020F88402009A
:10F5700080B582B000AF7860044A40F233117868F9
:10F5800006F00EFE00BF0837BD4680BDF8840200BD
:10F5900080B58AB000AF3B1D1C220021184608F040
:10F5A00038F900237B604FF42033BB604FF47023A5
:10F5B000FB6003233B7400237B8200233B750C4BD1
:10F5C000BB610C4BFB613B1D184602F073FC78627B
:10F5D0007B6A3B623B6A002B05D0074A4FF4A5715A
:10F5E000386A06F0DDFD00BF2837BD4680BD00BF8C
:10F5F0002DF5010071F50100F884020080B582B09C
:10F6000000AF0346FB71FB79002B02D0032B03D024
:10F6100003E000F0F5FB00E000BF00BF0837BD4687
:10F6200080BD00BF90B595B000AF78607B681B8847
:10F63000013B552B00F2798101A252F823F000BF63
:10F6400095F801002BF901002BF901002BF90100BD
:10F650002BF901002BF901002BF901002BF9010016
:10F660002BF901002BF901002BF901002BF9010006
:10F670002BF901002BF901002BF9010099F701008A
:10F68000ABF701002BF90100BDF701002BF90100D8
:10F690002BF901002BF901002BF901002BF90100D6
:10F6A0002BF901002BF901002BF901002BF90100C6
:10F6B0002BF901002BF901002BF901002BF90100B6
:10F6C000E7F701002BF901002BF901002BF90100EC
:10F6D0002BF901002BF901002BF901002BF9010096
:10F6E0002BF901002BF901002BF901002BF9010086
:10F6F0002BF901002BF901002BF901002BF9010076
:10F700002BF901002BF901002BF901002BF9010065
:10F710002BF901002BF901002BF901002BF9010055
:10F720002BF901002BF9010049F801002BF9010028
:10F730002BF901002BF901002BF901002BF9010035
:10F740002BF901002BF901002BF901002BF9010025
:10F750002BF901002BF901002BF901002BF9010015
:10F760002BF901002BF901002BF901002BF9010005
:10F770002BF901002BF901002BF901002BF90100F5
:10F78000BBF8010021F801002BF901002BF9010061
:10F790002BF901006FF801007B689A886C4B1A8086
:10F7A0006C49032005F070FBCEE0694B4FF6FF7209
:10F7B0001A806949032005F067FBC5E0644B18888F
:10F7C000002300228521FFF7B1FDF864FB6CBB64C8
:10F7D000BB6C002B00F0AB80604A4FF4BD71B86C7D
:10F7E00006F0DEFCA3E007F12803082200211846FA
:10F7F00008F00FF87B689B8807F128010022184663
:10F80000FFF798FDF864FB6C7B647B6C002B00F0C9
:10F810009080524A4FF4C271786C06F0C1FC88E0C7
:10F820004B4B1888002300220021FFF78BFDF86462
:10F83000FB6C3B643B6C002B7DD0484A40F28B1143
:10F84000386C06F0ADFC76E07B689B881321184687
:10F85000FFF760FDF864FB6CFB63FB6B002B6CD067
:10F860003E4A4FF4C971F86B06F09AFC65E07B687C
:10F870009B8813211846FFF74DFDF864FB6CBB63B2
:10F88000BB6B002B5BD0354A40F29911B86B06F088
:10F8900087FC54E07B689B8800211846FFF75AFDDF
:10F8A000F864FB6C7B637B6B002B4AD02B4A4FF4D4
:10F8B000CF71786B06F074FC43E07B6807F11804A5
:10F8C0000633186859689A68DB680FC43B7E002BC2
:10F8D00039D097F82030042B07D097F82030062B2A
:10F8E00003D097F82030052B2DD13B7E022B02D17F
:10F8F00002233B7201E001233B724FF4C173BB81D1
:10F900007B689B8807F1080211461846FFF716FD31
:10F91000F864FB6C3B633B6B002B14D00F4A40F246
:10F92000B911386B06F03CFC0DE000BF0CE000BFE5
:10F930000AE000BF08E000BF06E000BF04E000BF2F
:10F9400002E000BF00E000BF00BF5437BD4690BDDD
:10F95000F82500203485020054850200F884020056
:10F9600080B582B000AF7860786802F0D9FB796822
:10F97000084802F03FFE7968074801F0A3FB786869
:10F98000FFF750FE786801F005FA00BF0837BD4662
:10F9900080BD00BFB02600209426002080B58EB028
:10F9A00000AF544A07F110031068186007F1100007
:10F9B0000023D822504906F01BFF78637B6B3B6322
:10F9C0003B6B002B05D04D4A4FF4F271386B06F0BB
:10F9D000E7FB0023FB6007F10C03184606F0B2FFBB
:10F9E000F862FB6ABB62BB6A002B05D0434A40F257
:10F9F000E911B86A06F0D4FB3B460C2200211846F8
:10FA000007F007FF01233B7000237B700023BB70CE
:10FA1000FA683B4619464020FFF798FCF862FB6AFB
:10FA20007B627B6A002B05D0344A4FF4FA71786A06
:10FA300006F0B6FB3B460C220021184607F0E9FE13
:10FA400001233B709E237B80FA683B4619462320A6
:10FA5000FFF77CFCF862FB6A3B623B6A002B05D037
:10FA6000264A40F2FB11386A06F09AFB3B460C220C
:10FA70000021184607F0CDFE01233B704FF4A07320
:10FA8000BB800123BB70FA683B4619462020FFF774
:10FA90005DFCF862FB6AFB61FB69002B05D0174A2D
:10FAA00040F20321F86906F07BFB07F10C031846CE
:10FAB00006F05CFFF862FB6ABB61BB69002B05D0F6
:10FAC0000E4A40F20721B86906F06AFB0C4806F0BE
:10FAD000E3FEF862FB6A7B617B69002B05D0074A75
:10FAE00040F20B21786906F05BFB00BF3837BD465A
:10FAF00080BD00BF74850200CC260020F88402007F
:10FB000061F9010080B582B000AF786039603B6870
:10FB10005A880E4B1B889A4214D13B681B8840F6CA
:10FB2000772293420ED13B689B88033B9AB2084BE5
:10FB30001A80074B1B881A46054B1B880549032072
:10FB400005F038FA00BF0837BD4680BDF825002013
:10FB5000002600207885020080B584B000AF1249ED
:10FB6000124802F0FDFCF860FB68BB60BB68002B2C
:10FB700005D00F4A40F22121B86806F011FB402160
:10FB80000A4802F019FDF860FB687B607B68002B77
:10FB900005D0074A4FF40971786806F001FB00BFF1
:10FBA0001037BD4680BD00BF05FB0100B026002018
:10FBB000F884020080B5AAB002AF07F15C033C22D2
:10FBC0000021184607F025FE022387F85C30002349
:10FBD00087F85E30052387F85F3007F120033C2269
:10FBE0000021184607F015FE01233B86184B7B6366
:10FBF0003B4620220021184607F00BFE0123FB7034
:10FC00004FF448733B6114237B613A4607F12001AE
:10FC100007F15C00002300930E4B00F0CBFEC7F809
:10FC20009C00D7F89C30C7F89830D7F89830002B54
:10FC300006D0094A4FF41071D7F8980006F0B0FAD0
:10FC4000012000F0A7FE00BFA037BD4680BD00BF69
:10FC5000FC250020FDF50100F884020080B582B08B
:10FC600000AF78607B681B681F2B04D905494FF4EF
:10FC7000E870FFF7C7FB4FF0A04318460837BD46B2
:10FC800080BD00BFA885020080B584B000AF786059
:10FC9000084611461A460346FB700B46BB701346D6
:10FCA0007B703B1D1846FFF7D9FFF8607A68F9783A
:10FCB000BB785B0019437B789B0019433B7E1B029A
:10FCC00019433B7F1B041943FB6802F5E07243F8BC
:10FCD000221000BF1037BD4680BD00BF80B584B084
:10FCE00002AF7860002301930023009300230122D8
:10FCF00001217868FFF7C8FF00BF0837BD4680BD07
:10FD000080B584B002AF78600B46FB70FA780023B0
:10FD10000193002300931346002200217868FFF727
:10FD2000B3FF00BF0837BD4680BD00BF80B584B0BB
:10FD300000AF78603B1D1846FFF790FFF8607B68C6
:10FD4000012202FA03F31946F86800F01BF800BF1D
:10FD50001037BD4680BD00BF80B584B000AF78606D
:10FD60003B1D1846FFF77AFFF8607B68012202FA14
:10FD700003F31946F86800F015F800BF1037BD46C8
:10FD800080BD00BF80B483B000AF786039607B680D
:10FD90003A68C3F8082500BF0C37BD465DF8047B00
:10FDA000704700BF80B483B000AF786039607B6873
:10FDB0003A68C3F80C2500BF0C37BD465DF8047BDC
:10FDC000704700BF32DF704700BF18463EDF704704
:10FDD00000BF184680B582B000AFFFF7F7FF78602C
:10FDE0007B683B603B68002B04D0044A34213868B0
:10FDF00006F0D6F900BF0837BD4680BD1886020060
:10FE000080B582B000AF0B20FFF7A6FFFFF7DAFF47
:10FE100078607B683B603B68002B04D0044A432138
:10FE2000386806F0BDF900BF0837BD4680BD00BF89
:10FE300018860200B0B588B004AF0023FB81002310
:10FE4000BB8100237B8100233B810023FB800023B7
:10FE5000BB800820FFF76AFF07F10A0307F10C02D5
:10FE600007F10E01664807F05BFB3B1DBA1D07F169
:10FE70000801644807F054FB0820FFF76DFFB7F94D
:10FE80000E301C46B7F90C301D46B7F90A30B7F9E9
:10FE90000820B7F90610B7F9040003900291019207
:10FEA00000932B4622465849032005F051F9B7F933
:10FEB0000E301C46B7F90C301D46B7F90A30B7F9B9
:10FEC0000820B7F90610B7F90400039002910192D7
:10FED00000932B4622464D494D4807F0D5FC4C482F
:10FEE00007F0FEFC03469BB219464948FFF75EFA4D
:10FEF00000BF05F0C7F90346002BFAD1B7F90C3063
:10FF0000282B03DD434B00221A7006E0B7F90C30B2
:10FF10001D2B02DC3F4B01221A70B7F90630282B4B
:10FF200003DD3D4B00221A7006E0B7F906301D2BA9
:10FF300002DC394B01221A70384B01221A70354B02
:10FF40001B78DAB2344B1B78DBB25340DBB2002BA8
:10FF500010D0334B1B78DBB2042B03D92F4B00227C
:10FF60001A700CE02E4B1B78DBB20133DAB22C4B4B
:10FF70001A7004E02A4B00221A70264B1B78254B7E
:10FF80001B78DBB21946244B1B78DBB21846234B97
:10FF90001B78DBB21A46224B1B78DBB2019300922E
:10FFA00003460A461F49032005F060F8194B1B78E9
:10FFB000DBB21946184B1B78DBB21846174B1B787F
:10FFC000DBB21A46164B1B78DBB201930092034654
:10FFD0000A4615490E4807F057FC0D4807F080FC0B
:10FFE00003469BB219460A48FFF7E0F900BF05F047
:10FFF00049F90346002BFAD100BF1037BD46B0BD0A
:020000022000DC
:10000000603E0020643E00202C86020054860200E0
:10001000E8270020E4270020E5270020E62700202D
:10002000E7270020708602009C8602002DE9F0433D
:100030008BB000AF78606B461E4600237B625E4A41
:1000400007F1100392E803001860043319800233AB
:100050000A0C1A70594A07F1080392E80300186065
:100060000433198002330A0C1A7007F11003184682
:1000700007F036FC01460B46013B3B620A464FF057
:1000800000034FEAC30949EA52794FEAC2080A4617
:100090004FF00003DD0045EA5275D400CB1DDB08AC
:1000A000DB00ADEB030D6B460033FB610820FFF76F
:1000B0003DFE7B68424A934211D1FC6907F110036F
:1000C000184607F00DFC024607F1100319462046BA
:1000D00007F094FB1C21786807F0D6F924E07B68D0
:1000E000384A934211D1FC6907F10803184607F01A
:1000F000F7FB024607F108031946204607F07EFB8E
:100100001D21786807F0C0F90EE02F49032004F0A4
:10011000BBFE00BF05F0B6F80346002BFAD108205D
:10012000FFF71AFE002341E0786807F0BDF90346A7
:10013000002B2BD0FB691A462449032004F0EAFE69
:10014000FB691A462249032004F0E4FE0021786886
:1001500007F0D8F878627B6A002B06D0FB691A4654
:100160007B6A1C49032004F025FF7B6ABB61BB69E5
:10017000002B04D0184AC021B86906F011F8FB69B9
:100180001A461649032004F0C5FE05E0FB691A462D
:100190001349032004F0BEFE00BF05F073F80346C8
:1001A000002BFAD10820FFF7D7FD0123B546012B1C
:1001B0002C37BD46BDE8F083A8870200B087020057
:1001C000603E0020643E0020B4860200E486020007
:1001D0001487020038870200188602005C8702003C
:1001E0007C87020080B582B000AF786039607868A3
:1001F00007F0C4F900BF0837BD4680BD80B582B0A6
:1002000000AF78600449032004F03EFE07F0D0F907
:1002100000BF0837BD4680BDB887020080B582B0F8
:1002200000AF0A4B002240F26661184605F060FFFD
:1002300078607B68002B04D0054AEE21786805F0D1
:10024000AFFF00BF0837BD4680BD00BFC4270020F8
:100250001886020080B582B000AF084B184605F042
:100260007BFF78607B68002B04D0054AF321786817
:1002700005F096FF00BF0837BD4680BDC4270020AB
:100280001886020080B588B000AF1B4A00211B48C9
:1002900005F0FAFEF861FB69002B04D0184AFD2135
:1002A000F86905F07DFF3B1D00221A605A609A60D4
:1002B000DA601B237B601A23BB604FF0CC73FB60BA
:1002C00002233B74391D00230E4A0F4803F07EFCC5
:1002D000B861BB697B617B69002B05D0084A40F29D
:1002E0000911786905F05CFF074803F0FDFC00BFC9
:1002F0002037BD4680BD00BFFD01020058880200C6
:1003000018860200E50102005C880200F0B585B0A5
:1003100000AF78600B20FFF709FD144E7B681A468A
:100320004FF00003DD0345EA5245D40314F5FA709B
:1003300045F100014FF47A724FF0000307F030FFEF
:1003400003460C4600221946304605F0D1FEF860FF
:10035000FB68002B05D0064A40F26511F86805F0ED
:100360001FFF00BF1437BD46F0BD00BFA42700200B
:100370001886020080B582B000AF78600B20FFF7CE
:10038000EBFC00BF0837BD4680BD00BF80B592B012
:1003900000AF78600B46FB700023FB720820FFF76C
:1003A000C5FC07F10B031A460C21574807F0A2F8C9
:1003B00078647B6C002B05D0544A4FF4BE71786C86
:1003C00005F0EEFE00233B73FB7A03F02003002BC5
:1003D00019D007F10B031A461E214B4807F08AF883
:1003E00038643B6C002B05D0484A40F28311386CCE
:1003F00005F0D6FEFB7A1A4607F10C03444918466D
:1004000007F042FA5BE0FB7A03F01003002B19D0EF
:1004100007F10B031A4610213B4807F06BF8F8630D
:10042000FB6B002B05D0394A4FF4C471F86B05F013
:10043000B7FEFB7A1A4607F10C033649184607F057
:1004400023FA3CE0FB7A03F00803002B19D007F1F4
:100450000B031A4622212C4807F04CF8B863BB6BFB
:10046000002B05D0294A40F28D11B86B05F098FE9B
:10047000FB7A1A4607F10C032749184607F004FADD
:100480001DE0FB7A03F00403002B18D007F10B03E7
:100490001A4616211C4807F02DF878637B6B002B59
:1004A00005D01A4A4FF4C971786B05F079FEFB7AD2
:1004B0001A4607F10C031949184607F0E5F9082018
:1004C000FFF74AFC3B7B002B13D007F10C031A46C5
:1004D0001349032004F01EFD07F10C03184607F032
:1004E000FFF903469AB207F10C0311461846FEF7CE
:1004F0005DFF00BF04F0C6FE0346002BFAD100BF2B
:100500004837BD4680BD00BF603E0020188602000F
:10051000D8870200F08702000C88020020880200C1
:100520003C88020080B586B000AF02F0DFFD786144
:100530007B69002B05D02D4A4FF4D271786905F004
:100540002FFE0820FFF7CAFB0820FFF705FC0B2051
:10055000FFF7C4FB0C20FFF7C1FB0B20FFF7FCFBF0
:100560000C20FFF7F9FB224A0021224805F08CFD00
:1005700038613B69002B05D01C4A4FF4D8713869AB
:1005800005F00EFE00210520FFF7BAFB0021062032
:10059000FFF7B6FB03233B7100237B710023BB7184
:1005A0000023FB713B1D144A1946052002F0DEFDB5
:1005B000F860FB68002B05D00C4A40F2B711F868D0
:1005C00005F0EEFD3B1D0C4A1946062002F0CEFD5B
:1005D000B860BB68002B05D0044A4FF4DC71B868E2
:1005E00005F0DEFD00BF1837BD4680BD188602004D
:1005F00075030200548802008D03020080B500AF2D
:100600000121052002F016FE0121062002F012FE53
:1006100000BF80BD73DF704700BF184680B400AFD5
:10062000034B1B781846BD465DF8047B704700BF3E
:100630005A29002080B485B000AF78600023FB60A9
:100640000AE07A68FB6813441B78002B01D0012371
:1006500006E0FB680133FB60FB68052BF1D9002342
:1006600018461437BD465DF8047B704780B483B0EC
:1006700000AF0346FB71FB795A1C084B83FB021346
:100680005910D317C91A0B469B000B44D11ACBB291
:1006900018460C37BD465DF8047B70476766666692
:1006A00080B483B000AF78607B68DB7B012B03D123
:1006B0007B689A88034B1A8000BF0C37BD465DF8F3
:1006C000047B70474C29002080B584B000AF78606F
:1006D0000D4B00221A707B689A880C4B1B889A423B
:1006E0000ED1012000F06CFAF860FB68002B07D0F7
:1006F000074B1B68002B03D0054B1B68F868984715
:1007000000BF1037BD4680BD582900204C2900206D
:100710005429002080B584B000AF78607B681B7AD4
:10072000002B15D10C4B1B781846FFF79FFF034693
:10073000184600F045FAF860FB68002B09D0074B1B
:100740001B68002B05D0054B1B68F868984700E034
:1007500000BF1037BD4680BD8628002054290020E8
:1007600080B582B000AF3B1D184603F03DFE7B68AC
:10077000002B14BF01230023DBB218460837BD4607
:1007800080BD00BF80B584B000AF0346FB711C483C
:10079000FFF750FF0346FB73FB79013B032B29D87E
:1007A00001A252F823F000BFB9070200CB070200F4
:1007B000DD070200E9070200124B5B78002B04D032
:1007C000FB7B002B01D0012315E00E4B9B78002B07
:1007D00004D0FB7B002B01D002230CE0094BDB781B
:1007E000002B01D0032306E0064B1B79002B01D020
:1007F000042300E0002318461037BD4680BD00BF2B
:10080000AD2800208828002080B483B000AF786035
:100810000A4B01221A707B68094A5A607B680122E0
:100820001A707B6800229A817B6800225A8100231B
:1008300018460C37BD465DF8047B704785280020BC
:10084000AC28002080B483B000AF78600C4B02224B
:100850001A707B680B4A5A607B6801221A700A4B37
:10086000DB689AB27B689A81074B9B689AB27B6877
:100870005A81002318460C37BD465DF8047B70474B
:1008800085280020AC2800208828002080B584B06E
:1008900000AF78601A4B1B699AB27B685A81184B7B
:1008A0005B699AB27B689A81154B1B78002B1FD02D
:1008B000144B1B7883F00103DBB2002B18D0FFF739
:1008C000ADFE0346002B13D07B6802221A720E4B3A
:1008D0000422DA7000210C4801F006FAF860FB6887
:1008E000002B01D0FB6807E0084B05221A7002E0DC
:1008F000064B03221A70002318461037BD4680BDF0
:100900008828002058290020B428002085280020AD
:1009100080B584B000AF78601A4B9B699AB27B684F
:100920005A81184BDB699AB27B689A81154B1B7808
:10093000002B1FD0144B1B7883F00103DBB2002B7C
:1009400018D0FFF76BFE0346002B13D07B68022202
:100950001A720E4B0422DA7000210C4801F0C4F91F
:10096000F860FB68002B01D0FB6807E0084B06220B
:100970001A7002E0064B04221A7000231846103742
:10098000BD4680BD8828002058290020B4280020BA
:100990008528002080B483B000AF0346FB71044A71
:1009A000FB79137000BF0C37BD465DF8047B7047C0
:1009B000A8280020B0B588B000AFF860B9607A60B0
:1009C0003B60FB68002B02D07B68002B01D10E231B
:1009D000D5E06D4B01221A706C4B00221A706C4AE4
:1009E0007B6814461D460FCD0FC495E80F0084E8C0
:1009F0000F00684B00221A70674A3B681360674A11
:100A00003B6B1360664B4FF6FF721A800722002182
:100A1000644806F0FEFE3C220021634806F0F9FE21
:100A2000FB681A78604B1A70FB689A785E4B9A7074
:100A3000FB68DA785C4BDA70FB685A785A4B5A706C
:100A4000594BFA681033103292E8030083E8030030
:100A5000554BFA680833083292E8030083E8030034
:100A6000514BFA681833183292E8030083E8030008
:100A7000FB685B6A002B29D04B4B4C4A5A624B4BAC
:100A80004B4A9A60484B5B6AFA68526A12881A802D
:100A9000454B5B6AFA68526A92889A800023FB6130
:100AA0000DE0FB685B6A9A68FB6913441978404A59
:100AB000FB6913440A461A70FB690133FB613A4B28
:100AC0005B6A9B881A46FB699A42EAD8FB689B6A74
:100AD000002B33D0374B384A9A60334B354A9A62F1
:100AE000314B9B6A344A9A602F4B9B6AFA68926A30
:100AF00092889A802C4B9B6AFA68926A12881A80B4
:100B00000023BB610DE0FB689B6A9A68BB691344D4
:100B10001978294ABB6913440A461A70BB69013324
:100B2000BB61214B9B6A9B881A46BB699A42EAD8F3
:100B3000FB6893F82C201C4B83F82C20FB681B6A65
:100B4000002B0ED0184B1D4A1A62174B1B6AFA680D
:100B5000126A52885A80144B1B6AFA68126A128809
:100B60001A80FB685B68002B03D0FB685B680E4A49
:100B70005360B9680C4801F0B7F878617B69184692
:100B80002037BD46B0BD00BF832800208628002046
:100B900088280020A828002050290020542900205F
:100BA0004C290020AC280020B4280020F028002088
:100BB000FC2800201C29002028290020482900208A
:100BC00080B588B000AF0346FB71664B1B7883F09D
:100BD0000103DBB2002B01D00823BFE0624AFB799E
:100BE0001370FFF7BDFD0346002B04D05F4B0122BD
:100BF0001A700023B2E0072200215D4806F009FECA
:100C00005C4B5B78002B03D0574B1B78012B0FD02C
:100C1000584B9B78002B03D0534B1B78012B07D0EC
:100C2000544B9B78002B12D04F4B1B78022B0ED1CC
:100C3000514B1B68002B07D0504B01221A704E4BB2
:100C40001B680820984702E04C4B00221A70FB7981
:100C50001846FFF797FD03461A46434B1A70464B5A
:100C60001B68002B1DD0404B1B78032B03D03E4B41
:100C70001B78042B15D13F4B1B78002B11D0404B18
:100C80001B7883F00103DBB2002B0AD03D4B00221E
:100C90001A703D4B01221A70374B1B68072098478A
:100CA00002E0394B00221A7007F10C0310220021D8
:100CB000184606F0AEFD00233B7300233B752A4B1C
:100CC0001B78042B2CD801A252F823F0190D020036
:100CD000E10C0200EF0C0200FD0C02000B0D020003
:100CE00007F10C031846FFF78FFDF86119E007F1D3
:100CF0000C031846FFF7A6FDF86112E007F10C039C
:100D00001846FFF7C3FDF8610BE007F10C03184626
:100D1000FFF7FEFDF86104E01C4B00221A7000E0B2
:100D200000BF114B1B78002B0DD0194B1A7807F11F
:100D30000C0311461846FFF76DFCF861FB69002BA8
:100D400001D0FB690AE00C4B1B68002B05D00A4B55
:100D50001B680E4A12781046984700231846203721
:100D6000BD4680BD832800208628002084280020DE
:100D7000AC2800208828002050290020B32800201B
:100D8000582900205A2900205929002085280020B0
:100D9000A828002080B582B000AF78607B681B88EF
:100DA000112B08D01B2B0AD0102B00D00BE0786839
:100DB000FFF776FC07E07868FFF786FC03E07868C9
:100DC000FFF7A8FC00BF00BF0837BD4680BD00BFCD
:100DD000A0DF704700BF1846A2DF704700BF18466B
:100DE000A6DF704700BF184662DF704700BF184695
:100DF00080B483B000AF786039603B689A887B68C4
:100E00009A8200BF0C37BD465DF8047B704700BF77
:100E100080B483B000AF786039607B684FF6FF72B2
:100E20009A8200BF0C37BD465DF8047B704700BF57
:100E300080B584B000AF786039603B680633FB60F2
:100E4000FB681A887B681B899A4213D1FB685B890F
:100E5000022B0FD1FB680C33184601F09DF90346B5
:100E6000002B03D07B6801229A7517E07B68002273
:100E70009A7513E0FB681A887B689B899A420DD1AA
:100E80007B689B69002B09D07B689B69FA6802F13B
:100E90000C01FA68528978689847FFE700BF10375D
:100EA000BD4680BD80B592B000AF7860396007F173
:100EB000280303220021184606F0ABFC97F82830DF
:100EC000012262F3030387F8283097F828300122C3
:100ED00062F3071387F8283097F82930012262F36C
:100EE000030387F8293097F82930012262F30713AA
:100EF00087F8293097F82A30012262F3420387F8F5
:100F00002A3007F12C031C220021184606F081FC30
:100F100097F82C3043F0100387F82C3000233B6304
:100F20000023BB630023FB6307F128033B6400231A
:100F30007B647B681B78BB7403233B8207F10C0343
:100F400003220021184606F064FC3B7B012262F379
:100F500003033B733B7B012262F307133B737B7BF1
:100F6000012262F303037B737B7B012262F307138D
:100F70007B73BB7B012262F34203BB73BB7B6FF3CA
:100F8000C303BB73BB7B6FF30413BB73BB7B43F027
:100F90000103BB7307F1140314220021184606F065
:100FA00038FC07F110037B6107F10C03BB610123DF
:100FB000BB830023FB839B233B847B6858887B682F
:100FC000043307F1140207F12C01FFF705FF034674
:100FD00018464837BD4680BD80B590B000AF7860F8
:100FE000396007F124031C220021184606F011FC89
:100FF00097F8243043F0080387F8243097F824301A
:1010000043F0040387F824300023BB6200233B63D2
:1010100000237B630023BB630023FB637B681B7897
:10102000BB730223BB8107F108030322002118468A
:1010300006F0EFFB3B7A012262F303033B723B7A3B
:10104000012262F307133B727B7A012262F30303EE
:101050007B727B7A012262F307137B72BB7A0122D7
:1010600062F34203BB72BB7A6FF3C303BB72BB7AFA
:101070006FF30413BB72BB7A43F00103BB7207F139
:10108000100314220021184606F0C3FB07F10C03DD
:101090003B6107F108037B6101233B8300237B83D2
:1010A0009B23BB837B6858887B680C3307F1100255
:1010B00007F12401FFF790FE034618464037BD466E
:1010C00080BD00BF80B582B000AF786039607B68BA
:1010D000002B1AD03B68002B17D03B681B88112BC4
:1010E00009D0502B0CD0102B00D00FE03968786855
:1010F000FFF77EFE0AE039687868FFF789FE05E0B1
:1011000039687868FFF794FE00E000BF0837BD46F5
:1011100080BD00BF90B589B000AF786039602B4BBF
:1011200007F10804186859689A68DB680FC47B687F
:10113000002B01D10E2344E03B68002B01D10E238C
:101140003FE07B684FF6FF729A823B681A687B68C3
:101150009A617B6800229A757A6807F10803114644
:101160001846FFF741FEF861FB69002B01D0FB69CF
:1011700027E07B681B78BB7601233B837B689A1C46
:1011800007F1180319460120FFF722FEF861FB69F9
:10119000002B01D0FB6914E039687868FFF71CFF69
:1011A000F861FB69002B01D0FB690AE039687868B7
:1011B000FFF778FEF861FB69002B01D0FB6900E0C6
:1011C000002318462437BD4690BD00BF6488020046
:1011D00080B588B000AFF860B9601346FB80FB684B
:1011E000002B01D10E232CE0FB689B8A4FF6FF7287
:1011F000934206D0FB689B7D83F00103DBB2002B9A
:1012000001D008231DE0FB889B2B01D9072318E0A0
:1012100007F1100310220021184606F0FAFAFB68C5
:101220009B883B82BB68FB61BB1DBB610123BB7418
:10123000FB689B8A07F1100211461846FFF7D0FDA4
:10124000034618462037BD4680BD00BF6DDF70479E
:1012500000BF184672DF704700BF184679DF70473D
:1012600000BF18467DDF704700BF184664DF704737
:1012700000BF184680B483B000AF03463960FB80DE
:10128000FB88DAB23B681A703B680133FA88120AAD
:1012900092B2D2B21A70022318460C37BD465DF8DE
:1012A000047B704780B588B000AFF860B960134622
:1012B000FB80BB681B8803F10902FB889A4201D9B5
:1012C0000C2352E007F114031846FFF7BFFFF86143
:1012D000FB69002B01D0FB6947E0BB681B881A46FD
:1012E000FB68134408221A70BB681B8801339AB24A
:1012F000BB681A80BB681B881A46FB6813441B2214
:101300001A70BB681B8801339AB2BB681A80BB682D
:101310001B881A46FB68981807F11403013306224C
:10132000194606F06BFABB681B8806339AB2BB6895
:101330001A803B7D23F00103DBB2002B07D1BB6891
:101340001B881A46FB68134400221A7006E0BB682B
:101350001B881A46FB68134401221A70BB681B885D
:1013600001339AB2BB681A80002318462037BD4665
:1013700080BD00BF80B588B000AFF860B9607A600A
:101380007B80FB681B78012B05D1FB685B78002B09
:1013900001D1072377E07B681B889A1C7B889A42DF
:1013A0000DD8FB681B78012B0BD17B681B881A4674
:1013B000FB685B7813449A1C7B889A4201D90C2302
:1013C00061E07B681B887A88D31A9BB2023BBB839F
:1013D000BB8BFB827B681B880233BA68134407F11E
:1013E000160211461846FFF73DFFB861BB69002B96
:1013F00001D0BB6947E0FB681B78022B06D1FB8A52
:10140000BA8B9A4202D30923FB7712E00823FB77B9
:10141000FB681B78012B0AD1FB685B789BB2BA8B07
:101420009A4204D3FB685B789BB2FB8201E0BB8BE2
:10143000FB82FB8AFE2B01D90C2324E07B681B88EE
:101440001A46BB681344FA8AD2B20132D2B21A7079
:101450007B681B8801339AB27B681A807B681B8883
:101460001A46BB681344FA7F1A707B681B880133E5
:101470009AB27B681A807B681A88FB8A13449AB2F6
:101480007B681A80002318462037BD4680BD00BF08
:1014900080B586B000AFF860B9601346FB80BB68CA
:1014A0001B881A1DFB889A4201D90C2338E007F1EA
:1014B00012031846FFF7D2FE78617B69002B01D03A
:1014C0007B692DE0BB681B881A46FB681344032226
:1014D0001A70BB681B8801339AB2BB681A80BB685C
:1014E0001B881A46FB68134419221A70BB681B88B4
:1014F00001339AB2BB681A807A8ABB681B88194686
:10150000FB680B4419461046FFF7B4FE0346194624
:10151000BB681A888BB213449AB2BB681A80002346
:1015200018461837BD4680BD80B485B000AFB9609D
:101530007A601A460346FB731346BB817B681B889F
:10154000DA1CBB899A4201D90C2327E07B681B88EF
:101550001A46BB68134402221A707B681B88013349
:101560009AB27B681A807B681B881A46BB68134452
:1015700001221A707B681B8801339AB27B681A803B
:101580007B681B881A46BB681344FA7B1A707B6819
:101590001B8801339AB27B681A80002318461437DF
:1015A000BD465DF8047B704780B485B000AFB9607C
:1015B0007A601A460346FB731346BB817B681B881F
:1015C000DA1CBB899A4201D90C2327E07B681B886F
:1015D0001A46BB68134402221A707B681B880133C9
:1015E0009AB27B681A807B681B881A46BB681344D2
:1015F0000A221A707B681B8801339AB27B681A80B2
:101600007B681B881A46BB681344FA7B1A707B6898
:101610001B8801339AB27B681A800023184614375E
:10162000BD465DF8047B704780B58AB000AFF860B6
:101630007B600B46FB721346BB72002387F8233096
:101640003B6B1B883B8400237B6268E0FB685A6825
:101650007B6A9B001A4407F110031068186007F1B9
:10166000170107F1100300221846FFF7FFFDF8618C
:10167000FB69002B01D0FB696EE0FB7DBA7A9A42D0
:101680004AD197F82330002B01D0002300E0022339
:10169000FB763B6B1B881A46FB7D1A44FB7E1A4483
:1016A000BB8E9A4201DD0C2356E097F8233083F07D
:1016B0000103DBB2002B15D03B6B1B8801339AB2C0
:1016C0003B6B1A803B6B1B881A467B681344FA7A83
:1016D0001A703B6B1B8801339AB23B6B1A80012353
:1016E00087F823303B6B1B881A467B681A4407F146
:1016F000170107F110031846FFF7B8FDF861FB6901
:10170000002B01D0FB6927E03B6B1A88FB7D9BB265
:1017100013449AB23B6B1A807B6A01337B62FB688D
:101720001B881A467B6A9A4290DC97F82330002B7C
:1017300011D03B6B1A883B8CD31A9BB2013B3B8385
:101740003B8BFF2B01D90C2306E03B8C7A681344BA
:101750003A8BD2B21A70002318462837BD4680BD96
:1017600080B588B002AFF8607B600B46FB72134611
:10177000BB72F97ABB8C01933B6A00937B680222AF
:10178000F868FFF751FF78617B69002B01D07B6916
:1017900010E0B97ABB8C01933B6A00937B681022FE
:1017A000F868FFF741FF78617B69002B01D07B6906
:1017B00000E0002318461837BD4680BD80B483B0D2
:1017C00000AF78607B681B88052B0AD97B681B8873
:1017D000B3F5486F07D97B681B884FF6FF729342B9
:1017E00001D0072325E07B685B88052B0AD97B683D
:1017F0005B88B3F5486F07D97B685B884FF6FF724B
:10180000934201D0072314E07B681B884FF6FF72D8
:1018100093420DD07B685B884FF6FF72934207D0EE
:101820007B681A887B685B889A4201D9072300E0AD
:10183000002318460C37BD465DF8047B704700BF97
:1018400080B586B000AFF860B9607A607B807B6855
:101850001B889A1D7B889A4201D90C234BE0F868BB
:10186000FFF7ACFF78617B69002B01D07B6942E018
:101870007B681B881A46BB68134405221A707B6874
:101880001B8801339AB27B681A807B681B881A46D2
:10189000BB68134412221A707B681B8801339AB20A
:1018A0007B681A80FB681A887B681B881946BB68AE
:1018B0000B4419461046FFF7DDFC034619467B68CA
:1018C0001A888BB213449AB27B681A80FB685A88D4
:1018D0007B681B881946BB680B4419461046FFF706
:1018E000C9FC034619467B681A888BB213449AB226
:1018F0007B681A80002318461837BD4680BD00BF9C
:1019000080B586B000AFF860B9607A607B80FB6814
:101910009B8802337B617B681B881A467B69134472
:101920009A1C7B889A4201D90C2354E07B69FE2BD8
:1019300001D90C234FE07B681B881A46BB6813440F
:101940007A69D2B20132D2B21A707B681B88013335
:101950009AB27B681A807B681B881A46BB6813445E
:10196000FF221A707B681B8801339AB27B681A8049
:10197000FB681A887B681B881946BB680B441946AC
:101980001046FFF777FC034619467B681A888BB22E
:1019900013449AB27B681A80FB689B88002B19D08D
:1019A000FB689B68002B01D1072314E07B681B8830
:1019B0001A46BB689818FB689968FB689B881A46AA
:1019C00005F01CFF7B681A88FB689B8813449AB259
:1019D0007B681A80002318461837BD4680BD00BFBB
:1019E00080B588B000AFF860B9607A607B80FB6832
:1019F0009B6A002B01D107236DE00023FB7763E096
:101A0000FB68996AFA7F13465B0013449B000B4402
:101A1000BB61BB699B8802337B617B69FE2B01D96B
:101A20000C2358E07B681B881A46BB6813447A690C
:101A3000D2B20132D2B21A707B681B8801339AB2DB
:101A40007B681A807B681B881A46BB681344162281
:101A50001A707B681B8801339AB27B681A80BB6955
:101A60001A887B681B881946BB680B4419461046C8
:101A7000FFF700FC034619467B681A888BB21344B3
:101A80009AB27B681A80BB699B88002B19D0BB690E
:101A90009B68002B01D107231DE07B681B881A4639
:101AA000BB689818BB699968BB699B881A4605F0A2
:101AB000A5FE7B681A88BB699B8813449AB27B6831
:101AC0001A80FB7F0133FB77FB6893F82C30FA7F99
:101AD0009A4295D3002318462037BD4680BD00BFEB
:101AE00080B588B002AFF860B9607A6000237B618E
:101AF0007B681B887B827B6800221A80FB6893F8D6
:101B00002D30002B0BD07B8A1A467968B868FFF716
:101B1000C9FB78617B69002B01D07B69BAE0FB6867
:101B20009B78002B0BD07B8A1A467968B868FFF740
:101B3000AFFC78617B69002B01D07B69AAE0FB6870
:101B4000DB78002B0DD0FB68DB7858B27B8A7A6893
:101B5000B968FFF7E9FC78617B69002B01D07B69EC
:101B600098E0FB685B68002B0ED0FB685B6893F91C
:101B700000007B8A7A68B968FFF716FD78617B6997
:101B8000002B01D07B6985E0FB681B89002B11D0FD
:101B9000FB6803F108007B8A01937B680093BB68B4
:101BA00006220221FFF7DCFD78617B69002B01D062
:101BB0007B696FE0FB681B8A002B11D0FB6803F187
:101BC00010007B8A01937B680093BB680722032186
:101BD000FFF7C6FD78617B69002B01D07B6959E076
:101BE000FB681B8B002B11D0FB6803F118007B8A6C
:101BF00001937B680093BB6815221421FFF7B0FDA9
:101C000078617B69002B01D07B6943E0FB681B6A2C
:101C1000002B0CD0FB68186A7B8A7A68B968FFF7DA
:101C20000FFE78617B69002B01D07B6932E0FB6895
:101C30005B6A002B0CD0FB68586A7B8A7A68B968AB
:101C4000FFF75EFE78617B69002B01D07B6921E0A4
:101C5000FB6893F82C30002B0BD07B8A7A68B9682C
:101C6000F868FFF7BDFE78617B69002B01D07B69C6
:101C700010E0FB681B78002B0BD07B8A7A68B96870
:101C8000F868FFF777FB78617B69002B01D07B69EF
:101C900000E07B6918461837BD4680BD80B483B02C
:101CA00000AF78607B68DB7803F00403002B01D180
:101CB000072300E0002318460C37BD465DF8047B7F
:101CC000704700BF80B483B000AF78607B68DB787A
:101CD000002B01D0072300E0002318460C37BD4637
:101CE0005DF8047B704700BF80B596B000AF7860A8
:101CF00039601F23A7F84A301F23A7F848307B68B4
:101D0000002B1AD07868FFF7C9FFF864FB6C002B32
:101D100001D0FB6C44E007F14A0207F128031946A1
:101D20007868FFF7DDFEF864FB6C002B01D0FB6CDC
:101D300036E007F128037B6504E000237B65002380
:101D4000A7F84A303B68002B1AD03868FFF7BAFF73
:101D5000F864FB6C002B01D0FB6C21E007F148021A
:101D600007F1080319463868FFF7BAFEF864FB6C00
:101D7000002B01D0FB6C13E007F108033B6504E086
:101D800000233B650023A7F84830B7F84A30D9B2A2
:101D9000B7F84830DBB23A6D786DFFF75BFA03466F
:101DA00018465837BD4680BD75DF704700BF1846DE
:101DB00076DF704700BF18467ADF704700BF1846CD
:101DC0007BDF704700BF184680B483B000AF7860F7
:101DD0007B685A88094B1B889A4207D37B685A88CC
:101DE000064B5B889A4201D8012300E00023184685
:101DF0000C37BD465DF8047B704700BF7829002092
:101E000080B586B000AF7860264B1B884FF6FF7216
:101E1000934243D0244B1B780133DAB2224B1A7021
:101E2000224B1A7B204B1B789A4212D31D4B1B88E6
:101E30001F491846FFF7B8FF78617B69002B2DD04A
:101E40001A4B9B69002B29D0184B9B6978699847DE
:101E500024E0154B00221A70144B1B7C002B11D070
:101E6000104B1B883B211846FFF7A2FF38613B69E6
:101E7000002B07D00D4B9B69002B03D00B4B9B69AC
:101E800038699847094B5B69002B07D000233B73E7
:101E9000064B5B6907F10C021046984700BF1837E4
:101EA000BD4680BD82290020802900205C290020B9
:101EB00078290020B0B584B000AF78601C4A7B68F8
:101EC00014461D460FCD0FC495E8070084E80700AF
:101ED000184B00221A707B681B68002B0ED07B68A1
:101EE0001A68154B1068516803C31348FFF764FF65
:101EF000F860FB68002B0AD0FB6815E00E48FFF77E
:101F00005FFFF860FB68002B01D0FB680CE00B4B17
:101F10004FF6FF721A800A4B00221A70094A0021FC
:101F2000094804F0B1F8034618461037BD46B0BD65
:101F30005C290020AC29002078290020822900207B
:101F400080290020011E02007488020080B584B040
:101F500000AF2448FFF738FF034683F00103DBB2EC
:101F6000002B2DD0204B1B78002B0BD01F4B5B6917
:101F7000002B30D000233B711C4B5B693A1D10468F
:101F8000984728E01A4B1B78002B03D1174B5B684E
:101F9000FB6002E0154B9B68FB60164B0022F96862
:101FA000184604F0A5F8B860BB68002B13D00F4B9F
:101FB0009B69002B0FD00D4B9B69B86898470AE0CE
:101FC0000A4B5B69002B06D001233B70074B5B6912
:101FD0003A4610469847044B00221A7000BF10374B
:101FE000BD4680BD84290020AC2900205C2900204A
:101FF000802900208C29002080B582B000AF786055
:102000007B689A880A4B1A800A4A7B68103393E8E7
:10201000030082E80300084B00221A70074BDB899B
:10202000002B01D1FFF792FF00BF0837BD4680BDEE
:102030008229002084290020802900205C2900209A
:1020400080B584B000AF78600D4B4FF6FF721A80F8
:102050000C4B00221A700C4B184604F07DF8F86007
:10206000FB68002B07D0094B9B69002B03D0074B63
:102070009B69F868984700BF1037BD4680BD00BF18
:1020800082290020802900208C2900205C29002042
:1020900080B584B000AF78607B680633FB60FB6876
:1020A0001A88134BDB899A421ED1FB685B89022B8D
:1020B0001AD1FB680C33184600F06EF80346002B6B
:1020C00002D0FFF743FF0FE00A4B184604F044F834
:1020D000B860BB68002B07D0054B9B69002B03D071
:1020E000034B9B69B868984700BF1037BD4680BD59
:1020F0005C2900208C29002080B582B000AF786078
:10210000064A7B68083393E8030082E80300FFF780
:102110001DFF00BF0837BD4680BD00BF84290020D9
:1021200080B582B000AF78607B681B88112B0DD022
:10213000112B02DC102B05D014E0122B0ED0502BEB
:1021400008D00FE07868FFF757FF0BE07868FFF7DB
:1021500077FF07E07868FFF79BFF03E07868FFF7F9
:10216000CBFF00BF00BF0837BD4680BD80B483B041
:1021700000AF78607B681B781AB27B6801331B78EC
:102180001B021BB213431BB29BB218460C37BD4651
:102190005DF8047B704700BF80B584B000AF786005
:1021A0007868FFF7E3FF0346FB81FB8903F0010337
:1021B000002B14BF01230023DBB218461037BD46A5
:1021C00080BD00BF8FDF704700BF18469EDF70479D
:1021D00000BF1846ADDF704700BF184680B483B01B
:1021E00000AF78607B689E221A807B6817225A8035
:1021F0007B6800221A717B6800225A717B68A222D8
:102200009A717B681B22DA7100BF0C37BD465DF8FE
:10221000047B704780B586B000AF03463960FB8011
:10222000FB883A68DB0013441B7B9BB2BB81FB88B5
:102230003A68DB0013441B7B9BB2FB8100233B828B
:1022400000237B8207F10C01FB8800221846FFF770
:10225000B9FF78617B69002B05D0FA887B69044956
:10226000012002F0A7FE00BF1837BD4680BD00BFA9
:102270007888020080B586B000AF786039603B682E
:102280009B88FB82FB8ADB007A68134406333B6140
:102290007B681A793B699A713B68DB7B012B02D022
:1022A000022B05D009E07B681A883B691A8004E09C
:1022B0007B685A883B691A8000BF3B691A883B6972
:1022C0005B889A421AD93B691A88FB8A11461846DC
:1022D000FFF77CFFF860FB68002B03D13B6901220C
:1022E0005A710BE0FB68112B03D13B6901221A7173
:1022F00004E0FA680949012002F00CFE3B699A7972
:102300003B69DB799A4204D9FB8A79681846FFF762
:1023100081FF00BF1837BD4680BD00BFF0880200B6
:1023200080B582B000AF786039603B689B88DB0085
:102330007A68134406331846FFF750FF00BF08378A
:10234000BD4680BD80B586B000AF786039603B681F
:102350009B88FB823B685B89BB82FB8ADB007A68D7
:10236000134406333B613B691A88BB8A934228BFFA
:1023700013469AB23B695A803B695B88172B38BF7A
:1023800017239AB23B695A807B689B69002B12D055
:102390003B695B79002B0ED040F677233B81FB8AAB
:1023A0007B813B695B88BB817B689B6907F1080285
:1023B0001146786898473B6900225A713B690022B0
:1023C0001A7100BF1837BD4680BD00BF80B588B008
:1023D00000AF786039603B689B88FB833B68DB8893
:1023E000BB83FB8BDB007A6813440633BB61BB8B7A
:1023F000172B38BF1723BB83BB691A88BB8B93424B
:1024000028BF13469AB2BB695A80BB6900221A7171
:10241000BB691A88FB8B11461846FFF7DBFE786113
:102420007B69002B04D07A690F49012002F072FD0C
:10243000BB695B79002B13D17B689B69002B10D0A3
:1024400040F67723BB81FB8BFB81BB695B883B82BA
:102450007B689B6907F10C0211467868984700E099
:1024600000BF2037BD4680BD50890200B0B592B094
:1024700000AF786039603B6807F110041D1D0FCD77
:102480000FC40FCD0FC40FCD0FC42B6823603B8A40
:10249000A7F84630B7F84630BA8AD1B27A68DB007E
:1024A00013440A465A737B689B69002B18D007F1C6
:1024B000080300221A609A804DF67A233B81B7F810
:1024C00046307B81B7F846307A68DB0013445B7B8B
:1024D0003B737B689B6907F108021146786898474F
:1024E00000BF4837BD46B0BD80B588B000AF78604A
:1024F00039603B680433FB61FB691B88DB007A6849
:1025000013440633BB61FB699B88FB75BB699A79F1
:10251000FB7D934228BF1346BB7507F108030022D9
:102520001A605A60BB7D9BB23B81BB7D9BB27B81B5
:10253000FB691B8807F1080100221846FFF742FEDD
:1025400038613B69002B04D03A690449012002F04C
:10255000E1FC00BF2037BD4680BD00BFAC89020052
:1025600080B584B000AF786039607B68002B01D102
:102570000E231DE07B683A689A617B689E221A8070
:102580007B689E225A807B68A2221A710023FB601E
:102590000AE0FB68DB007A68134406331846FFF74D
:1025A0001DFEFB680133FB60FB68012BF1D90023A2
:1025B00018461037BD4680BD80B483B000AF786048
:1025C0000B467B807B68002B01D10E230BE07B88C0
:1025D000162B02D97B889E2B01D9072303E07B6849
:1025E0007A881A80002318460C37BD465DF8047BB4
:1025F000704700BF80B584B000AF786039603B6839
:102600009B88FB81FB89012B5AD83B681B88212BB7
:1026100026D0212B04DC102B09D0112B0CD024E068
:102620003A2B0ED0552B11D0222B14D01DE0396837
:102630007868FFF71FFE18E039687868FFF770FECA
:1026400013E039687868FFF77DFE0EE03968786836
:10265000FFF7BCFE09E039687868FFF707FF04E080
:1026600039687868FFF740FF00BFFB897A68DB00B4
:1026700013449B7A002B24D0FB897A68DB00134437
:10268000DA88FB8911461846FFF7A0FDB860BB68E1
:10269000002B0CD1FB897A68DB00134400229A726C
:1026A000FB897A68DB0013440122DA7209E0BB6817
:1026B000112B06D0BA680449012002F02BFC00E07F
:1026C00000BF1037BD4680BDF088020080B483B0E3
:1026D00000AF78604FF080427B68C2F8083300BFDB
:1026E0000C37BD465DF8047B704700BF80B485B0F1
:1026F00000AF0346FB80FB8803F1804300221A6091
:10270000FB8803F180431B68FB60FB6800BF143744
:10271000BD465DF8047B704780B483B000AF0346CC
:10272000FB80FB8803F180431B68002B14BF01234F
:102730000023DBB218460C37BD465DF8047B7047BA
:1027400080B483B000AF0346FB714FF08042FB7949
:1027500003F00303C2F8183500BF0C37BD465DF81F
:10276000047B704780B483B000AF0346FB710C4A12
:1027700097F907305B0952F82320FB7903F01F0318
:1027800022FA03F303F00103002B14BF01230023FB
:10279000DBB218460C37BD465DF8047B704700BFBE
:1027A00000E100E080B500AF0020FFF7DBFF03464B
:1027B00083F00103DBB2002B03D00721002000F0DF
:1027C0002BF900BF80BD00BF80B582B000AF0023F1
:1027D0007B60144B1B78002B02D085237B601BE0B1
:1027E000104B00229A600F4B00225A600D4B0022C2
:1027F0001A610C4B0022DA60FFF7D4FF03F0ECFF04
:10280000034683F00103DBB2002B02D00020FFF768
:1028100097FF044B01221A707B6818460837BD46A3
:1028200080BD00BFB029002080B485B000AF7860C3
:102830007B681B68FB60FB68002B03D0FB681A6891
:102840007B681A60FB6818461437BD465DF8047B48
:10285000704700BF80B584B000AF0346FB71FB79C1
:10286000002B02D10B4BFB6001E00B4BFB60F868C7
:10287000FFF7DAFFB860BB68002B05D0BB685B6868
:10288000FA7910469847F2E700BF00BF1037BD46FF
:1028900080BD00BFB8290020C029002080B500AF4E
:1028A0004FF48070FFF738FF0346002B0CD04FF435
:1028B0008070FFF71BFF0120FFF708FF0D4B01227F
:1028C0005A700020FFF7C6FF4FF48270FFF724FF15
:1028D0000346002B0CD04FF48270FFF707FF022055
:1028E000FFF7F4FE034B01229A700120FFF7B2FFBD
:1028F00000BF80BDB029002080B582B000AF7860F5
:102900007B68002B02D10020FFF7A4FF00BF08372F
:10291000BD4680BD80B582B000AF0023FB71FB1DBA
:10292000184603F03FFD0C4B1B7883F00103DBB22C
:10293000002B01D0FFF748FF074BDB680133064A45
:10294000D360054B01229A70FB79184603F040FDD5
:1029500000BF0837BD4680BDB029002080B483B0D9
:1029600000AF0346FB71094997F907305B09FA7913
:1029700002F01F02012000FA02F241F8232000BFFA
:102980000C37BD465DF8047B704700BF00E100E0F6
:1029900080B483B000AF0346FB71094997F9073053
:1029A0005B09FA7902F01F02012000FA02F260339B
:1029B00041F8232000BF0C37BD465DF8047B70470B
:1029C00000E100E080B483B000AF03463960FB71E2
:1029D00097F90730002B0BDA0D49FB7903F00F0351
:1029E000043B3A68D2B25201D2B20B441A7609E0E3
:1029F000084997F907303A68D2B25201D2B20B4473
:102A000083F8002300BF0C37BD465DF8047B704798
:102A100000ED00E000E100E080B582B000AF0346C9
:102A20000A46FB711346BB71BB79012B02D9BB79F6
:102A3000032B0AD9BB79052B02D9BB79072B04D903
:102A40000C4940F22310FCF7DDFCBA7997F9073006
:102A500011461846FFF7B6FF97F907301846FFF7FB
:102A600097FF97F907301846FFF778FF00BF083740
:102A7000BD4680BD108A020080B582B000AF03461B
:102A8000FB80FB88184600F025F803461B68012BE5
:102A90000CBF01230023DBB218460837BD4680BDBA
:102AA00080B584B000AF0346FB80FB88184600F079
:102AB00011F803461A4600231360FB88184600F0FD
:102AC00009F803461B68FB60FB6800BF1037BD4672
:102AD00080BD00BF80B483B000AF0346FB80FB889D
:102AE00003F1804303F5C04318460C37BD465DF83B
:102AF000047B704780B483B000AF7860044A7B6881
:102B0000C2F8043300BF0C37BD465DF8047B704744
:102B10000060004080B483B000AF7860054BD3F80C
:102B200004237B68134018460C37BD465DF8047BD0
:102B3000704700BF0060004080B483B000AF786091
:102B40000949094A7B6803F5A27352F8233043F020
:102B500001027B6803F5A27341F8232000BF0C3704
:102B6000BD465DF8047B70470060004080B485B0CE
:102B700000AFF860B9601346FB711649154AFB684F
:102B800003F5A27352F8233023F4473323F4407340
:102B9000FA6802F5A27241F822300E480D4AFB682D
:102BA00003F5A27352F82320BB681B0203F4F8510B
:102BB000FB791B0403F440330B431A43FB6803F512
:102BC000A27340F8232000BF1437BD465DF8047B94
:102BD000704700BF0060004080B483B000AF7860F1
:102BE000074A7B6803F5A27352F8233003F4F853C5
:102BF0001B0A18460C37BD465DF8047B704700BFC2
:102C00000060004080B483B000AF7860074A7B6802
:102C100003F5A27352F8233003F440331B0CDBB2EC
:102C200018460C37BD465DF8047B704700600040D5
:102C300080B582B000AF78607B681B681F2B04D919
:102C400005494FF4E870FCF7DDFB4FF0A043184650
:102C50000837BD4680BD00BF648A020080B584B0DD
:102C600000AF7860084611461A460346FB700B46D3
:102C7000BB7013467B703B1D1846FFF7D9FFF86009
:102C80007A68F978BB785B0019437B789B0019431D
:102C90003B7E1B0219433B7F1B041943FB6802F573
:102CA000E07243F8221000BF1037BD4680BD00BF60
:102CB00080B584B002AF78600B46FB70FA780023D1
:102CC0000193002300931346002200217868FFF748
:102CD000C5FF00BF0837BD4680BD00BF80B584B0CA
:102CE00000AF78603B1D1846FFF7A2FFF8607A68D6
:102CF000FB6802F5E07253F8223023F00203BB6058
:102D00007A68FB6802F5E072B96843F8221000BFE8
:102D10001037BD4680BD00BF80B584B000AF78607D
:102D20000B46FB703B1D1846FFF782FFF8607A6880
:102D30007968FB6801F5E07153F8213023F44031E4
:102D4000FB6802F5E07243F822107A687968FB6844
:102D500001F5E07153F82130F97809041943FB6853
:102D600002F5E07243F8221000BF1037BD4680BD67
:102D700080B584B000AF78603B1D1846FFF758FF60
:102D8000F860F86800F022F802467B6822FA03F344
:102D900003F0010318461037BD4680BD80B584B0EE
:102DA00000AF78603B1D1846FFF742FFF8607A6875
:102DB000FB6802F5E07253F8223003F440331B0C39
:102DC000DBB218461037BD4680BD00BF80B483B06B
:102DD00000AF78607B68D3F8103518460C37BD46D5
:102DE0005DF8047B704700BF80B586B000AFF86027
:102DF000B9607A604FF0A0433B61FA68BB68134446
:102E0000012B04D912494FF43A70FCF7FBFAFB6826
:102E10007B6112E07B699B0007F11802134453F8B1
:102E2000083C1846FFF7D2FF02467B681A607B68B1
:102E300004337B607B6901337B61FA68BB681A44A9
:102E40007B699A42E6D800BF1837BD4680BD00BFF7
:102E5000648A020080B485B000AF786039603B6856
:102E6000FB607B68DB08BB607B6803F007037B606B
:102E700001227B6802FA03F3F968BA680A441278FF
:102E8000134018461437BD465DF8047B704700BFF9
:102E900080B485B000AF786039603B68FB607B68C8
:102EA000DB08BB607B6803F007037B60FA68BB68E4
:102EB0001344F968BA680A44127851B201207A685A
:102EC00000FA02F252B20A4352B2D2B21A7000BFF2
:102ED0001437BD465DF8047B704700BF80B483B0F3
:102EE00000AF78600D4A7B681344303393F90030AB
:102EF000002B09DB094A7B681344303393F9003017
:102F0000072B01DC012300E0002303F00103DBB207
:102F100018460C37BD465DF8047B7047C429002075
:102F200080B483B000AF7860084A7B6813443033C4
:102F300093F90030072BCCBF01230023DBB21846E6
:102F40000C37BD465DF8047B704700BFC4290020E4
:102F500080B483B000AF7860074A7B681344303395
:102F600093F90030DB43DBB2DB09DBB218460C37E8
:102F7000BD465DF8047B7047C429002080B485B04D
:102F800000AFF860B9607A60FB70BB6859B2104A54
:102F9000FB68134430330A461A700D49BB687A68DF
:102FA00041F82320FB7883F00103DBB2002B08D02B
:102FB000BB68083BFA6851B2054A13440A4683F8D5
:102FC000502000BF1437BD465DF8047B704700BF3A
:102FD000C429002080B483B000AF7860054A7B68C4
:102FE00013443033FF221A7000BF0C37BD465DF822
:102FF000047B7047C429002080B483B000AF7860A0
:10300000054A7B681344303393F9003018460C3777
:10301000BD465DF8047B7047C429002080B483B0AE
:1030200000AF7860044A7B6852F8233018460C37AA
:10303000BD465DF8047B7047C429002080B588B088
:1030400000AFF860B9601346FB71FF23FB77FB7993
:10305000002B01D0002300E008237B61FB79002BCB
:1030600001D0082300E00C233B617B69BB6112E0C7
:103070000E4ABB6952F82330B3F1FF3F08D1FB7908
:10308000BA68B969F868FFF779FFBB69FB7706E0B2
:10309000BB690133BB61BA693B699A42E8D397F9CE
:1030A0001F3018462037BD4680BD00BFC429002010
:1030B00080B483B000AF0346FB71FB790A4A4FF03E
:1030C000FF3142F82310FB79072B06D9FB79083B27
:1030D000054A1344FF2283F8502000BF0C37BD4639
:1030E0005DF8047B704700BFC429002080B582B022
:1030F00000AF1D4B93F85430002B03D008233B60E6
:103100003B682CE00023FB7106E0FB791846FFF7D3
:1031100061FFFB790133FB71FB791F2BF5D900238C
:10312000FB7106E0FB791846FFF7C2FFFB7901331C
:10313000FB71FB790B2BF5D907210620FFF76CFCFF
:103140004FF4BE70FFF7ACFC4FF00040FFF7D2FC2D
:10315000054B012283F8542000233B603B6818464E
:103160000837BD4680BD00BFC429002080B586B0A9
:1031700000AFF860B9607A60FB681F2B04D92B4957
:1031800040F2F710FCF73EF900237B61F868FFF787
:10319000DFFE0346002B02D008237B6140E0BB68C2
:1031A000DB781A467968F868FFF748FF0346FB7436
:1031B00097F91330B3F1FF3F30D0BB689B78002BF9
:1031C00003D0F868FFF78AFD05E0BB685B78194615
:1031D000F868FFF76DFDBB68DB78002B08D097F926
:1031E0001300BB681B781A46F968FFF7BFFC17E0AD
:1031F00097F91330083B97F91320083A0C490A4411
:1032000092F95010BA681278920152B20A4351B240
:10321000074A13440A4683F8502001E004237B61E7
:103220007B6918461837BD4680BD00BFD48A0200AE
:10323000C429002080B586B000AF78600B46FB70D3
:103240007B681F2B04D9384940F22520FCF7DAF8B7
:103250007868FFF77DFE0346002B04D1324940F227
:103260002620FCF7CFF87868FFF75AFE0346002BBC
:1032700027D07868FFF7C0FE0346083B2B4A13446B
:1032800093F95030BB75BB7D9B097B757B7D032B10
:103290000AD17868FFF76CFD0346002B01D00323A9
:1032A00000E00223FB7506E07B7D012B01D10223A8
:1032B00000E00323FB75FB7D19467868FFF72CFDC2
:1032C0002DE07868FFF70AFE0346002B27D07868C8
:1032D000FFF792FE03463B613B699BB240339BB2D2
:1032E0009B00FB813B691846FFF726FCFB891846CB
:1032F000FFF7D6FBFB78002B11D07868FFF77CFE38
:1033000003461846FFF78AFEB860BB68002B06D05C
:1033100001223B6902FA03F31846FFF7EBFB00BFFB
:103320001837BD4680BD00BFD48A0200C4290020E2
:1033300080B594B000AF0023FB640023FB604FF422
:103340008073A7F8463001233B640023BB6421E06F
:10335000B7F846301846FFF78FFB0346002B0ED018
:10336000386CFFF7D7FB0346002B08D0B7F8463080
:103370001846FFF795FBFA6C3B6C1343FB643B6C00
:103380005B003B64B7F846300433A7F84630BB6CAB
:103390000133BB64BB6C072BDAD94FF4BE70FFF767
:1033A0006BFB0346002B0ED04FF4BE70FFF778FB8B
:1033B000FB6C43F00043FB6407F10C031A46012148
:1033C0000020FFF711FDFB6CDBB2002B29D001239D
:1033D0003B640023BB6421E03A6CFB6C1340002B80
:1033E00016D0B86CFFF7F8FB7863B86CFFF70AFCEF
:1033F000034687F83330B86CFFF710FEF862FB6ABB
:10340000002B05D097F83320FB6A1146786B98475C
:103410003B6C5B003B64BB6C0133BB64BB6C072B38
:10342000DAD9FB6C002B80F2F180002387F83B3067
:103430000023BB600023FB630BE0FB6B9B0007F1E9
:10344000500213444FF0FF3243F84C2CFB6B013316
:10345000FB63FB6B002BF0D0002387F83B3000238D
:10346000BB6474E06B4ABB6C1344503393F9003077
:1034700087F82B3097F82B3023F0C0037B62654A26
:10348000BB6C1344503393F90030B3F1FF3F5BD072
:103490003B1D1946786AFFF7DDFC0346002B53D02D
:1034A00097F82B309B0987F82330786AFFF7A4FD43
:1034B00003461846FFF7B2FDF861FB69002B03D104
:1034C00097F82330032B3FD197F82330032B05D1F6
:1034D00007F108031946786AFFF7DAFC786AFFF704
:1034E0005DFC0346FB7607F10C031946786AFFF78B
:1034F000B1FC78617B69002B02D0FB7E022B05D0EA
:103500007B69002B20D1FB7E032B1DD197F8233044
:10351000032B10D1FB7E022B01D1032300E00223F9
:10352000FB74FB7C1946786AFFF7F6FB97F83B3093
:10353000013387F83B30FB69002B05D097F8232037
:10354000FB691146786A9847BB6C0133BB64BB6C5E
:10355000032B87D997F83B30002B52D0012387F8F3
:103560003A303B461A4601210020FFF73DFC00237C
:10357000FB6316E0FB6B9B0007F15002134453F80A
:10358000502CFB6B9B0007F150010B4453F8443C5B
:103590009A4203D0002387F83A3005E0FB6B0133F1
:1035A000FB63FB6B002BE5D097F83A30002B03D080
:1035B000002387F83B3024E00023FB631EE0FB6B15
:1035C0009B0007F15002134453F8502CFB6B9B00F7
:1035D00007F150010B4443F8442CFB6B9B0007F1AF
:1035E0005002134453F8482CFB6B9B0007F1500129
:1035F0000B4443F84C2CFB6B0133FB63FB6B002B40
:10360000DDD097F83B30002B7FF426AF00BF50375A
:10361000BD4680BDC429002080B483B000AF78606F
:103620000B46FB70FB787A68134401221A6000BFD6
:103630000C37BD465DF8047B704700BF80B485B091
:1036400000AF78600B467B807B887A681344002249
:103650001A607B887A6813441B68FB60FB6800BFB4
:103660001437BD465DF8047B704700BF80B483B05B
:1036700000AF78600B467B807B887A6813441B68B8
:10368000002B14BF01230023DBB218460C37BD46C4
:103690005DF8047B704700BF80B483B000AF7860F2
:1036A00039607B683A68C3F8042300BF0C37BD4615
:1036B0005DF8047B704700BF80B483B000AF7860D2
:1036C00039607B683A68C3F8082300BF0C37BD46F1
:1036D0005DF8047B704700BF80B483B000AF7860B2
:1036E0007B680622C3F8002500BF0C37BD465DF895
:1036F000047B704780B485B000AFF860B9607A6031
:10370000FB68BA68C3F80825FB687A68C3F80C251B
:1037100000BF1437BD465DF8047B704780B483B0AA
:1037200000AF786039607B683A68C3F8242500BF31
:103730000C37BD465DF8047B704700BF80B485B090
:1037400000AF78607B68D3F8C434FB607B68FA68AC
:10375000C3F8C424FB6818461437BD465DF8047BE3
:10376000704700BF80B483B000AF78600B46FB7039
:10377000FA787B68C3F8882500BF0C37BD465DF832
:10378000047B704780B485B000AFF860B960134621
:10379000FB71BA68FB68C3F84425FA79FB68C3F883
:1037A000482500BF1437BD465DF8047B704700BF55
:1037B00080B485B000AFF860B9601346FB71BA6899
:1037C000FB68C3F83425FA79FB68C3F8382500BFD5
:1037D0001437BD465DF8047B704700BF80B483B0EA
:1037E00000AF786039607B683A68C3F8002200BF98
:1037F0000C37BD465DF8047B704700BF80B483B0D2
:1038000000AF78607B68D3F84C3518460C37BD465E
:103810005DF8047B704700BF80B483B000AF786070
:103820007B68D3F83C3518460C37BD465DF8047B01
:10383000704700BF80B483B000AF78607B6801221E
:10384000C3F8502500BF0C37BD465DF8047B7047B8
:1038500080B483B000AF78607B680022C3F8502545
:1038600000BF0C37BD465DF8047B704780B483B061
:1038700000AF78607B680122C3F8402500BF0C3799
:10388000BD465DF8047B704780B483B000AF7860BC
:103890007B680022C3F8402500BF0C37BD465DF8A9
:1038A000047B704780B485B000AF78607B681B0BE9
:1038B000FB7397F90F3018461437BD465DF8047B4B
:1038C000704700BF80B483B000AF78607B6803F0BE
:1038D0006043B3F1005F0CBF01230023DBB2184645
:1038E0000C37BD465DF8047B704700BF80B582B0E1
:1038F00000AF78607B681B681F2B04D905494FF423
:10390000E870FBF77FFD4FF0A04318460837BD462F
:1039100080BD00BF288B020080B584B000AF786006
:103920003B1D1846FFF7E2FFF8607B68012202FAB0
:1039300003F31946F86800F03FF800BF1037BD46A2
:1039400080BD00BF80B584B000AF78603B1D1846D5
:10395000FFF7CCFFF8607B68012202FA03F31946F7
:10396000F86800F039F800BF1037BD4680BD00BFD1
:1039700080B584B000AF78603B1D1846FFF7B6FFF6
:10398000F860F86800F00AF802467B6822FA03F350
:1039900003F0010318461037BD4680BD80B483B0E4
:1039A00000AF78607B68D3F8103518460C37BD46F9
:1039B0005DF8047B704700BF80B483B000AF7860CF
:1039C00039607B683A68C3F8082500BF0C37BD46EC
:1039D0005DF8047B704700BF80B483B000AF7860AF
:1039E00039607B683A68C3F80C2500BF0C37BD46C8
:1039F0005DF8047B704700BF80B485B000AF78608D
:103A0000254BFB607B68002B40D0244B1A68F9687B
:103A10007B6800BF00BF00BF00BF00BF00BF00BF8A
:103A200000BF8A422FD000BF00BF00BF00BF00BF51
:103A300000BF00BF00BF00BF00BF00BF00BF00BF8E
:103A400000BF00BF00BF00BF00BF00BF00BF00BF7E
:103A500000BF00BF00BF00BF00BF00BF00BF00BF6E
:103A600000BF00BF00BF00BF00BF00BF00BF00BF5E
:103A700000BF00BF00BF00BF00BF00BF00BF00BF4E
:103A800000BF00BF00BF013BC3D17B6000BF143744
:103A9000BD465DF8047B70470024F4000826002032
:103AA00080B485B000AF78600323FB607B6803F0CF
:103AB0000103002B02D04FF40243FB607B6803F04C
:103AC0000203002B02D048F20123FB607B6803F065
:103AD0000403002B02D048F20223FB60FB68184667
:103AE0001437BD465DF8047B704700BF80B584B0D5
:103AF00000AF78604FF0A0427B681B6803F5E0736D
:103B000040F20C6142F823104FF0A0427B685B68E2
:103B100003F5E07340F20C6142F823107B681B68E8
:103B20001846FFF7F9FE7B685B681846FFF7F4FE5E
:103B30004FF0A0427B681B6803F5E07340F20D6113
:103B400042F823104FF0A0427B685B6803F5E073F6
:103B500040F20D6142F823100420FFF74DFF0023CF
:103B6000FB601EE07B685B681846FFF701FF0346B9
:103B7000002B03D0FB68002B17D124E07B681B6867
:103B80001846FFF7DFFE0420FFF736FF7B681B684F
:103B90001846FFF7C1FE0420FFF72EFFFB68013334
:103BA000FB60FB68082BDDDD00E000BF7B685B6825
:103BB0001846FFF7C7FE0420FFF71EFF7B685B680F
:103BC0001846FFF7A9FE1037BD4680BD80B588B006
:103BD00000AFF860B9607A603B60BB68002B03D12E
:103BE0003F49F520FBF70EFCBB681A68BB685B68B1
:103BF0009A4203D13A49F620FBF704FCFB681B7993
:103C00001A4613469B001344DB00364A1344FB61FB
:103C1000FB6993F82230002B03D00823BB61BB69FA
:103C200059E0FB697A681A60FB693A685A60FB6977
:103C300000229A60FB69002283F82520FB6900229C
:103C400083F82420BB689A7BFB6983F82720BB6834
:103C50005B7B002B02D0B868FFF748FF4FF0A04213
:103C6000BB681B6803F5E07340F20C6142F8231057
:103C70004FF0A042BB685B6803F5E07340F20C6153
:103C800042F82310FB681B687B61BB681968BB683E
:103C90005B681A467869FFF72DFDBB689B6819467B
:103CA0007869FFF73BFDFB691B68002B0CD0FB68B4
:103CB0001B681846FFF7F6FD03461A46BB681B7BD8
:103CC00019461046FEF7A8FEFB69012283F8222060
:103CD0000023BB61BB6918462037BD4680BD00BFCD
:103CE000988B02001C2A002080B584B000AF786059
:103CF0007B681B791A4613469B001344DB000D4A70
:103D00001344FB60FB6893F82230012B04D00A496E
:103D100040F27710FBF776FB7B681B68BB60B868E6
:103D2000FFF7DAFCFB68022283F8222000BF10377D
:103D3000BD4680BD1C2A0020988B020080B582B051
:103D400000AF786039603B6803F00103002B03D0BB
:103D50007868FFF76FFD02E07868FFF779FD3B6850
:103D600003F00203002B03D07868FFF77FFD02E029
:103D70007868FFF789FD00BF0837BD4680BD00BFEA
:103D800080B588B000AFF860B9607A603B6000230E
:103D9000FB610823FB764FF482733B837B685B688F
:103DA0001846FFF78FFD034683F00103DBB2002BBB
:103DB00003D01023FB61FB698FE14FF0FF31B8683E
:103DC000FFF77AFCFB6893F82430DBB2002B09D0B4
:103DD000FB689B681946B868FFF75EFC1123FB611E
:103DE000FB697AE13B6803F00403002B06D13B68D2
:103DF00003F01003002B01D1012300E0002303F0A6
:103E00000103DAB2FB6883F82420FB687A680C337C
:103E100007CA83E807003B6803F01003002B14BFB8
:103E200001230023DAB2FB6883F825207B685B78E6
:103E30001946B868FFF796FC4FF48271B868FFF72F
:103E4000FDFB4FF49271B868FFF7F8FB3968B8686A
:103E5000FFF774FF7B681B78032B00F2E68001A25A
:103E600052F823F0A33F0200FB3F0200513F020043
:103E7000753E02003B6803F01003002B04D0994903
:103E800040F23530FBF7BEFA3B6803F00803002B25
:103E900004D0944940F23630FBF7B4FA3B6803F0A3
:103EA0000403002B04D08F4940F23730FBF7AAFA05
:103EB0007B689B681846FFF705FD034683F0010306
:103EC000DBB2002B03D01023FB61FB6905E14FF44B
:103ED0008071B868FFF782FC7B6859687B689B78C3
:103EE0001A46B868FFF74EFC4FF4A871B868FFF7A0
:103EF000A5FB4FF4B071B868FFF7A0FB4FF4A471B5
:103F0000B868FFF79BFB2021B868FFF785FB082105
:103F1000B868FFF781FB00BF4FF4A871B868FFF7DE
:103F2000A5FB034683F00103DBB2002BF4D14FF471
:103F3000A871B868FFF782FB7B6899687B68DB78BB
:103F40001A46B868FFF71EFCFB68674A9A606FE084
:103F50007B6859687B689B781A46B868FFF712FC43
:103F60007B689B681846FFF7ADFC034683F00103AE
:103F7000DBB2002B03D01023FB61FB69ADE07B6853
:103F800099687B68DB781A46B868FFF711FC4FF434
:103F90008451B868FFF722FCFB6840F202229A6065
:103FA00046E07B6859687B689B781A46B868FFF7DB
:103FB000E9FB3B6803F02003002B10D04FF4807125
:103FC000B868FFF70BFCFB68474A9A604FF4A4718E
:103FD000B868FFF733FB4FF4A4733B8308E04FF45A
:103FE0000071B868FFF7FAFBFB6840F202229A60A2
:103FF0002021B868FFF710FB1AE07B6859687B68DE
:104000009B781A46B868FFF7D3FB4FF48051B86825
:10401000FFF7E4FBFB6840F202229A600023FB7684
:104020002021B868FFF7F8FA02E00723FB6100BF20
:104030003B6803F00803002B08D17B681B78032B37
:1040400004D0FB7E1946B868FFF7E6FAFB681B68E8
:10405000002B27D03B6803F00403002B03D0FB6840
:104060004FF400729A60FB689B681946B868FFF7C6
:1040700013FB31E04FF49271B868FFF7F7FA03468B
:10408000002B0FD04FF49271B868FFF7D7FA2021B8
:10409000B868FFF7C1FA1421B868FFF7BDFA4FF40A
:1040A00082733B833B8B1946B868FFF7DFFA034600
:1040B00083F00103DBB2002BDCD1B868FFF73EFBD5
:1040C0007861FB68002283F824207B69002B03D0F1
:1040D0007869FFF7E5FCF861FB6918462037BD46B3
:1040E00080BD00BF988B02000002040080B586B03E
:1040F00000AFF860B9607A6000237B61FB681B79D0
:104100001A4613469B001344DB00154A13443B61D7
:104110003B691B68002B08D1BB681B78022B04D1BC
:10412000104940F2B730FBF76DF93B691B68002B73
:1041300008D1BB681B78032B04D10A494FF46E7079
:10414000FBF760F9FB6819687B68BA683869FFF7A4
:1041500017FE78617B6918461837BD4680BD00BFE1
:104160001C2A0020988B020080B588B000AFF86050
:104170007A601A460B46FB721346BB7207F11403B2
:1041800000221A605A609A60FB7A7B75BB7ABB7515
:104190007B68BB6197F82830002B01D0202200E01B
:1041A000002207F114031946F868FFF79FFF034642
:1041B00018462037BD4680BD80B588B000AF786016
:1041C00039603B681B68002B04D1804940F23140C4
:1041D000FBF718F94FF492717868FFF747FA034636
:1041E000002B27D04FF492717868FFF727FA4FF42D
:1041F00082717868FFF73AFA034683F00103DBB275
:10420000002B17D03B689B6819467868FFF754FA73
:104210003B6802229A603B689B6819467868FFF702
:104220003BFA20217868FFF7F7F914217868FFF747
:10423000F3F9C8E04FF482717868FFF717FA034684
:10424000002B54D04FF482717868FFF7F7F93A6881
:1042500007F110030C3207CA83E807003B6893F8A4
:104260002330002B1FD03B681B7B012B05D17868C6
:10427000FFF7D2FA0346DBB204E07868FFF7BEFA34
:104280000346DBB2BB743B681B7B022B05D178680D
:10429000FFF7C2FA0346DBB204E07868FFF7AEFA34
:1042A0000346DBB2FB744FF4B0717868FFF7C6F9D0
:1042B0004FF4AE717868FFF7C1F93B6893F8253089
:1042C00083F00103DBB2002B04D13B6893F8233069
:1042D000002B4ED000217868FFF780FA3B6800225F
:1042E0009A604FF0FF317868FFF7E6F941E04FF44C
:1042F000A4717868FFF7A2F93B681B7B002B1BD1E8
:104300003A6807F110030C3207CA83E807003B68DC
:1043100093F8253083F00103DBB2002B29D0002174
:104320007868FFF75BFA3B6800229A604FF0FF3134
:104330007868FFF7C1F91CE04FF400717868FFF767
:104340004DFA3B6840F202229A604FF0FF317868E4
:10435000FFF7B2F93B689B6819467868FFF79CF94C
:1043600008217868FFF758F920217868FFF754F999
:1043700029E07868FFF7E2F9F861FB6903F00203CE
:10438000002B02D001233B7309E0FB6903F0040317
:10439000002B02D002233B7301E000233B733B68F8
:1043A00093F8253083F00103DBB2002B03D03B6888
:1043B000002283F824203B681B683A68516807F1A3
:1043C0000C02104698472037BD4680BD988B0200EE
:1043D00080B500AF02490348FFF7EEFE00BF80BD85
:1043E0001C2A00200030004080B483B000AF786009
:1043F0007B68002B01D1032304E0054B5A6E7B68D8
:104400001A60002318460C37BD465DF8047B7047E0
:10441000442A002080B400AFBFF34F8F0549054BFD
:10442000DB6803F4E062044B1343CB60BFF34F8FB0
:1044300000BFFDE700ED00E00400FA0580B582B0A2
:1044400000AF7860FFF7E6FF00BF0837BD4680BDCC
:1044500080B582B000AF78607B689B691A461249CC
:10446000012000F057FD00F069FC00BF00F00AFFDA
:104470000346002BFAD10D4B1B6803F00103002B00
:1044800000D0FFDE0A4A7B681360084B1B6803F00C
:104490000103002B00D0FFDE7868FFF7CFFF00BFDD
:1044A0000837BD4680BD00BFEC8B0200F0ED00E098
:1044B000743E00200A4B1EF0040F1CBFEFF309806E
:1044C0001847EFF308800749074A884201D890420D
:1044D00002D88D464FF00000184700BF00BF000013
:1044E0005144020000000120B8DF002080B582B0F6
:1044F00000AF0346FB710C4B1B78002B06D00B4B17
:104500001B78FA799A4201D1002308E002F0EEFE0E
:10451000054B01221A70054AFB79137000231846D7
:104520000837BD4680BD00BFAC2A0020AD2A002060
:1045300080B483B000AF0023FB71FB7918460C37C1
:10454000BD465DF8047B704780B588B000AF7860E9
:1045500039600123FB740023FB613B68BB610A23C4
:104560007B617A68FB691344BA691946002002F03E
:1045700047FEF860FA69FB681344FB61BA69FB689F
:10458000D31ABB61FB68002B05D17B69013B7B61C2
:104590007B69002B03D0BB69002BE2D100E000BF98
:1045A000FB7C18462037BD4680BD00BF80B485B077
:1045B00000AF786039603B68002B02DA0023FB73A0
:1045C00007E07B681A683B681A447B681A6001231D
:1045D000FB73FB7B18461437BD465DF8047B7047C0
:1045E00080B586B000AFF860B9607A6000233B61A7
:1045F0000123FB75FB68002B1FD004233B613B6943
:104600001A461249B86803F0F9F87B681A683B69E2
:104610001A447B681A603B69BA68D018FB681B684B
:104620000B4A4FF4807103F0FDF8386139697868FE
:10463000FFF7BCFF0346FB7502E07B6800221A60AF
:10464000FB7D18461837BD4680BD00BF148C0200A4
:104650001C8C0200F0B5D1B006AF044607F1100083
:10466000016007F10C010A6007F10802136007F10D
:10467000170322461A700023C7F8243107F11803E4
:1046800000221A60012387F82331FFF751FF034608
:10469000002B01D0002374E107F118031B6807F118
:1046A0001C02D11807F1180207F110031868FFF770
:1046B00097FF034683F00103DBB2002B01D00023F8
:1046C0005FE1D7F84031062B00F2238101A252F8B6
:1046D00023F000BFF14602002F4702005D470200B1
:1046E00099470200E34702003B480200A14802004C
:1046F00007F10C03186803F0F3F80346C7F82431F8
:10470000D7F8242107F118031B681344FF2B00F28C
:10471000028107F118031B6807F11C02D018D7F8B3
:10472000242107F10C03196803F068F8F3E007F19E
:1047300018031B6807F11C02D01807F118031B6847
:10474000C3F5807107F108031B681B6807F10C02B1
:10475000126803F067F8C7F82401DDE007F11803D9
:104760001B6807F11C02D01807F118031B68C3F57A
:10477000807107F108031B681C6807F108031B68B8
:1047800004331B6807F10C0200932346126803F000
:1047900049F8C7F82401BFE007F118031B6807F1C7
:1047A0001C02D01807F118031B68C3F5807407F1C9
:1047B00008031B681D6807F108031B6804331B68A6
:1047C00007F1080212680832116807F10C02019122
:1047D00000932B461268214603F024F8C7F8240101
:1047E0009AE007F118031B6807F11C02D41807F1BF
:1047F00018031B68C3F5807507F108031B681E6862
:1048000007F108031B6804331B6807F108021268EC
:104810000832116807F1080212680C32106807F1BB
:104820000C020290019100933346126829462046FB
:1048300002F0F8FFC7F824016EE007F118031B68C7
:1048400007F11C02D51807F118031B68C3F5807621
:1048500007F108031B681B687B6007F108031B68EE
:1048600004331B6807F1080212680832116807F167
:10487000080212680C32106807F108021268103240
:10488000146807F10C0203940290019100937B6875
:1048900012683146284602F0C5FFC7F824013BE004
:1048A00007F118031B6807F11C02D61807F118035B
:1048B0001B68C3F5807E07F108031B681B687B60DB
:1048C00007F108031B6804331B6807F1080212682C
:1048D0000832116807F1080212680C32106807F1FB
:1048E000080212681032146807F1080212681432C4
:1048F000156807F10C02049503940290019100934E
:104900007B6812687146304602F08CFFC7F82401BC
:1049100002E000BF00E000BF07F11803D7F8241140
:104920001846FFF743FE034687F8233107F11803C3
:104930001B680433C7F81C3197F82331002B1FD0B4
:10494000D7F81C31B3F5807F1AD807F118031B681C
:1049500007F11C02134404220C49184602F04EFFD2
:1049600007F11803D7F81C211A6007F118031A6819
:1049700007F11C0311461846FFF7E6FD034600E069
:104980000023184607F59677BD46F0BD148C02004B
:1049900080B485B000AF03463960FB710223FB6031
:1049A00018E0FA79FB689B0042FA03F3DBB203F0EC
:1049B0000F03FB72FB68C3F101033A681A44FB7AE8
:1049C000092B03D9FB7A3733DBB202E0FB7A3033B1
:1049D000DBB21370FB685A1EFA60002BE1D100BFF6
:1049E0001437BD465DF8047B704700BF90B5D1B069
:1049F00000AF044607F108000160391D0A603A461D
:104A0000136007F10F0322461A7007F1100300220A
:104A10001A603B461B68C7F82C31D7F85421D7F8E9
:104A20005C311344C7F8243107F108031B68002BDD
:104A300001D00A2300E00023C7F82031FFF778FDFA
:104A40000346002B02D03B461B683EE13B461B68F9
:104A5000002B37D107F110031B6807F11402D1189E
:104A600007F1100207F108031868FFF7B9FD0346C4
:104A700083F00103DBB2002B02D03B461B6824E12C
:104A80003B1D186802F02CFFC7F81C01D7F81C3139
:104A9000C22B28BFC223C7F81C3107F110031B68C3
:104AA00007F11402D0183B1DD7F81C21196802F039
:104AB000A5FE07F110031A68D7F81C311A4407F154
:104AC00010031A6007F110031B68C7F81831D7F8F4
