:020000021000EC
:10F0000000000120E5F6020021F7020079CF02009E
:10F0100025F7020027F7020029F702000000000090
:10F020000000000000000000000000002BF70200BC
:10F030002DF70200000000002FF7020031F7020058
:10F04000CD8F020033F7020033F7020001AB02005C
:10F0500033F7020033F70200619A020033F702002F
:10F0600033F7020033F7020033F7020033F70200F0
:10F0700033F7020033F7020033F7020033F70200E0
:10F0800033F702006DEA020033F7020033F70200A3
:10F09000ADEA020033F70200D1F5020033F70200B7
:10F0A00033F7020033F7020033F7020033F70200B0
:10F0B00033F7020033F702000000000000000000F8
:10F0C00033F7020033F7020033F7020033F7020090
:10F0D00033F7020033F7020033F7020000000000AC
:10F0E0000000000000000000000000000000000020
:10F0F0000000000000000000000000000000000010
:10F1000000000000000000000000000000000000FF
:10F1100000000000000000000000000000000000EF
:10F1200000000000000000000000000000000000DF
:10F1300000000000000000000000000000000000CF
:10F1400000000000000000000000000000000000BF
:10F1500000000000000000000000000000000000AF
:10F16000000000000000000000000000000000009F
:10F17000000000000000000000000000000000008F
:10F18000000000000000000000000000000000007F
:10F19000000000000000000000000000000000006F
:10F1A000000000000000000000000000000000005F
:10F1B000000000000000000000000000000000004F
:10F1C000000000000000000000000000000000003F
:10F1D000000000000000000000000000000000002F
:10F1E000000000000000000000000000000000001F
:10F1F000000000000000000000000000000000000F
:10F2000080B485B000AF7860254BFB607B68002B35
:10F2100040D0244B1A68F9687B6800BF00BF00BF6C
:10F2200000BF00BF00BF00BF00BF8A422FD000BF99
:10F2300000BF00BF00BF00BF00BF00BF00BF00BFD6
:10F2400000BF00BF00BF00BF00BF00BF00BF00BFC6
:10F2500000BF00BF00BF00BF00BF00BF00BF00BFB6
:10F2600000BF00BF00BF00BF00BF00BF00BF00BFA6
:10F2700000BF00BF00BF00BF00BF00BF00BF00BF96
:10F2800000BF00BF00BF00BF00BF00BF00BF013B09
:10F29000C3D17B6000BF1437BD465DF8047B704767
:10F2A0000024F4002C26002080B582B000AF7860E6
:10F2B0007B684FF47A7202FB03F31846FFF7A0FF56
:10F2C00000BF0837BD4680BD80B582B000AF786012
:10F2D0007B681B681F2B04D905494FF4E87000F0C8
:10F2E00099FA4FF0A04318460837BD4680BD00BFCD
:10F2F0006C1F030080B584B000AF78603B1D1846DA
:10F30000FFF7E2FFF8607B68012202FA03F3194677
:10F31000F86800F01BF800BF1037BD4680BD00BF85
:10F3200080B584B000AF78603B1D1846FFF7CCFF76
:10F33000F8607B68012202FA03F31946F86800F0CE
:10F3400015F800BF1037BD4680BD00BF80B483B044
:10F3500000AF786039607B683A68C3F8082500BF61
:10F360000C37BD465DF8047B704700BF80B483B0A6
:10F3700000AF786039607B683A68C3F80C2500BF3D
:10F380000C37BD465DF8047B704700BF80B582B086
:10F3900000AF7860322001F06FFC054B1B78DBB2C8
:10F3A0000133DAB2024B1A7000BF0837BD4680BD88
:10F3B000C826002080B582B000AF78600B46FB7095
:10F3C000FB1C01221946002010F0EEFD00BF08379B
:10F3D000BD4680BD0000000090B591B002AFA449C9
:10F3E000002011F0DFFA00200EF0EEF938633B6BDD
:10F3F000002B04D09F4A8521386B0FF01FFC0FF0C3
:10F400005BFBF862FB6A002B04D09A4A8921F86AF8
:10F410000FF014FC984A012198480FF083FBB86262
:10F42000BB6A002B04D0934A8C21B86A0FF006FC0B
:10F4300001F0DEFB0F20FFF737FF07F1130318463B
:10F4400001F026FD00F05AF98D4801F0A5FA8D482B
:10F4500001F0A2FA00F066F98B4903200EF076FA6B
:10F4600000BF0EF0DFFB0346002BFAD1874B0022D2
:10F470004FF4004118460FF089FB78627B6A002B3D
:10F4800004D07C4AB321786A0FF0D8FB01F072FDFA
:10F490007F4B1B78DBB2052B40F0DD807C4B0022DC
:10F4A0001A700820FFF726FF002387F837300CE09A
:10F4B00097F8373007F138021344002203F8302C54
:10F4C00097F83730013387F8373097F83730082B03
:10F4D000EED907F108020023009313460322E3212B
:10F4E000402010F031FF38623B7A1A027B7A03F039
:10F4F000FC03134307EE903AF8EEE77AC7ED077A7C
:10F50000F86912F0F1F856A3D3E9002312F040F99C
:10F5100003460C461846214612F04CFB0346FB619D
:10F5200097ED077ADFED5B6AC7EE267AC7ED077ABB
:10F53000F86912F0D9F84CA3D3E9002311F074FF55
:10F5400003460C461846214612F034FB0346FB6185
:10F55000D7ED077AB2EE047A67EE877AFCEEE77AA7
:10F56000C7ED017A3B79DAB24B4BA3FB0213D90802
:10F570000B469B000B445B00D31AFB7607F1080295
:10F580000023009313460322E521402010F0DCFE07
:10F5900038620820FFF7C4FE3B7A1A027B7A03F038
:10F5A000FC03134307EE903AF8EEE77AC7ED057ACD
:10F5B000D7ED057A9FED397A67EE877AC7ED057A40
:10F5C00097ED057ADFED336AC7EE267AC7ED057A47
:10F5D000D7ED057AB1EE087A77EEC77AC7ED057AEE
:10F5E000D7ED077ABCEEE77AFB7ED7ED057AFCEE25
:10F5F000E77A17EE902A009217EE102A2849032086
:10F600000EF096FAD7ED077AFDEEE77AC7ED017AAC
:10F610003B795BB21946FB7ED7ED057AFCEEE77AC3
:10F62000C7ED017A3A79D2B200920A461D491E48C6
:10F6300011F0FCF91C4811F095FA03469BB21946EB
:10F64000194800F087F800F0B1F800BF0EF0EAFAB0
:10F650000346002BFAD101F06FF919E7AFF30080F0
:10F66000D7A3703D0AF76540CDCCCCCCCC6C4740DD
:10F67000B5F30100CC1F03008DF3010058200300F7
:10F68000F4450020F8450020D81F0300A8260020DC
:10F69000C826002000008047CDCCCCCC0000FA4228
:10F6A0000820030038200300CC26002076DF7047B6
:10F6B00000BF184678DF704700BF18467ADF7047F2
:10F6C00000BF18467CDF704700BF18467FDF7047D9
:10F6D00000BF18468FDF704700BF1846A8DF70478D
:10F6E00000BF1846A9DF704700BF184669DF7047A2
:10F6F00000BF184666DF704700BF184680B500AFF0
:10F7000000F026FE00F09EF900F02AFF01F000F85C
:10F7100000F09EFA00F006FA00F0ACFB00F04EFF9D
:10F7200000BF80BD80B582B000AF022001F004FFB1
:10F7300078607B683B603B68002B04D0044ABA21A8
:10F7400038680FF07BFA7B6818460837BD4680BDE5
:10F750005C20030080B584B000AF78600B467B80EE
:10F760000023FB607B881A4679680E4803F02EF868
:10F77000F860FB68082B0CD0FB68112B09D0FB68E4
:10F78000BB60BB68002B04D0074ACD21B8680FF0DE
:10F7900055FAFB68112BE5D0FB6818461037BD46BB
:10F7A00080BD00BF682700205C20030080B58AB0C0
:10F7B00000AF144811F00CF9134B1B7883F00103D0
:10F7C000DBB2002B1AD03B1D184600F0C5F93B1DDB
:10F7D00019460E4802F07EFD78627B6A002B02D04B
:10F7E000082B0AD003E0084B01221A7006E0084AF1
:10F7F000F121786A0FF022FA00E000BF00BF28373D
:10F80000BD4680BD70200300D4270020842700203F
:10F810005C20030080B582B000AF03463960FB80F6
:10F82000FB883A68194603480FF008FA00BF08370A
:10F83000BD4680BDEFBEADDE80B58CB002AF786056
:10F840007B681B780E2B00F2D18001A252F823F0C6
:10F850008DF80100EDF9010097F80100EDF80100C5
:10F86000F7F8010015F90100CBF90100EDF90100ED
:10F8700065F90100EDF9010087F9010047F9010080
:10F88000A9F90100EDF9010057F9010060490320D1
:10F890000EF05CF8B7E07B685B88184604F08CF8E3
:10F8A00003461A467B685B8819467B681B7A00937F
:10F8B0000B46584903200EF03BF907F10B0319469C
:10F8C000554802F04BFD78627B6A3B623B6A002B35
:10F8D00005D0524A4FF49371386A0FF0AFF9FB7AB2
:10F8E000002B00F08580FFF761FF81E04C49032089
:10F8F0000EF02CF887E04B4903200EF027F8002388
:10F900003B727B685B8807F108021146184607F0D6
:10F9100031FD78E0444903200EF018F80CF0B6FEF3
:10F9200078627B6A0E2B65D07B6A082B62D07B6A7B
:10F93000FB61FB69002B5DD0384A40F24B11F8693E
:10F940000FF07CF956E0394903200DF0FFFF01204C
:10F9500000F0BEFE57E0364903200DF0F7FF07F038
:10F9600019FD50E0334903200DF0F0FF7B681B695F
:10F97000BB61BB69002B3FD0284A4FF4B071B86916
:10F980000FF05CF938E02C4903200DF0DFFF7B68B5
:10F990009B687B617B69002B30D0204A40F2671165
:10F9A00078690FF04BF929E0244903200DF0CEFFD0
:10F9B0007B689B683B613B69002B21D0174A4FF461
:10F9C000B77138690FF03AF91AE01D4903200DF0BC
:10F9D000BDFF7B689B68FB60FB68002B12D00F4A61
:10F9E00040F27511F8680FF029F90BE000BF0AE04A
:10F9F00000BF08E000BF06E000BF04E000BF02E077
:10FA000000BF00E000BF00BF2837BD4680BD00BF7B
:10FA10007C200300B8200300842700205C20030022
:10FA20000C2103003821030068210300902103000A
:10FA3000C4210300FC2103003022030060220300E4
:10FA40009022030080B588B000AF3B79012262F3B9
:10FA500003033B713B79012262F307133B71254895
:10FA600011F080F803469AB23B1D22491846FFF771
:10FA700029FEF861FB69BB61BB69002B05D01E4AFA
:10FA800040F29311B8690FF0D9F84FF44070FFF7C6
:10FA900011FEF861FB697B617B69002B05D0164A7A
:10FAA0004FF4CB7178690FF0C9F807F10803082209
:10FAB0000021184610F0F0FF10233B813C237B818E
:10FAC0000023BB814FF4C873FB8107F1080318467C
:10FAD000FFF7F4FDF861FB693B613B69002B05D042
:10FAE000054A40F29F1138690FF0A8F800BF20378F
:10FAF000BD4680BDBC2203005C20030080B584B0FD
:10FB000000AFF860B9601346FB80BB681A46044931
:10FB100003200DF061FF00BF1037BD4680BD00BF60
:10FB2000C822030080B500AF094B40F668621A6036
:10FB3000074B40F684725A60054B24229A60044BAE
:10FB400000221A73024903480EF0B4F900BF80BDC9
:10FB5000BC270020CC27002080B584B000AF78609F
:10FB60007B6800221A707B6801225A707B68012230
:10FB70009A70234923480EF0BBF9F8607B68FE2297
:10FB80001A71FA687B689A607B68FE221A73FA68B9
:10FB90001346DB0013441C4AA2FB03239B0803F516
:10FBA00048631A467B681A617B68184A143392E8E6
:10FBB000030083E803007B6804221A77134B9B79C8
:10FBC0001B33DAB2114B9A71104B9B793B2B12D934
:10FBD0000E4B9B793C3BDAB20C4B9A710B4B5B7929
:10FBE0000133DAB2094B5A71084B5B793B2B02D9CE
:10FBF000064B00225A7100BF1037BD4680BD00BFC2
:10FC0000BC270020CC270020CDCCCCCC0C2600205B
:10FC100080B582B000AF786039600A4810F0D8FE35
:10FC20003B681B78002B02D0022B03D006E0FFF7C5
:10FC3000BDFD03E0044B00221A7000BF00BF08376F
:10FC4000BD4680BDE4220300D42700200000000050
:10FC500090B59DB000AF07F150030C22002118466B
:10FC600010F01AFF624B3B65002387F859300223DE
:10FC700087F85A3097F85430012262F3030387F86B
:10FC8000543097F85430022262F3071387F8543047
:10FC900097F855306FF3030387F8553097F85530D0
:10FCA0006FF3071387F8553097F856306FF3030357
:10FCB00087F8563097F856306FF3071387F85630A9
:10FCC00097F85730012262F3030387F8573097F80B
:10FCD0005730012262F3071387F8573097F85830EE
:10FCE0006FF3030387F8583097F858306FF3071312
:10FCF00087F8583007F1500319463E4802F0A8FA39
:10FD0000F866FB6EBB66BB6E002B05D03A4A40F22C
:10FD10003721B86E0EF092FF07F110034022002148
:10FD2000184610F0B9FE07F110033449184603F0E5
:10FD300075FF07F1100308333149184603F06EFFD1
:10FD400029A4D4E90034C7E900342E4BBB603B46FC
:10FD50003B6497F84C30012262F3030387F84C3080
:10FD600097F84C30012262F3071387F84C3097F86C
:10FD70004D306FF3030387F84D3097F84D306FF334
:10FD8000071387F84D3007F11003184601F096FE6F
:10FD9000F866FB6E7B667B6E002B05D0164A40F240
:10FDA0004721786E0EF04AFF07F15C030422002120
:10FDB000184610F071FE144BFB6507F15C03194601
:10FDC000124802F0A5FCF866FB6E3B663B6E002B0A
:10FDD00005D0094A40F24F21386E0EF02FFF00BFC8
:10FDE0007437BD4690BD00BF55443322110000005A
:10FDF00011FC0100842700205C200300F422030092
:10FE00000823030088776600FDFA010068270020B8
:10FE100080B584B000AF78607B681B78002B11D16F
:10FE20000A4B1B883B211846FFF740FCF860FB6833
:10FE3000BB60BB68002B05D0054A40F26521B8685D
:10FE40000EF0FCFE00BF1037BD4680BDF825002037
:10FE50005C20030080B582B000AF7860044A4FF4A4
:10FE60001C7178680EF0EAFE00BF0837BD4680BD01
:10FE70005C20030080B58AB000AF3B1D1C2200212E
:10FE8000184610F009FE00237B604FF42033BB605E
:10FE90004FF47023FB6003233B7400237B82002319
:10FEA0003B750C4BBB610C4BFB613B1D184603F0D3
:10FEB000FFFA78627B6A3B623B6A002B05D0074AF7
:10FEC00040F28721386A0EF0B9FE00BF2837BD46E0
:10FED00080BD00BF11FE010055FE01005C20030043
:10FEE00080B582B000AF0346FB71FB79002B02D0D6
:10FEF000032B03D003E000F035FD00E000BF00BF9E
:10FF00000837BD4680BD00BF90B597B000AF7860A0
:10FF10007B681B88013B552B00F2B28101A252F88D
:10FF200023F000BFDB010200810202008102020017
:10FF300081020200810202008102020081020200AD
:10FF4000810202008102020081020200810202009D
:10FF5000810202008102020081020200810202008D
:10FF60007D000200C100020081020200D9000200EF
:10FF7000810202008102020081020200810202006D
:10FF8000810202008102020081020200810202005D
:10FF9000810202008102020081020200810202004D
:10FFA000810202000B0102008102020081020200B4
:10FFB000810202008102020081020200810202002D
:10FFC000810202008102020081020200810202001D
:10FFD000810202008102020081020200810202000D
:10FFE00081020200810202008102020081020200FD
:10FFF00081020200810202008102020081020200ED
:020000022000DC
:100000008102020081020200810202007F010200DF
:1000100081020200810202008102020081020200CC
:1000200081020200810202008102020081020200BC
:1000300081020200810202008102020081020200AC
:10004000810202008102020081020200810202009C
:10005000810202008102020081020200810202008C
:1000600081020200090202004D0102008102020029
:100070008102020081020200AD0102007B689A88C1
:100080008A4B1A808A4903200DF060FC07F1330384
:100090001946884802F062F978657B6D3B653B6DD7
:1000A000002B05D0844A4FF42D71386D0EF0C6FD3B
:1000B00097F83330002B00F0E580FFF777FBE1E0A5
:1000C0007A4B4FF6FF721A807C4B00221A707C49E3
:1000D00003200DF03BFCE4E07A4903200DF036FCF0
:1000E000724B1888002300228521FFF7EFFA78650C
:1000F0007B6DFB64FB6C002B00F0C6806E4A40F207
:10010000C721F86C0EF09AFDBEE06F4903200DF098
:100110001DFC07F1280308220021184610F0BCFC42
:100120007B689B8807F1280100221846FFF7D2FA66
:1001300078657B6DBB64BB6C002B00F0A7805E4ACA
:1001400040F2D221B86C0EF079FD9FE05F490320A8
:100150000DF0FCFB554B1888002300220021FFF70F
:10016000C1FA78657B6D7B647B6C002B00F090801E
:10017000514A40F2DA21786C0EF060FD88E0544973
:1001800003200DF0E3FB7B689B8813211846FFF7E3
:100190008DFA78657B6D3B643B6C002B7AD0464AC8
:1001A00040F2E221386C0EF049FD73E0494903202A
:1001B0000DF0CCFB7B689B8813211846FFF776FA7D
:1001C00078657B6DFB63FB6B002B65D03A4A40F290
:1001D000EA21F86B0EF032FD5EE03F4903200DF09E
:1001E000B5FB7B689B8800211846FFF783FA78658A
:1001F0007B6DBB63BB6B002B50D02F4A4FF43C711F
:10020000B86B0EF01BFD49E0344903200DF09EFB56
:100210007B6807F118040633186859689A68DB6828
:100220000FC43B7E002B3BD097F82030042B07D027
:1002300097F82030062B03D097F82030052B2FD1CC
:100240003B7E022B02D102233B7201E001233B7271
:100250004FF4C173BB817B689B8807F1080211468C
:100260001846FFF73BFA78657B6D7B637B6B002B51
:1002700016D0114A4FF44371786B0EF0DFFC0FE09B
:1002800000BF0EE000BF0CE000BF0AE000BF08E0C6
:1002900000BF06E000BF04E000BF02E000BF00E0D6
:1002A00000BF00BF5C37BD4690BD00BFF8250020F1
:1002B00018230300842700205C200300D42700209B
:1002C0003C230300642303009C230300DC2303007E
:1002D000142403004424030074240300A82403000E
:1002E00080B582B000AF786079680F4801F000FEF9
:1002F00079680E4802F0E4F9786803F00FFA78683C
:1003000003F0F6FA786806F04FFF7868FFF7FCFD17
:10031000786801F0FBF97968054803F0ABFE00BF8F
:100320000837BD4680BD00BF842700206827002015
:10033000A027002080B582B000AF786078680CF00C
:1003400087FD786801F000FA00BF0837BD4680BD20
:1003500080B590B000AF684A07F1100310681860CC
:1003600007F110000023D82264490FF0B1F8F863B8
:10037000FB6BBB63BB6B002B05D0614A4FF455711F
:10038000B86B0EF05BFC0023FB6007F10C03184612
:100390000FF05EF978637B6B3B633B6B002B05D002
:1003A000574A40F25931386B0EF048FC3B460C225C
:1003B0000021184610F070FB00233B70FA683B46A2
:1003C00019460120FFF792F978637B6BFB62FB6AA9
:1003D000002B05D04A4A40F26231F86A0EF02EFC3A
:1003E0003B460C220021184610F056FB01233B70BF
:1003F00000237B700023BB70FA683B4619464020FF
:10040000FFF774F978637B6BBB62BB6A002B05D086
:100410003B4A40F26A31B86A0EF010FC3B460C22AF
:100420000021184610F038FB01233B709E237B808F
:10043000FA683B4619462320FFF758F978637B6B2F
:100440007B627B6A002B05D02D4A40F27131786ABD
:100450000EF0F4FB3B460C220021184610F01CFB6A
:1004600001233B704FF4A073BB800123BB70FA687B
:100470003B4619462020FFF739F978637B6B3B62D6
:100480003B6A002B05D01E4A40F27931386A0EF0E3
:10049000D5FB07F10C0318460FF0EEF878637B6B81
:1004A000FB61FB69002B05D0154A40F27D31F869EC
:1004B0000EF0C4FB13480FF05FF878637B6BBB61F1
:1004C000BB69002B05D00E4A40F28131B8690EF0AD
:1004D000B5FB0D480FF066F878637B6B7B617B6939
:1004E000002B05D0064A40F2853178690EF0A6FB54
:1004F00000BF4037BD4680BDE4240300D82700205C
:100500005C200300E10202003503020080B582B0E6
:1005100000AF786039603B685A880E4B1B889A425E
:1005200014D13B681B8840F6772293420ED13B687A
:100530009B88033B9AB2084B1A80074B1B881A46CC
:10054000054B1B88054903200DF096FA00BF0837BC
:10055000BD4680BDF825002008260020E8240300C1
:1005600080B584B000AF1249124803F039FDF8603D
:10057000FB68BB60BB68002B05D00F4A40F29B3183
:10058000B8680EF05BFB40210A4803F055FDF860A7
:10059000FB687B607B68002B05D0074A40F29E31E8
:1005A00078680EF04BFB00BF1037BD4680BD00BF22
:1005B0000D050200A02700205C20030080B586B056
:1005C00000AF06F029FE78617B693B613B69002B37
:1005D00005D02E4A40F2AA3138690EF02FFB3B4677
:1005E00005220021184610F057FA3B7843F001032A
:1005F0003B703B786FF341033B703B786FF38203B2
:100600003B703B786FF3C3033B703B78032262F38C
:1006100006133B703B786FF3C7133B7007237B7067
:100620001023BB70FB7843F00103FB70FB7843F0B1
:100630000203FB703B7943F001033B713B7943F0CC
:1006400002033B713B46184606F07CFE78617B69ED
:10065000FB60FB68002B05D00C4A40F2BD31F86806
:100660000EF0ECFA0A4806F03FFE78617B69BB6049
:10067000BB68002B05D0054A4FF47071B8680EF0C6
:10068000DDFA00BF1837BD4680BD00BF5C20030007
:1006900039F8010080B582B000AF0B4903200DF09E
:1006A00055F906F0A1FE78607B683B603B68002B43
:1006B00005D0064A4FF4737138680EF0BFFA00BFD8
:1006C0000837BD4680BD00BF182503005C2003002D
:1006D00080B584B000AF0346FB71FB79002B02D0DC
:1006E000FFF7D8FF0EE0032000F026FFF860FB685C
:1006F000BB60BB68002B05D0044A40F2DB31B86810
:100700000EF09CFA00BF1037BD4680BD5C20030090
:1007100080B5AAB002AF07F15C033C220021184665
:1007200010F0BAF9022387F85C30002387F85E30B6
:10073000062387F85F300323A7F86C301D4B3B6717
:1007400007F120033C220021184610F0A5F90323ED
:100750003B86184B7B633B4620220021184610F055
:100760009BF90123FB7040233B6100237B613A46E8
:1007700007F1200107F15C00002300930E4B00F00D
:10078000D5FDC7F89C00D7F89C30C7F89830D7F84B
:100790009830002B06D0094A40F2FE31D7F8980075
:1007A0000EF04CFA012000F0B1FD00BFA037BD46AD
:1007B00080BD00BFFC250020E1FE01005C2003009D
:1007C00080B582B000AF78607B681B681F2B04D9AE
:1007D00005494FF4E870FFF71DF84FF0A0431846A5
:1007E0000837BD4680BD00BF3825030080B584B002
:1007F00000AF7860084611461A460346FB700B4668
:10080000BB7013467B703B1D1846FFF7D9FFF8609D
:100810007A68F978BB785B0019437B789B001943B1
:100820003B7E1B0219433B7F1B041943FB6802F507
:10083000E07243F8221000BF1037BD4680BD00BFF4
:1008400080B584B002AF7860002301930023009349
:100850000023012201217868FFF7C8FF00BF083795
:10086000BD4680BD80B584B002AF78600B46FB709A
:10087000FA780023019300230093134600220021FD
:100880007868FFF7B3FF00BF0837BD4680BD00BFE3
:1008900080B584B000AF78603B1D1846FFF790FF2D
:1008A000F8607B68012202FA03F31946F86800F049
:1008B0001BF800BF1037BD4680BD00BF80B584B0B7
:1008C00000AF78603B1D1846FFF77AFFF8607B6841
:1008D000012202FA03F31946F86800F015F800BF88
:1008E0001037BD4680BD00BF80B483B000AF7860D4
:1008F00039607B683A68C3F8082500BF0C37BD46ED
:100900005DF8047B704700BF80B483B000AF7860AF
:1009100039607B683A68C3F80C2500BF0C37BD46C8
:100920005DF8047B704700BF32DF704700BF184698
:100930003EDF704700BF184680B582B000AFFFF7BA
:10094000F7FF78607B683B603B68002B04D0044A6B
:10095000342138680EF072F900BF0837BD4680BDFB
:100960009825030080B582B000AF0B20FFF7A6FFEB
:10097000FFF7DAFF78607B683B603B68002B04D0B0
:10098000044A432138680EF059F900BF0837BD46C4
:1009900080BD00BF982503002DE9F0438BB000AF68
:1009A00078606B461E4600237B625E4A07F11003A7
:1009B00092E8030018600433198002330A0C1A709D
:1009C000594A07F1080392E80300186004331980BC
:1009D00002330A0C1A7007F11003184610F0C2F81F
:1009E00001460B46013B3B620A464FF000034FEACB
:1009F000C30949EA52794FEAC2080A464FF0000398
:100A0000DD0045EA5275D400CB1DDB08DB00ADEB01
:100A1000030D6B460033FB610820FFF739FF7B684D
:100A2000424A934211D1FC6907F11003184610F0B5
:100A300099F8024607F110031946204610F021F8F4
:100A40001C2178680FF0A6FB24E07B68384A9342AB
:100A500011D1FC6907F10803184610F083F802462B
:100A600007F108031946204610F00BF81D2178689D
:100A70000FF090FB0EE02F4903200CF067FF00BF42
:100A80000DF0D0F80346002BFAD10820FFF716FF2F
:100A9000002341E078680FF08DFB0346002B2BD03C
:100AA000FB691A46244903200CF096FFFB691A469D
:100AB000224903200CF090FF002178680FF0A8FA7B
:100AC00078627B6A002B06D0FB691A467B6A1C4958
:100AD00003200CF0D1FF7B6ABB61BB69002B04D003
:100AE000184AC021B8690EF0A9F8FB691A461649E0
:100AF00003200CF071FF05E0FB691A46134903203F
:100B00000CF06AFF00BF0DF08DF80346002BFAD100
:100B10000820FFF7D3FE0123B546012B2C37BD4635
:100B2000BDE8F0832827030030270300F4450020A8
:100B3000F8450020342603006426030094260300B1
:100B4000B826030098250300DC260300FC260300DA
:100B500080B582B000AF7860396078680FF066FBCE
:100B600000BF0837BD4680BD80B582B000AF786059
:100B7000044903200CF0EAFE0FF072FB00BF0837B7
:100B8000BD4680BD3827030080B582B000AF0A4B58
:100B9000002240F2666118460DF0F8FF78607B682D
:100BA000002B04D0054AEE2178680EF047F800BF0C
:100BB0000837BD4680BD00BFD0280020982503001F
:100BC00080B582B000AF084B18460EF013F878607D
:100BD0007B68002B04D0054AF32178680EF02EF8CC
:100BE00000BF0837BD4680BDD028002098250300EF
:100BF00080B588B000AF1B4A00211B480DF092FF62
:100C0000F861FB69002B04D0184AFD21F8690EF049
:100C100015F83B1D00221A605A609A60DA601B23A7
:100C20007B601A23BB604FF0CC73FB6002233B74E4
:100C3000391D00230E4A0F4809F060FBB861BB69FB
:100C40007B617B69002B05D0084A40F20911786965
:100C50000DF0F4FF074809F0DFFB00BF2037BD4669
:100C600080BD00BF690B0200D82703009825030050
:100C7000510B0200DC270300F0B585B000AF7860AF
:100C80000B20FFF705FE144E7B681A464FF0000359
:100C9000DD0345EA5245D40314F5FA7045F100012D
:100CA0004FF47A724FF0000310F0D4FF03460C4665
:100CB0000022194630460DF069FFF860FB68002BF2
:100CC00005D0064A40F26511F8680DF0B7FF00BF85
:100CD0001437BD46F0BD00BFB028002098250300A2
:100CE00080B582B000AF78600B20FFF7E7FD00BF52
:100CF0000837BD4680BD00BF80B592B000AF7860B8
:100D00000B46FB700023FB720820FFF7C1FD07F1C3
:100D10000B031A460C2157480FF072FA78647B6C6B
:100D2000002B05D0544A4FF4BE71786C0DF086FF4D
:100D300000233B73FB7A03F02003002B19D007F14B
:100D40000B031A461E214B480FF05AFA38643B6CCD
:100D5000002B05D0484A40F28311386C0DF06EFF2D
:100D6000FB7A1A4607F10C03444918460FF0CEFEF1
:100D70005BE0FB7A03F01003002B19D007F10B03A3
:100D80001A4610213B480FF03BFAF863FB6B002B2F
:100D900005D0394A4FF4C471F86B0DF04FFFFB7A60
:100DA0001A4607F10C03364918460FF0AFFE3CE037
:100DB000FB7A03F00803002B19D007F10B031A4646
:100DC00022212C480FF01CFAB863BB6B002B05D016
:100DD000294A40F28D11B86B0DF030FFFB7A1A46AC
:100DE00007F10C03274918460FF090FE1DE0FB7A2F
:100DF00003F00403002B18D007F10B031A46162149
:100E00001C480FF0FDF978637B6B002B05D01A4A64
:100E10004FF4C971786B0DF011FFFB7A1A4607F198
:100E20000C03194918460FF071FE0820FFF746FD24
:100E30003B7B002B13D007F10C031A461349032008
:100E40000CF0CAFD07F10C0318460FF08BFE0346A9
:100E50009AB207F10C0311461846FEF77BFC00BF5F
:100E60000CF0E0FE0346002BFAD100BF4837BD4628
:100E700080BD00BFF44500209825030058270300DB
:100E8000702703008C270300A0270300BC27030062
:100E900080B586B000AF08F0C1FC78617B69002B9B
:100EA00005D0304A4FF4D27178690DF0C7FE0720A3
:100EB000FFF7C6FC0720FFF7EBFC0820FFF7C0FC9C
:100EC0000820FFF7FBFC0B20FFF7BAFC0C20FFF714
:100ED000B7FC0B20FFF7F2FC0C20FFF7EFFC224AD7
:100EE000002122480DF01EFE38613B69002B05D021
:100EF0001C4A40F2B51138690DF0A0FE0021052012
:100F0000FFF7B0FC00210620FFF7ACFC03233B7188
:100F100000237B710023BB710023FB713B1D144A2E
:100F20001946052008F0BAFCF860FB68002B05D0D4
:100F30000C4A4FF4DE71F8680DF080FE3B1D0C4A40
:100F40001946062008F0AAFCB860BB68002B05D043
:100F5000044A40F2BD11B8680DF070FE00BF1837AA
:100F6000BD4680BD98250300E10C0200D427030094
:100F7000F90C020080B500AF0121052008F0F2FC59
:100F80000121062008F0EEFC00BF80BD73DF704732
:100F900000BF184680B400AF034B1B781846BD460F
:100FA0005DF8047B704700BFC629002080B485B07F
:100FB00000AF78600023FB600AE07A68FB681344A6
:100FC0001B78002B01D0012306E0FB680133FB6096
:100FD000FB68052BF1D9002318461437BD465DF890
:100FE000047B704780B483B000AF0346FB71FB798C
:100FF0005A1C084B83FB02135910D317C91A0B460E
:101000009B000B44D11ACBB218460C37BD465DF895
:10101000047B70476766666680B483B000AF786013
:101020007B68DB7B012B03D17B689A88034B1A809A
:1010300000BF0C37BD465DF8047B7047B82900201F
:1010400080B584B000AF78600D4B00221A707B68C9
:101050009A880C4B1B889A420ED1012000F06CFA42
:10106000F860FB68002B07D0074B1B68002B03D0F0
:10107000054B1B68F868984700BF1037BD4680BD18
:10108000C4290020B8290020C029002080B584B0E0
:1010900000AF78607B681B7A002B15D10C4B1B7856
:1010A0001846FFF79FFF0346184600F045FAF86020
:1010B000FB68002B09D0074B1B68002B05D0054BA4
:1010C0001B68F868984700E000BF1037BD4680BD38
:1010D000F3280020C029002080B582B000AF3B1D5E
:1010E00018460BF09FFE7B68002B14BF01230023E2
:1010F000DBB218460837BD4680BD00BF80B584B05E
:1011000000AF0346FB711C48FFF750FF0346FB731B
:10111000FB79013B032B29D801A252F823F000BF31
:101120003111020043110200551102006111020049
:10113000124B5B78002B04D0FB7B002B01D00123EA
:1011400015E00E4B9B78002B04D0FB7B002B01D0CD
:1011500002230CE0094BDB78002B01D0032306E0CF
:10116000064B1B79002B01D0042300E00023184616
:101170001037BD4680BD00BF19290020F42800208B
:1011800080B483B000AF78600A4B01221A707B688C
:10119000094A5A607B6801221A707B6800229A8192
:1011A0007B6800225A81002318460C37BD465DF843
:1011B000047B7047F22800201829002080B483B0F7
:1011C00000AF78600C4B02221A707B680B4A5A60A1
:1011D0007B6801221A700A4BDB689AB27B689A819D
:1011E000074B9B689AB27B685A81002318460C37DC
:1011F000BD465DF8047B7047F228002018290020C6
:10120000F428002080B584B000AF78601A4B1B69C9
:101210009AB27B685A81184B5B699AB27B689A8153
:10122000154B1B78002B1FD0144B1B7883F0010348
:10123000DBB2002B18D0FFF7ADFE0346002B13D016
:101240007B6802221A720E4B0422DA7000210C48CD
:1012500002F048F8F860FB68002B01D0FB6807E05B
:10126000084B05221A7002E0064B03221A70002375
:1012700018461037BD4680BDF4280020C429002040
:1012800020290020F228002080B584B000AF7860CB
:101290001A4B9B699AB27B685A81184BDB699AB2E8
:1012A0007B689A81154B1B78002B1FD0144B1B7841
:1012B00083F00103DBB2002B18D0FFF76BFE03466F
:1012C000002B13D07B6802221A720E4B0422DA70B4
:1012D00000210C4802F006F8F860FB68002B01D0F2
:1012E000FB6807E0084B06221A7002E0064B042256
:1012F0001A70002318461037BD4680BDF428002020
:10130000C429002020290020F228002080B483B0C6
:1013100000AF0346FB71044AFB79137000BF0C3722
:10132000BD465DF8047B704714290020B0B588B035
:1013300000AFF860B9607A603B60FB68002B02D0B8
:101340007B68002B01D10E23D5E06D4B01221A7072
:101350006C4B00221A706C4A7B6814461D460FCDF8
:101360000FC495E80F0084E80F00684B00221A7044
:10137000674A3B681360674A3B6B1360664B4FF6E6
:10138000FF721A800722002164480FF085FB3C227F
:10139000002163480FF080FBFB681A78604B1A70DD
:1013A000FB689A785E4B9A70FB68DA785C4BDA706F
:1013B000FB685A785A4B5A70594BFA6810331032FE
:1013C00092E8030083E80300554BFA6808330832BB
:1013D00092E8030083E80300514BFA68183318328F
:1013E00092E8030083E80300FB685B6A002B29D0C6
:1013F0004B4B4C4A5A624B4B4B4A9A60484B5B6A88
:10140000FA68526A12881A80454B5B6AFA68526A17
:1014100092889A800023FB610DE0FB685B6A9A6802
:10142000FB6913441978404AFB6913440A461A7051
:10143000FB690133FB613A4B5B6A9B881A46FB6987
:101440009A42EAD8FB689B6A002B33D0374B384A64
:101450009A60334B354A9A62314B9B6A344A9A60A0
:101460002F4B9B6AFA68926A92889A802C4B9B6AEF
:10147000FA68926A12881A800023BB610DE0FB684B
:101480009B6A9A68BB6913441978294ABB6913445B
:101490000A461A70BB690133BB61214B9B6A9B886A
:1014A0001A46BB699A42EAD8FB6893F82C201C4B79
:1014B00083F82C20FB681B6A002B0ED0184B1D4AAA
:1014C0001A62174B1B6AFA68126A52885A80144BC8
:1014D0001B6AFA68126A12881A80FB685B68002B24
:1014E00003D0FB685B680E4A5360B9680C4801F092
:1014F000F9FE78617B6918462037BD46B0BD00BF54
:10150000F0280020F3280020F428002014290020CF
:10151000BC290020C0290020B8290020182900205B
:10152000202900205C29002068290020882900202B
:1015300094290020B429002080B588B000AF03466C
:10154000FB71664B1B7883F00103DBB2002B01D0EB
:101550000823BFE0624AFB791370FFF7BDFD034625
:10156000002B04D05F4B01221A700023B2E0072247
:1015700000215D480FF090FA5C4B5B78002B03D0A4
:10158000574B1B78012B0FD0584B9B78002B03D067
:10159000534B1B78012B07D0544B9B78002B12D058
:1015A0004F4B1B78022B0ED1514B1B68002B07D0E1
:1015B000504B01221A704E4B1B680820984702E0DE
:1015C0004C4B00221A70FB791846FFF797FD034633
:1015D0001A46434B1A70464B1B68002B1DD0404BDC
:1015E0001B78032B03D03E4B1B78042B15D13F4BAC
:1015F0001B78002B11D0404B1B7883F00103DBB22A
:10160000002B0AD03D4B00221A703D4B01221A706C
:10161000374B1B680720984702E0394B00221A70AD
:1016200007F10C031022002118460FF035FA0023B1
:101630003B7300233B752A4B1B78042B2CD801A24B
:1016400052F823F0911602005916020067160200A4
:10165000751602008316020007F10C031846FFF707
:101660008FFDF86119E007F10C031846FFF7A6FD9E
:10167000F86112E007F10C031846FFF7C3FDF861AB
:101680000BE007F10C031846FFF7FEFDF86104E0DC
:101690001C4B00221A7000E000BF114B1B78002B7E
:1016A0000DD0194B1A7807F10C0311461846FFF7B5
:1016B0006DFCF861FB69002B01D0FB690AE00C4B63
:1016C0001B68002B05D00A4B1B680E4A1278104687
:1016D0009847002318462037BD4680BDF0280020DB
:1016E000F3280020F128002018290020F4280020E9
:1016F000BC2900201F290020C4290020C629002061
:10170000C5290020F22800201429002080B582B0CD
:1017100000AF78607B681B88112B08D01B2B0AD088
:10172000102B00D00BE07868FFF776FC07E07868B4
:10173000FFF786FC03E07868FFF7A8FC00BF00BF56
:101740000837BD4680BD00BF80B584B000AF78606B
:101750007B68023B012B18D80F4B1B78002B16D04F
:101760000D4B00221A700D4B1B781846FFF7E4FE54
:10177000F860FB68002B0AD0094B1B68002B06D0D1
:10178000074B1B68F868984701E000BF00E000BF06
:1017900000BF1037BD4680BDF1280020F32800208F
:1017A000C029002080B483B000AF03463960FB80BD
:1017B000FB88DAB23B681A703B680133FA88120A78
:1017C00092B2D2B21A70022318460C37BD465DF8A9
:1017D000047B7047A0DF704700BF1846A2DF704748
:1017E00000BF18462DE9B04F86B000AFF860B96071
:1017F000BB68002B14BF01230023DBB27B617B6934
:10180000002B04D1324A4D2100200DF017FAFB685D
:10181000002B14BF01230023DBB23B613B69002B8B
:1018200004D12B4A4E2100200DF008FABB68D3E901
:101830000023D2B2FB681A70FB68591CBB68D3E95D
:1018400000234FEA122A4AEA036A4FEA132B5FFA8F
:101850008AF30B70FB68991CBB68D3E900234FEA3D
:10186000124848EA03484FEA13495FFA88F30B70BD
:10187000FB68D91CBB68D3E90023140E44EA032497
:101880001D0EE3B20B70FB681A1DBB68D3E9003470
:1018900023003B6000237B603B781370FB680533BB
:1018A000BA689268D2B21A70FB680633BA68926856
:1018B000120AD2B21A70FB680733BA689268120C27
:1018C000D2B21A7000BF1837BD46BDE8B08F00BF56
:1018D000E427030080B586B000AF7860396000234C
:1018E000FB753B68002B14BF01230023DBB23B6177
:1018F0003B69002B04D12B4A652100200DF09EF995
:101900007B68002B14BF01230023DBB2FB60FB6864
:10191000002B04D1234A662100200DF08FF9FB7DB6
:101920005A1CFA751A467B6813443A6812781A7082
:101930003B685888FB7D7A6813441946FFF732FFED
:1019400003461A46FB7D1344FB753B689888FB7D74
:101950007A6813441946FFF725FF03461A46FB7DB4
:101960001344FB753B68D888FB7D7A68134419469D
:10197000FFF718FF03461A46FB7D1344FB75FB7DFA
:10198000072B0CBF01230023DBB2BB60BB68002B1D
:1019900004D1044A6E2100200DF050F900BF183721
:1019A000BD4680BDE427030080B594B000AFB960A8
:1019B0007B600346FB811346BB81BB68002B14BFD1
:1019C00001230023DBB2FB64FB6C002B04D1394AFA
:1019D000872100200DF032F9BB89002B14BF0123B1
:1019E0000023DBB2BB64BB6C002B04D1314A8821DD
:1019F00000200DF023F907F128031C2200211846CE
:101A00000FF04AF897F8283043F0020387F828309F
:101A10000023FB6200237B630023BB630023FB6383
:101A200000233B64012387F84630FB89A7F8443044
:101A300007F110030322002118460FF02DF87B68F0
:101A40001B783B747B685B787B74BB7C012262F300
:101A50004203BB74BB7C6FF3C303BB74BB7C6FF3EB
:101A60000413BB74BB7C6FF30003BB7407F1140356
:101A70001422002118460FF00FF807F144037B6190
:101A800007F11003BB61BB89BB830023FB83BB89C8
:101A90003B84BB687B62084B188807F1140207F18E
:101AA0002801BB6DFFF79AFE034618465037BD4626
:101AB00080BD00BFE4270300C829002080B58AB09C
:101AC00002AF78600123BB7641F60A033B8307F13E
:101AD00018037C4A19460120FFF77CFEF861FB6978
:101AE000002B01D0FB69E9E07B681B88002B13D039
:101AF0007B6859687B681A887B6803F13C00724BED
:101B00000093034642F62920FFF74EFFF861FB6978
:101B1000002B01D0FB69D1E07B681B89002B13D01F
:101B20007B68D9687B681A897B6803F13C00674B46
:101B30000093034642F62420FFF736FFF861FB6965
:101B4000002B01D0FB69B9E07B681B8A002B13D006
:101B50007B6859697B681A8A7B6803F13C005C4B9F
:101B60000093034642F62520FFF71EFFF861FB694C
:101B7000002B01D0FB69A1E07B681B8B002B13D0ED
:101B80007B68D9697B681A8B7B6803F13C00514BF9
:101B90000093034642F62720FFF706FFF861FB6932
:101BA000002B01D0FB6989E07B681B8C002B13D0D4
:101BB0007B68596A7B681A8C7B6803F13C00464B52
:101BC0000093034642F62620FFF7EEFEF861FB691C
:101BD000002B01D0FB6971E07B681B8D002B13D0BB
:101BE0007B68D96A7B681A8D7B6803F13C003B4BAC
:101BF0000093034642F62820FFF7D6FEF861FB6902
:101C0000002B01D0FB6959E07B681B6B002B1AD0BD
:101C10007B681A6B07F1100311461846FFF7E2FDC7
:101C20007B6803F13C0207F110012D4B0093134632
:101C3000082242F62320FFF7B7FEF861FB69002B6C
:101C400001D0FB693AE07B685B6B002B16D07B68A8
:101C50005B6B19687B685B6B1B799AB27B6803F1DD
:101C60003C00204B0093034642F62A20FFF79CFEDF
:101C7000F861FB69002B01D0FB691FE07B689B6B5F
:101C8000002B1AD07B689A6B07F10803114618469F
:101C9000FFF720FE7B6803F13C0207F10801124BBD
:101CA00000931346072242F65020FFF77DFEF861AD
:101CB000FB69002B01D0FB6900E0002318462037A8
:101CC000BD4680BDC8290020CC290020D429002091
:101CD000DC290020E4290020EC290020F429002040
:101CE000FC290020042A00200C2A002080B483B0A4
:101CF00000AF03463960FB80FB88DAB23B681A709C
:101D00003B680133FA88120A92B2D2B21A700223E7
:101D100018460C37BD465DF8047B704780B483B02D
:101D200000AF786039607B68DAB23B681A703B6854
:101D300001337A68120AD2B21A703B6802337A68A9
:101D4000120CD2B21A703B6803337A68120ED2B208
:101D50001A70042318460C37BD465DF8047B7047A3
:101D6000A0DF704700BF1846A2DF704700BF1846CB
:101D7000A5DF704700BF1846A6DF704700BF1846B2
:101D800080B584B000AF786039607B681B883968A3
:101D90001846FFF7ABFF0346FB73FB7B5A1CFA7335
:101DA0001A463B6813447A6892781A70FB7B5A1C77
:101DB000FA731A463B6813447A68D2781A70FB7B30
:101DC0005A1CFA731A463B6813447A6812791A70DF
:101DD000FB7B5A1CFA731A463B6813447A685279A3
:101DE0001A70FB7B5A1CFA731A463B6813447A68D4
:101DF00092791A70FB7B18461037BD4680BD00BF34
:101E000080B483B000AF786039603B689A887B68A3
:101E1000DA8200BF0C37BD465DF8047B704700BF17
:101E200080B483B000AF786039607B684FF6FF7292
:101E3000DA8200BF0C37BD465DF8047B704700BFF7
:101E400080B584B000AF786039603B685B89022B55
:101E500017D17B681B68002B13D03B680C331846E6
:101E600001F0C6FE0346002B02D000233B7301E0C5
:101E700001233B737B681B6807F10C0211467868ED
:101E8000984700BF1037BD4680BD00BF80B584B005
:101E900000AF786039603B680633FB60FB681A88E6
:101EA0007B685B899A4203D1F9687868FFF7C8FFBD
:101EB00000BF1037BD4680BD80B584B000AF7860EC
:101EC00039603B680633FB60FB681A887B68DB88F7
:101ED0009A4208D102233B727B681B6807F1080213
:101EE00011467868984700BF1037BD4680BD00BFD7
:101EF00080B582B000AF786039603B681B88112BD9
:101F00000ED0112B02DC102B05D018E0502B0CD07A
:101F1000532B0FD013E039687868FFF771FF0EE09C
:101F200039687868FFF77CFF09E039687868FFF75F
:101F3000ADFF04E039687868FFF7BEFF00BF00BF5F
:101F40000837BD4680BD00BF80B586B000AFF860E1
:101F5000B9607A600023FB750123BB75BB681B78F1
:101F6000002B03D0FB7D43F00103FB75BB685B785E
:101F7000002B03D0FB7D43F00203FB75BB681B788D
:101F8000002B0FD0FB7D43F00103FB75BB6893F979
:101F90000C301B061A46BB681B6923F07F431343B2
:101FA0003B610AE0BB6893F904301B061A46BB6824
:101FB0009B6823F07F4313433B61BB7D7A681344E6
:101FC00019463869FFF7AAFE03461A46BB7D13443B
:101FD000BB75BB685B78002B11D0FB7D43F002031F
:101FE000FB75BB6803F11400BB7D7A681344194686
:101FF000FFF7C6FE03461A46BB7D1344BB75BB689C
:102000009B78002B0CD0FB7D43F00403FB75BB7D5C
:102010005A1CBA751A467B681344BA68127F1A7044
:102020007B68FA7D1A70BB7D18461837BD4680BDA7
:1020300080B59EB000AF7860396007F15803032285
:10204000002118460EF028FD97F85830012262F35F
:10205000030387F8583097F85830012262F30713CA
:1020600087F8583097F85A30012262F3420387F814
:102070005A303B681B7987F8593007F15C031C2202
:10208000002118460EF008FD97F85C3043F020035D
:1020900087F85C3000233B660023BB660023FB66A9
:1020A00007F158033B6700237B67012387F8423021
:1020B00042F61C23A7F8403007F13C03032200211D
:1020C00018460EF0E9FC97F83E30012262F3420315
:1020D00087F83E303B685B7987F83C303B689B79FA
:1020E00087F83D3097F83E306FF3C30387F83E30F2
:1020F00097F83E306FF3041387F83E3097F83E3080
:1021000043F0010387F83E3007F144031422002115
:1021100018460EF0C1FC07F11C03202200211846CE
:102120000EF0BAFC07F140037B6407F13C03BB648B
:1021300007F1080207F11C0319467868FFF704FF4E
:1021400003469BB2A7F84C300023A7F84E30142367
:10215000A7F8503007F108037B657B6898887B6897
:10216000063307F1440207F15C01FFF7FDFD03466A
:1021700018467837BD4680BD80B592B000AF786014
:10218000396007F128031C22002118460EF084FC58
:1021900097F8283043F0020387F828300023FB62C9
:1021A00000237B630023BB630023FB6300233B64AA
:1021B0000123BB7442F61D233B8207F10C0303226B
:1021C000002118460EF068FCBB7B012262F342033B
:1021D000BB733B68DB793B733B681B7A7B73BB7BD0
:1021E0006FF3C303BB73BB7B6FF30413BB73BB7B86
:1021F0006FF30003BB7307F1140314220021184688
:102200000EF04AFC3B689B7A87F8473097F84730D6
:102210003B7207F110037B6107F10C03BB610123E3
:10222000BB830023FB8301233B8407F108037B620C
:102230007B6898887B680E3307F1140207F1280148
:10224000FFF792FD034618464837BD4680BD00BFE4
:1022500080B584B000AF786039603B681A687B68ED
:102260001A607B684FF6FF72DA823B689A7A7B6865
:102270001A760123BB7241F609033B817B681A1D64
:1022800007F1080319460120FFF76AFDF860FB68B3
:10229000002B01D0FB6818E039687868FFF7C8FEAA
:1022A000F860FB68002B01D0FB680EE03B685B7AAE
:1022B000002B09D039687868FFF75EFFF860FB688B
:1022C000002B01D0FB6800E0002318461037BD4604
:1022D00080BD00BF80B58EB000AF786039607B688C
:1022E000DB8A4FF6FF72934231D007F11C031A4686
:1022F00039687868FFF728FE03467B867B8E7B83F0
:1023000007F108031022002118460EF0C5FB7B6878
:10231000DB883B810223BB720023BB8107F11A03D8
:102320003B6107F11C037B617B68DB8A07F10802D4
:1023300011461846FFF720FD78637B6B002B08D110
:102340007B8B7A8E9A4204D00C237B6301E00823B6
:102350007B637B6B18463837BD4680BD80B586B041
:1023600000AF7860396007F10803082200211846A1
:102370000EF092FB02233B8100237B8107F11003C7
:10238000FB607B68D88A7B685B8907F10802194685
:10239000FFF7EEFC78617B69002B08D107F1100391
:1023A000184601F025FC03461A463B681A707B6903
:1023B00043F20142934204D13B6800221A70002389
:1023C00000E07B6918461837BD4680BDA0DF704726
:1023D00000BF1846A2DF704700BF1846A6DF70474F
:1023E00000BF184662DF704700BF184680B483B054
:1023F00000AF786039603B689A887B689A8200BF3A
:102400000C37BD465DF8047B704700BF80B483B0D5
:1024100000AF786039607B684FF6FF729A8200BF28
:102420000C37BD465DF8047B704700BF80B584B0B3
:1024300000AF786039603B680633FB60FB681A8840
:102440007B681B899A4213D1FB685B89022B0FD1F1
:10245000FB680C33184601F0B5FB0346002B03D094
:102460007B6801229A7517E07B6800229A7513E059
:10247000FB681A887B689B899A420DD17B689B69AF
:10248000002B09D07B689B69FA6802F10C01FA689D
:10249000528978689847FFE700BF1037BD4680BD76
:1024A00080B592B000AF7860396007F1280303224D
:1024B000002118460EF0F0FA97F82830012262F356
:1024C000030387F8283097F82830012262F30713B6
:1024D00087F8283097F82930012262F3030387F840
:1024E000293097F82930012262F3071387F8293041
:1024F00097F82A30012262F3420387F82A3007F165
:102500002C031C22002118460EF0C6FA97F82C3036
:1025100043F0100387F82C3000233B630023BB6398
:102520000023FB6307F128033B6400237B647B6883
:102530001B78BB7403233B8207F10C0303220021A9
:1025400018460EF0A9FA3B7B012262F303033B73AA
:102550003B7B012262F307133B737B7B012262F317
:1025600003037B737B7B012262F307137B73BB7BCB
:10257000012262F34203BB73BB7B6FF3C303BB73E4
:10258000BB7B6FF30413BB73BB7B43F00103BB73D3
:1025900007F114031422002118460EF07DFA07F10A
:1025A00010037B6107F10C03BB610123BB83002394
:1025B000FB839B233B847B6858887B68043307F14B
:1025C000140207F12C01FFF705FF034618464837B0
:1025D000BD4680BD80B590B000AF7860396007F12E
:1025E00024031C22002118460EF056FA97F82430D6
:1025F00043F0080387F8243097F8243043F00403AD
:1026000087F824300023BB6200233B6300237B63F5
:102610000023BB630023FB637B681B78BB7302232F
:10262000BB8107F108030322002118460EF034FA9B
:102630003B7A012262F303033B723B7A012262F38D
:1026400007133B727B7A012262F303037B727B7A6E
:10265000012262F307137B72BB7A012262F3420309
:10266000BB72BB7A6FF3C303BB72BB7A6FF3041305
:10267000BB72BB7A43F00103BB7207F11003142253
:10268000002118460EF008FA07F10C033B6107F130
:1026900008037B6101233B8300237B839B23BB8354
:1026A0007B6858887B680C3307F1100207F124011E
:1026B000FFF790FE034618464037BD4680BD00BF79
:1026C00080B582B000AF786039607B68002B1AD08B
:1026D0003B68002B17D03B681B88112B09D0502B6F
:1026E0000CD0102B00D00FE039687868FFF77EFE21
:1026F0000AE039687868FFF789FE05E0396878688C
:10270000FFF794FE00E000BF0837BD4680BD00BF64
:1027100090B589B000AF786039602B4B07F10804A1
:10272000186859689A68DB680FC47B68002B01D170
:102730000E2344E03B68002B01D10E233FE07B6871
:102740004FF6FF729A823B681A687B689A617B68D1
:1027500000229A757A6807F1080311461846FFF7B8
:1027600041FEF861FB69002B01D0FB6927E07B6823
:102770001B78BB7601233B837B689A1C07F1180307
:1027800019460120FFF722FEF861FB69002B01D0FA
:10279000FB6914E039687868FFF71CFFF861FB6992
:1027A000002B01D0FB690AE039687868FFF778FEF2
:1027B000F861FB69002B01D0FB6900E0002318469B
:1027C0002437BD4690BD00BF3828030080B588B0CF
:1027D00000AFF860B9601346FB80FB68002B01D1A5
:1027E0000E232CE0FB689B8A4FF6FF72934206D0C3
:1027F000FB689B7D83F00103DBB2002B01D0082333
:102800001DE0FB889B2B01D9072318E007F110037B
:102810001022002118460EF03FF9FB689B883B828E
:10282000BB68FB61BB1DBB610123BB74FB689B8A5A
:1028300007F1100211461846FFF7D0FD034618466F
:102840002037BD4680BD00BF6DDF704700BF184612
:1028500072DF704700BF184679DF704700BF184627
:102860007DDF704700BF184664DF704700BF184621
:1028700080B483B000AF03463960FB80FB88DAB2D6
:102880003B681A703B680133FA88120A92B2D2B2DE
:102890001A70022318460C37BD465DF8047B70475A
:1028A00080B588B000AFF860B9601346FB80BB68A4
:1028B0001B8803F10902FB889A4201D90C2352E0DC
:1028C00007F114031846FFF7BFFFF861FB69002BFF
:1028D00001D0FB6947E0BB681B881A46FB681344BC
:1028E00008221A70BB681B8801339AB2BB681A8031
:1028F000BB681B881A46FB6813441B221A70BB680E
:102900001B8801339AB2BB681A80BB681B881A46C1
:10291000FB68981807F114030133062219460EF0DC
:10292000B0F8BB681B8806339AB2BB681A803B7D3F
:1029300023F00103DBB2002B07D1BB681B881A46CA
:10294000FB68134400221A7006E0BB681B881A4615
:10295000FB68134401221A70BB681B8801339AB2CA
:10296000BB681A80002318462037BD4680BD00BFD3
:1029700080B588B000AFF860B9607A607B80FB6892
:102980001B78012B05D1FB685B78002B01D1072355
:1029900077E07B681B889A1C7B889A420DD8FB687D
:1029A0001B78012B0BD17B681B881A46FB685B7870
:1029B00013449A1C7B889A4201D90C2361E07B68FE
:1029C0001B887A88D31A9BB2023BBB83BB8BFB82EA
:1029D0007B681B880233BA68134407F1160211465C
:1029E0001846FFF73DFFB861BB69002B01D0BB69FA
:1029F00047E0FB681B78022B06D1FB8ABA8B9A4210
:102A000002D30923FB7712E00823FB77FB681B78CE
:102A1000012B0AD1FB685B789BB2BA8B9A4204D334
:102A2000FB685B789BB2FB8201E0BB8BFB82FB8A7D
:102A3000FE2B01D90C2324E07B681B881A46BB6857
:102A40001344FA8AD2B20132D2B21A707B681B8860
:102A500001339AB27B681A807B681B881A46BB6870
:102A60001344FA7F1A707B681B8801339AB27B6823
:102A70001A807B681A88FB8A13449AB27B681A8092
:102A8000002318462037BD4680BD00BF80B586B004
:102A900000AFF860B9601346FB80BB681B881A1D45
:102AA000FB889A4201D90C2338E007F1120318463B
:102AB000FFF7D2FE78617B69002B01D07B692DE0A6
:102AC000BB681B881A46FB68134403221A70BB6854
:102AD0001B8801339AB2BB681A80BB681B881A46F0
:102AE000FB68134419221A70BB681B8801339AB221
:102AF000BB681A807A8ABB681B881946FB680B443E
:102B000019461046FFF7B4FE03461946BB681A88FB
:102B10008BB213449AB2BB681A8000231846183748
:102B2000BD4680BD80B485B000AFB9607A601A46FA
:102B30000346FB731346BB817B681B88DA1CBB8989
:102B40009A4201D90C2327E07B681B881A46BB6890
:102B5000134402221A707B681B8801339AB27B6887
:102B60001A807B681B881A46BB68134401221A70BE
:102B70007B681B8801339AB27B681A807B681B884C
:102B80001A46BB681344FA7B1A707B681B880133B2
:102B90009AB27B681A80002318461437BD465DF848
:102BA000047B704780B485B000AFB9607A601A4684
:102BB0000346FB731346BB817B681B88DA1CBB8909
:102BC0009A4201D90C2327E07B681B881A46BB6810
:102BD000134402221A707B681B8801339AB27B6807
:102BE0001A807B681B881A46BB6813440A221A7035
:102BF0007B681B8801339AB27B681A807B681B88CC
:102C00001A46BB681344FA7B1A707B681B88013331
:102C10009AB27B681A80002318461437BD465DF8C7
:102C2000047B704780B58AB000AFF8607B600B46CC
:102C3000FB721346BB72002387F823303B6B1B8863
:102C40003B8400237B6268E0FB685A687B6A9B00D8
:102C50001A4407F110031068186007F1170107F113
:102C6000100300221846FFF7FFFDF861FB69002BF7
:102C700001D0FB696EE0FB7DBA7A9A424AD197F89F
:102C80002330002B01D0002300E00223FB763B6BB6
:102C90001B881A46FB7D1A44FB7E1A44BB8E9A425F
:102CA00001DD0C2356E097F8233083F00103DBB2FB
:102CB000002B15D03B6B1B8801339AB23B6B1A80FB
:102CC0003B6B1B881A467B681344FA7A1A703B6B7D
:102CD0001B8801339AB23B6B1A80012387F823309B
:102CE0003B6B1B881A467B681A4407F1170107F1F2
:102CF00010031846FFF7B8FDF861FB69002B01D0FF
:102D0000FB6927E03B6B1A88FB7D9BB213449AB2A8
:102D10003B6B1A807B6A01337B62FB681B881A4617
:102D20007B6A9A4290DC97F82330002B11D03B6BE2
:102D30001A883B8CD31A9BB2013B3B833B8BFF2B06
:102D400001D90C2306E03B8C7A6813443A8BD2B24B
:102D50001A70002318462837BD4680BD80B588B05C
:102D600002AFF8607B600B46FB721346BB72F97AC8
:102D7000BB8C01933B6A00937B680222F868FFF7E3
:102D800051FF78617B69002B01D07B6910E0B97A33
:102D9000BB8C01933B6A00937B681022F868FFF7B5
:102DA00041FF78617B69002B01D07B6900E0002343
:102DB00018461837BD4680BD80B483B000AF786038
:102DC0007B681B88052B0AD97B681B88B3F5486F85
:102DD00007D97B681B884FF6FF72934201D0072307
:102DE00025E07B685B88052B0AD97B685B88B3F597
:102DF000486F07D97B685B884FF6FF72934201D01A
:102E0000072314E07B681B884FF6FF7293420DD0B6
:102E10007B685B884FF6FF72934207D07B681A8805
:102E20007B685B889A4201D9072300E0002318469B
:102E30000C37BD465DF8047B704700BF80B586B097
:102E400000AFF860B9607A607B807B681B889A1D50
:102E50007B889A4201D90C234BE0F868FFF7ACFF5E
:102E600078617B69002B01D07B6942E07B681B881D
:102E70001A46BB68134405221A707B681B8801330D
:102E80009AB27B681A807B681B881A46BB68134419
:102E900012221A707B681B8801339AB27B681A80F1
:102EA000FB681A887B681B881946BB680B44194667
:102EB0001046FFF7DDFC034619467B681A888BB283
:102EC00013449AB27B681A80FB685A887B681B8817
:102ED0001946BB680B4419461046FFF7C9FC034668
:102EE00019467B681A888BB213449AB27B681A80A1
:102EF000002318461837BD4680BD00BF80B586B098
:102F000000AFF860B9607A607B80FB689B88023311
:102F10007B617B681B881A467B6913449A1C7B88FB
:102F20009A4201D90C2354E07B69FE2B01D90C2372
:102F30004FE07B681B881A46BB6813447A69D2B29B
:102F40000132D2B21A707B681B8801339AB27B6857
:102F50001A807B681B881A46BB681344FF221A70CC
:102F60007B681B8801339AB27B681A80FB681A88D9
:102F70007B681B881946BB680B4419461046FFF74F
:102F800077FC034619467B681A888BB213449AB2C1
:102F90007B681A80FB689B88002B19D0FB689B68B4
:102FA000002B01D1072314E07B681B881A46BB68FD
:102FB0009818FB689968FB689B881A460DF061FDBC
:102FC0007B681A88FB689B8813449AB27B681A80D6
:102FD000002318461837BD4680BD00BF80B588B0B5
:102FE00000AFF860B9607A607B80FB689B6A002B59
:102FF00001D107236DE00023FB7763E0FB68996A4A
:10300000FA7F13465B0013449B000B44BB61BB6912
:103010009B8802337B617B69FE2B01D90C2358E02E
:103020007B681B881A46BB6813447A69D2B20132A6
:10303000D2B21A707B681B8801339AB27B681A80FF
:103040007B681B881A46BB68134416221A707B687B
:103050001B8801339AB27B681A80BB691A887B6827
:103060001B881946BB680B4419461046FFF700FC45
:10307000034619467B681A888BB213449AB27B6860
:103080001A80BB699B88002B19D0BB699B68002BF9
:1030900001D107231DE07B681B881A46BB6898187E
:1030A000BB699968BB699B881A460DF0EAFC7B688E
:1030B0001A88BB699B8813449AB27B681A80FB7F8D
:1030C0000133FB77FB6893F82C30FA7F9A4295D353
:1030D000002318462037BD4680BD00BF80B588B0AC
:1030E00002AFF860B9607A6000237B617B681B885F
:1030F0007B827B6800221A80FB6893F82D30002BBE
:103100000BD07B8A1A467968B868FFF7C9FB7861EB
:103110007B69002B01D07B69BAE0FB689B78002BB0
:103120000BD07B8A1A467968B868FFF7AFFC7861E4
:103130007B69002B01D07B69AAE0FB68DB78002B60
:103140000DD0FB68DB7858B27B8A7A68B968FFF7E4
:10315000E9FC78617B69002B01D07B6998E0FB6812
:103160005B68002B0ED0FB685B6893F900007B8ADC
:103170007A68B968FFF716FD78617B69002B01D08A
:103180007B6985E0FB681B89002B11D0FB6803F18C
:1031900008007B8A01937B680093BB6806220221AA
:1031A000FFF7DCFD78617B69002B01D07B696FE064
:1031B000FB681B8A002B11D0FB6803F110007B8A8F
:1031C00001937B680093BB6807220321FFF7C6FDCC
:1031D00078617B69002B01D07B6959E0FB681B8B10
:1031E000002B11D0FB6803F118007B8A01937B68E8
:1031F0000093BB6815221421FFF7B0FD78617B694D
:10320000002B01D07B6943E0FB681B6A002B0CD0CC
:10321000FB68186A7B8A7A68B968FFF70FFE7861E5
:103220007B69002B01D07B6932E0FB685B6A002B75
:103230000CD0FB68586A7B8A7A68B968FFF75EFE33
:1032400078617B69002B01D07B6921E0FB6893F8F2
:103250002C30002B0BD07B8A7A68B968F868FFF7AE
:10326000BDFE78617B69002B01D07B6910E0FB68B3
:103270001B78002B0BD07B8A7A68B968F868FFF757
:1032800077FB78617B69002B01D07B6900E07B696B
:1032900018461837BD4680BD80B483B000AF786053
:1032A0007B68DB7803F00403002B01D1072300E0E7
:1032B000002318460C37BD465DF8047B704700BFFD
:1032C00080B483B000AF78607B68DB78002B01D0DE
:1032D000072300E0002318460C37BD465DF8047B49
:1032E000704700BF80B596B000AF786039601F238B
:1032F000A7F84A301F23A7F848307B68002B1AD064
:103300007868FFF7C9FFF864FB6C002B01D0FB6CF9
:1033100044E007F14A0207F1280319467868FFF7ED
:10332000DDFEF864FB6C002B01D0FB6C36E007F18E
:1033300028037B6504E000237B650023A7F84A305F
:103340003B68002B1AD03868FFF7BAFFF864FB6CB3
:10335000002B01D0FB6C21E007F1480207F10803C4
:1033600019463868FFF7BAFEF864FB6C002B01D0F1
:10337000FB6C13E007F108033B6504E000233B65A9
:103380000023A7F84830B7F84A30D9B2B7F8483028
:10339000DBB23A6D786DFFF75BFA03461846583793
:1033A000BD4680BD75DF704700BF184676DF7047A9
:1033B00000BF18467ADF704700BF18467BDF7047B2
:1033C00000BF184680B483B000AF78607B685A882D
:1033D000094B1B889A4207D37B685A88064B5B8847
:1033E0009A4201D8012300E0002318460C37BD465D
:1033F0005DF8047B704700BF302A002080B586B09E
:1034000000AF7860264B1B884FF6FF72934243D083
:10341000244B1B780133DAB2224B1A70224B1A7BF1
:10342000204B1B789A4212D31D4B1B881F4918460C
:10343000FFF7B8FF78617B69002B2DD01A4B9B6991
:10344000002B29D0184B9B697869984724E0154BCD
:1034500000221A70144B1B7C002B11D0104B1B88C0
:103460003B211846FFF7A2FF38613B69002B07D0CC
:103470000D4B9B69002B03D00B4B9B693869984718
:10348000094B5B69002B07D000233B73064B5B693C
:1034900007F10C021046984700BF1837BD4680BDA3
:1034A0003A2A0020382A0020142A0020302A00203E
:1034B000B0B584B000AF78601C4A7B6814461D46E6
:1034C0000FCD0FC495E8070084E80700184B0022D1
:1034D0001A707B681B68002B0ED07B681A68154B2E
:1034E0001068516803C31348FFF764FFF860FB6876
:1034F000002B0AD0FB6815E00E48FFF75FFFF8606D
:10350000FB68002B01D0FB680CE00B4B4FF6FF7201
:103510001A800A4B00221A70094A002109480BF050
:1035200001FB034618461037BD46B0BD142A0020E3
:10353000642A0020302A00203A2A0020382A00205D
:10354000FD3302004828030080B584B000AF244852
:10355000FFF738FF034683F00103DBB2002B2DD0C9
:10356000204B1B78002B0BD01F4B5B69002B30D0FE
:1035700000233B711C4B5B693A1D1046984728E0BD
:103580001A4B1B78002B03D1174B5B68FB6002E0E2
:10359000154B9B68FB60164B0022F96818460BF030
:1035A000F5FAB860BB68002B13D00F4B9B69002B5A
:1035B0000FD00D4B9B69B86898470AE00A4B5B69CE
:1035C000002B06D001233B70074B5B693A4610463F
:1035D0009847044B00221A7000BF1037BD4680BDCB
:1035E0003C2A0020642A0020142A0020382A0020C7
:1035F000442A002080B582B000AF78607B689A884A
:103600000A4B1A800A4A7B68103393E8030082E869
:103610000300084B00221A70074BDB89002B01D1F5
:10362000FFF792FF00BF0837BD4680BD3A2A002051
:103630003C2A0020382A0020142A002080B584B0BB
:1036400000AF78600D4B4FF6FF721A800C4B0022D2
:103650001A700C4B18460BF0CDFAF860FB68002B83
:1036600007D0094B9B69002B03D0074B9B69F86877
:10367000984700BF1037BD4680BD00BF3A2A0020E2
:10368000382A0020442A0020142A002080B584B063
:1036900000AF78607B680633FB60FB681A88134BC9
:1036A000DB899A421ED1FB685B89022B1AD1FB6829
:1036B0000C33184600F086FA0346002B02D0FFF7C1
:1036C00043FF0FE00A4B18460BF094FAB860BB6852
:1036D000002B07D0054B9B69002B03D0034B9B6944
:1036E000B868984700BF1037BD4680BD142A002037
:1036F000442A002080B582B000AF7860064A7B681B
:10370000083393E8030082E80300FFF71DFF00BFC2
:103710000837BD4680BD00BF3C2A002080B582B07E
:1037200000AF78607B681B88112B0DD0112B02DC59
:10373000102B05D014E0122B0ED0502B08D00FE028
:103740007868FFF757FF0BE07868FFF777FF07E02F
:103750007868FFF79BFF03E07868FFF7CBFF00BFB7
:1037600000BF0837BD4680BD80B584B000AF0346BA
:10377000FB80134B5B6CDB4318460BF0F5FB0346F9
:10378000FB81FB894FF6FF72934213D0FB890C4AF1
:103790005B001344FA889A80FA88012309490A4891
:1037A0000BF000FCFA880123084907480BF0FAFBEC
:1037B000012300E0002318461037BD4680BD00BF3E
:1037C000682A0020B02A00206C2A0020AC2A0020A1
:1037D00080B584B002AF0346FB80FA8800230093D3
:1037E00013461D22034904480BF0F4FB00BF0837C1
:1037F000BD4680BDAC2A00206C2A002080B582B076
:1038000000AF0346FB80FA880023044904480BF00C
:10381000C9FB00BF0837BD4680BD00BFB02A0020ED
:103820006C2A002080B5A4B000AF174B9B6CDA4324
:10383000154B5B6C1A403B46144918460BF03AFC9A
:1038400007F148033946442218460DF01AF90023BF
:10385000C7F88C300FE0D7F88C305B0007F190028E
:10386000134433F8443C1846FFF7B2FFD7F88C30C6
:103870000133C7F88C30BA6CD7F88C309A42EAD84A
:1038800000BF9037BD4680BD682A00206C2A00200A
:1038900080B483B000AF0346FB71094B1B68FA7913
:1038A000012101FA02F21340002B14BF012300236F
:1038B000DBB218460C37BD465DF8047B704700BF8D
:1038C000682A002080B483B000AF0346FB71074B29
:1038D0001B68FA79012101FA02F21343034A1360CB
:1038E00000BF0C37BD465DF8047B7047682A002096
:1038F00080B584B000AF78607B681B88112B26D020
:103900001A2B2AD0102B00D048E0FFF78BFF7B68E2
:103910009B881846FFF728FF034683F00103DBB2BC
:10392000002B05D01F4AE02104200BF087F935E079
:103930007B68DB7B022B0CBF01230023FB737B68BE
:103940009A88FB7B184919480BF02CFB26E07B6812
:103950009B881846FFF752FF20E07B689A887B68B7
:103960001B7AC3F30313DBB2012BCCBF012300236B
:10397000DBB20F490D480BF015FB7B689A887B681A
:103980001B7AC3F30313DBB2022BCCBF012300234A
:10399000DBB2084905480BF005FB00BF00BF10373C
:1039A000BD4680BD4C280300B42A00206C2A0020AC
:1039B000B82A0020BC2A002080B584B000AF03469E
:1039C000FB800023FB730F4B5B6CFA8819460E4893
:1039D0000BF048FB0346002B0FD00A4BDB6CFA8838
:1039E000194609480BF03EFB0346BB73BB7B002B1B
:1039F00001D0022300E00123FB73FB7B1846103744
:103A0000BD4680BD682A00206C2A002080B582B0A7
:103A100000AF0346FB80064B1B6DFA88194605482C
:103A20000BF020FB034618460837BD4680BD00BF9B
:103A3000682A00206C2A002080B582B000AF0346BF
:103A4000FB80064B5B6DFA88194605480BF00AFBB4
:103A5000034618460837BD4680BD00BF682A0020CF
:103A60006C2A002080B582B000AF7860054B5A6C9C
:103A70007B68054918460BF01DFB78680837BD4682
:103A800080BD00BF682A00206C2A002080B582B06B
:103A900000AF0023FB7112E0FB791846FFF7F8FE38
:103AA000034683F00103DBB2002B05D0FB791846F7
:103AB000FFF708FFFB7906E0FB790133FB71FB7927
:103AC000172BE9D9182318460837BD4680BD00BF1B
:103AD00080B582B000AF03460A46FB8013467B7177
:103AE0007B791846FFF7D4FE0346002B0CD07B7978
:103AF000084A14339B0013449B68FA881946064809
:103B00000BF0B0FA034600E0002318460837BD4624
:103B100080BD00BF682A00206C2A002080B582B0DA
:103B200000AF0346FB800B467B7113463B717B79EC
:103B30001846FFF7ADFE0346002B0BD07B791433FC
:103B40009B00064A134403F108013B79FA880448B4
:103B50000BF028FA00BF0837BD4680BD682A002058
:103B60006C2A002080B582B000AF0346FB71FB7960
:103B70001846FFF78DFE0346002B06D0FB79054A59
:103B800014339B0013449B6800E000231846083759
:103B9000BD4680BD682A002080B483B000AF786045
:103BA0007B681B781AB27B6801331B781B021BB23F
:103BB00013431BB29BB218460C37BD465DF8047B1D
:103BC000704700BF80B584B000AF78607868FFF7B9
:103BD000E3FF0346FB81FB8903F00103002B14BFC5
:103BE00001230023DBB218461037BD4680BD00BF5D
:103BF00080B584B000AF78607868FFF7CDFF0346EA
:103C0000FB81FB8903F00203002B14BF0123002377
:103C1000DBB218461037BD4680BD00BF80B582B00C
:103C200000AF7860396038680CF09CFF03469AB2A8
:103C30007B681A807B683A685A6000BF0837BD46C7
:103C400080BD00BF8FDF704700BF18469EDF704702
:103C500000BF1846ADDF704700BF184680B483B080
:103C600000AF78607B689E221A807B6817225A809A
:103C70007B6800221A717B6800225A717B68A2223D
:103C80009A717B681B22DA7100BF0C37BD465DF864
:103C9000047B704780B586B000AF03463960FB8077
:103CA000FB883A68DB0013441B7B9BB2BB81FB881B
:103CB0003A68DB0013441B7B9BB2FB8100233B82F1
:103CC00000237B8207F10C01FB8800221846FFF7D6
:103CD000B9FF78617B69002B05D0FA887B690449BC
:103CE000012009F0C9FE00BF1837BD4680BD00BFE6
:103CF0009828030080B586B000AF786039603B68D3
:103D00009B88FB82FB8ADB007A68134406333B61A5
:103D10007B681A793B699A713B68DB7B012B02D087
:103D2000022B05D009E07B681A883B691A8004E001
:103D30007B685A883B691A8000BF3B691A883B69D7
:103D40005B889A421AD93B691A88FB8A1146184641
:103D5000FFF77CFFF860FB68002B03D13B69012271
:103D60005A710BE0FB68112B03D13B6901221A71D8
:103D700004E0FA680949012009F02EFE3B699A79AE
:103D80003B69DB799A4204D9FB8A79681846FFF7C8
:103D900081FF00BF1837BD4680BD00BF102903005A
:103DA00080B582B000AF786039603B689B88DB00EB
:103DB0007A68134406331846FFF750FF00BF0837F0
:103DC000BD4680BD80B586B000AF786039603B6885
:103DD0009B88FB823B685B89BB82FB8ADB007A683D
:103DE000134406333B613B691A88BB8A934228BF60
:103DF00013469AB23B695A803B695B88172B38BFE0
:103E000017239AB23B695A807B689B69002B12D0BA
:103E10003B695B79002B0ED040F677233B81FB8A10
:103E20007B813B695B88BB817B689B6907F10802EA
:103E30001146786898473B6900225A713B69002215
:103E40001A7100BF1837BD4680BD00BF80B588B06D
:103E500000AF786039603B689B88FB833B68DB88F8
:103E6000BB83FB8BDB007A6813440633BB61BB8BDF
:103E7000172B38BF1723BB83BB691A88BB8B9342B0
:103E800028BF13469AB2BB695A80BB6900221A71D7
:103E9000BB691A88FB8B11461846FFF7DBFE786179
:103EA0007B69002B04D07A690F49012009F094FD49
:103EB000BB695B79002B13D17B689B69002B10D009
:103EC00040F67723BB81FB8BFB81BB695B883B8220
:103ED0007B689B6907F10C0211467868984700E0FF
:103EE00000BF2037BD4680BD70290300B0B592B039
:103EF00000AF786039603B6807F110041D1D0FCDDD
:103F00000FC40FCD0FC40FCD0FC42B6823603B8AA5
:103F1000A7F84630B7F84630BA8AD1B27A68DB00E3
:103F200013440A465A737B689B69002B18D007F12B
:103F3000080300221A609A804DF67A233B81B7F875
:103F400046307B81B7F846307A68DB0013445B7BF0
:103F50003B737B689B6907F10802114678689847B4
:103F600000BF4837BD46B0BD80B588B000AF7860AF
:103F700039603B680433FB61FB691B88DB007A68AE
:103F800013440633BB61FB699B88FB75BB699A7957
:103F9000FB7D934228BF1346BB7507F1080300223F
:103FA0001A605A60BB7D9BB23B81BB7D9BB27B811B
:103FB000FB691B8807F1080100221846FFF742FE43
:103FC00038613B69002B04D03A690449012009F0AB
:103FD00003FD00BF2037BD4680BD00BFCC290300D4
:103FE00080B584B000AF786039607B68002B01D168
:103FF0000E231DE07B683A689A617B689E221A80D6
:104000007B689E225A807B68A2221A710023FB6083
:104010000AE0FB68DB007A68134406331846FFF7B2
:104020001DFEFB680133FB60FB68012BF1D9002307
:1040300018461037BD4680BD80B483B000AF7860AD
:104040000B467B807B68002B01D10E230BE07B8825
:10405000162B02D97B889E2B01D9072303E07B68AE
:104060007A881A80002318460C37BD465DF8047B19
:10407000704700BF80B584B000AF786039603B689E
:104080009B88FB81FB89012B5AD83B681B88212B1D
:1040900026D0212B04DC102B09D0112B0CD024E0CE
:1040A0003A2B0ED0552B11D0222B14D01DE039689D
:1040B0007868FFF71FFE18E039687868FFF770FE30
:1040C00013E039687868FFF77DFE0EE0396878689C
:1040D000FFF7BCFE09E039687868FFF707FF04E0E6
:1040E00039687868FFF740FF00BFFB897A68DB001A
:1040F00013449B7A002B24D0FB897A68DB0013449D
:10410000DA88FB8911461846FFF7A0FDB860BB6846
:10411000002B0CD1FB897A68DB00134400229A72D1
:10412000FB897A68DB0013440122DA7209E0BB687C
:10413000112B06D0BA680449012009F04DFC00E0BB
:1041400000BF1037BD4680BD1029030080B483B086
:1041500000AF78607B68002B14BF01230023DBB223
:1041600018460C37BD465DF8047B704780B400AF3D
:10417000034B00221A7000BFBD465DF8047B7047F8
:10418000202B002080B584B000AF78600023FB6056
:1041900008E0084AFB6852F8233078689847FB68C3
:1041A0000133FB60FB68002BF3D000BF1037BD4626
:1041B00080BD00BF1426002080B483B000AF7860BB
:1041C0007B689B79012B0BD17B681B79012B07D175
:1041D0007B685B8842F60212934201D1012300E022
:1041E000002303F00103DBB218460C37BD465DF82F
:1041F000047B704780B588B000AF0346FB80002386
:10420000FB77FB884FF6FF72934251D0FB8818462C
:1042100000F08EFCB861BB690B2B1ED00B2B02D8B3
:10422000002B07D029E0112B14D043F20202934255
:1042300035D022E002233B73FB88184600F0CCFF08
:104240000346FB81FB883B8207F10C031846FFF70E
:1042500099FF25E00123FB7722E003233B73FB88D2
:10426000184600F0B9FF0346FB81FB883B8207F14B
:104270000C031846FFF786FF12E009233B73FB8807
:10428000184600F0A9FF0346FB81FB883B82BB690F
:104290007B6107F10C031846FFF774FF00E000BFD5
:1042A000054B1978FA7FFB881846FFF737FC00E0CA
:1042B00000BF2037BD4680BD222B002080B588B0CE
:1042C00000AF0346FB800023FB77FB88184600F015
:1042D000C7FBB861BB69112B1DD0112B04D8002B73
:1042E00009D00C2B1AD039E0862B27D043F20202DA
:1042F000934245D032E001233B73FB883B82FB882D
:10430000184600F069FF0346FB8107F10C031846CD
:10431000FFF738FF35E00123FB7732E007233B73DB
:10432000FB883B82FB88184600F056FF0346FB8162
:1043300007F10C031846FFF725FF22E008233B7323
:10434000FB883B82FB88184600F046FF0346FB8152
:1043500007F10C031846FFF715FF12E009233B7322
:10436000FB88184600F038FF0346FB81FB883B8240
:10437000BB697B6107F10C031846FFF703FF00E000
:1043800000BF054B1978FA7FFB881846FFF7C6FB7C
:1043900000BF2037BD4680BD212B002080B588B0EE
:1043A00000AF0346FB800123FB770023BB77FB882C
:1043B000184600F059FCB861BB69082B23D0082BC4
:1043C00004D8002B0DD0062B1DD02CE043F20202A6
:1043D00093423AD043F2014293421FD0112B36D080
:1043E00021E00123BB7705233B73FB88184600F0CF
:1043F000F3FE0346FB81FB883B8207F10C03184662
:10440000FFF7C0FE24E00023FB77FB88184600F08E
:10441000E3FE0346184600F04FFC19E0FB881846FF
:10442000FFF7E8FE14E009233B73FB883B82BB697E
:104430007B61FB88184600F0CFFE0346FB8107F145
:104440000C031846FFF79EFE02E000BF00E000BF2D
:10445000084B1978FA7FFB881846FFF75FFB064B7D
:104460001978BA7FFB881846FFF758FB00BF203742
:10447000BD4680BD232B0020242B002080B586B0B4
:1044800000AF78607B685B887B817B681B78012B41
:1044900015D0022B1ED0002B00D035E000233B723C
:1044A00007F108031846FFF76DFE7B685B88184626
:1044B00000F030FF03461846FFF79CFE24E001237E
:1044C0003B727B689B88BB8107F108031846FFF7A6
:1044D00059FE19E07B681B79002B14D07B685B8840
:1044E000184600F017FF0346FB82FB8A4FF6FF7267
:1044F000934208D0064B1978FB8A01221846FFF731
:104500000DFB00F017F900BF00BF1837BD4680BD96
:10451000232B002080B582B000AF78607B681B78C9
:10452000012B00D015E07B685B881846FFF762FE20
:104530007B685B88184600F079FB0346002B07D0A8
:104540007B685888054B1B7801221946FFF7E6FA6D
:1045500000BF00BF0837BD4680BD00BF232B002031
:1045600080B582B000AF78607B681B78072B00D0E5
:1045700005E07B685B881846FFF7A0FE00BF00BF20
:104580000837BD4680BD00BF80B500AFFFF7EEFD28
:10459000FFF77CFA03461A46154B1A70FFF776FAB6
:1045A00003461A46134B1A70FFF770FA03461A4671
:1045B000114B1A70FFF76AFA03461A460F4B1A702E
:1045C0000B4B1B78182B0BD00A4B1B78182B07D0E2
:1045D000094B1B78182B03D0084B1B78182B01D1E3
:1045E000032303E0064B01221A700023184680BD06
:1045F000212B0020222B0020232B0020242B002005
:10460000202B002080B5A6B000AF234B1B781846A6
:10461000FFF7A8FAC7F89000D7F89000FFF796FDCB
:104620000346002B34D03B461846FFF71BFA07F130
:104630004C033946442218460CF023FA0023C7F8ED
:10464000943020E0D7F894305B0007F198021344CF
:1046500033F8482C104B1B7819461046FFF738FAF0
:104660000346002B0AD0D7F894305B0007F198027C
:10467000134433F8483C1846FFF7BCFDD7F8943094
:104680000133C7F89430FA6CD7F894309A42D9D8ED
:1046900000BF9837BD4680BD222B002080B5A6B054
:1046A00000AF234B1B781846FFF75CFAC7F8900061
:1046B000D7F89000FFF74AFD0346002B34D03B4665
:1046C0001846FFF7CFF907F14C0339464422184644
:1046D0000CF0D7F90023C7F8943020E0D7F89430D5
:1046E0005B0007F19802134433F8482C104B1B78F9
:1046F00019461046FFF7ECF90346002B0AD0D7F80D
:1047000094305B0007F19802134433F8483C184694
:10471000FFF7D4FDD7F894300133C7F89430FA6C22
:10472000D7F894309A42D9D800BF9837BD4680BD9B
:10473000212B002080B5A6B000AF2D4B1B7818466A
:10474000FFF710FAC7F89000D7F89000FFF7FEFCCB
:104750000346002B48D03B461846FFF783F907F184
:104760004C033946442218460CF08BF90023C7F855
:10477000943034E0D7F894305B0007F1980213448A
:1047800033F8482C1A4B1B7819461046FFF7A0F94E
:104790000346002B1ED0D7F894305B0007F1980237
:1047A000134433F8482C134B1B7819461046FFF777
:1047B0008FF9034683F00103DBB2002B0AD0D7F850
:1047C00094305B0007F19802134433F8483C1846D4
:1047D000FFF7E4FDD7F894300133C7F89430FA6C52
:1047E000D7F894309A42C5D800BF9837BD4680BDEF
:1047F000232B0020242B002080B586B000AF7860EA
:104800007B681B88522B04D0542B08D0502B24D00B
:1048100031E07B689B881846FFF7ECFC2BE0062311
:104820003B737B689B88184600F0D6FC0346FB81EF
:104830007B689B883B82FB89184600F03DFA7B68C9
:104840009888124B1B7800221946FFF767F907F189
:104850000C031846FFF796FC0DE07B6806331846FC
:10486000FFF7AAFC0346002B04D07B689B88184600
:10487000FFF724FD00BFFFF7C5FEFFF70FFFFFF7AF
:1048800059FF00BF1837BD4680BD00BF232B002055
:1048900080B592B000AF00F0B9F93B461846FFF77B
:1048A000E1F80023A7F8463023E0B7F846305B0074
:1048B00007F14802134433F8443C184600F08CFCDE
:1048C00003461A464FF6FF739A420DD1B7F84630A9
:1048D0005B0007F14802134433F8440C0A4B1B7881
:1048E00001221946FFF71AF9B7F846300133A7F845
:1048F0004630B7F846203B689A42D6D3FFF71AFFF6
:1049000000BF4837BD4680BD232B0020A7DF70477E
:1049100000BF1846A9DF704700BF1846AADF7047DE
:1049200000BF184680B400AF054B00221A70054B3B
:104930004FF6FF721A8000BFBD465DF8047B7047DA
:10494000252B0020262B002080B584B000AF786096
:104950000023FB6008E0084AFB6852F823307868BF
:104960009847FB680133FB60FB68002BF3D000BF66
:104970001037BD4680BD00BF1826002080B584B02A
:1049800000AF164A3B1D92E8030083E80300144B76
:104990001B88391D0022184601F0A6FFF86010E0C0
:1049A0000F4B1B88184601F083FF03461A460C4B39
:1049B0001A800B4B1B88391D0022184601F094FF0A
:1049C000F860074B1B884FF6FF72934202D0FB68DA
:1049D000112BE5D100BF1037BD4680BD302A030042
:1049E000262B002080B588B000AF78607B681B78EC
:1049F000012B1BD17B681B79012B17D17B685B884E
:104A000007F114020121184601F0D8FCF861FB6996
:104A1000002B0BD102233B737B685B88FB81012356
:104A20003B7407F10C031846FFF78EFF054B1B88FC
:104A30004FF6FF72934201D0FFF7A0FF00BF20376F
:104A4000BD4680BD262B002080B500AFFFF76AFF72
:104A5000024B01221A700023184680BD252B00202E
:104A600080B58AB000AF0346FB80FB88184600F093
:104A7000B3FB0346FB83FB8B4FF6FF72934202D1DD
:104A800043F2020350E001237B84002387F82130A6
:104A9000002387F821307B8C5A1C7A841A4607F150
:104AA0000C03F88B082101F00BFD78627B6A002B68
:104AB00030D13B69BB61BB6903221A60BB69991D98
:104AC000BB691A1DBB691B68F888FFF727FF78626E
