:020000021000EC
:10F000000000012069DF0200A5DF020069B80200EC
:10F01000A9DF0200ABDF0200ADDF0200000000004C
:10F02000000000000000000000000000AFDF020050
:10F03000B1DF020000000000B3DF0200B5DF020014
:10F0400065820200B7DF0200DD930200818D0200BD
:10F05000B7DF0200B7DF020041870200B7DF02001E
:10F06000B7DF0200B7DF0200B7DF0200B7DF020040
:10F07000B7DF0200B7DF0200B7DF0200B7DF020030
:10F08000B7DF0200F1D20200B7DF0200B7DF0200F3
:10F0900031D30200B7DF020055DE0200B7DF020005
:10F0A000B7DF0200B7DF0200B7DF0200B7DF020000
:10F0B000B7DF0200B7DF0200000000000000000020
:10F0C000B7DF0200B7DF0200B7DF0200B7DF0200E0
:10F0D000B7DF0200B7DF0200B7DF02000000000068
:10F0E0000000000000000000000000000000000020
:10F0F0000000000000000000000000000000000010
:10F1000000000000000000000000000000000000FF
:10F1100000000000000000000000000000000000EF
:10F1200000000000000000000000000000000000DF
:10F1300000000000000000000000000000000000CF
:10F1400000000000000000000000000000000000BF
:10F1500000000000000000000000000000000000AF
:10F16000000000000000000000000000000000009F
:10F17000000000000000000000000000000000008F
:10F18000000000000000000000000000000000007F
:10F19000000000000000000000000000000000006F
:10F1A000000000000000000000000000000000005F
:10F1B000000000000000000000000000000000004F
:10F1C000000000000000000000000000000000003F
:10F1D000000000000000000000000000000000002F
:10F1E000000000000000000000000000000000001F
:10F1F000000000000000000000000000000000000F
:10F2000080B582B000AF01F043F800F051F800F093
:10F210002FFFFB1D184601F031F800F011FE0A49DE
:10F2200003200CF0D5FF00F0CBFFFB79184600F06F
:10F230006DF80DF039F9034683F00103DBB2002BC2
:10F24000F7D000F003FEF4E7B8F1020076DF704774
:10F2500000BF184678DF704700BF18467ADF704756
:10F2600000BF18467CDF704700BF1846A8DF704714
:10F2700000BF184669DF704700BF184666DF704759
:10F2800000BF184632DF704700BF184680B582B015
:10F2900000AF03463960FB80FB883A681946034893
:10F2A0000EF00EF900BF0837BD4680BDEFBEADDEE3
:10F2B00080B500AF00F028FC00F006FA00F082FAFA
:10F2C00000F000F900F072FD00F0CCFA00F0FAFC5A
:10F2D00000BF80BD80B582B000AF0A4903200CF0AA
:10F2E00077FF07F0CDF978607B683B603B68002BC7
:10F2F00004D0054A9B2138680EF0E2F800BF0837B9
:10F30000BD4680BDE8F1020000F2020080B584B085
:10F3100000AF0346FB71FB79002B02D0FFF7DAFF49
:10F320000DE0032001F0A2FAF860FB68BB60BB6847
:10F33000002B04D0044AAD21B8680EF0C1F800BF1C
:10F340001037BD4680BD00BF00F2020080B483B01C
:10F3500000AF786000BF0C37BD465DF8047B704796
:10F3600080B58CB002AF78607B681B780E2B00F202
:10F37000938001A252F823F0B5F3010099F4010043
:10F38000BFF3010099F40100E5F30100FBF3010074
:10F390007FF4010099F4010031F4010099F40100B7
:10F3A0004BF4010023F4010065F4010099F401001D
:10F3B0002BF40100404903200CF00AFF77E07B6842
:10F3C0005B88184603F048FC03461A467B685B8856
:10F3D00019467B681B7A00930B46384903200CF0D2
:10F3E000E9FF64E000233B737B685B8807F10C0254
:10F3F0001146184607F00AF959E00BF0BFFD786294
:10F400007B6A0E2B4AD07B6A082B47D07B6A3B6213
:10F410003B6A002B42D02A4AF221386A0EF050F89B
:10F420003CE00020FFF772FF41E007F0FFF83EE00C
:10F430007B681B69FB61FB69002B31D0204A40F2DD
:10F440000511F8690EF03CF82AE07B689B68BB6107
:10F45000BB69002B26D01A4A40F20B11B8690EF096
:10F460002FF81FE07B689B687B617B69002B1BD0BA
:10F47000134A40F2111178690EF022F814E07B680B
:10F480009B683B613B69002B10D00D4A40F217117D
:10F4900038690EF015F809E000BF08E000BF06E08B
:10F4A00000BF04E000BF02E000BF00E000BF00BFFB
:10F4B0002837BD4680BD00BF14F2020048F20200AA
:10F4C00000F2020080B5A0B000AF0323FB7107F18A
:10F4D0005C031422002118460FF0E9F90023FB65B4
:10F4E000012387F86030FB1D7B6697F868300122A6
:10F4F00062F3030387F8683097F86830012262F3FB
:10F50000071387F8683097F869306FF3030387F8BB
:10F51000693097F869306FF3071387F8693097F807
:10F520006A306FF3030387F86A3097F86A306FF335
:10F53000071387F86A3097F86B30012262F30303F0
:10F5400087F86B3097F86B30012262F3071387F866
:10F550006B3097F86C306FF3030387F86C3097F8D3
:10F560006C306FF3071387F86C3007F15C031946B2
:10F57000514802F0B9F9F867FB6FBB67BB6F002B0E
:10F5800005D04E4A4FF4A271B86F0DF099FF07F104
:10F5900048031422002118460FF089F997F85530D6
:10F5A000012262F3030387F8553097F855300122A2
:10F5B00062F3071387F8553097F85630012262F34B
:10F5C000030387F8563097F85630012262F3071389
:10F5D00087F8563097F857306FF3030387F85730A2
:10F5E00097F857306FF3071387F8573097F858306C
:10F5F000012262F3030387F8583097F8583001224C
:10F6000062F3071387F858300023BB64012387F89F
:10F610004C3000233B65642387F8543007F14803DE
:10F620001946274801F0ECFBF867FB6F7B677B6F9F
:10F63000002B05D0214A4FF4AB71786F0DF040FFDD
:10F6400007F108034022002118460FF030F907F1B6
:10F6500008031C49184603F04BFC97F8443001227C
:10F6600062F3030387F8443097F84430012262F3D1
:10F67000071387F8443097F845306FF3030387F892
:10F68000453097F845306FF3071387F8453007F199
:10F690000803184601F0D8FDF867FB6F3B673B6F26
:10F6A000002B05D0054A40F26111386F0DF008FFBC
:10F6B00000BF8037BD4680BDC444002000F2020078
:10F6C0001445002094F2020080B588B000AF3B7969
:10F6D000012262F303033B713B79012262F30713BA
:10F6E0003B7126480FF026F903469AB23B1D234989
:10F6F0001846FFF7B7FDF861FB69BB61BB69002BDA
:10F7000005D01F4A4FF4BA71B8690DF0D9FE40F226
:10F710004130FFF79FFDF861FB697B617B69002B3E
:10F7200005D0174A40F2771178690DF0C9FE07F14C
:10F7300008030822002118460FF0B9F84FF4A0730F
:10F740003B814FF402737B810023BB814FF4C8736C
:10F75000FB8107F108031846FFF780FDF861FB699C
:10F760003B613B69002B05D0054A40F281113869A5
:10F770000DF0A6FE00BF2037BD4680BDA8F20200F6
:10F7800000F2020080B582B000AF786039603B685B
:10F790001B8840F67722934208D13B685B881A4663
:10F7A0003B689B88054903200CF0A8FD3968044894
:10F7B00002F07AF900BF0837BD4680BDB4F20200FE
:10F7C000C444002080B582B000AF0A490A4803F063
:10F7D00071FD78607B683B603B68002B05D0074A71
:10F7E00040F2991138680DF06BFE00BF0837BD4636
:10F7F00080BD00BF85F701000026002000F2020056
:10F8000080B584B000AF78607B681B78002B11D185
:10F810000A4B1B883B211846FFF718FDF860FB6870
:10F82000BB60BB68002B05D0054A4FF4D871B8689F
:10F830000DF046FE00BF1037BD4680BD58250020A4
:10F8400000F2020080B582B000AF7860044A40F256
:10F85000BB1178680DF034FE00BF0837BD4680BD8F
:10F8600000F2020080B58AB000AF3B1D1C220021CF
:10F8700018460FF01CF800237B604FF42033BB6068
:10F880004FF47023FB6003233B740E4B9B897B82F8
:10F8900000233B750C4BBB610C4BFB613B1D1846B9
:10F8A00002F056FF78627B6A3B623B6A002B05D010
:10F8B000074A4FF4E971386A0DF002FE00BF28379D
:10F8C000BD4680BDC444002001F8010045F8010098
:10F8D00000F2020080B582B000AFFFF7D3FC786081
:10F8E0007B683B603B68002B05D0054A40F2E7117E
:10F8F00038680DF0E5FD00BF0837BD4680BD00BF8C
:10F9000000F2020080B582B000AF0346FB71FB79C4
:10F91000002B07D0032B00D007E0064903200CF092
:10F9200057FC02E0FFF7D6FF00BF00BF0837BD4617
:10F9300080BD00BFF0F2020090B591B000AF7860DA
:10F940007B681B88112B16D0112B04DC012B44D0B3
:10F95000102B07D093E0512B52D0562B2AD03B2BA3
:10F9600015D08CE0484903200CF032FC7B689A8863
:10F97000464B1A8083E07B681B7A1A464449032071
:10F980000CF06CFC414B4FF6FF721A8077E07B68FD
:10F990009B8813211846FFF759FCF863FB6BBB6388
:10F9A000BB6B002B64D03B4A40F22321B86B0DF0B7
:10F9B00087FD5DE07B689B8813211846FFF746FCB6
:10F9C000F863FB6B7B637B6B002B53D0314A40F2B7
:10F9D0002B21786B0DF074FD4CE02C4B1B88002123
:10F9E0001846FFF74BFCF863FB6B3B633B6B002B4C
:10F9F00042D0284A4FF40C71386B0DF061FD3BE0AA
:10FA00007B6807F11C040633186859689A68DB683C
:10FA10000FC43B7F002B31D097F82430042B07D044
:10FA200097F82430062B03D097F82430052B25D1E6
:10FA30003B7F022B02D102233B7301E001233B7386
:10FA40004FF4C1733B827B689B8807F10C0211461F
:10FA50001846FFF70BFCF863FB6BFB62FB6A002B9D
:10FA60000CD00C4A40F24B21F86A0DF029FD05E05C
:10FA700000BF04E000BF02E000BF00E000BF00BF25
:10FA80004437BD4690BD00BF10F30200582500204A
:10FA900028F3020000F2020080B582B000AF786067
:10FAA000786803F075F8786806F0CAFC79680C4845
:10FAB00001F062FD79680B4801F074F8786802F093
:10FAC0007DFF7868FFF738FF786800F0B9FF796844
:10FAD000054803F01BFC00BF0837BD4680BD00BFD2
:10FAE000C4440020144500200026002080B582B0C8
:10FAF00000AF786078680BF023FE786800F0BEFFF6
:10FB000000BF0837BD4680BD80B590B000AF684AE1
:10FB100007F110031068186007F110000023D822C5
:10FB200064490EF017F9F863FB6BBB63BB6B002BEA
:10FB300005D0614A4FF42371B86B0DF0C1FC00236E
:10FB4000FB6007F10C0318460EF0C4F978637B6B79
:10FB50003B633B6B002B05D0574A40F29121386B39
:10FB60000DF0AEFC3B460C22002118460EF09FFE25
:10FB700000233B70FA683B4619460120FFF77AFBE9
:10FB800078637B6BFB62FB6A002B05D04A4A40F22C
:10FB90009A21F86A0DF094FC3B460C22002118468D
:10FBA0000EF085FE01233B7000237B700023BB70A9
:10FBB000FA683B4619464020FFF75CFB78637B6B95
:10FBC000BB62BB6A002B05D03B4A40F2A221B86A57
:10FBD0000DF076FC3B460C22002118460EF067FE25
:10FBE00001233B709E237B80FA683B461946232005
:10FBF000FFF740FB78637B6B7B627B6A002B05D051
:10FC00002D4A40F2A921786A0DF05AFC3B460C229D
:10FC1000002118460EF04BFE01233B704FF4A073F9
:10FC2000BB800123BB70FA683B4619462020FFF7D2
:10FC300021FB78637B6B3B623B6A002B05D01E4A3D
:10FC400040F2B121386A0DF03BFC07F10C03184675
:10FC50000EF054F978637B6BFB61FB69002B05D0D8
:10FC6000154A40F2B521F8690DF02AFC13480EF050
:10FC7000C5F878637B6BBB61BB69002B05D00E4A6E
:10FC800040F2B921B8690DF01BFC0D480EF0CCF81C
:10FC900078637B6B7B617B69002B05D0064A40F261
:10FCA000BD2178690DF00CFC00BF4037BD4680BD1A
:10FCB0004CF302001426002000F2020099FA010021
:10FCC000EDFA010080B588B000AF06F0F1FBF861F5
:10FCD000FB69BB61BB69002B05D0314A40F2C921E9
:10FCE000B8690DF0EDFB3B1D0522002118460EF012
:10FCF000DEFD3B7943F001033B713B796FF3410338
:10FD00003B713B79032262F306133B713B796FF33E
:10FD1000C7133B7107237B711023BB71FB7943F041
:10FD20000103FB71FB7943F00203FB713B7A43F063
:10FD300001033B723B7A43F002033B723B1D1846C2
:10FD400006F04CFCF861FB697B617B69002B05D0F8
:10FD5000134A40F2DA2178690DF0B2FB114806F03F
:10FD60000FFCF861FB693B613B69002B05D00C4A35
:10FD700040F2DD2138690DF0A3FB0B480AF00CFFBF
:10FD8000F861FB69FB60FB68002B05D0044A4FF467
:10FD90003871F8680DF094FB00BF2037BD4680BD78
:10FDA00000F2020061F301004DF3010080B59CB048
:10FDB00002AF07F124033C22002118460EF077FD24
:10FDC000022387F82430012387F82630062387F89A
:10FDD00027300323BB86154BBB633B1D202200212C
:10FDE00018460EF064FD0123FB714FF496737B619E
:10FDF000B423BB613A1D07F12400002300930C4B90
:10FE0000002100F02DFC78667B6E3B663B6E002B7C
:10FE100005D0084A40F2FB21386E0DF051FB01205D
:10FE200000F00EFC00BF6837BD4680BD5C25002099
:10FE300005F9010000F202003EDF704700BF1846DE
:10FE400080B500AF00F07AF900BF80BD80B582B008
:10FE500000AFFFF7F1FF78607B683B603B68002BE9
:10FE600004D0044A462138680DF02AFB00BF083749
:10FE7000BD4680BD60F3020080B582B000AF11497D
:10FE800011480CF077FC0346FB71FB7919460F48CB
:10FE900000F0EEFF38603B68002B0FD03B68082B6A
:10FEA0000CD03B68132B09D03B6843F201429342CC
:10FEB00004D0074A5A2138680DF002FB00BF08370A
:10FEC000BD4680BDEC260020FC2600201445002005
:10FED00060F3020080B582B000AF7860FFF7CCFF1E
:10FEE00000BF0837BD4680BD80B584B000AF7860E4
:10FEF0001C491D480CF03EFC0346FB811B4B1B6854
:10FF000001331A4A1360FB891946194801F03AFD7A
:10FF1000B860BB68002B0FD0BB68082B0CD0BB6847
:10FF2000132B09D0BB6843F20142934204D0114A1B
:10FF30008721B8680DF0C4FA0C4B19680E4BA3FB6F
:10FF400001235A0813465B001344CA1A002A14BF3F
:10FF500001230023DAB2094B1A7000BF1037BD46E7
:10FF600080BD00BF0427002014270020B4270020F4
:10FF7000C444002060F30200ABAAAAAA68250020AE
:10FF800080B584B000AF7860244B1B78002B41D043
:10FF9000234924480CF0EEFB0346FB81FB891946FC
:10FFA000214801F043FD1E491E480CF0E3FB0346C7
:10FFB000FB81FB8919461C4801F038FD1849194896
:10FFC0000CF0D8FB0346FB81FB891946164801F06B
:10FFD0002DFD134913480CF0CDFB0346FB81FB8933
:10FFE0001946114801F022FD0D490E480CF0C2FBE4
:10FFF0000346FB81FB8919460B4801F017FD0849B0
:020000022000DC
:1000000008480CF0B7FB0346FB81FB8919460648FC
:1000100001F00CFD00BF1037BD4680BD68250020F3
:100020001C2700202C270020C444002080B582B06B
:1000300000AF78600C4B1B78002B14BF012300230A
:10004000DBB283F00103DBB203F00103DAB2064B4B
:100050001A70054B1B781946044801F015FD00BFC6
:100060000837BD4680BD00BFB8270020C44400202B
:1000700080B586B000AF0DF061F978617B693B61B6
:100080003B69002B04D0244AD22138690DF018FABC
:10009000224A012122480DF087F978617B69FB60D3
:1000A000FB68002B04D01C4AD821F8680DF008FA30
:1000B0001C4A01211C480DF077F978617B69BB600F
:1000C000BB68002B04D0144ADD21B8680DF0F8F9A4
:1000D000164A012116480DF067F978617B697B604B
:1000E0007B68002B04D00C4AE22178680DF0E8F917
:1000F000104A012110480DF057F978617B693B6087
:100100003B68002B04D0044AE72138680DF0D8F989
:1001100000BF1837BD4680BD60F30200D5FE010068
:1001200050F30200E9FE010054F3020081FF0100D8
:1001300058F302002D0002005CF3020080B500AF0E
:10014000194B51221A60184B64225A60164B012237
:100150009A60154B01221A73134914480CF0ECFAFB
:10016000134B8C221A60124B4FF496725A60104B4C
:100170000A229A600E4B00221A730D490D480CF0AA
:10018000DBFA0D4B64221A600B4B4FF4FA725A6083
:10019000094B01229A60084B00221A73064907484E
:1001A0000CF0CAFA00BF80BDEC260020FC2600201F
:1001B00004270020142700201C2700202C270020C3
:1001C00080B586B000AF284B00224FF4803118462E
:1001D0000DF01EF978617B693B613B69002B05D00E
:1001E000224A4FF4877138690DF06AF9204B0022DA
:1001F0004FF4004118460DF00BF978617B69FB6004
:10020000FB68002B05D0194A40F21111F8680DF077
:1002100057F9184B002242F2666118460DF0F8F8C3
:1002200078617B69BB60BB68002B05D00F4A4FF437
:100230008A71B8680DF044F90F4B00224FF4203159
:1002400018460DF0E5F878617B697B607B68002BD0
:1002500005D0064A40F2171178680DF031F900BF59
:100260001837BD4680BD00BF3427002060F3020070
:1002700054270020742700209427002080B483B0E6
:1002800000AF786000BF0C37BD465DF8047B704757
:1002900080B582B000AF00200BF0D8FE78607B689C
:1002A0003B603B68002B05D0044A40F235113868AA
:1002B0000DF006F900BF0837BD4680BD60F30200AF
:1002C00073DF704700BF184680B400AF034B1B7844
:1002D0001846BD465DF8047B704700BF9228002099
:1002E00080B485B000AF78600023FB600AE07A68D4
:1002F000FB6813441B78002B01D0012306E0FB6848
:100300000133FB60FB68052BF1D900231846143735
:10031000BD465DF8047B704780B483B000AF0346F0
:10032000FB71FB795A1C084B83FB02135910D3173E
:10033000C91A0B469B000B44D11ACBB218460C3796
:10034000BD465DF8047B70476766666680B483B01F
:1003500000AF78607B68DB7B012B03D17B689A88D8
:10036000034B1A8000BF0C37BD465DF8047B704715
:100370008428002080B584B000AF78600D4B002247
:100380001A707B689A880C4B1B889A420ED1012008
:1003900000F06CFAF860FB68002B07D0074B1B6875
:1003A000002B03D0054B1B68F868984700BF103737
:1003B000BD4680BD90280020842800208C28002085
:1003C00080B584B000AF78607B681B7A002B15D1B4
:1003D0000C4B1B781846FFF79FFF0346184600F0AA
:1003E00045FAF860FB68002B09D0074B1B68002B0F
:1003F00005D0054B1B68F868984700E000BF103730
:10040000BD4680BDBC2700208C28002080B582B06E
:1004100000AF3B1D18460BF07DF97B68002B14BF25
:1004200001230023DBB218460837BD4680BD00BF5C
:1004300080B584B000AF0346FB711C48FFF750FF46
:100440000346FB73FB79013B032B29D801A252F829
:1004500023F000BF65040200770402008904020053
:1004600095040200124B5B78002B04D0FB7B002B21
:1004700001D0012315E00E4B9B78002B04D0FB7BB1
:10048000002B01D002230CE0094BDB78002B01D0BC
:10049000032306E0064B1B79002B01D0042300E068
:1004A000002318461037BD4680BD00BFE527002059
:1004B000C027002080B483B000AF78600A4B0122CF
:1004C0001A707B68094A5A607B6801221A707B683F
:1004D00000229A817B6800225A81002318460C373B
:1004E000BD465DF8047B7047BB270020E427002051
:1004F00080B483B000AF78600C4B02221A707B6826
:100500000B4A5A607B6801221A700A4BDB689AB268
:100510007B689A81074B9B689AB27B685A8100235B
:1005200018460C37BD465DF8047B7047BB2700209A
:10053000E4270020C027002080B584B000AF786099
:100540001A4B1B699AB27B685A81184B5B699AB245
:100550007B689A81154B1B78002B1FD0144B1B789E
:1005600083F00103DBB2002B18D0FFF7ADFE03468A
:10057000002B13D07B6802221A720E4B0422DA7011
:1005800000210C4801F0FEFFF860FB68002B01D051
:10059000FB6807E0084B05221A7002E0064B0322B5
:1005A0001A70002318461037BD4680BDC0270020B2
:1005B00090280020EC270020BB27002080B584B0C5
:1005C00000AF78601A4B9B699AB27B685A81184BCE
:1005D000DB699AB27B689A81154B1B78002B1FD080
:1005E000144B1B7883F00103DBB2002B18D0FFF70C
:1005F0006BFE0346002B13D07B6802221A720E4B4F
:100600000422DA7000210C4801F0BCFFF860FB689E
:10061000002B01D0FB6807E0084B06221A7002E0AD
:10062000064B04221A70002318461037BD4680BDC1
:10063000C027002090280020EC270020BB270020A6
:1006400080B483B000AF0346FB71044AFB7913709A
:1006500000BF0C37BD465DF8047B7047E0270020E3
:10066000B0B588B000AFF860B9607A603B60FB68F5
:10067000002B02D07B68002B01D10E23D5E06D4BFF
:1006800001221A706C4B00221A706C4A7B68144667
:100690001D460FCD0FC495E80F0084E80F00684B8E
:1006A00000221A70674A3B681360674A3B6B13600D
:1006B000664B4FF6FF721A800722002164480EF045
:1006C000F6F83C22002163480EF0F1F8FB681A7836
:1006D000604B1A70FB689A785E4B9A70FB68DA7808
:1006E0005C4BDA70FB685A785A4B5A70594BFA686F
:1006F0001033103292E8030083E80300554BFA6888
:100700000833083292E8030083E80300514BFA688B
:100710001833183292E8030083E80300FB685B6A31
:10072000002B29D04B4B4C4A5A624B4B4B4A9A6098
:10073000484B5B6AFA68526A12881A80454B5B6ABA
:10074000FA68526A92889A800023FB610DE0FB6888
:100750005B6A9A68FB6913441978404AFB69134441
:100760000A461A70FB690133FB613A4B5B6A9B884E
:100770001A46FB699A42EAD8FB689B6A002B33D081
:10078000374B384A9A60334B354A9A62314B9B6AF1
:10079000344A9A602F4B9B6AFA68926A92889A80D0
:1007A0002C4B9B6AFA68926A12881A800023BB61FC
:1007B0000DE0FB689B6A9A68BB6913441978294A63
:1007C000BB6913440A461A70BB690133BB61214BF4
:1007D0009B6A9B881A46BB699A42EAD8FB6893F8E1
:1007E0002C201C4B83F82C20FB681B6A002B0ED09E
:1007F000184B1D4A1A62174B1B6AFA68126A528814
:100800005A80144B1B6AFA68126A12881A80FB68B5
:100810005B68002B03D0FB685B680E4A5360B968C5
:100820000C4801F0AFFE78617B6918462037BD4661
:10083000B0BD00BFB9270020BC270020C027002082
:10084000E0270020882800208C2800208428002011
:10085000E4270020EC27002028280020342800204E
:1008600054280020602800208028002080B588B00F
:1008700000AF0346FB71664B1B7883F00103DBB2CC
:10088000002B01D00823BFE0624AFB791370FFF709
:10089000BDFD0346002B04D05F4B01221A700023DC
:1008A000B2E0072200215D480EF001F85C4B5B7856
:1008B000002B03D0574B1B78012B0FD0584B9B7844
:1008C000002B03D0534B1B78012B07D0544B9B7844
:1008D000002B12D04F4B1B78022B0ED1514B1B68B3
:1008E000002B07D0504B01221A704E4B1B6808207A
:1008F000984702E04C4B00221A70FB791846FFF72C
:1009000097FD03461A46434B1A70464B1B68002B53
:100910001DD0404B1B78032B03D03E4B1B78042B80
:1009200015D13F4B1B78002B11D0404B1B7883F027
:100930000103DBB2002B0AD03D4B00221A703D4B65
:1009400001221A70374B1B680720984702E0394B89
:1009500000221A7007F10C031022002118460DF036
:10096000A6FF00233B7300233B752A4B1B78042B07
:100970002CD801A252F823F0C50902008D0902000B
:100980009B090200A9090200B709020007F10C0344
:100990001846FFF78FFDF86119E007F10C031846C0
:1009A000FFF7A6FDF86112E007F10C031846FFF708
:1009B000C3FDF8610BE007F10C031846FFF7FEFDDD
:1009C000F86104E01C4B00221A7000E000BF114BDC
:1009D0001B78002B0DD0194B1A7807F10C03114628
:1009E0001846FFF76DFCF861FB69002B01D0FB692D
:1009F0000AE00C4B1B68002B05D00A4B1B680E4A03
:100A0000127810469847002318462037BD4680BD0F
:100A1000B9270020BC270020BA270020E4270020A7
:100A2000C027002088280020EB27002090280020E5
:100A30009228002091280020BB270020E0270020DA
:100A400080B582B000AF78607B681B88112B08D01E
:100A50001B2B0AD0102B00D00BE07868FFF776FC38
:100A600007E07868FFF786FC03E07868FFF7A8FCEA
:100A700000BF00BF0837BD4680BD00BF80B584B051
:100A800000AF78607B68023B012B18D80F4B1B78B6
:100A9000002B16D00D4B00221A700D4B1B781846F8
:100AA000FFF7E4FEF860FB68002B0AD0094B1B68D7
:100AB000002B06D0074B1B68F868984701E000BF81
:100AC00000E000BF00BF1037BD4680BDBA27002040
:100AD000BC2700208C280020A0DF704700BF1846EC
:100AE000A2DF704700BF1846A3DF704700BF18465B
:100AF000A4DF704700BF1846A6DF704700BF184646
:100B000080B483B000AF786039603B689A887B68B6
:100B10005A8200BF0C37BD465DF8047B704700BFAA
:100B200080B483B000AF786039607B684FF6FF72A5
:100B30005A8200BF0C37BD465DF8047B704700BF8A
:100B400080B584B000AF786039607B681B7D002B76
:100B500024D03B680633FB60FB681A887B685B899E
:100B60009A421BD1FB685B89022B17D17B681B68FB
:100B7000002B13D0FB680C33184602F073F90346C0
:100B8000002B02D000233B7201E001233B727B6803
:100B90001B6807F1080211467868984700BF1037B4
:100BA000BD4680BD80B582B000AF786039607B689B
:100BB000002B1AD03B68002B17D03B681B88112BE9
:100BC00009D0502B0CD0102B00D00FE0396878687A
:100BD000FFF796FF0AE039687868FFF7A1FF05E0A4
:100BE00039687868FFF7ACFF00E000BF0837BD4602
:100BF00080BD00BF80B594B000AF786039607B687D
:100C00001B7D002B1FD007F128030322002118466B
:100C10000DF04DFE97F82830012262F3030387F8A8
:100C2000283097F82830012262F3071387F828301C
:100C30003B685B7B87F8293097F82A30012262F302
:100C4000420387F82A3007F12C031C2200211846A2
:100C50000DF02DFE97F82C3043F0020387F82C306E
:100C60007B681B7D03F00103DAB297F82C3062F346
:100C7000041387F82C3000233B630023BB6300235D
:100C8000FB637B681B7D002B02D007F1280300E08B
:100C900000233B6400237B640123BB7442F61923C9
:100CA0003B8207F10C030322002118460DF0FFFDE3
:100CB0003B689B7B3B733B68DB7B7B73BB7B01228D
:100CC00062F34203BB73BB7B6FF3C303BB73BB7B9A
:100CD0006FF30413BB73BB7B6FF30003BB733B6801
:100CE0001B7BFB7207F114031422002118460DF040
:100CF000DEFD07F110037B6107F10C03BB610123EB
:100D0000BB830023FB8301233B8407F10B037B623E
:100D10007B6898887B68063307F1140207F12C0181
:100D2000FFF7DEFEF864FB6C002B01D0FB6C62E089
:100D30003B689B68002B5AD00123BB7442F6081312
:100D40003B8207F10C030322002118460DF0AFFD92
:100D50003B681B7C3B737B7B6FF303037B737B7B69
:100D60006FF307137B73BB7B012262F34203BB73F8
:100D7000BB7B6FF3C303BB73BB7B6FF30413BB730A
:100D8000BB7B6FF30003BB733B689A6807F10803F2
:100D90001146184602F07CF8034687F84B3007F1FD
:100DA00014031422002118460DF081FD07F11003F1
:100DB0007B6107F10C03BB6197F84B309BB2BB839F
:100DC0000023FB83BB8B3B8407F108037B627B68BA
:100DD000D8887B6803F10E0207F114031946FFF768
:100DE00083FEF864FB6C002B04D0FB6C03E07B6893
:100DF0000022DA81002318465037BD4680BD00BF6F
:100E000080B584B000AF786039607B68002B02D079
:100E10003B68002B01D10E2326E03B681A687B68F3
:100E20001A607B684FF6FF725A823B681A797B68BA
:100E30001A757B68FF221A740123BB7241F60F03F7
:100E40003B817B681A1D07F1080319460120FFF753
:100E500043FEF860FB68002B01D0FB6804E03968B2
:100E60007868FFF7C7FE034618461037BD4680BDB9
:100E700080B58AB000AF78600B46FB707B68002BB2
:100E800001D10E2350E000237B627B681A7CFB7843
:100E90009A4248D007F11C030822002118460DF0A1
:100EA00006FD0123BB830023FB83FB1C3B627B68A5
:100EB000588A7B68DB8807F11C021946FFF718FE89
:100EC00078627B6A002B09D1FA787B681A747B6898
:100ED0005B8A4FF6FF72934223D001E07B6A23E0E6
:100EE0007B681B7D002B1CD007F10C031022002116
:100EF00018460DF0DCFC7B68DB88BB810123BB73EB
:100F0000FB8B3B8207F11C037B613B6ABB617B6807
:100F10005B8A07F10C0211461846FFF7EDFD786277
:100F200001E008237B627B6A18462837BD4680BDF6
:100F300080B483B000AF03463960FB80FB88DAB22F
:100F40003B681A703B680133FA88120A92B2D2B237
:100F50001A70022318460C37BD465DF8047B7047B3
:100F6000A0DF704700BF1846A2DF704700BF1846D9
:100F70002DE9B04F86B000AFF860B960BB68002BB8
:100F800014BF01230023DBB27B617B69002B04D1FA
:100F9000324A4D2100200CF093FAFB68002B14BF5D
:100FA00001230023DBB23B613B69002B04D12B4AB8
:100FB0004E2100200CF084FABB68D3E90023D2B2A2
:100FC000FB681A70FB68591CBB68D3E900234FEA21
:100FD000122A4AEA036A4FEA132B5FFA8AF30B706C
:100FE000FB68991CBB68D3E900234FEA124848EA22
:100FF00003484FEA13495FFA88F30B70FB68D91C6A
:10100000BB68D3E90023140E44EA03241D0EE3B2A7
:101010000B70FB681A1DBB68D3E9003423003B60EA
:1010200000237B603B781370FB680533BA689268D5
:10103000D2B21A70FB680633BA689268120AD2B24A
:101040001A70FB680733BA689268120CD2B21A7031
:1010500000BF1837BD46BDE8B08F00BF74F3020073
:1010600080B586B000AF786039600023FB753B68BF
:10107000002B14BF01230023DBB23B613B69002B33
:1010800004D12B4A652100200CF01AFA7B68002B52
:1010900014BF01230023DBB2FB60FB68002B04D1EB
:1010A000234A662100200CF00BFAFB7D5A1CFA75CE
:1010B0001A467B6813443A6812781A703B6858885D
:1010C000FB7D7A6813441946FFF732FF03461A4640
:1010D000FB7D1344FB753B689888FB7D7A6813445D
:1010E0001946FFF725FF03461A46FB7D1344FB759F
:1010F0003B68D888FB7D7A6813441946FFF718FFD0
:1011000003461A46FB7D1344FB75FB7D072B0CBF82
:1011100001230023DBB2BB60BB68002B04D1044A6F
:101120006E2100200CF0CCF900BF1837BD4680BD01
:1011300074F3020080B594B000AFB9607B600346E1
:10114000FB811346BB81BB68002B14BF0123002326
:10115000DBB2FB64FB6C002B04D1394A87210020F1
:101160000CF0AEF9BB89002B14BF01230023DBB2C6
:10117000BB64BB6C002B04D1314A882100200CF0E9
:101180009FF907F128031C22002118460DF08FFB60
:1011900097F8283043F0020387F828300023FB62D9
:1011A00000237B630023BB630023FB6300233B64BA
:1011B000012387F84630FB89A7F8443007F1100374
:1011C0000322002118460DF072FB7B681B783B74EC
:1011D0007B685B787B74BB7C012262F34203BB7447
:1011E000BB7C6FF3C303BB74BB7C6FF30413BB7492
:1011F000BB7C6FF30003BB7407F1140314220021BE
:1012000018460DF054FB07F144037B6107F110030E
:10121000BB61BB89BB830023FB83BB893B84BB6869
:101220007B62084B188807F1140207F12801BB6D97
:10123000FFF79AFE034618465037BD4680BD00BFF3
:1012400074F302009428002080B58AB002AF786061
:101250000123BB7641F60A033B8307F118037C4A5E
:1012600019460120FFF77CFEF861FB69002B01D0D5
:10127000FB69E9E07B681B88002B13D07B68596809
:101280007B681A887B6803F13C00724B009303462D
:1012900042F62920FFF74EFFF861FB69002B01D0D1
:1012A000FB69D1E07B681B89002B13D07B68D96870
:1012B0007B681A897B6803F13C00674B0093034607
:1012C00042F62420FFF736FFF861FB69002B01D0BE
:1012D000FB69B9E07B681B8A002B13D07B685969D6
:1012E0007B681A8A7B6803F13C005C4B00930346E1
:1012F00042F62520FFF71EFFF861FB69002B01D0A5
:10130000FB69A1E07B681B8B002B13D07B68D9693C
:101310007B681A8B7B6803F13C00514B00930346BA
:1013200042F62720FFF706FFF861FB69002B01D08A
:10133000FB6989E07B681B8C002B13D07B68596AA2
:101340007B681A8C7B6803F13C00464B0093034694
:1013500042F62620FFF7EEFEF861FB69002B01D074
:10136000FB6971E07B681B8D002B13D07B68D96A09
:101370007B681A8D7B6803F13C003B4B009303466E
:1013800042F62820FFF7D6FEF861FB69002B01D05A
:10139000FB6959E07B681B6B002B1AD07B681A6BCA
:1013A00007F1100311461846FFF7E2FD7B6803F1D1
:1013B0003C0207F110012D4B00931346082242F620
:1013C0002320FFF7B7FEF861FB69002B01D0FB6912
:1013D0003AE07B685B6B002B16D07B685B6B19680F
:1013E0007B685B6B1B799AB27B6803F13C00204BF6
:1013F0000093034642F62A20FFF79CFEF861FB6942
:10140000002B01D0FB691FE07B689B6B002B1AD07F
:101410007B689A6B07F1080311461846FFF720FE18
:101420007B6803F13C0207F10801124B009313465D
:10143000072242F65020FFF77DFEF861FB69002B82
:1014400001D0FB6900E0002318462037BD4680BD6F
:101450009428002098280020A0280020A8280020F8
:10146000B0280020B8280020C0280020C82800206C
:10147000D0280020D828002080B483B000AF0346D5
:101480003960FB80FB88DAB23B681A703B68013335
:10149000FA88120A92B2D2B21A70022318460C3796
:1014A000BD465DF8047B7047A0DF704700BF18465B
:1014B000A2DF704700BF1846A6DF704700BF18467E
:1014C00080B483B000AF786039603B689A887B68ED
:1014D0001A8400BF0C37BD465DF8047B704700BF1F
:1014E00080B483B000AF786039607B684FF6FF72DC
:1014F0001A8400BF0C37BD465DF8047B704700BFFF
:1015000080B584B000AF786039603B685B89022B9E
:1015100017D17B681B68002B13D03B680C3318462F
:1015200001F0A0FC0346002B02D000233B7301E036
:1015300001233B737B681B6807F10C021146786836
:10154000984700BF1037BD4680BD00BF80B584B04E
:1015500000AF786039603B680633FB60FB681A882F
:101560007B689B899A4203D1F9687868FFF7C8FFC6
:1015700000BF1037BD4680BD80B582B000AF786037
:1015800039603B681B88112B09D0502B0CD0102BD5
:1015900000D00EE039687868FFF792FF09E03968FB
:1015A0007868FFF79DFF04E039687868FFF7CEFFA1
:1015B00000BF00BF0837BD4680BD00BF80B586B004
:1015C00000AFF8600B467A607B810023FB75012336
:1015D000BB75FB685B79002B03D0FB7D43F00403F4
:1015E000FB75FB6893F82230002B03D0FB7D43F0A2
:1015F0000203FB757B89FF2B11D9FB7D43F00103AF
:10160000FB75BB7D7A681A447B8911461846FFF743
:1016100033FF03461A46BB7D1344BB7508E0BB7D10
:101620005A1CBA751A467B6813447A89D2B21A706A
:10163000FB68B3F84C30002B03D0FB7D43F0100364
:10164000FB7500233B612EE0BB7D0233FA6892F804
:101650004E20934213D9FB6803F124003B691033F9
:101660005B00FA681344191DFB68B3F84C301A4646
:101670003B69D31A5B001A460DF0FEF81AE0FA68CF
:101680003B6910335B0013449888BB7D7A68134430
:101690001946FFF7F1FE03461A46BB7D1344BB759E
:1016A0003B6901333B61FB68B3F84C301A463B6938
:1016B0009A42C9DCFB68B3F84C203B699BB2D31A51
:1016C0009AB2FB68A3F84C207B68FA7D1A70BB7D48
:1016D00018461837BD4680BD80B5B8B000AF7860F9
:1016E000396007F1C0030322002118460DF0DFF82E
:1016F00097F8C030012262F3030387F8C03097F8EF
:10170000C030012262F3071387F8C0303B681B7BAF
:1017100087F8C13097F8C230012262F3420387F89C
:10172000C23007F1C4031C22002118460DF0BFF897
:1017300097F8C43043F0100387F8C4300023C7F88B
:10174000C8300023C7F8D0300023C7F8D43007F1E1
:10175000C003C7F8D8300023C7F8DC30012387F86E
:10176000AA3042F63723A7F8A83007F1A4030322D2
:10177000002118460DF09BF83B685B7B87F8A4308E
:101780003B689B7B87F8A53097F8A630012262F36F
:10179000420387F8A63097F8A6306FF3C30387F8A3
:1017A000A63097F8A6306FF3041387F8A63097F8A1
:1017B000A63043F0010387F8A63007F1AC031422EA
:1017C000002118460DF073F807F1A803C7F8AC30F4
:1017D00007F1A403C7F8B03007F108031A46002147
:1017E0007868FFF7EBFE03469BB2A7F8B4300023FE
:1017F000A7F8B6309B23A7F8B83007F10803C7F85D
:10180000BC307B68D8887B68083307F1AC0207F1ED
:10181000C401FFF74DFE03461846E037BD4680BDC4
:1018200080B590B000AF7860396007F124031C22C6
:10183000002118460DF03BF897F8243043F00203DE
:1018400087F824300023BB6200233B6300237B63C3
:101850000023BB630023FB630123BB7342F63823E1
:10186000BB8107F108030322002118460DF01FF881
:101870003B68DB7B3B723B681B7C7B72BB7A012243
:1018800062F34203BB72BB7A6FF3C303BB72BB7AD2
:101890006FF30413BB72BB7A6FF30003BB7207F1E3
:1018A00010031422002118460DF001F807F10C0373
:1018B0003B6107F108037B6101233B8300237B83AA
:1018C0000123BB833B689B683B627B68D8887B684D
:1018D000103307F1100207F12401FFF7E9FD034679
:1018E00018464037BD4680BD80B584B000AF7860F3
:1018F00039603B681A687B681A603B681A797B68B4
:101900005A717B684FF6FF721A847B68002283F855
:1019100022207B680022A3F84C207B689B2283F85E
:101920004E200123BB7241F60D033B817B689A1D5B
:1019300007F1080319460120FFF7B6FDF860FB68C0
:10194000002B01D0FB6818E039687868FFF7C4FE07
:10195000F860FB68002B01D0FB680EE03B689B68D9
:10196000002B09D039687868FFF75AFFF860FB68E8
:10197000002B01D0FB6800E0002318461037BD465D
:1019800080BD00BF80B5B0B000AF78600B467B80F3
:101990007B681B8C4FF6FF7293423ED007F10C021E
:1019A0007B8819467868FFF709FE0346A7F8BA3026
:1019B000B7F8BA30A7F8B83007F1A8031022002111
:1019C00018460CF074FF7B681B89A7F8A830012328
:1019D00087F8AA300023A7F8AC3007F1B803C7F89E
:1019E000B03007F10C03C7F8B4307B681B8C07F1EB
:1019F000A80211461846FFF75FFDC7F8BC00D7F8EC
:101A0000BC30002B0CD1B7F8B830B7F8BA209A42E6
:101A100006D00C23C7F8BC3002E00823C7F8BC305E
:101A2000D7F8BC301846C037BD4680BD80B582B0FF
:101A300000AF78600B467B807B68B3F84C30142B8A
:101A400010D17B6803F124007B68263326221946D7
:101A50000CF012FF7B68B3F84C30013B9AB27B6804
:101A6000A3F84C207B68B3F84C305A1C91B27A68CA
:101A7000A2F84C107A6810335B0013447A889A807D
:101A800000BF0837BD4680BD80B483B000AF78602A
:101A90000B46FB707B68FA7883F8222000BF0C3776
:101AA000BD465DF8047B704780B483B000AF7860BA
:101AB00039607B681A8C3B685B889A420DD13B6821
:101AC0001B8840F67722934207D13B689B88DBB2A4
:101AD000033BDAB27B6883F84E2000BF0C37BD466B
:101AE0005DF8047B704700BF6DDF704700BF18468C
:101AF00072DF704700BF184679DF704700BF184695
:101B00007DDF704700BF184664DF704700BF18468E
:101B100080B483B000AF03463960FB80FB88DAB243
:101B20003B681A703B680133FA88120A92B2D2B24B
:101B30001A70022318460C37BD465DF8047B7047C7
:101B400080B588B000AFF860B9601346FB80BB6811
:101B50001B8803F10902FB889A4201D90C2352E049
:101B600007F114031846FFF7BFFFF861FB69002B6C
:101B700001D0FB6947E0BB681B881A46FB68134429
:101B800008221A70BB681B8801339AB2BB681A809E
:101B9000BB681B881A46FB6813441B221A70BB687B
:101BA0001B8801339AB2BB681A80BB681B881A462F
:101BB000FB68981807F114030133062219460CF04C
:101BC00050FEBB681B8806339AB2BB681A803B7D07
:101BD00023F00103DBB2002B07D1BB681B881A4638
:101BE000FB68134400221A7006E0BB681B881A4683
:101BF000FB68134401221A70BB681B8801339AB238
:101C0000BB681A80002318462037BD4680BD00BF40
:101C100080B588B000AFF860B9607A607B80FB68FF
:101C20001B78012B05D1FB685B78002B01D10723C2
:101C300077E07B681B889A1C7B889A420DD8FB68EA
:101C40001B78012B0BD17B681B881A46FB685B78DD
:101C500013449A1C7B889A4201D90C2361E07B686B
:101C60001B887A88D31A9BB2023BBB83BB8BFB8257
:101C70007B681B880233BA68134407F116021146C9
:101C80001846FFF73DFFB861BB69002B01D0BB6967
:101C900047E0FB681B78022B06D1FB8ABA8B9A427D
:101CA00002D30923FB7712E00823FB77FB681B783C
:101CB000012B0AD1FB685B789BB2BA8B9A4204D3A2
:101CC000FB685B789BB2FB8201E0BB8BFB82FB8AEB
:101CD000FE2B01D90C2324E07B681B881A46BB68C5
:101CE0001344FA8AD2B20132D2B21A707B681B88CE
:101CF00001339AB27B681A807B681B881A46BB68DE
:101D00001344FA7F1A707B681B8801339AB27B6890
:101D10001A807B681A88FB8A13449AB27B681A80FF
:101D2000002318462037BD4680BD00BF80B586B071
:101D300000AFF860B9601346FB80BB681B881A1DB2
:101D4000FB889A4201D90C2338E007F112031846A8
:101D5000FFF7D2FE78617B69002B01D07B692DE013
:101D6000BB681B881A46FB68134403221A70BB68C1
:101D70001B8801339AB2BB681A80BB681B881A465D
:101D8000FB68134419221A70BB681B8801339AB28E
:101D9000BB681A807A8ABB681B881946FB680B44AB
:101DA00019461046FFF7B4FE03461946BB681A8869
:101DB0008BB213449AB2BB681A80002318461837B6
:101DC000BD4680BD80B485B000AFB9607A601A4668
:101DD0000346FB731346BB817B681B88DA1CBB89F7
:101DE0009A4201D90C2327E07B681B881A46BB68FE
:101DF000134402221A707B681B8801339AB27B68F5
:101E00001A807B681B881A46BB68134401221A702B
:101E10007B681B8801339AB27B681A807B681B88B9
:101E20001A46BB681344FA7B1A707B681B8801331F
:101E30009AB27B681A80002318461437BD465DF8B5
:101E4000047B704780B485B000AFB9607A601A46F1
:101E50000346FB731346BB817B681B88DA1CBB8976
:101E60009A4201D90C2327E07B681B881A46BB687D
:101E7000134402221A707B681B8801339AB27B6874
:101E80001A807B681B881A46BB6813440A221A70A2
:101E90007B681B8801339AB27B681A807B681B8839
:101EA0001A46BB681344FA7B1A707B681B8801339F
:101EB0009AB27B681A80002318461437BD465DF835
:101EC000047B704780B58AB000AFF8607B600B463A
:101ED000FB721346BB72002387F823303B6B1B88D1
:101EE0003B8400237B6268E0FB685A687B6A9B0046
:101EF0001A4407F110031068186007F1170107F181
:101F0000100300221846FFF7FFFDF861FB69002B64
:101F100001D0FB696EE0FB7DBA7A9A424AD197F80C
:101F20002330002B01D0002300E00223FB763B6B23
:101F30001B881A46FB7D1A44FB7E1A44BB8E9A42CC
:101F400001DD0C2356E097F8233083F00103DBB268
:101F5000002B15D03B6B1B8801339AB23B6B1A8068
:101F60003B6B1B881A467B681344FA7A1A703B6BEA
:101F70001B8801339AB23B6B1A80012387F8233008
:101F80003B6B1B881A467B681A4407F1170107F15F
:101F900010031846FFF7B8FDF861FB69002B01D06C
:101FA000FB6927E03B6B1A88FB7D9BB213449AB216
:101FB0003B6B1A807B6A01337B62FB681B881A4685
:101FC0007B6A9A4290DC97F82330002B11D03B6B50
:101FD0001A883B8CD31A9BB2013B3B833B8BFF2B74
:101FE00001D90C2306E03B8C7A6813443A8BD2B2B9
:101FF0001A70002318462837BD4680BD80B588B0CA
:1020000002AFF8607B600B46FB721346BB72F97A35
:10201000BB8C01933B6A00937B680222F868FFF750
:1020200051FF78617B69002B01D07B6910E0B97AA0
:10203000BB8C01933B6A00937B681022F868FFF722
:1020400041FF78617B69002B01D07B6900E00023B0
:1020500018461837BD4680BD80B483B000AF7860A5
:102060007B681B88052B0AD97B681B88B3F5486FF2
:1020700007D97B681B884FF6FF72934201D0072374
:1020800025E07B685B88052B0AD97B685B88B3F504
:10209000486F07D97B685B884FF6FF72934201D087
:1020A000072314E07B681B884FF6FF7293420DD024
:1020B0007B685B884FF6FF72934207D07B681A8873
:1020C0007B685B889A4201D9072300E00023184609
:1020D0000C37BD465DF8047B704700BF80B586B005
:1020E00000AFF860B9607A607B807B681B889A1DBE
:1020F0007B889A4201D90C234BE0F868FFF7ACFFCC
:1021000078617B69002B01D07B6942E07B681B888A
:102110001A46BB68134405221A707B681B8801337A
:102120009AB27B681A807B681B881A46BB68134486
:1021300012221A707B681B8801339AB27B681A805E
:10214000FB681A887B681B881946BB680B441946D4
:102150001046FFF7DDFC034619467B681A888BB2F0
:1021600013449AB27B681A80FB685A887B681B8884
:102170001946BB680B4419461046FFF7C9FC0346D5
:1021800019467B681A888BB213449AB27B681A800E
:10219000002318461837BD4680BD00BF80B586B005
:1021A00000AFF860B9607A607B80FB689B8802337F
:1021B0007B617B681B881A467B6913449A1C7B8869
:1021C0009A4201D90C2354E07B69FE2B01D90C23E0
:1021D0004FE07B681B881A46BB6813447A69D2B209
:1021E0000132D2B21A707B681B8801339AB27B68C5
:1021F0001A807B681B881A46BB681344FF221A703A
:102200007B681B8801339AB27B681A80FB681A8846
:102210007B681B881946BB680B4419461046FFF7BC
:1022200077FC034619467B681A888BB213449AB22E
:102230007B681A80FB689B88002B19D0FB689B6821
:10224000002B01D1072314E07B681B881A46BB686A
:102250009818FB689968FB689B881A460CF001FB8C
:102260007B681A88FB689B8813449AB27B681A8043
:10227000002318461837BD4680BD00BF80B588B022
:1022800000AFF860B9607A607B80FB689B6A002BC6
:1022900001D107236DE00023FB7763E0FB68996AB7
:1022A000FA7F13465B0013449B000B44BB61BB6980
:1022B0009B8802337B617B69FE2B01D90C2358E09C
:1022C0007B681B881A46BB6813447A69D2B2013214
:1022D000D2B21A707B681B8801339AB27B681A806D
:1022E0007B681B881A46BB68134416221A707B68E9
:1022F0001B8801339AB27B681A80BB691A887B6895
:102300001B881946BB680B4419461046FFF700FCB2
:10231000034619467B681A888BB213449AB27B68CD
:102320001A80BB699B88002B19D0BB699B68002B66
:1023300001D107231DE07B681B881A46BB689818EB
:10234000BB699968BB699B881A460CF08AFA7B685E
:102350001A88BB699B8813449AB27B681A80FB7FFA
:102360000133FB77FB6893F82C30FA7F9A4295D3C0
:10237000002318462037BD4680BD00BF80B588B019
:1023800002AFF860B9607A6000237B617B681B88CC
:102390007B827B6800221A80FB6893F82D30002B2B
:1023A0000BD07B8A1A467968B868FFF7C9FB786159
:1023B0007B69002B01D07B69BAE0FB689B78002B1E
:1023C0000BD07B8A1A467968B868FFF7AFFC786152
:1023D0007B69002B01D07B69AAE0FB68DB78002BCE
:1023E0000DD0FB68DB7858B27B8A7A68B968FFF752
:1023F000E9FC78617B69002B01D07B6998E0FB6880
:102400005B68002B0ED0FB685B6893F900007B8A49
:102410007A68B968FFF716FD78617B69002B01D0F7
:102420007B6985E0FB681B89002B11D0FB6803F1F9
:1024300008007B8A01937B680093BB680622022117
:10244000FFF7DCFD78617B69002B01D07B696FE0D1
:10245000FB681B8A002B11D0FB6803F110007B8AFC
:1024600001937B680093BB6807220321FFF7C6FD39
:1024700078617B69002B01D07B6959E0FB681B8B7D
:10248000002B11D0FB6803F118007B8A01937B6855
:102490000093BB6815221421FFF7B0FD78617B69BA
:1024A000002B01D07B6943E0FB681B6A002B0CD03A
:1024B000FB68186A7B8A7A68B968FFF70FFE786153
:1024C0007B69002B01D07B6932E0FB685B6A002BE3
:1024D0000CD0FB68586A7B8A7A68B968FFF75EFEA1
:1024E00078617B69002B01D07B6921E0FB6893F860
:1024F0002C30002B0BD07B8A7A68B968F868FFF71C
:10250000BDFE78617B69002B01D07B6910E0FB6820
:102510001B78002B0BD07B8A7A68B968F868FFF7C4
:1025200077FB78617B69002B01D07B6900E07B69D8
:1025300018461837BD4680BD80B483B000AF7860C0
:102540007B68DB7803F00403002B01D1072300E054
:10255000002318460C37BD465DF8047B704700BF6A
:1025600080B483B000AF78607B68DB78002B01D04B
:10257000072300E0002318460C37BD465DF8047BB6
:10258000704700BF80B596B000AF786039601F23F8
:10259000A7F84A301F23A7F848307B68002B1AD0D1
:1025A0007868FFF7C9FFF864FB6C002B01D0FB6C67
:1025B00044E007F14A0207F1280319467868FFF75B
:1025C000DDFEF864FB6C002B01D0FB6C36E007F1FC
:1025D00028037B6504E000237B650023A7F84A30CD
:1025E0003B68002B1AD03868FFF7BAFFF864FB6C21
:1025F000002B01D0FB6C21E007F1480207F1080332
:1026000019463868FFF7BAFEF864FB6C002B01D05E
:10261000FB6C13E007F108033B6504E000233B6516
:102620000023A7F84830B7F84A30D9B2B7F8483095
:10263000DBB23A6D786DFFF75BFA03461846583700
:10264000BD4680BD75DF704700BF184676DF704716
:1026500000BF18467ADF704700BF18467BDF70471F
:1026600000BF184680B483B000AF78607B685A889A
:10267000094B1B889A4207D37B685A88064B5B88B4
:102680009A4201D8012300E0002318460C37BD46CA
:102690005DF8047B704700BFFC28002080B586B041
:1026A00000AF7860264B1B884FF6FF72934243D0F1
:1026B000244B1B780133DAB2224B1A70224B1A7B5F
:1026C000204B1B789A4212D31D4B1B881F4918467A
:1026D000FFF7B8FF78617B69002B2DD01A4B9B69FF
:1026E000002B29D0184B9B697869984724E0154B3B
:1026F00000221A70144B1B7C002B11D0104B1B882E
:102700003B211846FFF7A2FF38613B69002B07D039
:102710000D4B9B69002B03D00B4B9B693869984785
:10272000094B5B69002B07D000233B73064B5B69A9
:1027300007F10C021046984700BF1837BD4680BD10
:102740000629002004290020E0280020FC28002081
:10275000B0B584B000AF78601C4A7B6814461D4653
:102760000FCD0FC495E8070084E80700184B00223E
:102770001A707B681B68002B0ED07B681A68154B9B
:102780001068516803C31348FFF764FFF860FB68E3
:10279000002B0AD0FB6815E00E48FFF75FFFF860DA
:1027A000FB68002B01D0FB680CE00B4B4FF6FF726F
:1027B0001A800A4B00221A70094A002109480AF0BF
:1027C000F3FD034618461037BD46B0BDE028002093
:1027D00030290020FC2800200629002004290020A0
:1027E0009D260200C8F3020080B584B000AF2448E3
:1027F000FFF738FF034683F00103DBB2002B2DD037
:10280000204B1B78002B0BD01F4B5B69002B30D06B
:1028100000233B711C4B5B693A1D1046984728E02A
:102820001A4B1B78002B03D1174B5B68FB6002E04F
:10283000154B9B68FB60164B0022F96818460AF09E
:10284000E7FDB860BB68002B13D00F4B9B69002BD2
:102850000FD00D4B9B69B86898470AE00A4B5B693B
:10286000002B06D001233B70074B5B693A461046AC
:102870009847044B00221A7000BF1037BD4680BD38
:102880000829002030290020E02800200429002009
:102890001029002080B582B000AF78607B689A88EC
:1028A0000A4B1A800A4A7B68103393E8030082E8D7
:1028B0000300084B00221A70074BDB89002B01D163
:1028C000FFF792FF00BF0837BD4680BD06290020F4
:1028D0000829002004290020E028002080B584B0C9
:1028E00000AF78600D4B4FF6FF721A800C4B002240
:1028F0001A700C4B18460AF0BFFDF860FB68002BFD
:1029000007D0094B9B69002B03D0074B9B69F868E4
:10291000984700BF1037BD4680BD00BF0629002084
:102920000429002010290020E028002080B584B070
:1029300000AF78607B680633FB60FB681A88134B36
:10294000DB899A421ED1FB685B89022B1AD1FB6896
:102950000C33184600F086FA0346002B02D0FFF72E
:1029600043FF0FE00A4B18460AF086FDB860BB68CB
:10297000002B07D0054B9B69002B03D0034B9B69B1
:10298000B868984700BF1037BD4680BDE0280020DA
:102990001029002080B582B000AF7860064A7B68BD
:1029A000083393E8030082E80300FFF71DFF00BF30
:1029B0000837BD4680BD00BF0829002080B582B021
:1029C00000AF78607B681B88112B0DD0112B02DCC7
:1029D000102B05D014E0122B0ED0502B08D00FE096
:1029E0007868FFF757FF0BE07868FFF777FF07E09D
:1029F0007868FFF79BFF03E07868FFF7CBFF00BF25
:102A000000BF0837BD4680BD80B584B000AF034627
:102A1000FB80134B5B6CDB4318460AF0E7FE034672
:102A2000FB81FB894FF6FF72934213D0FB890C4A5E
:102A30005B001344FA889A80FA88012309490A48FE
:102A40000AF0F2FEFA880123084907480AF0ECFE72
:102A5000012300E0002318461037BD4680BD00BFAB
:102A6000342900207C2900203829002078290020E2
:102A700080B584B002AF0346FB80FA880023009340
:102A800013461D22034904480AF0E6FE00BF08373A
:102A9000BD4680BD782900203829002080B582B04D
:102AA00000AF0346FB80FA880023044904480AF07B
:102AB000BBFE00BF0837BD4680BD00BF7C2900209B
:102AC0003829002080B5A4B000AF174B9B6CDA43C7
:102AD000154B5B6C1A403B46144918460AF02CFF14
:102AE00007F148033946442218460BF0BAFE00238A
:102AF000C7F88C300FE0D7F88C305B0007F19002FC
:102B0000134433F8443C1846FFF7B2FFD7F88C3033
:102B10000133C7F88C30BA6CD7F88C309A42EAD8B7
:102B200000BF9037BD4680BD3429002038290020E1
:102B300080B483B000AF0346FB71094B1B68FA7980
:102B4000012101FA02F21340002B14BF01230023DC
:102B5000DBB218460C37BD465DF8047B704700BFFA
:102B60003429002080B483B000AF0346FB71074BCB
:102B70001B68FA79012101FA02F21343034A136038
:102B800000BF0C37BD465DF8047B70473429002038
:102B900080B584B000AF78607B681B88112B26D08D
:102BA0001A2B2AD0102B00D048E0FFF78BFF7B6850
:102BB0009B881846FFF728FF034683F00103DBB22A
:102BC000002B05D01F4AE02104200AF079FC35E0F3
:102BD0007B68DB7B022B0CBF01230023FB737B682C
:102BE0009A88FB7B184919480AF01EFE26E07B688C
:102BF0009B881846FFF752FF20E07B689A887B6825
:102C00001B7AC3F30313DBB2012BCCBF01230023D8
:102C1000DBB20F490D480AF007FE7B689A887B6893
:102C20001B7AC3F30313DBB2022BCCBF01230023B7
:102C3000DBB2084905480AF0F7FD00BF00BF1037B6
:102C4000BD4680BDCCF30200802900203829002039
:102C5000842900208829002080B584B000AF034675
:102C6000FB800023FB730F4B5B6CFA8819460E4800
:102C70000AF03AFE0346002B0FD00A4BDB6CFA88B1
:102C8000194609480AF030FE0346BB73BB7B002B94
:102C900001D0022300E00123FB73FB7B18461037B1
:102CA000BD4680BD342900203829002080B582B07F
:102CB00000AF0346FB80064B1B6DFA88194605489A
:102CC0000AF012FE034618460837BD4680BD00BF15
:102CD000342900203829002080B582B000AF034697
:102CE000FB80064B5B6DFA88194605480AF0FCFD2F
:102CF000034618460837BD4680BD00BF3429002072
:102D00003829002080B582B000AF7860054B5A6C3E
:102D10007B68054918460AF00FFE78680837BD46FB
:102D200080BD00BF342900203829002080B582B042
:102D300000AF0023FB7112E0FB791846FFF7F8FEA5
:102D4000034683F00103DBB2002B05D0FB79184664
:102D5000FFF708FFFB7906E0FB790133FB71FB7994
:102D6000172BE9D9182318460837BD4680BD00BF88
:102D700080B582B000AF03460A46FB8013467B71E4
:102D80007B791846FFF7D4FE0346002B0CD07B79E5
:102D9000084A14339B0013449B68FA881946064876
:102DA0000AF0A2FD034600E0002318460837BD469E
:102DB00080BD00BF342900203829002080B582B0B2
:102DC00000AF0346FB800B467B7113463B717B795A
:102DD0001846FFF7ADFE0346002B0BD07B7914336A
:102DE0009B00064A134403F108013B79FA88044822
:102DF0000AF01AFD00BF0837BD4680BD3429002007
:102E00003829002080B582B000AF0346FB71FB7902
:102E10001846FFF78DFE0346002B06D0FB79054AC6
:102E200014339B0013449B6800E0002318460837C6
:102E3000BD4680BD3429002080B483B000AF7860E7
:102E40007B681B781AB27B6801331B781B021BB2AC
:102E500013431BB29BB218460C37BD465DF8047B8A
:102E6000704700BF80B584B000AF78607868FFF726
:102E7000E3FF0346FB81FB8903F00103002B14BF32
:102E800001230023DBB218461037BD4680BD00BFCA
:102E900080B584B000AF786039600023FB73FB7BA2
:102EA0005A1CFA731A467B6813443A6812781A70EF
:102EB000FB7B5A1CFA731A467B6813443A685278B3
:102EC0001A70FB7B022B0CBF01230023DBB2BB601B
:102ED000BB68002B04D1054A472100200AF0F0FA14
:102EE000FB7B18461037BD4680BD00BF18F40200BA
:102EF00080B582B000AF7860396038680BF01AFD99
:102F000003469AB27B681A807B683A685A6000BFB1
:102F10000837BD4680BD00BF8FDF704700BF184631
:102F20009EDF704700BF1846ADDF704700BF1846F0
:102F300080B483B000AF78607B689E221A807B6883
:102F400017225A807B6800221A717B6800225A710E
:102F50007B68A2229A717B681B22DA7100BF0C3752
:102F6000BD465DF8047B704780B586B000AF034670
:102F70003960FB80FB883A68DB0013441B7B9BB203
:102F8000BB81FB883A68DB0013441B7B9BB2FB814F
:102F900000233B8200237B8207F10C01FB88002287
:102FA0001846FFF7B9FF78617B69002B05D0FA88D6
:102FB0007B690449012009F0A1F900BF1837BD461B
:102FC00080BD00BF64F4020080B586B000AF7860B9
:102FD00039603B689B88FB82FB8ADB007A6813447C
:102FE00006333B617B681A793B699A713B68DB7BEE
:102FF000012B02D0022B05D009E07B681A883B69BF
:103000001A8004E07B685A883B691A8000BF3B69DC
:103010001A883B695B889A421AD93B691A88FB8AED
:1030200011461846FFF77CFFF860FB68002B03D1C0
:103030003B6901225A710BE0FB68112B03D13B69FC
:1030400001221A7104E0FA680949012009F006F921
:103050003B699A793B69DB799A4204D9FB8A7968A2
:103060001846FFF781FF00BF1837BD4680BD00BF7F
:10307000D8F4020080B582B000AF786039603B6858
:103080009B88DB007A68134406331846FFF750FF2D
:1030900000BF0837BD4680BD80B586B000AF786000
:1030A00039603B689B88FB823B685B89BB82FB8AFB
:1030B000DB007A68134406333B613B691A88BB8A9C
:1030C000934228BF13469AB23B695A803B695B889A
:1030D000172B38BF17239AB23B695A807B681B694C
:1030E000002B12D03B695B79002B0ED040F6772382
:1030F0003B81FB8A7B813B695B88BB817B681B6969
:1031000007F108021146786898473B6900225A7116
:103110003B6900221A7100BF1837BD4680BD00BF51
:1031200080B588B000AF786039603B689B88FB83CE
:103130003B68DB88BB83FB8BDB007A681344063378
:10314000BB61BB8B172B38BF1723BB83BB691A88A6
:10315000BB8B934228BF13469AB2BB695A80BB69A6
:1031600000221A71BB691A88FB8B11461846FFF7BB
:10317000DBFE78617B69002B04D07A690F4901205E
:1031800009F06CF8BB695B79002B13D17B681B6974
:10319000002B10D040F67723BB81FB8BFB81BB69F2
:1031A0005B883B827B681B6907F10C0211467868DB
:1031B000984700E000BF2037BD4680BD34F50200CF
:1031C000B0B592B000AF786039603B6807F1100489
:1031D0001D1D0FCD0FC40FCD0FC40FCD0FC42B6815
:1031E00023603B8AA7F84630B7F84630BA8AD1B296
:1031F0007A68DB0013440A465A737B681B69002B0C
:1032000018D007F1080300221A609A804DF67A233D
:103210003B81B7F846307B81B7F846307A68DB00EF
:1032200013445B7B3B737B681B6907F10802114603
:103230007868984700BF4837BD46B0BD80B588B0B4
:1032400000AF786039603B680433FB61FB691B8821
:10325000DB007A6813440633BB61FB699B88FB750E
:10326000BB699A79FB7D934228BF1346BB7507F172
:10327000080300221A605A60BB7D9BB23B81BB7D74
:103280009BB27B81FB691B8807F10801002218466D
:10329000FFF742FE38613B69002B04D03A690449CC
:1032A000012008F0DBFF00BF2037BD4680BD00BF16
:1032B0008CF5020080B584B000AF786039607B681F
:1032C000002B01D10E231DE07B683A681A617B68F0
:1032D0009E221A807B689E225A807B68A2221A71E5
:1032E0000023FB600AE0FB68DB007A6813440633C6
:1032F0001846FFF71DFEFB680133FB60FB68002BDF
:10330000F1D0002318461037BD4680BD80B584B08B
:1033100000AF786039603B689B88FB81FB89002B9C
:103320005AD13B681B88212B26D0212B04DC102B83
:1033300009D0112B0CD024E03A2B0ED0552B11D0F4
:10334000222B14D01DE039687868FFF73DFE18E0A5
:1033500039687868FFF78EFE13E039687868FFF700
:103360009BFE0EE039687868FFF7DAFE09E03968FD
:103370007868FFF725FF04E039687868FFF75EFF9B
:1033800000BFFB897A68DB0013449B7A002B24D0B2
:10339000FB897A68DB001344DA88FB8911461846FA
:1033A000FFF7BEFDB860BB68002B0CD1FB897A68C3
:1033B000DB00134400229A72FB897A68DB00134415
:1033C0000122DA7209E0BB68112B06D0BA68044901
:1033D000012008F043FF00E000BF1037BD4680BD6C
:1033E000D8F4020080B483B000AF78607B68002B13
:1033F00014BF01230023DBB218460C37BD465DF82D
:10340000047B704780B400AF034B00221A7000BFEA
:10341000BD465DF8047B7047EC29002080B584B080
:1034200000AF78600023FB6008E0084AFB6852F8B0
:10343000233078689847FB680133FB60FB68002BFA
:10344000F3D000BF1037BD4680BD00BF6C25002003
:1034500080B483B000AF78607B689B79012B0BD17F
:103460007B681B79012B07D17B685B8842F60212CF
:10347000934201D1012300E0002303F00103DBB2FA
:1034800018460C37BD465DF8047B704780B588B0A0
:1034900000AF0346FB800023FB77FB884FF6FF72EB
:1034A000934251D0FB88184600F08EFCB861BB698E
:1034B0000B2B1ED00B2B02D8002B07D029E0112B91
:1034C00014D043F20202934235D022E002233B7330
:1034D000FB88184600F0CCFF0346FB81FB883B824B
:1034E00007F10C031846FFF799FF25E00123FB774E
:1034F00022E003233B73FB88184600F0B9FF034624
:10350000FB81FB883B8207F10C031846FFF786FF1F
:1035100012E009233B73FB88184600F0A9FF03461D
:10352000FB81FB883B82BB697B6107F10C0318467A
:10353000FFF774FF00E000BF054B1978FA7FFB88A6
:103540001846FFF73BFC00E000BF2037BD4680BDBA
:10355000EE29002080B588B000AF0346FB80002331
:10356000FB77FB88184600F0C7FBB861BB69112BDD
:103570001DD0112B04D8002B09D00C2B1AD039E008
:10358000862B27D043F20202934245D032E001233A
:103590003B73FB883B82FB88184600F069FF0346BB
:1035A000FB8107F10C031846FFF738FF35E00123D4
:1035B000FB7732E007233B73FB883B82FB8818468E
:1035C00000F056FF0346FB8107F10C031846FFF796
:1035D00025FF22E008233B73FB883B82FB881846CB
:1035E00000F046FF0346FB8107F10C031846FFF786
:1035F00015FF12E009233B73FB88184600F038FFE3
:103600000346FB81FB883B82BB697B6107F10C03AE
:103610001846FFF703FF00E000BF054B1978FA7F5B
:10362000FB881846FFF7CAFB00BF2037BD4680BDA8
:10363000ED29002080B588B000AF0346FB80012350
:10364000FB770023BB77FB88184600F059FCB86174
:10365000BB69082B23D0082B04D8002B0DD0062BD8
:103660001DD02CE043F2020293423AD043F20142D1
:1036700093421FD0112B36D021E00123BB770523C5
:103680003B73FB88184600F0F3FE0346FB81FB8882
:103690003B8207F10C031846FFF7C0FE24E000232D
:1036A000FB77FB88184600F0E3FE0346184600F05F
:1036B0004FFC19E0FB881846FFF7E8FE14E00923E9
:1036C0003B73FB883B82BB697B61FB88184600F03B
:1036D000CFFE0346FB8107F10C031846FFF79EFE61
:1036E00002E000BF00E000BF084B1978FA7FFB88BA
:1036F0001846FFF763FB064B1978BA7FFB8818461C
:10370000FFF75CFB00BF2037BD4680BDEF290020DE
:10371000F029002080B586B000AF78607B685B88B8
:103720007B817B681B78012B15D0022B1ED0002BD0
:1037300000D035E000233B7207F108031846FFF77D
:103740006DFE7B685B88184600F030FF0346184624
:10375000FFF79CFE24E001233B727B689B88BB81C2
:1037600007F108031846FFF759FE19E07B681B793B
:10377000002B14D07B685B88184600F017FF0346C7
:10378000FB82FB8A4FF6FF72934208D0064B1978F2
:10379000FB8A01221846FFF711FB00F017F900BF62
:1037A00000BF1837BD4680BDEF29002080B582B02C
:1037B00000AF78607B681B78012B00D015E07B6838
:1037C0005B881846FFF762FE7B685B88184600F04E
:1037D00079FB0346002B07D07B685888054B1B7884
:1037E00001221946FFF7EAFA00BF00BF0837BD46BD
:1037F00080BD00BFEF29002080B582B000AF7860A7
:103800007B681B78072B00D005E07B685B88184637
:10381000FFF7A0FE00BF00BF0837BD4680BD00BF58
:1038200080B500AFFFF7EEFDFFF780FA03461A46BA
:10383000154B1A70FFF77AFA03461A46134B1A70A3
:10384000FFF774FA03461A46114B1A70FFF76EFA27
:1038500003461A460F4B1A700B4B1B78182B0BD0D4
:103860000A4B1B78182B07D0094B1B78182B03D059
:10387000084B1B78182B01D1032303E0064B0122D0
:103880001A700023184680BDED290020EE29002083
:10389000EF290020F0290020EC29002080B5A6B0F7
:1038A00000AF234B1B781846FFF7ACFAC7F890001F
:1038B000D7F89000FFF796FD0346002B34D03B4627
:1038C0001846FFF71FFA07F14C0339464422184601
:1038D0000AF0C7FF0023C7F8943020E0D7F89430EF
:1038E0005B0007F19802134433F8482C104B1B7807
:1038F00019461046FFF73CFA0346002B0AD0D7F8CA
:1039000094305B0007F19802134433F8483C1846A2
:10391000FFF7BCFDD7F894300133C7F89430FA6C48
:10392000D7F894309A42D9D800BF9837BD4680BDA9
:10393000EE29002080B5A6B000AF234B1B781846B7
:10394000FFF760FAC7F89000D7F89000FFF74AFD3C
:103950000346002B34D03B461846FFF7D3F907F156
:103960004C033946442218460AF07BFF0023C7F86F
:10397000943020E0D7F894305B0007F198021344AC
:1039800033F8482C104B1B7819461046FFF7F0F916
:103990000346002B0AD0D7F894305B0007F1980259
:1039A000134433F8483C1846FFF7D4FDD7F8943059
:1039B0000133C7F89430FA6CD7F894309A42D9D8CA
:1039C00000BF9837BD4680BDED29002080B5A6B068
:1039D00000AF2D4B1B781846FFF714FAC7F890007C
:1039E000D7F89000FFF7FEFC0346002B48D03B467B
:1039F0001846FFF787F907F14C0339464422184669
:103A00000AF02FFF0023C7F8943034E0D7F8943041
:103A10005B0007F19802134433F8482C1A4B1B78CB
:103A200019461046FFF7A4F90346002B1ED0D7F81D
:103A300094305B0007F19802134433F8482C134B81
:103A40001B7819461046FFF793F9034683F00103EC
:103A5000DBB2002B0AD0D7F894305B0007F1980254
:103A6000134433F8483C1846FFF7E4FDD7F8943088
:103A70000133C7F89430FA6CD7F894309A42C5D81D
:103A800000BF9837BD4680BDEF290020F0290020F7
:103A900080B586B000AF78607B681B88522B04D05D
:103AA000542B08D0502B24D031E07B689B881846DB
:103AB000FFF7ECFC2BE006233B737B689B881846E2
:103AC00000F0D6FC0346FB817B689B883B82FB8928
:103AD000184600F03DFA7B689888124B1B7800224C
:103AE0001946FFF76BF907F10C031846FFF796FC30
:103AF0000DE07B6806331846FFF7AAFC0346002B4F
:103B000004D07B689B881846FFF724FD00BFFFF7B1
:103B1000C5FEFFF70FFFFFF759FF00BF1837BD467F
:103B200080BD00BFEF29002080B592B000AF00F04B
:103B3000B9F93B461846FFF7E5F80023A7F84630E9
:103B400023E0B7F846305B0007F14802134433F82E
:103B5000443C184600F08CFC03461A464FF6FF73AF
:103B60009A420DD1B7F846305B0007F14802134482
:103B700033F8440C0A4B1B7801221946FFF71EF953
:103B8000B7F846300133A7F84630B7F846203B680F
:103B90009A42D6D3FFF71AFF00BF4837BD4680BD13
:103BA000EF290020A7DF704700BF1846A9DF704744
:103BB00000BF1846AADF704700BF184680B400AFA8
:103BC000054B00221A70054B4FF6FF721A8000BF9A
:103BD000BD465DF8047B7047F1290020F2290020E2
:103BE00080B584B000AF78600023FB6008E0084A2D
:103BF000FB6852F8233078689847FB680133FB6014
:103C0000FB68002BF3D000BF1037BD4680BD00BF5E
:103C10007025002080B584B000AF164A3B1D92E8A5
:103C2000030083E80300144B1B88391D002218464B
:103C300001F0A6FFF86010E00F4B1B88184601F05A
:103C400083FF03461A460C4B1A800B4B1B88391D09
:103C50000022184601F094FFF860074B1B884FF6CE
:103C6000FF72934202D0FB68112BE5D100BF1037E1
:103C7000BD4680BDECF50200F229002080B588B079
:103C800000AF78607B681B78012B1BD17B681B79A8
:103C9000012B17D17B685B8807F1140201211846BC
:103CA00001F0D8FCF861FB69002B0BD102233B73B8
:103CB0007B685B88FB8101233B7407F10C0318468A
:103CC000FFF78EFF054B1B884FF6FF72934201D022
:103CD000FFF7A0FF00BF2037BD4680BDF2290020BE
:103CE00080B500AFFFF76AFF024B01221A70002374
:103CF000184680BDF129002080B58AB000AF034688
:103D0000FB80FB88184600F0B3FB0346FB83FB8B6C
:103D10004FF6FF72934202D143F2020350E00123B7
:103D20007B84002387F82130002387F821307B8CA7
:103D30005A1C7A841A4607F10C03F88B082101F00B
:103D40000BFD78627B6A002B30D13B69BB61BB699C
:103D500003221A60BB69991DBB691A1DBB691B68E8
:103D6000F888FFF727FF78627B6A002B06D1FB8B70
:103D70000821184601F03AFE78621CE07B6A0C2BA1
:103D800003D1012387F8213004E07B6A052B01D1A0
:103D900000237B62FB8B0821184601F0A1FD7861AE
:103DA0007B69002B07D003237B6204E07B6A072B2F
:103DB00001D10C237B6297F82130002BB4D17B6AB0
:103DC00018462837BD4680BD80B58AB000AF03468F
:103DD000FB80FB88184600F04BFB0346BB820023A8
:103DE0003B620023FB830323BB610123FB75BB8A7A
:103DF0004FF6FF72934215D007F10802BB8A0821E3
:103E0000184601F027FC78627B6A002B0AD1FB6818
:103E10003B613B6906333B623B699B88FB833B69A3
:103E20001B68BB61FA8BF888BB69396AFFF7BEFE75
:103E300078627B6A042B02D111237B6221E07B6ACA
:103E4000082B02D100237B621BE07B6A0B2B18D16D
:103E50000023FB75BB6903F00203002B02D0012392
:103E6000BB610EE03B6A002B02D1FB8B002B06D01E
:103E700000233B620023FB830323BB6101E0032398
:103E80007B627B6A0B2BCDD0FB7D83F00103DBB221
:103E9000002B01D00B237B627B6A18462837BD4676
:103EA00080BD00BF80B500AF4FF6FF7001F04CFE43
:103EB00003461A46024B1A80FFF7ACFE00BF80BDD6
:103EC000F229002080B586B000AF0346FB80FB8856
:103ED000184600F0CDFA0346FB8207F10802FB8A80
:103EE0000121184601F0B6FB38613B69002B01D077
:103EF000002301E0FB681B7818461837BD4680BDDB
:103F000080B584B000AF0346FB804FF6FF73FB81A2
:103F10000E4B1988FA89FB881846FFF743FEB860F4
:103F2000BB6843F20302934205D1084B1B8801335F
:103F30009AB2064B1A80BB6843F203029342E7D061
:103F4000BB6818461037BD4680BD00BFF42900206D
:103F500080B584B000AF0346FB80094A07F108032F
:103F600092E8030083E8030007F10801FB880022C0
:103F7000184601F005FE00BF1037BD4680BD00BFEA
:103F8000F4F5020043DF704700BF184680B483B0E9
:103F900000AF0E4B18221A7000237B600DE00C4915
:103FA0007A6813465B0013449B000B4402334FF6C0
:103FB000FF721A807B6801337B607B68132BEED91C
:103FC00000BF0C37BD465DF8047B7047E82A00202F
:103FD000F829002080B584B000AF78600023FB6032
:103FE00008E0084AFB6852F8233078689847FB6875
:103FF0000133FB60FB68012BF3D900BF1037BD46CE
:1040000080BD00BF04F6020080B582B000AF00237F
:104010007B601AE011497A6813465B0013449B00E9
:104020000B4402331A880E4B1B7819461046FEF7D4
:104030009FFE034683F00103DBB2002B02D07B68B6
:10404000DBB206E07B6801337B607B68132BE1D930
:10405000FF2318460837BD4680BD00BFF829002061
:10406000E82A002080B584B000AF0346FB80134BE4
:104070001A78FB8811461846FEF77AFE0346002B95
:1040800017D00023FB6011E00D49FA6813465B006E
:1040900013449B000B4402331B88FA889A4202D1D6
:1040A000FB68DBB206E0FB680133FB60FB68132BA7
:1040B000EAD9FF2318461037BD4680BDE82A002004
:1040C000F829002080B584B000AF03463960FB803A
:1040D000FF23FB733B68002B3ED0FB884FF6FF723B
:1040E000934239D01F4B1978FB8801221846FEF7FE
:1040F00065FEFB881846FFF7B5FF0346FB73FB7BA5
:10410000FF2B03D1FFF780FF0346FB73FB7BFF2BE5
:1041100022D0FA7B144913465B0013449B000B44E6
:104120000233FA881A80FA7B0F4913465B00134466
:104130009B000B444FF6FF721A80FA7B0A49134624
:104140005B0013449B000B443A680433106818600A
:104150009188927999809A71FB7B18461037BD46F9
:1041600080BD00BFE82A0020F829002080B485B077
:1041700000AF78600023FB600AE07A68FB681344B4
:104180001B78002B01D0012306E0FB680133FB60A4
:10419000FB680F2BF1D9002318461437BD465DF894
:1041A000047B704780B582B000AF786039607B686F
:1041B000002B02D03B68002B01D100231BE07B6861
:1041C0001B78C3F34603DAB23B681B78C3F346039C
:1041D000DBB29A4201D000230DE07B68581C3B689B
:1041E0000133062219460AF02DFB0346002B0CBFB3
:1041F00001230023DBB218460837BD4680BD00BF4F
:10420000B0B596B000AF78607B681B88102B40F08B
:1042100083807B6807F120041D1D0FCD0FC40FCDD7
:104220000FC40FCD0FC42B6823604FF6FF73A7F8A0
:10423000563097F8243023F00103DBB2062B49D027
:1042400000F0D6FD97F82430C3F34603DBB2002B11
:104250003FDB012B14DD022B2FD03AE0BB6903F1C9
:10426000110207F12003043311461846FFF79AFFA5
:104270000346002B04D0FB8BA7F8563000BF29E083
:1042800007F1140207F11E031946072000F0BCFDD8
:104290000346002BE2D11DE0BB695A1C07F1200345
:1042A00004331146184600F07FFA0346002B04D071
:1042B000FB8BA7F8563000BF0CE007F1140207F1A2
:1042C0001E031946072000F09FFD0346002BE3D193
:1042D00000E000BF3A8C07F1200304331946104672
:1042E000FFF7F0FE034687F85530B7F856304FF623
:1042F000FF72934211D03B8CB7F8562011461846F6
:1043000000F0C6F93B8CFB8101233B7307F10C03E2
:104310001846FFF75FFE00E000BF5837BD46B0BD4E
:1043200080B584B000AF786039607B68013318468F
:10433000FFF71CFF034683F00103DBB2002B01D023
:10434000002324E07B68581C3B6801331022194687
:104350000AF078FA0346002B0CBF01230023FB73FD
:104360007B6803F111023B68113319461046FFF7D1
:1043700019FF0346BB73FB7B002B02D1BB7B002BD9
:1043800001D0012300E0002303F00103DBB2184653
:104390001037BD4680BD00BF80B58AB000AF7860E1
:1043A0007B681B78002B42D17B681B79072B3ED1A1
:1043B0007B685B8807F118020721184601F04AF96B
:1043C00078627B6A002B34D100F012FD23E07B6819
:1043D0005A887B8C9A4200D11DE0FB697A691146AC
:1043E0001846FFF79DFF0346002B14D07B685B88BF
:1043F000184600F0DBF803467B8100233B727B68A4
:104400005B88BB817B8CFB8107F108031846FFF7B3
:10441000E1FD00BF0EE007F1100207F1220319468B
:10442000072000F0F1FC0346002BD0D102E000BFD2
:1044300000E000BF2837BD4680BD00BF80B500AF9B
:10444000FFF7A4FDFEF772FC03461A46064B1A70EE
:10445000054B1B78182B01D1032303E0034B0122EA
:104460001A700023184680BDE82A0020F629002093
:1044700080B584B000AF0346FB80FB881846FFF789
:10448000F1FD0346FB73FB7BFF2B08D0FA7B07494A
:1044900013465B0013449B000B441B8801E04FF65E
:1044A000FF7318461037BD4680BD00BFF8290020B5
:1044B00080B584B000AF03463960FB80FB881846A6
:1044C000FFF7D0FD0346FB73FB7BFF2B11D0FA7B7C
:1044D00038680A4913465B0013449B000B440246AC
:1044E00004331868106099889B7991809371002338
:1044F00000E0052318461037BD4680BDF82900208E
:1045000080B582B000AF78603960786800F07CF8E0
:10451000034683F00103DBB2002B01D0002315E03A
:104520007B681A883B681B889A4201D000230DE003
:104530007B68981C3B680233082219460AF082F90E
:104540000346002B0CBF01230023DBB218460837BB
:10455000BD4680BD80B586B000AF786000F048FCF5
:1045600013E03B69463319467868FFF7C9FF0346F5
:10457000002B08D13B692A3319467868FFF7C0FF42
:104580000346002B01D0FB8A0CE007F10C0207F177
:1045900016031946072000F037FC0346002BE0D134
:1045A0004FF6FF7318461837BD4680BD80B485B0FE
:1045B00000AF0346FB800023FB6017E01149FA6857
:1045C00013465B0013449B000B441B88FA889A42F5
:1045D00009D10C49FA6813465B0013449B000B4455
:1045E00002331B8807E0FB680133FB60FB68132B79
:1045F000E4D94FF6FF7318461437BD465DF8047BC7
:10460000704700BFF829002080B485B000AF786003
:104610007B681B88002B01D0012312E00023FB6084
:104620000BE07A68FB68134402331B78002B01D03F
:10463000012306E0FB680133FB60FB68072BF0D920
:10464000002318461437BD465DF8047B704700BF51
:1046500080B584B000AF03460A46FB801346BB809A
:10466000FB881846FFF7FEFC0346FB73FB7BFF2B22
:1046700008D0FA7B054913465B0013449B000B44AA
:10468000BA881A8000BF1037BD4680BDF8290020C7
:1046900080B582B000AF03460A46FB801346BB805C
:1046A000BA88FB8811461846FFF7D2FF00BF0837CB
:1046B000BD4680BD80B584B000AF0346FB80FB885B
:1046C0001846FFF773FF0346FB81FB88184600F08E
:1046D00077FFB860FB894FF6FF72934208D0BB6842
:1046E000002B05D1FB894FF6FF711846FFF7B0FF8D
:1046F000BB6818461037BD4680BD00BF80B594B07A
:1047000000AFF860B9607A600023FB640EE0FB6CD8
:10471000C3F10F03FA681344197807F11402FB6C14
:1047200013440A461A70FB6C0133FB64FB6C0F2BBD
:10473000EDD907F1140310330D22002118460AF0B9
:10474000B6F80023BB640EE0BB6CC3F10F03B9687D
:10475000BA6C0A44127807F150010B4403F82C2C70
:10476000BB6C0133BB64BB6C022BEDD907F11403A6
:104770001846FFF707FC00237B640EE07A687B6C29
:1047800013447A6CC2F10F0207F150010A4412F887
:104790001C2C1A707B6C01337B647B6C022BEDD973
:1047A00000BF5037BD4680BD80B586B000AF786091
:1047B00039607B681B7823F00103DBB2042B01D046
:1047C000002325E07B68591C07F1140303221846D7
:1047D0000AF047F87B68191D07F10C0303221846FD
:1047E0000AF03FF83B6807F1100207F10C01184688
:1047F000FFF784FF07F1100107F1140303221846A5
:104800000AF020F80346002B0CBF01230023DBB283
:1048100018461837BD4680BD80B584B000AF7860BB
:104820000023FB6005E0064B78689847FB6801337E
:10483000FB60FB68002BF6D000BF1037BD4680BD83
:10484000F952020080B483B000AF0346FB80FB88BE
:10485000A3F580439BB218460C37BD465DF8047B38
:10486000704700BF80B483B000AF0346FB80FB8875
:1048700003F580439BB218460C37BD465DF8047BB8
:10488000704700BF80B483B000AF0346FB71FB7973
:104890009BB2A3F580439BB218460C37BD465DF82A
:1048A000047B704780B483B000AF0346FB80FB8875
:1048B000DBB218460C37BD465DF8047B704700BF7D
:1048C00080B483B000AF0346FB80FB88B3F5404F54
:1048D00006D3FB884FF6FF72934201D0012300E01C
:1048E000002303F00103DBB218460C37BD465DF828
:1048F000047B704780B483B000AF0346FB80FB8825
:10490000B3F5404F06D3FB884FF6FF72934201D0B8
:10491000012300E0002303F00103DBB218460C374B
:10492000BD465DF8047B704780B483B000AF03469A
:10493000FB71FB79072B0ED0FB79012B0BD0FB7998
:10494000082B08D0FB79052B05D0FB79062B02D06C
:10495000FB79042B01D1012300E0002303F00103C4
:10496000DBB218460C37BD465DF8047B704700BFCC
:1049700080B58CB000AF07F114030822002118465F
:1049800009F095FF4FF6FF7001F040FA0346FB85F2
:1049900009E0FB8D184601F0A1F9FB8D184601F0E6
:1049A00035FA0346FB85FB8D4FF6FF7293420FD01D
:1049B000FB8D1846FFF746FF0346184607F1140221
:1049C00007F11C03194606F02FFB03460A2BE0D023
:1049D0001C4B1B7883F00103DBB2002B2DD0FB8D29
:1049E0004FF6FF72934228D0164B01221A70FB8DAE
:1049F0001846FFF727FF0346BB85BB8D184606F018
:104A00008DFAB862BB6A082B03D10F4B01221A70D2
:104A100013E0BB6A002B10D00A4B00221A70092346
:104A20003B71FB8DFB80FF233B720023FB60BB6A65
:104A30003B613B1D1846FFF7EFFE00BF3037BD4618
:104A400080BD00BFEB2A0020EA2A002080B586B096
:104A500000AF03463A60FB800B467B717B791846BA
:104A6000FFF762FF07F1080308220021184609F04A
:104A70001EFFFB881846FFF7E5FE0346FB827B79A5
:104A80001846FFF7FFFE0346BB8207F10803B98A09
:104A9000F88A3A6806F09EFA38613B69002B01D02B
:104AA000052300E0002318461837BD4680BD00BF2F
:104AB00080B588B000AF3B4608220021184609F0B7
:104AC000F6FE0720FFF7DEFE0346FB8317E007F143
